:020000040800F2
:10000000000001208D0B0008DD0B0008DD0B00084F
:10001000DD0B0008DD0B0008DD0B00080000000010
:10002000000000000000000000000000DD0B0008E0
:10003000DD0B000800000000DD0B0008050B0008C8
:1000400000000000DD0B0008DD0B0008DD0B0008E0
:10005000DD0B0008DD0B0008DD0B0008DD0B0008E0
:10006000DD0B0008DD0B0008DD0B0008DD0B0008D0
:10007000DD0B0008DD0B0008DD0B0008DD0B0008C0
:10008000DD0B0008DD0B0008DD0B000800000000A0
:10009000000000000000000000000000DD0B000870
:1000A000DD0B0008DD0B0008DD0B0008DD0B000890
:1000B000DD0B0008DD0B0008DD0B0008DD0B000880
:1000C000DD0B0008DD0B0008DD0B0008DD0B000870
:1000D000DD0B0008DD0B0008DD0B00080000000050
:1000E000DD0B0008DD0B0008DD0B00080000000040
:1000F000000000000000000000000000DD0B000810
:1001000000000000DD0B0008DD0B0008DD0B00081F
:1001100000000000000000000000000000000000DF
:10012000DD0B0008DD0B0008DD0B0008DD0B00080F
:10013000DD0B0008000000000000000000000000CF
:10014000000000000000000000000000DD0B0008BF
:10015000DD0B0008DD0B0008DD0B0008DD0B0008DF
:10016000DD0B0008DD0B00080000000000000000AF
:10017000000000000000000000000000000000007F
:10018000000000000000000000000000000000006F
:04019000DD0B00087B
:1001940010B5054C237833B9044B13B10448AFF3BD
:1001A40000800123237010BD3400002000000000F3
:1001B400280C000808B5034B1BB103490348AFF3EF
:1001C400008008BD0000000038000020280C000852
:1001D40080B500AF00F0EEFB0021002000F006FC2B
:1001E4000121002000F002FC034800F033F803482A
:1001F40000F030F800BF80BD000000201400002093
:1002040080B582B000AF0023FB7118E0FB7919467A
:100214000D4800F063F80023BB710AE0BB7919466E
:100224000A4800F05BF80A4800F042FCBB7901334D
:10023400BB71BB79092BF1D9FB790133FB71FB79D4
:10024400092BE3D9DFE700BF0000002014000020E1
:1002540080841E0080B584B000AF78600123FB73F6
:100264007B68002B32D00023BB7329E0BB7B7A6808
:1002740013445878BB7B7A6813449B7A012219464D
:1002840000F0DCF8BB7B7A6813445878BB7B7A684F
:1002940013449B7A0022194600F068F9BB7B7A6804
:1002A40013445878BB7B7A6813449B7A022219461C
:1002B40000F0EAF9786800F08DF8BB7B0133BB737A
:1002C400BB7B082BD2D90023FB7301E00323FB7310
:1002D400FB7B18461037BD4680BD000080B584B056
:1002E40000AF78600B46FB700123FB737B68002B27
:1002F40067D0FB78092B61D87B681B78012B29D147
:100304000023BB7318E0BB7B7A6813445878BB7B2B
:100314007A681344997AFB782D4AD35C1A46BB7BDE
:1003240042FA03F3DBB203F00103DBB21A4600F036
:100334003FFABB7B0133BB73BB7B062BE3D97B68E2
:10034400587A7B689B7C0022194600F031FA00231E
:10035400FB7338E07B681B78002B2CD100237B7364
:100364001BE07B7B7A68134458787B7B7A68134460
:10037400997AFB78164AD35C1A467B7B42FA03F3DC
:1003840003F00103002B0CBF01230023DBB21A4648
:1003940000F00EFA7B7B01337B737B7B062BE0D969
:1003A4007B68587A7B689B7C0122194600F000FA2E
:1003B4000023FB7307E00223FB7304E00223FB73B7
:1003C40001E00323FB73FB7B18461037BD4680BD59
:1003D4002800002080B584B000AF78600123FB734F
:1003E4007B68002B22D07B681B78012B0AD17B68A9
:1003F400187A7B685B7C0022194600F0D9F9002347
:10040400FB7310E07B681B78002B0AD17B68187A99
:100414007B685B7C0122194600F0CAF90023FB7358
:1004240001E00223FB730023FB7301E00323FB734E
:10043400FB7B18461037BD4680BD000080B485B0F4
:1004440000AF0346FB710B46BB7113467B7101235E
:10045400FB73FB79052B73D8BB790F2B70D87B7991
:10046400002B6DD07B79032B6AD8FB79052B63D8DD
:1004740001A252F823F000BF95040008B10400085B
:10048400CD040008E904000805050008210500085A
:10049400304B1B687979BA79520001FA02F211469D
:1004A4002C4A0B4313600023FB7348E02A4B1B6860
:1004B4007979BA79520001FA02F21146264A0B43BD
:1004C40013600023FB733AE0244B1B687979BA79F3
:1004D400520001FA02F21146204A0B431360002332
:1004E400FB732CE01E4B1B687979BA79520001FA30
:1004F40002F211461A4A0B4313600023FB731EE0F9
:10050400184B1B687979BA79520001FA02F2114644
:10051400144A0B4313600023FB7310E0124B1B6857
:100524007979BA79520001FA02F211460E4A0B4364
:1005340013600023FB7302E00223FB7300BF01E09E
:100544000223FB73FB7B18461437BD465DF8047B1E
:10055400704700BF0000024000040240000802404F
:10056400000C024000100240001C024080B485B020
:1005740000AF0346FB710B46BB7113467B7101232D
:10058400FB73FB79052B69D8BB790F2B66D87B7974
:10059400012B63D8FB79052B5CD801A252F823F018
:1005A400BD050008D7050008F10500080B06000882
:1005B400250600083F0600082D4B5B687979BA7957
:1005C40001FA02F211462A4A0B4353600023FB73DB
:1005D40043E0284B5B687979BA7901FA02F2114653
:1005E400244A0B4353600023FB7336E0224B5B68C1
:1005F4007979BA7901FA02F211461F4A0B43536022
:100604000023FB7329E01D4B5B687979BA7901FA01
:1006140002F21146194A0B4353600023FB731CE09A
:10062400174B5B687979BA7901FA02F21146144AD8
:100634000B4353600023FB730FE0124B5B68797923
:10064400BA7901FA02F211460E4A0B4353600023B1
:10065400FB7302E00223FB7300BF01E00223FB7380
:10066400FB7B18461437BD465DF8047B704700BF1A
:10067400000002400004024000080240000C024056
:1006840000100240001C024080B485B000AF034655
:10069400FB710B46BB7113467B710123FB73FB7922
:1006A400052B6FD8BB790F2B6CD87B79032B69D8BA
:1006B400FB79052B62D801A252F823F0D906000871
:1006C400F5060008110700082D070008490700086F
:1006D40065070008304B9B687979BA79520001FAB2
:1006E40002F211462C4A0B4393600023FB7348E04B
:1006F4002A4B9B687979BA79520001FA02F21146C1
:10070400264A0B4393600023FB733AE0244B9B6817
:100714007979BA79520001FA02F21146204A0B4360
:1007240093600023FB732CE01E4B9B687979BA79A4
:10073400520001FA02F211461A4A0B439360002355
:10074400FB731EE0184B9B687979BA79520001FA61
:1007540002F21146144A0B4393600023FB7310E02A
:10076400124B9B687979BA79520001FA02F2114668
:100774000E4A0B4393600023FB7302E00223FB73D6
:1007840000BF01E00223FB73FB7B18461437BD4610
:100794005DF8047B704700BF000002400004024083
:1007A40000080240000C024000100240001C0240FD
:1007B40080B485B000AF0346FB710B46BB71134692
:1007C4007B710123FB73FB79052B00F2DE80BB797F
:1007D4000F2B00F2DA807B79012B00F2D6807B7933
:1007E400012B62D1FB79052B5CD801A252F823F0CE
:1007F4000D08000827080008410800085B080008E5
:10080400750800088F080008644B5B69BA790121F8
:1008140001FA02F21146614A0B4353610023FB7350
:10082400B2E05F4B5B69BA79012101FA02F2114629
:100834005B4A0B4353610023FB73A5E0594B5B698F
:10084400BA79012101FA02F21146564A0B43536167
:100854000023FB7398E0544B5B69BA79012101FAD8
:1008640002F21146504A0B4353610023FB738BE0A1
:100874004E4B5B69BA79012101FA02F211464B4AE7
:100884000B4353610023FB737EE0494B5B69BA79E8
:10089400012101FA02F21146454A0B435361002338
:1008A400FB7371E00223FB736EE07B79002B68D14C
:1008B400FB79052B62D801A252F823F0D90800086D
:1008C400F5080008110900082D0900084909000865
:1008D40065090008314B5B69BA79012101FA02F21A
:1008E400D24311462D4A0B4053610023FB734BE066
:1008F4002B4B5B69BA79012101FA02F2D24311460A
:10090400274A0B4053610023FB733DE0254B5B6991
:10091400BA79012101FA02F2D2431146214A0B406D
:1009240053610023FB732FE01F4B5B69BA790121EC
:1009340001FA02F2D24311461B4A0B4053610023D1
:10094400FB7321E0194B5B69BA79012101FA02F2C8
:10095400D2431146154A0B4053610023FB7313E045
:10096400134B5B69BA79012101FA02F2D2431146B1
:100974000F4A0B4053610023FB7305E00223FB7312
:1009840002E00223FB7302E001E00223FB73FB7B22
:1009940018461437BD465DF8047B704700000240DA
:1009A4000004024000080240000C02400010024013
:1009B400001C024080B483B000AF0123FB710A4BDA
:1009C4009B68094A23F003039360074B1B68064A9C
:1009D40043F0010313600023FB71FB7918460C37C5
:1009E400BD465DF8047B70470038024080B485B092
:1009F40000AF03460A46FB711346BB710123FB7328
:100A0400FB79042B48D8BB791F2B45D8FB79032BE2
:100A14003ED801A252F823F02D0A0008470A000824
:100A2400610A00087B0A0008204B1B6BBA7901217C
:100A340001FA02F211461D4A0B4313630023FB73B0
:100A440029E01A4B5B6BBA79012101FA02F21146D3
:100A5400164A0B4353630023FB731CE0134B1B6CBC
:100A6400BA79012101FA02F21146104A0B431364C8
:100A74000023FB730FE00D4B5B6CBA79012101FA83
:100A840002F21146094A0B4353640023FB7302E04C
:100A94000323FB7302E001E00323FB73FB7B184693
:100AA4001437BD465DF8047B704700BF0038024030
:100AB40080B485B000AF78600123FB730F4A7B6874
:100AC40053600E4B1B680D4A43F00103136000BFD3
:100AD4000A4B1B6803F48033002BF9D0074B002228
:100AE4005A60064B00229A600023FB73FB7B184676
:100AF4001437BD465DF8047B704700BF10E000E08A
:100B040080B582B000AF194B1B68002B2AD000239C
:100B1400FB71174B1B78002B16D1164B1B681B0C53
:100B2400DBB203F00103FB71104B1B689847114BB8
:100B34001B68104A23F0010313600E4B00225A6015
:100B44000C4B00229A600DE0094B1B78012B09D154
:100B5400084B1B681B0CDBB203F00103FB71034B56
:100B64001B68984700BF0837BD4680BD5000002071
:100B74005400002010E000E080B500AFFFF728FB30
:100B8400FFF73EFB00BF80BD0D488546AFF30080F4
:100B94000C480D490D4A002302E0D458C4500433D4
:100BA400C4188C42F9D30A4A0A4C002301E01360AA
:100BB4000432A242FBD300F011F8FFF7DDFFFEE799
:100BC400000001200000002034000020480C000830
:100BD4003400002058000020FEE7000070B50D4DE1
:100BE4000D4C641BA4100026A64209D10B4D0C4CDD
:100BF40000F018F8641BA4100026A64205D170BDAD
:100C040055F8043B98470136EEE755F8043B9847FE
:100C14000136F2E7400C0008400C0008400C0008C4
:100C2400440C0008F8B500BFF8BC08BC9E467047E9
:0C0C3400F8B500BFF8BC08BC9E46704735
:040C4000B9010008EE
:040C4400950100080E
:100C4800000000000000000000000001020304058D
:100C58000607080000010101010101010100070860
:100C6800090A0C0D0E0F09003F065B4F666D7D07E4
:040C78007F6F00008A
:0400000508000B8D57
:00000001FF
