:100000000C942A000C9447000C9447000C94470071
:100010000C9447000C9447000C9447000C94470044
:100020000C9447000C9447000C9447000C94470034
:100030000C9447000C9447000C9447000C94470024
:100040000C9447000C9447000C9447000C94470014
:100050000C94470011241FBECFE5D8E0DEBFCDBF12
:1000600010E0A0E6B0E0E6EAF8E002C005900D92EC
:10007000A837B107D9F710E0A8E7B0E001C01D929A
:10008000AB37B107E1F70E9448040C9451040C947B
:100090000000DF93CF9300D00F92CDB7DEB79B83E4
:1000A0008A8381E089838A819B810097B1F0EA810C
:1000B000FB8122818A819B81622F0E947600898345
:1000C0008981882361F4EA81FB8123818A819B8174
:1000D000622F0E94FB00898302C082E089838981AC
:1000E0000F900F900F90CF91DF910895DF93CF93F2
:1000F00000D000D000D0CDB7DEB79B838A836C835D
:1001000081E089838A819B81009709F468C08C8192
:10011000282F30E03E832D838D819E81009731F022
:100120002D813E812130310571F15BC0EA81FB8177
:100130008081882F90E0880F991FFC01E05AFF4FC3
:10014000A081B181EA81FB818081882F90E0880FB6
:10015000991FFC01E05AFF4F0190F081E02D808152
:10016000482FEA81FB818181282F30E081E090E0F7
:10017000022E02C0880F991F0A94E2F7809584230B
:100180008C9319822EC0EA81FB818081882F90E0B8
:10019000880F991FFC01E05AFF4FA081B181EA81CD
:1001A000FB818081882F90E0880F991FFC01E05A25
:1001B000FF4F0190F081E02D8081482FEA81FB8183
:1001C0008181282F30E081E090E0022E02C0880F6C
:1001D000991F0A94E2F7842B8C93198202C082E063
:1001E0008983898126960FB6F894DEBF0FBECDBFF6
:1001F000CF91DF910895DF93CF9300D000D000D04E
:10020000CDB7DEB79B838A836C8381E089838A8143
:100210009B81009709F468C08C81282F30E03E83D1
:100220002D838D819E81009731F02D813E8121307B
:10023000310571F15BC0EA81FB818081882F90E0FC
:10024000880F991FFC01E859FF4FA081B181EA8115
:10025000FB818081882F90E0880F991FFC01E8596D
:10026000FF4F0190F081E02D8081482FEA81FB81D2
:100270008181282F30E081E090E0022E02C0880FBB
:10028000991F0A94E2F7809584238C9319822EC0DB
:10029000EA81FB818081882F90E0880F991FFC0103
:1002A000E859FF4FA081B181EA81FB818081882FCD
:1002B00090E0880F991FFC01E859FF4F0190F081F1
:1002C000E02D8081482FEA81FB818181282F30E059
:1002D00081E090E0022E02C0880F991F0A94E2F795
:1002E000842B8C93198202C082E0898389812696AF
:1002F0000FB6F894DEBF0FBECDBFCF91DF9108954A
:10030000DF93CF9300D000D00F92CDB7DEB79B83A1
:100310008A837D836C8381E089838A819B810097B6
:1003200011F1EA81FB818081882F90E0880F991F6D
:10033000FC01E059FF4F0190F081E02D8081282FD2
:1003400030E0EA81FB818181882F90E0A90102C021
:10035000559547958A95E2F7CA018170EC81FD8138
:100360008083198202C082E0898389810F900F9077
:100370000F900F900F90CF91DF910895DF93CF935F
:1003800000D00F92CDB7DEB79B838A8381E089834B
:100390008A819B81009761F1EA81FB818081882FAE
:1003A00090E0880F991FFC01E859FF4FA081B181AF
:1003B000EA81FB818081882F90E0880F991FFC01E2
:1003C000E859FF4F0190F081E02D8081482FEA81AC
:1003D000FB818181282F30E081E090E0022E02C075
:1003E000880F991F0A94E2F784278C93198202C020
:1003F00082E0898389810F900F900F90CF91DF91D8
:100400000895DF93CF93CDB7DEB728970FB6F89452
:10041000DEBF0FBECDBF8A836B834C8381E08983AF
:100420008B81282F30E038872F838F819885009724
:1004300031F02F8138852130310579F01CC08A8157
:10044000882F90E0880F991FFC01E05AFF4F019020
:10045000F081E02D108219820EC08A81882F90E0F1
:10046000880F991FFC01E05AFF4F0190F081E02DA9
:100470008FEF808319828C81282F30E03E832D837B
:100480008D819E81009731F02D813E812130310593
:1004900079F01CC08A81882F90E0880F991FFC0199
:1004A000E859FF4F0190F081E02D108219820EC0B3
:1004B0008A81882F90E0880F991FFC01E859FF4F2F
:1004C0000190F081E02D8FEF808319828981289639
:1004D0000FB6F894DEBF0FBECDBFCF91DF91089568
:1004E000DF93CF9300D000D00F92CDB7DEB78A83D1
:1004F0006B8381E089838B81282F30E03D832C83BF
:100500008C819D81009731F02C813D812130310516
:1005100079F01CC08A81882F90E0880F991FFC0118
:10052000E05AFF4F0190F081E02D108219820EC039
:100530008A81882F90E0880F991FFC01E05AFF4FB5
:100540000190F081E02D8FEF8083198289810F90D7
:100550000F900F900F900F90CF91DF910895DF9340
:10056000CF9300D000D00F92CDB7DEB78A836B83D4
:1005700081E089838B81282F30E03D832C838C811F
:100580009D81009731F02C813D812130310579F03A
:100590001CC08A81882F90E0880F991FFC01E859C0
:1005A000FF4F0190F081E02D108219820EC08A81E8
:1005B000882F90E0880F991FFC01E859FF4F0190A8
:1005C000F081E02D8FEF8083198289810F900F9049
:1005D0000F900F900F90CF91DF910895DF93CF93FD
:1005E00000D000D0CDB7DEB78A837C836B8381E0F7
:1005F00089838A81882F90E0880F991FFC01E05938
:10060000FF4F0190F081E02D8081EB81FC818083A0
:10061000198289810F900F900F900F90CF91DF91E9
:100620000895DF93CF9300D0CDB7DEB78A8381E002
:1006300089838A81882F90E0880F991FFC01E05AF6
:10064000FF4FA081B1818A81882F90E0880F991F88
:10065000FC01E05AFF4F0190F081E02D20818A815A
:10066000882F90E0880F991FFC01E05AFF4F0190FE
:10067000F081E02D808182278C93198289810F90EF
:100680000F90CF91DF910895DF93CF93CDB7DEB771
:1006900028970FB6F894DEBF0FBECDBF98878F8323
:1006A00081E08A8381E089838F8198850097D9F0E2
:1006B000EF81F8858181EF81F8859281EF81F8855E
:1006C00020818B839C8381E08D832E83CE010396D2
:1006D0000E94490089838981882311F41A8205C008
:1006E00081E08A8302C082E08A838A8128960FB6DD
:1006F000F894DEBF0FBECDBFCF91DF910895DF9399
:10070000CF93CDB7DEB728970FB6F894DEBF0FBEF4
:10071000CDBF98878F8381E08A8381E089838F8131
:1007200098850097E1F0EF81F8858181EF81F88568
:100730009281EF81F88520818B839C8381E08D837A
:100740002E83CE01039661E00E94FB00898389819C
:10075000882311F41A8205C081E08A8302C082E0F6
:100760008A838A8128960FB6F894DEBF0FBECDBF6C
:10077000CF91DF910895DF93CF93CDB7DEB7289760
:100780000FB6F894DEBF0FBECDBF98878F8381E090
:100790008A8381E089838F8198850097E1F0EF81DA
:1007A000F8858181EF81F8859281EF81F88520813C
:1007B0008B839C8381E08D832E83CE01039660E042
:1007C0000E94FB0089838981882311F41A8205C065
:1007D00081E08A8302C082E08A838A8128960FB6EC
:1007E000F894DEBF0FBECDBFCF91DF910895DF93A8
:1007F000CF93CDB7DEB728970FB6F894DEBF0FBE04
:10080000CDBF98878F8381E08A8381E089838F8140
:1008100098850097D9F0EF81F8858181EF81F8857F
:100820009281EF81F88520818B839C8381E08D8389
:100830002E83CE0103960E94BE018983898188237D
:1008400011F41A8205C081E08A8302C082E08A83A3
:100850008A8128960FB6F894DEBF0FBECDBFCF9128
:10086000DF910895DF93CF93CDB7DEB788E790E0AF
:100870000E944403CF91DF910895DF93CF93CDB7CA
:10088000DEB788E790E00E947F03CF91DF91089563
:10089000DF93CF93CDB7DEB70E9432040E943D04B0
:0608A000FFCFF894FFCF2A
:1008A6003A003700340031003B0038003500320092
:0808B600390036003300300068
:00000001FF
