:100000000C942A000C9447000C9447000C94470071
:100010000C9447000C9447000C9447000C94470044
:100020000C9447000C9447000C9447000C94470034
:100030000C9447000C9447000C9447000C94470024
:100040000C9447000C9447000C9447000C94470014
:100050000C94470011241FBECFE5D8E0DEBFCDBF12
:1000600010E0A0E6B0E0E6EEFCE002C005900D92E4
:10007000A639B107D9F710E0A6E9B0E001C01D929A
:10008000A939B107E1F70E9466060C9471060C9439
:100090000000DF93CF9300D00F92CDB7DEB79B83E4
:1000A0008A8381E089838A819B81009709F491C0CA
:1000B000A0E4B0E0E0E4F0E08081282F2F73EA8133
:1000C000FB818081882F90E09695982F88279795BF
:1000D0008795822B8C93A0E4B0E0E0E4F0E080818F
:1000E000282F2F7CEA81FB818181882F90E08295E7
:1000F0009295907F9827807F9827822B8C93A0E4FD
:10010000B0E0E0E4F0E08081282F277FEA81FB81E6
:100110008281882F90E0880F991F880F991F880F80
:10012000991F822B8C93A0E4B0E0E0E4F0E08081A2
:10013000282F287FEA81FB818381882F90E0880F18
:10014000991F822B8C93EA81FB818481882309F596
:10015000ABE2B0E0EBE2F0E080818D7F8C93A0E435
:10016000B0E0E0E4F0E080818F778C93A9E2B0E02A
:10017000EA81FB8185818C93A0E4B0E0EA81FB8178
:100180008581882F90E0892F990F990B8C93198284
:1001900022C0ABE2B0E0EBE2F0E0808182608C93C1
:1001A000A0E4B0E0E0E4F0E080818F778C93A9E2F6
:1001B000B0E0EA81FB81868197818C93A0E4B0E076
:1001C000EA81FB8186819781892F99278C931982F7
:1001D00002C082E0898389810F900F900F90CF91A8
:1001E000DF910895DF93CF930F92CDB7DEB781E013
:1001F0008983AAE2B0E0EAE2F0E0808180618C933A
:10020000AAE2B0E0EAE2F0E0808188608C93198293
:1002100089810F90CF91DF910895DF93CF9300D024
:100220000F92CDB7DEB79B838A8381E08983EBE2AF
:10023000F0E08081881F8827881F8130C1F7ECE2B9
:10024000F0E08081EA81FB818083ABE2B0E0EBE209
:10025000F0E080818F778C93198289810F900F90C5
:100260000F90CF91DF910895DF93CF9300D0CDB75A
:10027000DEB78A8381E08983EBE2F0E080818295BA
:1002800086958770882F90E0817090700097A1F319
:10029000ECE2F0E08A818083198289810F900F90CF
:1002A000CF91DF910895DF93CF9300D00F92CDB718
:1002B000DEB79B838A8381E089838A819B81009753
:1002C000B1F0EA81FB8122818A819B81622F0E94A9
:1002D000800189838981882361F4EA81FB812381FC
:1002E0008A819B81622F0E940502898302C082E07D
:1002F000898389810F900F900F90CF91DF9108959E
:10030000DF93CF9300D000D000D0CDB7DEB79B8372
:100310008A836C8381E089838A819B81009709F4B9
:1003200068C08C81282F30E03E832D838D819E8193
:10033000009731F02D813E812130310571F15BC094
:10034000EA81FB818081882F90E0880F991FFC0152
:10035000E05AFF4FA081B181EA81FB818081882F23
:1003600090E0880F991FFC01E05AFF4F0190F08147
:10037000E02D8081482FEA81FB818181282F30E0A8
:1003800081E090E0022E02C0880F991F0A94E2F7E4
:10039000809584238C9319822EC0EA81FB81808111
:1003A000882F90E0880F991FFC01E05AFF4FA08131
:1003B000B181EA81FB818081882F90E0880F991FAD
:1003C000FC01E05AFF4F0190F081E02D8081482F21
:1003D000EA81FB818181282F30E081E090E0022ECC
:1003E00002C0880F991F0A94E2F7842B8C9319821C
:1003F00002C082E08983898126960FB6F894DEBF19
:100400000FBECDBFCF91DF910895DF93CF9300D082
:1004100000D000D0CDB7DEB79B838A836C8381E0A8
:1004200089838A819B81009709F468C08C81282F79
:1004300030E03E832D838D819E81009731F02D81A8
:100440003E812130310571F15BC0EA81FB81808101
:10045000882F90E0880F991FFC01E859FF4FA08179
:10046000B181EA81FB818081882F90E0880F991FFC
:10047000FC01E859FF4F0190F081E02D8081482F69
:10048000EA81FB818181282F30E081E090E0022E1B
:1004900002C0880F991F0A94E2F7809584238C93F9
:1004A00019822EC0EA81FB818081882F90E0880F1D
:1004B000991FFC01E859FF4FA081B181EA81FB81BE
:1004C0008081882F90E0880F991FFC01E859FF4F29
:1004D0000190F081E02D8081482FEA81FB818181AC
:1004E000282F30E081E090E0022E02C0880F991F93
:1004F0000A94E2F7842B8C93198202C082E08983EC
:10050000898126960FB6F894DEBF0FBECDBFCF917E
:10051000DF910895DF93CF9300D000D00F92CDB735
:10052000DEB79B838A837D836C8381E089838A81A4
:100530009B81009711F1EA81FB818081882F90E0F7
:10054000880F991FFC01E059FF4F0190F081E02DC9
:100550008081282F30E0EA81FB818181882F90E023
:10056000A90102C0559547958A95E2F7CA018170A5
:10057000EC81FD818083198202C082E089838981B8
:100580000F900F900F900F900F90CF91DF910895E3
:10059000DF93CF9300D00F92CDB7DEB79B838A83D2
:1005A00081E089838A819B81009761F1EA81FB81E7
:1005B0008081882F90E0880F991FFC01E859FF4F38
:1005C000A081B181EA81FB818081882F90E0880F32
:1005D000991FFC01E859FF4F0190F081E02D8081C7
:1005E000482FEA81FB818181282F30E081E090E073
:1005F000022E02C0880F991F0A94E2F784278C9379
:10060000198202C082E0898389810F900F900F9038
:10061000CF91DF910895DF93CF93CDB7DEB72897C1
:100620000FB6F894DEBF0FBECDBF8A836B834C83B9
:1006300081E089838B81282F30E038872F838F8159
:100640009885009731F02F8138852130310579F078
:100650001CC08A81882F90E0880F991FFC01E05A06
:10066000FF4F0190F081E02D108219820EC08A8127
:10067000882F90E0880F991FFC01E05AFF4F0190EE
:10068000F081E02D8FEF808319828C81282F30E05C
:100690003E832D838D819E81009731F02D813E8197
:1006A0002130310579F01CC08A81882F90E0880FB5
:1006B000991FFC01E859FF4F0190F081E02D108255
:1006C00019820EC08A81882F90E0880F991FFC0143
:1006D000E859FF4F0190F081E02D8FEF8083198260
:1006E000898128960FB6F894DEBF0FBECDBFCF919B
:1006F000DF910895DF93CF9300D000D00F92CDB754
:10070000DEB78A836B8381E089838B81282F30E079
:100710003D832C838C819D81009731F02C813D811C
:100720002130310579F01CC08A81882F90E0880F34
:10073000991FFC01E05AFF4F0190F081E02D1082DB
:1007400019820EC08A81882F90E0880F991FFC01C2
:10075000E05AFF4F0190F081E02D8FEF80831982E6
:1007600089810F900F900F900F900F90CF91DF9194
:100770000895DF93CF9300D000D00F92CDB7DEB7AE
:100780008A836B8381E089838B81282F30E03D83CE
:100790002C838C819D81009731F02C813D8121300B
:1007A000310579F01CC08A81882F90E0880F991F4D
:1007B000FC01E859FF4F0190F081E02D1082198271
:1007C0000EC08A81882F90E0880F991FFC01E8599C
:1007D000FF4F0190F081E02D8FEF80831982898196
:1007E0000F900F900F900F900F90CF91DF91089581
:1007F000DF93CF9300D000D0CDB7DEB78A837C8360
:100800006B8381E089838A81882F90E0880F991F0C
:10081000FC01E059FF4F0190F081E02D8081EB81D8
:10082000FC818083198289810F900F900F900F9027
:10083000CF91DF910895DF93CF9300D0CDB7DEB78E
:100840008A8381E089838A81882F90E0880F991FAD
:10085000FC01E05AFF4FA081B1818A81882F90E08E
:10086000880F991FFC01E05AFF4F0190F081E02DA5
:1008700020818A81882F90E0880F991FFC01E05A1F
:10088000FF4F0190F081E02D808182278C931982A7
:1008900089810F900F90CF91DF910895DF93CF93CF
:1008A00000D00F92CDB7DEB78A836B8381E0898356
:1008B0008A81882F90E0880F991FFC01E859FF4F2B
:1008C000A081B1818A81882F90E0880F991FFC0157
:1008D000E859FF4F0190F081E02D80818F708C935B
:1008E0008A81882F90E0880F991FFC01E859FF4FFB
:1008F000A081B1818A81882F90E0880F991FFC0127
:10090000E859FF4F0190F081E02D8081282F8B81E5
:10091000882F90E082959295907F9827807F9827E6
:10092000822B8C93198289810F900F900F90CF9119
:10093000DF910895DF93CF93CDB7DEB727970FB63A
:10094000F894DEBF0FBECDBF8A834B835C836D837B
:100950007E8381E089838A81882F90E0880F991FA8
:10096000FC01E859FF4F0190F081E02D80818A81E0
:10097000882F90E0880F991FFC01E859FF4F0190E4
:10098000F081E02D10828A81882F90E0880F991FD6
:10099000FC01E859FF4FA081B1818A81882F90E046
:1009A000880F991FFC01E859FF4F0190F081E02D5D
:1009B00090818B81892B8C931982898127960FB620
:1009C000F894DEBF0FBECDBFCF91DF910895DF93C6
:1009D000CF93CDB7DEB728970FB6F894DEBF0FBE22
:1009E000CDBF98878F8381E08A8381E089838F815F
:1009F00098850097D9F0EF81F8858181EF81F8859E
:100A00009281EF81F88520818B839C8381E08D83A7
:100A10002E83CE0103960E94530189838981882306
:100A200011F41A8205C081E08A8302C082E08A83C1
:100A30008A8128960FB6F894DEBF0FBECDBFCF9146
:100A4000DF910895DF93CF93CDB7DEB728970FB628
:100A5000F894DEBF0FBECDBF98878F8381E08A8375
:100A600081E089838F8198850097E1F0EF81F88597
:100A70008181EF81F8859281EF81F88520818B83D8
:100A80009C8381E08D832E83CE01039661E00E94DA
:100A9000050289838981882311F41A8205C081E0C7
:100AA0008A8302C082E08A838A8128960FB6F894EE
:100AB000DEBF0FBECDBFCF91DF910895DF93CF93FF
:100AC000CDB7DEB728970FB6F894DEBF0FBECDBF07
:100AD00098878F8381E08A8381E089838F819885DD
:100AE0000097E1F0EF81F8858181EF81F8859281AF
:100AF000EF81F88520818B839C8381E08D832E8319
:100B0000CE01039660E00E940502898389818823D3
:100B100011F41A8205C081E08A8302C082E08A83D0
:100B20008A8128960FB6F894DEBF0FBECDBFCF9155
:100B3000DF910895DF93CF93CDB7DEB728970FB637
:100B4000F894DEBF0FBECDBF98878F8381E08A8384
:100B500081E089838F8198850097D9F0EF81F885AE
:100B60008181EF81F8859281EF81F88520818B83E7
:100B70009C8381E08D832E83CE0103960E94C80260
:100B800089838981882311F41A8205C081E08A83D0
:100B900002C082E08A838A8128960FB6F894DEBF6D
:100BA0000FBECDBFCF91DF910895DF93CF93CDB727
:100BB000DEB78DE890E00E9449000E94F20086E9CD
:100BC00090E00E94E70488E790E00E94E7048EE747
:100BD00090E00E94E7048BE790E00E94E70481E840
:100BE00090E00E94E70484E890E00E94E7048AE82D
:100BF00090E00E94E70487E890E00E94E704CF912C
:100C0000DF910895DF93CF930F92CDB7DEB783E2E4
:100C10008983CE0101960E940D0189810E943401D1
:100C200089818332B1F38981803339F486E990E098
:100C30000E949A0583E28983ECCF8981813339F45C
:100C400088E790E00E949A0583E28983E2CF898158
:100C5000823339F48BE790E00E949A0583E289831E
:100C6000D8CF8981833339F48EE790E00E949A05CA
:100C700083E28983CECF8981843339F481E890E09F
:100C80000E949A0583E28983C4CF8981853339F430
:100C900084E890E00E949A0583E28983BACF898133
:100CA000863339F487E890E00E949A0583E28983CD
:100CB000B0CF8981873339F48AE890E00E949A05A1
:100CC00083E28983A6CF83E28983A3CFDF93CF9387
:100CD000CDB7DEB70E94D5050E940206CF91DF9105
:060CE0000895F894FFCF17
:100CE6003A003700340031003B003800350032004E
:100CF6003900360033003000000001000002000019
:100D060003000004000005000006000007030000C1
:060D16000300336700003A
:00000001FF
