:100000000C942A000C9447000C9447000C94470071
:100010000C9447000C9447000C9447000C94470044
:100020000C9447000C9447000C9447000C94470034
:100030000C9447000C9447000C9447000C94470024
:100040000C9447000C9447000C9447000C94470014
:100050000C94470011241FBECFE5D8E0DEBFCDBF12
:1000600011E0A0E6B0E0E2E5F8E102C005900D92F3
:10007000A833B107D9F711E0A8E3B1E001C01D92A0
:10008000A835B107E1F70E941C0C0C94270C0C94C6
:100090000000DF93CF9300D00F92CDB7DEB79B83E4
:1000A0008A8381E089838A819B810097B1F0EA810C
:1000B000FB8122818A819B81622F0E947600898345
:1000C0008981882361F4EA81FB8123818A819B8174
:1000D000622F0E94FB00898302C082E089838981AC
:1000E0000F900F900F90CF91DF910895DF93CF93F2
:1000F00000D000D000D0CDB7DEB79B838A836C835D
:1001000081E089838A819B81009709F468C08C8192
:10011000282F30E03E832D838D819E81009731F022
:100120002D813E812130310571F15BC0EA81FB8177
:100130008081882F90E0880F991FFC01E05AFF4FC3
:10014000A081B181EA81FB818081882F90E0880FB6
:10015000991FFC01E05AFF4F0190F081E02D808152
:10016000482FEA81FB818181282F30E081E090E0F7
:10017000022E02C0880F991F0A94E2F7809584230B
:100180008C9319822EC0EA81FB818081882F90E0B8
:10019000880F991FFC01E05AFF4FA081B181EA81CD
:1001A000FB818081882F90E0880F991FFC01E05A25
:1001B000FF4F0190F081E02D8081482FEA81FB8183
:1001C0008181282F30E081E090E0022E02C0880F6C
:1001D000991F0A94E2F7842B8C93198202C082E063
:1001E0008983898126960FB6F894DEBF0FBECDBFF6
:1001F000CF91DF910895DF93CF9300D000D000D04E
:10020000CDB7DEB79B838A836C8381E089838A8143
:100210009B81009709F468C08C81282F30E03E83D1
:100220002D838D819E81009731F02D813E8121307B
:10023000310571F15BC0EA81FB818081882F90E0FC
:10024000880F991FFC01E859FF4FA081B181EA8115
:10025000FB818081882F90E0880F991FFC01E8596D
:10026000FF4F0190F081E02D8081482FEA81FB81D2
:100270008181282F30E081E090E0022E02C0880FBB
:10028000991F0A94E2F7809584238C9319822EC0DB
:10029000EA81FB818081882F90E0880F991FFC0103
:1002A000E859FF4FA081B181EA81FB818081882FCD
:1002B00090E0880F991FFC01E859FF4F0190F081F1
:1002C000E02D8081482FEA81FB818181282F30E059
:1002D00081E090E0022E02C0880F991F0A94E2F795
:1002E000842B8C93198202C082E0898389812696AF
:1002F0000FB6F894DEBF0FBECDBFCF91DF9108954A
:10030000DF93CF9300D000D00F92CDB7DEB79B83A1
:100310008A837D836C8381E089838A819B810097B6
:1003200011F1EA81FB818081882F90E0880F991F6D
:10033000FC01E059FF4F0190F081E02D8081282FD2
:1003400030E0EA81FB818181882F90E0A90102C021
:10035000559547958A95E2F7CA018170EC81FD8138
:100360008083198202C082E0898389810F900F9077
:100370000F900F900F90CF91DF910895DF93CF935F
:1003800000D00F92CDB7DEB79B838A8381E089834B
:100390008A819B81009761F1EA81FB818081882FAE
:1003A00090E0880F991FFC01E859FF4FA081B181AF
:1003B000EA81FB818081882F90E0880F991FFC01E2
:1003C000E859FF4F0190F081E02D8081482FEA81AC
:1003D000FB818181282F30E081E090E0022E02C075
:1003E000880F991F0A94E2F784278C93198202C020
:1003F00082E0898389810F900F900F90CF91DF91D8
:100400000895DF93CF93CDB7DEB728970FB6F89452
:10041000DEBF0FBECDBF8A836B834C8381E08983AF
:100420008B81282F30E038872F838F819885009724
:1004300031F02F8138852130310579F01CC08A8157
:10044000882F90E0880F991FFC01E05AFF4F019020
:10045000F081E02D108219820EC08A81882F90E0F1
:10046000880F991FFC01E05AFF4F0190F081E02DA9
:100470008FEF808319828C81282F30E03E832D837B
:100480008D819E81009731F02D813E812130310593
:1004900079F01CC08A81882F90E0880F991FFC0199
:1004A000E859FF4F0190F081E02D108219820EC0B3
:1004B0008A81882F90E0880F991FFC01E859FF4F2F
:1004C0000190F081E02D8FEF808319828981289639
:1004D0000FB6F894DEBF0FBECDBFCF91DF91089568
:1004E000DF93CF9300D000D00F92CDB7DEB78A83D1
:1004F0006B8381E089838B81282F30E03D832C83BF
:100500008C819D81009731F02C813D812130310516
:1005100079F01CC08A81882F90E0880F991FFC0118
:10052000E05AFF4F0190F081E02D108219820EC039
:100530008A81882F90E0880F991FFC01E05AFF4FB5
:100540000190F081E02D8FEF8083198289810F90D7
:100550000F900F900F900F90CF91DF910895DF9340
:10056000CF9300D000D00F92CDB7DEB78A836B83D4
:1005700081E089838B81282F30E03D832C838C811F
:100580009D81009731F02C813D812130310579F03A
:100590001CC08A81882F90E0880F991FFC01E859C0
:1005A000FF4F0190F081E02D108219820EC08A81E8
:1005B000882F90E0880F991FFC01E859FF4F0190A8
:1005C000F081E02D8FEF8083198289810F900F9049
:1005D0000F900F900F90CF91DF910895DF93CF93FD
:1005E00000D000D0CDB7DEB78A837C836B8381E0F7
:1005F00089838A81882F90E0880F991FFC01E05938
:10060000FF4F0190F081E02D8081EB81FC818083A0
:10061000198289810F900F900F900F90CF91DF91E9
:100620000895DF93CF9300D0CDB7DEB78A8381E002
:1006300089838A81882F90E0880F991FFC01E05AF6
:10064000FF4FA081B1818A81882F90E0880F991F88
:10065000FC01E05AFF4F0190F081E02D20818A815A
:10066000882F90E0880F991FFC01E05AFF4F0190FE
:10067000F081E02D808182278C93198289810F90EF
:100680000F90CF91DF910895DF93CF93CDB7DEB771
:10069000C454D0400FB6F894DEBF0FBECDBFFE01EC
:1006A000ED5BFF4F9183808381E08A8381E08983C2
:1006B000FE01ED5BFF4F80819181009709F4D2C16B
:1006C000FE01ED5BFF4F0190F081E02D80818130D4
:1006D00009F0DFC0FE01ED5BFF4F0190F081E02DDE
:1006E0009785FE01ED5BFF4F0190F081E02D808941
:1006F0009B838C8381E08D8381E08E83FE01ED5BA3
:10070000FF4F0190F081E02D9181FE01ED5BFF4FE5
:100710000190F081E02D82819F83888781E0898725
:1007200081E08A87FE01ED5BFF4F0190F081E02DB3
:100730009381FE01ED5BFF4F0190F081E02D8481FC
:100740009B878C8781E08D8781E08E87FE01ED5B42
:10075000FF4F0190F081E02D9581FE01ED5BFF4F91
:100760000190F081E02D86819F87888B81E0898BC5
:1007700081E08A8BFE01ED5BFF4F0190F081E02D5F
:100780009781FE01ED5BFF4F0190F081E02D8085A8
:100790009B8B8C8B81E08D8B81E08E8BFE01ED5BE2
:1007A000FF4F0190F081E02D9185FE01ED5BFF4F41
:1007B0000190F081E02D82859F8B888F81E0898F69
:1007C00081E08A8FFE01ED5BFF4F0190F081E02D0B
:1007D0009385FE01ED5BFF4F0190F081E02D848554
:1007E0009B8F8C8F81E08D8F81E08E8FFE01ED5B82
:1007F000FF4F0190F081E02D9585FE01ED5BFF4FED
:100800000190F081E02D86859F8F88A381E089A3E8
:1008100081E08AA3CE0103960E94490089838981E1
:10082000882329F4CE0107960E9449008983898193
:10083000882321F4CE010B960E94490089818823E8
:1008400021F4CE010F960E9449008981882321F46A
:10085000CE0143960E9449008981882321F4CE016C
:1008600047960E9449008981882321F4CE014B9646
:100870000E9449008981882321F4CE014F960E946D
:1008800049008981882311F41A82EEC081E08A83AD
:10089000EBC0FE01ED5BFF4F0190F081E02D808108
:1008A000882309F0E1C0FE01ED5BFF4F0190F0816C
:1008B000E02D9785FE01ED5BFF4F0190F081E02D6B
:1008C00080899BA38CA381E08DA31EA2FE01ED5B1A
:1008D000FF4F0190F081E02D9181FE01ED5BFF4F14
:1008E0000190F081E02D82819FA388A781E089A7F4
:1008F0001AA6FE01ED5BFF4F0190F081E02D938180
:10090000FE01ED5BFF4F0190F081E02D84819BA7FC
:100910008CA781E08DA71EA6FE01ED5BFF4F019025
:10092000F081E02D9581FE01ED5BFF4F0190F0819C
:10093000E02D86819FA788AB81E089AB1AAAFE01D2
:10094000ED5BFF4F0190F081E02D9781FE01ED5BA3
:10095000FF4F0190F081E02D80859BAB8CAB81E057
:100960008DAB1EAAFE01ED5BFF4F0190F081E02DE3
:100970009185FE01ED5BFF4F0190F081E02D8285B6
:100980009FAB88AF81E089AF1AAEFE01ED5BFF4FF0
:100990000190F081E02D9385FE01ED5BFF4F01900A
:1009A000F081E02D84859BAF8CAF81E08DAF1EAED2
:1009B000FE01ED5BFF4F0190F081E02D8585FE018A
:1009C000ED5BFF4F0190F081E02D9685FE01FF96D3
:1009D0008083FE01FF969183FE01FF9681E0828372
:1009E000FE01FF961382CE0183960E9449008983FF
:1009F0008981882329F4CE0187960E944900898342
:100A00008981882321F4CE018B960E944900898137
:100A1000882321F4CE018F960E9449008981882382
:100A200021F4CE01C3960E9449008981882321F4D4
:100A3000CE01C7960E9449008981882321F4CE0106
:100A4000CB960E9449008981882321F4CE01CF965C
:100A50000E9449008981882311F41A8205C081E02F
:100A60008A8302C082E08A838A81CC5BDF4F0FB623
:100A7000F894DEBF0FBECDBFCF91DF910895DF9315
:100A8000CF93CDB7DEB7ED970FB6F894DEBF0FBEAC
:100A9000CDBF9CAF8BAF6DAF81E08A8381E089834E
:100AA0008BAD9CAD009709F415C2EBADFCAD808118
:100AB000813009F008C1EBADFCAD9181EBADFCAD2F
:100AC00082819B838C8381E08D8381E08E83EBAD7B
:100AD000FCAD9381EBADFCAD84819F83888781E081
:100AE000898781E08A87EBADFCAD9581EBADFCADEC
:100AF00086819B878C8781E08D8781E08E87EBAD37
:100B0000FCAD9781EBADFCAD80859F87888B81E044
:100B1000898B81E08A8BEBADFCAD9185EBADFCADB3
:100B200082859B8B8C8B81E08D8B81E08E8BEBADF6
:100B3000FCAD9385EBADFCAD84859F8B888F81E008
:100B4000898F81E08A8FEBADFCAD9585EBADFCAD77
:100B500086859B8F8C8F81E08D8F81E08E8F8DAD10
:100B6000282F30E0C901880F991F880F991F880F1F
:100B7000991F821B930BFC01E254FF4F2081CE0191
:100B80000396622F0E94FB00898389818823B1F438
:100B90008DAD282F30E0C901880F991F880F991F4C
:100BA000880F991F821B930BFC01E154FF4F20819A
:100BB000CE010796622F0E94FB00898389818823DA
:100BC000B1F48DAD282F30E0C901880F991F880F2F
:100BD000991F880F991F821B930BFC01E054FF4F54
:100BE0002081CE010B96622F0E94FB0089838981B0
:100BF0008823B1F48DAD282F30E0C901880F991FEB
:100C0000880F991F880F991F821B930BFC01EF53CC
:100C1000FF4F2081CE010F96622F0E94FB00898337
:100C200089818823B1F48DAD282F30E0C901880F68
:100C3000991F880F991F880F991F821B930BFC0126
:100C4000EE53FF4F2081CE014396622F0E94FB009E
:100C5000898389818823B1F48DAD282F30E0C901C3
:100C6000880F991F880F991F880F991F821B930B5C
:100C7000FC01ED53FF4F2081CE014796622F0E9469
:100C8000FB00898389818823B1F48DAD282F30E062
:100C9000C901880F991F880F991F880F991F821B00
:100CA000930BFC01EC53FF4F2081CE014B96622F3A
:100CB0000E94FB0089838981882311F41A820CC168
:100CC00081E08A8309C1EBADFCAD8081882309F006
:100CD00003C1EBADFCAD9181EBADFCAD82819F8F8B
:100CE00088A381E089A31AA2EBADFCAD9381EBADA3
:100CF000FCAD84819BA38CA381E08DA31EA2EBADF0
:100D0000FCAD9581EBADFCAD86819FA388A781E00A
:100D100089A71AA6EBADFCAD9781EBADFCAD808544
:100D20009BA78CA781E08DA71EA6EBADFCAD91859E
:100D3000EBADFCAD82859FA788AB81E089AB1AAA99
:100D4000EBADFCAD9385EBADFCAD84859BAB8CAB83
:100D500081E08DAB1EAAEBADFCAD9585EBADFCAD96
:100D600086859FAB88AF81E089AF1AAE8DAD282F05
:100D700030E0C901880F991F880F991F880F991FAC
:100D8000821B930BFC01E858FF4F2081CE014F9648
:100D9000622F0E94FB00898389818823B1F48DAD85
:100DA000282F30E0C901880F991F880F991F880FDD
:100DB000991F821B930BFC01E758FF4F2081CE0146
:100DC0008396622F0E94FB00898389818823B1F476
:100DD0008DAD282F30E0C901880F991F880F991F0A
:100DE000880F991F821B930BFC01E658FF4F20814F
:100DF000CE018796622F0E94FB0089838981882318
:100E0000B1F48DAD282F30E0C901880F991F880FEC
:100E1000991F880F991F821B930BFC01E558FF4F08
:100E20002081CE018B96622F0E94FB0089838981ED
:100E30008823B1F48DAD282F30E0C901880F991FA8
:100E4000880F991F880F991F821B930BFC01E45890
:100E5000FF4F2081CE018F96622F0E94FB00898375
:100E600089818823B1F48DAD282F30E0C901880F26
:100E7000991F880F991F880F991F821B930BFC01E4
:100E8000E358FF4F2081CE01C396622F0E94FB00E2
:100E9000898389818823B1F48DAD282F30E0C90181
:100EA000880F991F880F991F880F991F821B930B1A
:100EB000FC01E258FF4F2081CE01C796622F0E94AD
:100EC000FB0089838981882311F41A8205C081E09F
:100ED0008A8302C082E08A838A81ED960FB6F894F5
:100EE000DEBF0FBECDBFCF91DF910895DF93CF93CB
:100EF000CDB7DEB72C970FB6F894DEBF0FBECDBFCF
:100F00009C878B8781E08A8381E089838B859C85A0
:100F10000097D9F1EB85FC8580818130C9F4EB85A0
:100F2000FC859189EB85FC8582899B838C8381E09C
:100F30008D8381E08E83CE0103960E9449008983D0
:100F40008981882311F41A8222C081E08A831FC01C
:100F5000EB85FC8580818823D1F4EB85FC85918924
:100F6000EB85FC8582899F83888781E089871A8643
:100F7000CE0107960E94490089838981882311F454
:100F80001A8205C081E08A8302C082E08A838A8156
:100F90002C960FB6F894DEBF0FBECDBFCF91DF9178
:100FA0000895DF93CF93CDB7DEB72C970FB6F894A3
:100FB000DEBF0FBECDBF9C878B8781E08A8381E037
:100FC00089838B859C850097D9F1EB85FC85808191
:100FD0008130C1F4EB85FC859189EB85FC858289A4
:100FE0009B838C8381E08D831E82CE0103960E94B9
:100FF000490089838981882311F41A8223C081E002
:101000008A8320C0EB85FC8580818823D9F4EB8519
:10101000FC859189EB85FC8582899F83888781E0A7
:10102000898781E08A87CE0107960E9449008983DB
:101030008981882311F41A8205C081E08A8302C065
:1010400082E08A838A812C960FB6F894DEBF0FBEA9
:10105000CDBFCF91DF910895DF93CF93CDB7DEB7AA
:10106000A0970FB6F894DEBF0FBECDBF98A38F8FA9
:1010700081E08A8381E089838F8D98A1009709F4AC
:1010800099C0EF8DF8A19281EF8DF8A183811B8229
:101090001C821D821E829B838C8381E08D83EF8D59
:1010A000F8A19481EF8DF8A185811F821886198699
:1010B0001A869F83888781E08987EF8DF8A19681C2
:1010C000EF8DF8A187811B861C861D861E869B8757
:1010D0008C8781E08D87EF8DF8A19085EF8DF8A149
:1010E00081851F86188A198A1A8A9F87888B81E0D2
:1010F000898BEF8DF8A19285EF8DF8A183851B8AEE
:101100001C8A1D8A1E8A9B8B8C8B81E08D8BEF8DB8
:10111000F8A19485EF8DF8A185851F8A188E198E08
:101120001A8E9F8B888F81E0898FEF8DF8A196852D
:10113000EF8DF8A187851B8E1C8E1D8E1E8E9B8FBA
:101140008C8F81E08D8FCE0103960E9449008983A8
:101150008981882321F4CE0107960E944900898164
:10116000882321F4CE010B960E94490089818823AF
:1011700021F4CE010F960E9449008981882321F431
:10118000CE0143960E9449008981882321F4CE0133
:1011900047960E9449008981882321F4CE014B960D
:1011A0000E9449008981882311F41A8205C081E0D8
:1011B0008A8302C082E08A838A81A0960FB6F8945F
:1011C000DEBF0FBECDBFCF91DF910895DF93CF93E8
:1011D000CDB7DEB7A5970FB6F894DEBF0FBECDBF73
:1011E0009CA38BA381E08A8381E089838BA19CA14E
:1011F000009709F4F7C0EBA1FCA18689882309F0C8
:1012000076C0EBA1FCA180818130C9F4EBA1FCA1E7
:101210009289EBA1FCA183899B838C8381E08D83E0
:1012200081E08E83CE0103960E94490089838981E3
:10123000882311F41A821FC081E08A831CC0EBA1AD
:10124000FCA180818823B9F4EBA1FCA19289EBA1D8
:10125000FCA183899F83888781E089871A86CE01D4
:1012600007960E94490089838981882311F41A8294
:1012700002C081E08A83EBA1FCA181818130C1F4AD
:10128000EBA1FCA19489EBA1FCA185899B878C87AC
:1012900081E08D871E86CE010B960E9449008983CE
:1012A0008981882311F41A829FC081E08A839CC0BF
:1012B000EBA1FCA18181882309F096C0EBA1FCA1E0
:1012C0009489EBA1FCA185899F87888B81E0898B1C
:1012D00081E08A8BCE010F960E9449008983898123
:1012E000882311F41A8280C081E08A837DC0EBA13B
:1012F000FCA18689813009F077C0EBA1FCA1818136
:101300008130C9F4EBA1FCA19489EBA1FCA18589F2
:101310009B8B8C8B81E08D8B81E08E8BCE014396F5
:101320000E94490089838981882311F41A821FC091
:1013300081E08A831CC0EBA1FCA181818823B9F4E0
:10134000EBA1FCA19489EBA1FCA185899F8B888FDF
:1013500081E0898F1A8ECE0147960E9449008983C9
:101360008981882311F41A8202C081E08A83EBA16B
:10137000FCA180818130C1F4EBA1FCA19289EBA199
:10138000FCA183899B8F8C8F81E08D8F1E8ECE0177
:101390004B960E94490089838981882311F41A821F
:1013A00023C081E08A8320C0EBA1FCA18081882337
:1013B000D9F4EBA1FCA19289EBA1FCA183899F8FB9
:1013C00088A381E089A381E08AA3CE014F960E9481
:1013D000490089838981882311F41A8205C081E03C
:1013E0008A8302C082E08A83A5960FB6F894DEBF96
:1013F0000FBECDBFCF91DF910895DF93CF9300D083
:1014000000D0CDB7DEB79B838A836C8381E089836C
:101410008A819B81009731F0EA81FB818C81868BE8
:10142000198202C082E0898389810F900F900F900A
:101430000F90CF91DF910895CF92DF92EF92FF92BC
:101440000F931F93DF93CF93CDB7DEB76C970FB693
:10145000F894DEBF0FBECDBF998F888F6A8F81E071
:101460008C83888D998D009709F473C0E88DF98D70
:101470008689882369F4E88DF98D80818B83E88DD6
:10148000F98D82898983E88DF98D83898A8311C0DA
:10149000E88DF98D8689813061F4E88DF98D81813F
:1014A0008B83E88DF98D84898983E88DF98D858911
:1014B0008A83E88DF98D9281E88DF98D2381E88DFD
:1014C000F98D3481E88DF98D4581E88DF98D56814E
:1014D000E88DF98D6781E88DF98D7085E88DF98D3E
:1014E000A185E88DF98DB285E88DF98D1385E88D9C
:1014F000F98D0485E88DF98DF584E88DF98DE68404
:10150000E88DF98DD78483E1FE013596FC8FEB8F52
:10151000EB8DFC8DC82E1192CA94E9F78B818D83D7
:101520009E832F83388749875A876B877C87AD874F
:10153000BE871F87088BF98AEA8ADB8A89818C8BB0
:101540008A818D8BCE0105966A8D0E943F058C8322
:1015500002C081E08C838C816C960FB6F894DEBF5C
:101560000FBECDBFCF91DF911F910F91FF90EF90F4
:10157000DF90CF900895DF93CF93CDB7DEB72E974E
:101580000FB6F894DEBF0FBECDBF9E878D8781E07A
:101590008C8381E08B838D859E85009709F488C0BC
:1015A0001A823BC08A81282F30E08D859E85820F6C
:1015B000931FFC01349640818A81282F30E08D856D
:1015C0009E85FC01E20FF31F80814D838E8381E0B5
:1015D0008F8381E08887CE0105960E9449008B8326
:1015E0008B818823B9F48A81882F90E0880F991F16
:1015F000880F991FFC01E85CFE4F8D819E81AF81B1
:10160000B88580839183A283B3831C828A818F5F94
:101610008A8303C081E08C8303C08A81843010F206
:101620008B81882309F041C019823BC08981282F12
:1016300030E08D859E85820F931FFC013C96408192
:101640008981282F30E08D859E85820F931FFC01B4
:101650003896808149878A871B8681E08C87CE01F6
:1016600009960E9449008B838B818823B9F4898174
:10167000882F90E0880F991F880F991FFC01E85B65
:10168000FE4F89859A85AB85BC8580839183A28333
:10169000B3831C8289818F5F898303C081E08C833F
:1016A00009C08981843010F205C081E08C8302C0BA
:1016B00082E08C838C812E960FB6F894DEBF0FBE2D
:1016C000CDBFCF91DF910895DF93CF93CDB7DEB734
:1016D00027970FB6F894DEBF0FBECDBF9F838E83D2
:1016E00081E08C8381E08B838E819F81009709F458
:1016F00069C01A8262C08A81882F90E0880F991F82
:10170000880F991F885C9E4F60E00E94FB008B83CE
:1017100019823FC08981882F90E0880F991F880F18
:10172000991F885B9E4F9E012B5F3F4FB9010E941E
:1017300080018B838D81882349F510C08981882F92
:1017400090E0880F991F880F991F885B9E4F9E011C
:101750002B5F3F4FB9010E9480018B838D818823CD
:1017600069F38A81482F50E08981282F30E0CA012F
:10177000880F991F880F991F820F931FFC01EC5F40
:10178000FE4F8081EE81FF81808307C089818F5F5A
:1017900089838981843008F4BDCF8A81882F90E0C5
:1017A000880F991F880F991F885C9E4F61E00E94E7
:1017B000FB008B838A818F5F8A838A81843008F45F
:1017C0009ACF02C082E08C838C8127960FB6F89462
:1017D000DEBF0FBECDBFCF91DF910895DF93CF93D2
:1017E000CDB7DEB784E191E00E94440387E291E047
:1017F0000E94BB0ACF91DF910895DF93CF930F92A0
:10180000CDB7DEB783E7898384E191E060E00E9491
:101810003F05CE0101960E94640B89818337C9F38D
:10182000898180538983298184E191E0622F0E941C
:101830003F0583E78983EDCFDF93CF93CDB7DEB745
:101840000E94EE0B0E94FD0BCF91DF910895F8945A
:02185000FFCFC8
:101852003A003700340031003B00380035003200D6
:10186200390036003300300001010101010100009E
:10187200010100000000010100010100010101015C
:10188200010000010001010000010101000101004D
:10189200010101000101010101010101000000003B
:1018A2000101010101010101010101000101000029
:1018B200000000000101000001010101000001001F
:1018C2000001000000000001010001000001010010
:1018D2000000010000010000000100000000000003
:1018E20000000101010100000000000000000000F2
:1018F200000100003738392F3435362A3132332D82
:1019020023303D2B01010001010102010301040109
:10191200050106010700000001020302020202049F
:081922000506070202020200A3
:00000001FF
