:100000000C942A000C943F000C943F000C943F0089
:100010000C943F000C943F000C943F000C943F0064
:100020000C943F000C943F000C943F000C943F0054
:100030000C943F000C943F000C943F000C943F0044
:100040000C943F000C943F000C943F000C943F0034
:100050000C943F0011241FBECFE5D8E0DEBFCDBF1A
:1000600010E0A0E6B0E0E6E0FBE202C005900D92F1
:10007000AE3AB107D9F70E941D150C9481150C9466
:100080000000EF92FF920F931F937B018C0120E001
:1000900030E040E05FE40E94410388238CF0C80117
:1000A000B70120E030E040E05FE40E94B9010E9427
:1000B000A1039B01AC01205030404040504806C095
:1000C000C801B7010E94A1039B01AC01B901CA019B
:1000D0001F910F91FF90EF900895A0E0B0E0E3E74B
:1000E000F0E00C944A15DC012B01FA019C9192304E
:1000F00008F439C1EB018881823008F433C19430AF
:1001000069F4843009F02FC111969C91119789816F
:10011000981709F428C1A0E6B0E025C1843009F49D
:1001200021C18230A9F4923009F01DC19A01AD01BC
:1001300088E0EA010990AE01E90109929E0181502F
:10014000C1F7E201898111969C918923818308C1BD
:10015000923009F407C112962D903C901397EB0151
:100160008A819B811496AD90BD90CD90DC901797BD
:10017000EC80FD800E811F819101281B390BB90194
:1001800037FF04C066277727621B730B6032710547
:100190000CF061C0121613066CF537014801062EEB
:1001A00004C096948794779467940A94D2F721E0D8
:1001B00030E040E050E004C0220F331F441F551FC1
:1001C0006A95D2F721503040404050402E213F21C7
:1001D00040235123211531054105510521F021E02E
:1001E00030E040E050E079018A01E628F72808294C
:1001F00019293CC0232BD1F1260E371E35014601AB
:10020000062E04C096948794779467940A94D2F744
:1002100021E030E040E050E004C0220F331F441FD3
:10022000551F6A95D2F721503040404050402A2156
:100230003B214C215D21211531054105510521F05E
:1002400021E030E040E050E059016A01A628B728DB
:10025000C828D9280BC0821593052CF01C01AA24AC
:10026000BB24650103C0EE24FF24870111969C91F5
:10027000D20111968C91981709F445C0992339F051
:10028000A80197012A193B094C095D0906C0A6017E
:1002900095012E193F09400B510B57FD08C01182E3
:1002A0003382228224833583468357831DC081E0B5
:1002B00081833382228288279927DC01821B930B5A
:1002C000A40BB50B84839583A683B7830DC0220F3F
:1002D000331F441F551F24833583468357838281F0
:1002E000938101979383828324813581468157814D
:1002F000DA01C9010197A109B1098F5F9F4FAF4F83
:10030000BF4328F30BC0918333822282EA0CFB1C8B
:100310000C1D1D1DE482F5820683178383E0808314
:10032000248135814681578157FF1AC0C901AA2708
:1003300097FDA095BA2F81709070A070B0705695FF
:10034000479537952795822B932BA42BB52B848328
:100350009583A683B7838281938101969383828359
:10036000DF0101C0D201CD01CDB7DEB7E2E10C94CF
:100370006615A0E2B0E0EFEBF1E00C94561569834E
:100380007A838B839C832D833E834F835887E9E058
:10039000EE2EF12CEC0EFD1ECE010196B7010E944F
:1003A000CA048E010F5E1F4FCE010596B8010E9450
:1003B000CA048A8991E089278A8BC701B801AE01F6
:1003C000475E5F4F0E946D000E94F503A096E6E035
:1003D0000C947215A0E2B0E0E0EFF1E00C94561539
:1003E00069837A838B839C832D833E834F835887D5
:1003F000F9E0EF2EF12CEC0EFD1ECE010196B701B7
:100400000E94CA048E010F5E1F4FCE010596B801EF
:100410000E94CA04C701B801AE01475E5F4F0E9447
:100420006D000E94F503A096E6E00C947215A0E220
:10043000B0E0EDE1F2E00C944A1569837A838B8396
:100440009C832D833E834F835887CE010196BE0146
:10045000675F7F4F0E94CA04CE010596BE016F5EA2
:100460007F4F0E94CA049985923088F08989823032
:10047000C8F0943019F4823051F404C0843029F467
:10048000923081F480E690E0C6C0923049F420E0DA
:100490009A858A89981321E02A87CE010996BBC0E4
:1004A000823049F420E09A858A89981321E02A8BCA
:1004B000CE014196B0C02D843E844F8458886D880B
:1004C0007E888F88988CEE24FF248701AA24BB2481
:1004D000650140E050E060E070E0E0E0F0E0C10184
:1004E00081709070892BE9F0E60CF71C081D191D2E
:1004F0009A01AB012A0D3B1D4C1D5D1D80E090E073
:10050000A0E0B0E0E614F7040805190520F481E046
:1005100090E0A0E0B0E0BA01A901480F591F6A1F9E
:100520007B1FAA0CBB1CCC1CDD1C97FE08C081E005
:1005300090E0A0E0B0E0A82AB92ACA2ADB2A3196C6
:10054000E032F10549F0660C771C881C991C569422
:10055000479437942794C3CFFA85EA892B893C893D
:100560008B859C85280F391F2E5F3F4F17C0CA010E
:1005700081709070892B61F016950795F794E79438
:1005800080E090E0A0E0B0E8E82AF92A0A2B1B2BD3
:1005900076956795579547952F5F3F4F77FDE7CF46
:1005A0000CC0440F551F661F771F17FD4160EE0CEE
:1005B000FF1C001F111F21503040403090E05907B0
:1005C00090E0690790E4790760F32B8F3C8FDB01A3
:1005D000CA018F779070A070B07080349105A1052A
:1005E000B10561F447FD0AC0E114F10401051105EC
:1005F00029F0405C5F4F6F4F7F4F40781A8EFE1797
:1006000011F081E08A8F4D8F5E8F6F8F78A383E02A
:10061000898FCE0149960E94F503A096E2E10C94E1
:100620006615A8E1B0E0E7E1F3E00C9456156983A4
:100630007A838B839C832D833E834F83588789E005
:10064000E82EF12CEC0EFD1ECE010196B7010E94A2
:10065000CA048E010F5E1F4FCE010596B8010E949D
:10066000CA048985823040F08989823028F0C70128
:10067000B8010E94420501C08FEF6896E6E00C9435
:100680007215A8E1B0E0E7E4F3E00C945615698335
:100690007A838B839C832D833E834F83588789E0A5
:1006A000E82EF12CEC0EFD1ECE010196B7010E9442
:1006B000CA048E010F5E1F4FCE010596B8010E943D
:1006C000CA048985823040F08989823028F0C701C8
:1006D000B8010E94420501C08FEF6896E6E00C94D5
:1006E0007215A8E1B0E0E7E7F3E00C9456156983D2
:1006F0007A838B839C832D833E834F83588789E045
:10070000E82EF12CEC0EFD1ECE010196B7010E94E1
:10071000CA048E010F5E1F4FCE010596B8010E94DC
:10072000CA048985823040F08989823028F0C70167
:10073000B8010E94420501C081E06896E6E00C9491
:100740007215ACE0B0E0E7EAF3E00C945A15698367
:100750007A838B839C83CE010196BE016B5F7F4FB2
:100760000E94CA048D81823061F1823050F1843060
:1007700021F48E81882351F12EC02F81388537FDD9
:1007800020C06E812F3131051CF06623F9F023C0A3
:100790008EE190E0821B930B29853A854B855C8521
:1007A00004C056954795379527958A95D2F76623C5
:1007B000B1F050954095309521953F4F4F4F5F4F89
:1007C0000EC020E030E040E050E009C02FEF3FEFE6
:1007D0004FEF5FE704C020E030E040E050E8B901AF
:1007E000CA012C96E2E00C947615DF92EF92FF920C
:1007F0000F931F93FC01E480F58006811781D1805F
:100800008081823048F480E090E0A0E1B0E0E82A06
:10081000F92A0A2B1B2BA5C0843009F49FC0823013
:1008200021F4EE24FF24870105C0E114F104010541
:10083000110519F4E0E0F0E096C0628173819FEF4A
:10084000623879070CF05BC022E83FEF261B370BBC
:100850002A3131052CF020E030E040E050E02AC0A1
:10086000B801A701022E04C0769567955795479564
:100870000A94D2F781E090E0A0E0B0E004C0880FD5
:10088000991FAA1FBB1F2A95D2F70197A109B10989
:100890008E219F21A023B1230097A105B10521F04E
:1008A00081E090E0A0E0B0E09A01AB01282B392B69
:1008B0004A2B5B2BDA01C9018F779070A070B07062
:1008C00080349105A105B10539F427FF09C0205CEA
:1008D0003F4F4F4F5F4F04C0215C3F4F4F4F5F4F23
:1008E000E0E0F0E02030A0E03A07A0E04A07A0E412
:1008F0005A0710F0E1E0F0E079018A0127C0603882
:10090000710564F5FB01E158FF4FD801C7018F77EE
:100910009070A070B07080349105A105B10539F4D4
:10092000E7FE0DC080E490E0A0E0B0E004C08FE3FB
:1009300090E0A0E0B0E0E80EF91E0A1F1B1F17FFB1
:1009400005C016950795F794E794319687E01695BC
:100950000795F794E7948A95D1F705C0EE24FF2414
:100960008701EFEFF0E06E2F679566276795902F70
:100970009F77D794DD24D7948E2F8695492F462BC9
:10098000582F5D29B701CA011F910F91FF90EF9079
:10099000DF900895FC01DB01408151812281622FAB
:1009A0006F7770E0221F2227221F9381892F880FE3
:1009B000822B282F30E0991F9927991F11969C931D
:1009C000119721153105A9F54115510561057105ED
:1009D00011F482E037C082E89FEF13969C938E93C8
:1009E00012979A01AB0167E0220F331F441F551F76
:1009F0006A95D1F783E08C930DC0220F331F441FFB
:100A0000551F12968D919C911397019713969C9365
:100A10008E931297203080E0380780E0480780E40A
:100A2000580758F314962D933D934D935C93179765
:100A300008952F3F310579F4411551056105710580
:100A400019F484E08C93089564FF03C081E08C93D3
:100A500012C01C9210C02F57304013963C932E9317
:100A6000129783E08C9387E0440F551F661F771F12
:100A70008A95D1F7706414964D935D936D937C9332
:100A8000179708951F93DC01FB019C91923008F4A5
:100A900047C08081823008F443C0943051F41196ED
:100AA0001C91843099F58181682F70E0611B710978
:100AB0003FC0843021F0923031F48230B9F181812D
:100AC000882389F12DC011961C9111978230F1F085
:100AD00081811817D9F412962D913C911397828138
:100AE00093818217930794F028173907BCF0149666
:100AF0008D919D910D90BC91A02D248135814681D1
:100B00005781281739074A075B0718F4112341F06A
:100B10000AC082179307A407B50740F4112319F000
:100B200061E070E005C06FEF7FEF02C060E070E051
:100B3000CB011F910895DF93CF9300D00F92CDB7D3
:100B4000DEB79B838A8381E089838A819B810097BA
:100B5000B1F0EA81FB8122818A819B81622F0E9410
:100B6000C80589838981882361F4EA81FB81238117
:100B70008A819B81622F0E944D06898302C082E098
:100B8000898389810F900F900F90CF91DF91089505
:100B9000DF93CF9300D000D000D0CDB7DEB79B83DA
:100BA0008A836C8381E089838A819B81009709F421
:100BB00068C08C81282F30E03E832D838D819E81FB
:100BC000009731F02D813E812130310571F15BC0FC
:100BD000EA81FB818081882F90E0880F991FFC01BA
:100BE000E859FF4FA081B181EA81FB818081882F84
:100BF00090E0880F991FFC01E859FF4F0190F081A8
:100C0000E02D8081482FEA81FB818181282F30E00F
:100C100081E090E0022E02C0880F991F0A94E2F74B
:100C2000809584238C9319822EC0EA81FB81808178
:100C3000882F90E0880F991FFC01E859FF4FA08191
:100C4000B181EA81FB818081882F90E0880F991F14
:100C5000FC01E859FF4F0190F081E02D8081482F81
:100C6000EA81FB818181282F30E081E090E0022E33
:100C700002C0880F991F0A94E2F7842B8C93198283
:100C800002C082E08983898126960FB6F894DEBF80
:100C90000FBECDBFCF91DF910895DF93CF9300D0EA
:100CA00000D000D0CDB7DEB79B838A836C8381E010
:100CB00089838A819B81009709F468C08C81282FE1
:100CC00030E03E832D838D819E81009731F02D8110
:100CD0003E812130310571F15BC0EA81FB81808169
:100CE000882F90E0880F991FFC01E059FF4FA081E9
:100CF000B181EA81FB818081882F90E0880F991F64
:100D0000FC01E059FF4F0190F081E02D8081482FD8
:100D1000EA81FB818181282F30E081E090E0022E82
:100D200002C0880F991F0A94E2F7809584238C9360
:100D300019822EC0EA81FB818081882F90E0880F84
:100D4000991FFC01E059FF4FA081B181EA81FB812D
:100D50008081882F90E0880F991FFC01E059FF4F98
:100D60000190F081E02D8081482FEA81FB81818113
:100D7000282F30E081E090E0022E02C0880F991FFA
:100D80000A94E2F7842B8C93198202C082E0898353
:100D9000898126960FB6F894DEBF0FBECDBFCF91E6
:100DA000DF910895DF93CF9300D000D00F92CDB79D
:100DB000DEB79B838A837D836C8381E089838A810C
:100DC0009B81009711F1EA81FB818081882F90E05F
:100DD000880F991FFC01E858FF4F0190F081E02D2A
:100DE0008081282F30E0EA81FB818181882F90E08B
:100DF000A90102C0559547958A95E2F7CA0181700D
:100E0000EC81FD818083198202C082E0898389811F
:100E10000F900F900F900F900F90CF91DF9108954A
:100E2000DF93CF9300D00F92CDB7DEB79B838A8339
:100E300081E089838A819B81009761F1EA81FB814E
:100E40008081882F90E0880F991FFC01E059FF4FA7
:100E5000A081B181EA81FB818081882F90E0880F99
:100E6000991FFC01E059FF4F0190F081E02D808136
:100E7000482FEA81FB818181282F30E081E090E0DA
:100E8000022E02C0880F991F0A94E2F784278C93E0
:100E9000198202C082E0898389810F900F900F90A0
:100EA000CF91DF910895DF93CF93CDB7DEB7289729
:100EB0000FB6F894DEBF0FBECDBF8A836B834C8321
:100EC00081E089838B81282F30E038872F838F81C1
:100ED0009885009731F02F8138852130310579F0E0
:100EE0001CC08A81882F90E0880F991FFC01E85967
:100EF000FF4F0190F081E02D108219820EC08A818F
:100F0000882F90E0880F991FFC01E859FF4F01904E
:100F1000F081E02D8FEF808319828C81282F30E0C3
:100F20003E832D838D819E81009731F02D813E81FE
:100F30002130310579F01CC08A81882F90E0880F1C
:100F4000991FFC01E059FF4F0190F081E02D1082C4
:100F500019820EC08A81882F90E0880F991FFC01AA
:100F6000E059FF4F0190F081E02D8FEF80831982CF
:100F7000898128960FB6F894DEBF0FBECDBFCF9102
:100F8000DF910895DF93CF9300D000D00F92CDB7BB
:100F9000DEB78A836B8381E089838B81282F30E0E1
:100FA0003D832C838C819D81009731F02C813D8184
:100FB0002130310579F01CC08A81882F90E0880F9C
:100FC000991FFC01E859FF4F0190F081E02D10823C
:100FD00019820EC08A81882F90E0880F991FFC012A
:100FE000E859FF4F0190F081E02D8FEF8083198247
:100FF00089810F900F900F900F900F90CF91DF91FC
:101000000895DF93CF9300D000D00F92CDB7DEB715
:101010008A836B8381E089838B81282F30E03D8335
:101020002C838C819D81009731F02C813D81213072
:10103000310579F01CC08A81882F90E0880F991FB4
:10104000FC01E059FF4F0190F081E02D10821982E0
:101050000EC08A81882F90E0880F991FFC01E0590B
:10106000FF4F0190F081E02D8FEF808319828981FD
:101070000F900F900F900F900F90CF91DF910895E8
:10108000DF93CF9300D000D0CDB7DEB78A837C83C7
:101090006B8381E089838A81882F90E0880F991F74
:1010A000FC01E858FF4F0190F081E02D8081EB8139
:1010B000FC818083198289810F900F900F900F908F
:1010C000CF91DF910895DF93CF9300D0CDB7DEB7F6
:1010D0008A8381E089838A81882F90E0880F991F15
:1010E000FC01E859FF4FA081B1818A81882F90E0EF
:1010F000880F991FFC01E859FF4F0190F081E02D06
:1011000020818A81882F90E0880F991FFC01E8597F
:10111000FF4F0190F081E02D808182278C9319820E
:1011200089810F900F90CF91DF910895DF93CF9336
:1011300000D00F92CDB7DEB78A836B8381E08983BD
:101140008A81882F90E0880F991FFC01E059FF4F9A
:10115000A081B1818A81882F90E0880F991FFC01BE
:10116000E059FF4F0190F081E02D80818F708C93CA
:101170008A81882F90E0880F991FFC01E059FF4F6A
:10118000A081B1818A81882F90E0880F991FFC018E
:10119000E059FF4F0190F081E02D8081282F8B8155
:1011A000882F90E082959295907F9827807F98274E
:1011B000822B8C93198289810F900F900F90CF9181
:1011C000DF910895DF93CF93CDB7DEB727970FB6A2
:1011D000F894DEBF0FBECDBF8A834B835C836D83E3
:1011E0007E8381E089838A81882F90E0880F991F10
:1011F000FC01E059FF4F0190F081E02D80818A8150
:10120000882F90E0880F991FFC01E059FF4F019053
:10121000F081E02D10828A81882F90E0880F991F3D
:10122000FC01E059FF4FA081B1818A81882F90E0B5
:10123000880F991FFC01E059FF4F0190F081E02DCC
:1012400090818B81892B8C931982898127960FB687
:10125000F894DEBF0FBECDBFCF91DF910895DF932D
:10126000CF93CDB7DEB7C854D0400FB6F894DEBFE9
:101270000FBECDBFFE01E95BFF4F9183808381E00C
:101280008AAF81E089AFFE01E95BFF4F80819181E8
:10129000009709F488C2FE01E95BFF4F0190F081DD
:1012A000E02D8081882309F480C2FE01E95BFF4FB5
:1012B0000190F081E02D8081813009F071C2FE0142
:1012C000E95BFF4F0190F081E02D9181FE01E95B28
:1012D000FF4F0190F081E02D83819BAF8CAF81E0C7
:1012E0008DAF1EAEFE01E95BFF4F0190F081E02D56
:1012F0008181FE01E95BFF4F0190F081E02D948137
:10130000FE01FF968083FE01FF969183FE01FF960A
:1013100081E08283FE01FF961382FE01E95BFF4FAD
:101320000190F081E02D8181FE01E95BFF4F01908A
:10133000F081E02D9581FE01ED5BFF4F8083FE0182
:10134000ED5BFF4F9183FE01ED5BFF4F81E08283F8
:10135000FE01ED5BFF4F1382CE01CB960E949B05F1
:1013600089AF89AD882331F4CE01CF960E949B05C9
:1013700089AF02C081E08AAF89AD882339F4CE01FC
:101380008D5B9F4F0E949B0589AF02C081E08AAFB1
:1013900089AD882369F4FE01E95BFF4F0190F0817C
:1013A000E02D828161E040E00E94530789AF02C0D6
:1013B00081E08AAF80E090E0A0E8BFE38DAB9EAB18
:1013C000AFABB8AF6DA97EA98FA998AD20E030E092
:1013D0004AEF54E40E941702DC01CB0189AB9AABBF
:1013E000ABABBCAB69A97AA98BA99CA920E030E082
:1013F00040E85FE30E94710388232CF481E090E0D1
:1014000098AB8FA73FC069A97AA98BA99CA920E0B6
:101410003FEF4FE757E40E94110318164CF56DA9F2
:101420007EA98FA998AD20E030E040E251E40E940F
:101430001702DC01CB01BC01CD010E944100DC019F
:10144000CB0198AB8FA70FC088EC90E09EA78DA72B
:101450008DA59EA50197F1F79EA78DA78FA598A9A9
:10146000019798AB8FA78FA598A9009769F714C02B
:1014700069A97AA98BA99CA90E944100DC01CB0132
:1014800098AB8FA78FA598A99CA78BA78BA59CA588
:101490000197F1F79CA78BA789AD882351F4FE0132
:1014A000E95BFF4F8081918168E30E94E00B8AAF86
:1014B00002C081E08AAF80E090E0A0E8BFE38FA3A4
:1014C00098A7A9A7BAA76FA178A589A59AA520E092
:1014D00030E04AEF54E40E941702DC01CB018BA3F9
:1014E0009CA3ADA3BEA36BA17CA18DA19EA120E076
:1014F00030E040E85FE30E94710388232CF481E030
:1015000090E09AA389A33FC06BA17CA18DA19EA16D
:1015100020E03FEF4FE757E40E94110318164CF507
:101520006FA178A589A59AA520E030E040E251E4BA
:101530000E941702DC01CB01BC01CD010E944100D9
:10154000DC01CB019AA389A30FC088EC90E098A39B
:101550008F8F8F8D98A10197F1F798A38F8F89A115
:101560009AA101979AA389A389A19AA1009769F7E3
:1015700014C06BA17CA18DA19EA10E944100DC0141
:10158000CB019AA389A389A19AA19E8F8D8F8D8D5E
:101590009E8D0197F1F79E8F8D8F8AAD882351F430
:1015A000FE01E95BFF4F808191816CE00E94E00BBE
:1015B0008AAF02C081E08AAF80E090E0A0E8BFE39C
:1015C000898F9A8FAB8FBC8F698D7A8D8B8D9C8D17
:1015D00020E030E04AEF54E40E941702DC01CB0126
:1015E0008D8B9E8BAF8BB88F6D897E898F89988DFF
:1015F00020E030E040E85FE30E94710388232CF490
:1016000081E090E09C8B8B8B3FC06D897E898F89B8
:10161000988D20E03FEF4FE757E40E941103181622
:101620004CF5698D7A8D8B8D9C8D20E030E040E209
:1016300051E40E941702DC01CB01BC01CD010E94E4
:101640004100DC01CB019C8B8B8B0FC088EC90E0C0
:101650009A8B898B89899A890197F1F79A8B898B63
:101660008B899C8901979C8B8B8B8B899C8900979C
:1016700069F714C06D897E898F89988D0E94410019
:10168000DC01CB019C8B8B8B8B899C89988B8F8702
:101690008F8598890197F1F7988B8F878AAD88237A
:1016A00051F4FE01E95BFF4F8081918161E00E946E
:1016B000E00B8AAF02C081E08AAF80E090E0A0E852
:1016C000BFE38B879C87AD87BE876B857C858D85C7
:1016D0009E8520E030E04AEF54E40E941702DC01CE
:1016E000CB018F839887A987BA876F817885898591
:1016F0009A8520E030E040E85FE30E947103882390
:101700002CF481E090E09E838D833FC06F817885CB
:1017100089859A8520E03FEF4FE757E40E94110347
:1017200018164CF56B857C858D859E8520E030E014
:1017300040E251E40E941702DC01CB01BC01CD0163
:101740000E944100DC01CB019E838D830FC088EC99
:1017500090E09C838B838B819C810197F1F79C8324
:101760008B838D819E8101979E838D838D819E8148
:10177000009769F71AC06F81788589859A850E94DC
:101780004100DC01CB019E838D838D819E819A83F4
:10179000898389819A810197F1F79A83898305C0AA
:1017A00083E08AAF02C082E08AAF8AADC85BDF4FB8
:1017B0000FB6F894DEBF0FBECDBFCF91DF91089575
:1017C000DF93CF93CDB7DEB7C954D0400FB6F894AE
:1017D000DEBF0FBECDBFFE01E95BFF4F918380836B
:1017E000FE01E75BFF4F608381E08AAF81E089AF54
:1017F000FE01E95BFF4F80819181009709F474C27B
:10180000FE01E95BFF4F0190F081E02D808188238C
:1018100009F46CC2FE01E95BFF4F0190F081E02DFD
:101820008081813009F05DC2FE01E95BFF4F0190CC
:10183000F081E02D9181FE01E95BFF4F0190F08185
:10184000E02D83819BAF8CAF81E08DAF1EAEFE019A
:10185000E95BFF4F0190F081E02D8181FE01E95BA2
:10186000FF4F0190F081E02D9481FE01FF9680836F
:10187000FE01FF969183FE01FF9681E08283FE01C7
:10188000FF961382FE01E95BFF4F0190F081E02D8E
:101890008181FE01E95BFF4F0190F081E02D958190
:1018A000FE01ED5BFF4F8083FE01ED5BFF4F9183F7
:1018B000FE01ED5BFF4F81E08283FE01ED5BFF4F98
:1018C0001382CE01CB9660E00E944D0689AF89ADB0
:1018D000882339F4CE01CF9660E00E944D0689AF8F
:1018E00002C081E08AAF80E090E0A0E8BFE38DAB6A
:1018F0009EABAFABB8AF6DA97EA98FA998AD20E024
:1019000030E04AEF54E40E941702DC01CB0189ABBE
:101910009AABABABBCAB69A97AA98BA99CA920E017
:1019200030E040E85FE30E94710388232CF481E0FB
:1019300090E098AB8FA73FC069A97AA98BA99CA911
:1019400020E03FEF4FE757E40E94110318164CF5D3
:101950006DA97EA98FA998AD20E030E040E251E466
:101960000E941702DC01CB01BC01CD010E944100A5
:10197000DC01CB0198AB8FA70FC088EC90E09EA74D
:101980008DA78DA59EA50197F1F79EA78DA78FA581
:1019900098A9019798AB8FA78FA598A9009769F789
:1019A00014C069A97AA98BA99CA90E944100DC01F5
:1019B000CB0198AB8FA78FA598A99CA78BA78BA5C8
:1019C0009CA50197F1F79CA78BA789AD882341F4CB
:1019D000CE018D5B9F4F61E00E944D0689AF02C032
:1019E00081E08AAF80E090E0A0E8BFE38FA398A7F2
:1019F000A9A7BAA76FA178A589A59AA520E030E08C
:101A00004AEF54E40E941702DC01CB018BA39CA394
:101A1000ADA3BEA36BA17CA18DA19EA120E030E06F
:101A200040E85FE30E94710388232CF481E090E09A
:101A30009AA389A33FC06BA17CA18DA19EA120E0A8
:101A40003FEF4FE757E40E94110318164CF56FA1C2
:101A500078A589A59AA520E030E040E251E40E94F3
:101A60001702DC01CB01BC01CD010E944100DC0169
:101A7000CB019AA389A30FC088EC90E098A38F8F25
:101A80008F8D98A10197F1F798A38F8F89A19AA1C3
:101A900001979AA389A389A19AA1009769F714C015
:101AA0006BA17CA18DA19EA10E944100DC01CB0114
:101AB0009AA389A389A19AA19E8F8D8F8D8D9E8DCA
:101AC0000197F1F79E8F8D8FFE01E95BFF4F01902B
:101AD000F081E02D9281FE01E75BFF4F8081282F8E
:101AE00030E040E050E0892FBA01A9010E94E208ED
:101AF00080E090E0A0E8BFE3898F9A8FAB8FBC8F26
:101B0000698D7A8D8B8D9C8D20E030E04AEF54E416
:101B10000E941702DC01CB018D8B9E8BAF8BB88F9F
:101B20006D897E898F89988D20E030E040E85FE301
:101B30000E94710388232CF481E090E09C8B8B8BB6
:101B40003FC06D897E898F89988D20E03FEF4FE7F8
:101B500057E40E94110318164CF5698D7A8D8B8D10
:101B60009C8D20E030E040E251E40E941702DC014D
:101B7000CB01BC01CD010E944100DC01CB019C8B5B
:101B80008B8B0FC088EC90E09A8B898B89899A891E
:101B90000197F1F79A8B898B8B899C8901979C8B94
:101BA0008B8B8B899C89009769F714C06D897E891E
:101BB0008F89988D0E944100DC01CB019C8B8B8B1F
:101BC0008B899C89988B8F878F8598890197F1F7EE
:101BD000988B8F8789AD882341F4CE018D5B9F4F11
:101BE00060E00E944D0689AF02C081E08AAF80E0CC
:101BF00090E0A0E8BFE38B879C87AD87BE876B85AD
:101C00007C858D859E8520E030E04AEF54E40E947B
:101C10001702DC01CB018F839887A987BA876F8170
:101C2000788589859A8520E030E040E85FE30E946E
:101C3000710388232CF481E090E09E838D833FC064
:101C40006F81788589859A8520E03FEF4FE757E4DB
:101C50000E94110318164CF56B857C858D859E8539
:101C600020E030E040E251E40E941702DC01CB01A9
:101C7000BC01CD010E944100DC01CB019E838D831C
:101C80000FC088EC90E09C838B838B819C810197B3
:101C9000F1F79C838B838D819E8101979E838D8339
:101CA0008D819E81009769F714C06F817885898541
:101CB0009A850E944100DC01CB019E838D838D813A
:101CC0009E819A83898389819A810197F1F79A830A
:101CD000898389AD882311F41AAE08C081E08AAFE8
:101CE00005C083E08AAF02C081E08AAF8AADC75BDE
:101CF000DF4F0FB6F894DEBF0FBECDBFCF91DF919F
:101D00000895DF93CF93CDB7DEB7C954D0400FB657
:101D1000F894DEBF0FBECDBFFE01E95BFF4F91839C
:101D20008083FE01E75BFF4F608381E08AAF81E043
:101D300089AFFE01E95BFF4F80819181009709F433
:101D400074C2FE01E95BFF4F0190F081E02D8081BC
:101D5000882309F46CC2FE01E95BFF4F0190F0811A
:101D6000E02D8081813009F05DC2FE01E95BFF4F0B
:101D70000190F081E02D9181FE01E95BFF4F019020
:101D8000F081E02D83819BAF8CAF81E08DAF1EAEE3
:101D9000FE01E95BFF4F0190F081E02D8181FE01A2
:101DA000E95BFF4F0190F081E02D9481FE01FF96E9
:101DB0008083FE01FF969183FE01FF9681E082837E
:101DC000FE01FF961382FE01E95BFF4F0190F08157
:101DD000E02D8181FE01E95BFF4F0190F081E02D54
:101DE0009581FE01ED5BFF4F8083FE01ED5BFF4FB0
:101DF0009183FE01ED5BFF4F81E08283FE01ED5B8D
:101E0000FF4F1382CE01CB9661E00E944D0689AF51
:101E100089AD882339F4CE01CF9660E00E944D064B
:101E200089AF02C081E08AAF80E090E0A0E8BFE324
:101E30008DAB9EABAFABB8AF6DA97EA98FA998ADA6
:101E400020E030E04AEF54E40E941702DC01CB01AD
:101E500089AB9AABABABBCAB69A97AA98BA99CA99E
:101E600020E030E040E85FE30E94710388232CF417
:101E700081E090E098AB8FA73FC069A97AA98BA9B0
:101E80009CA920E03FEF4FE757E40E94110318168A
:101E90004CF56DA97EA98FA998AD20E030E040E215
:101EA00051E40E941702DC01CB01BC01CD010E946C
:101EB0004100DC01CB0198AB8FA70FC088EC90E00C
:101EC0009EA78DA78DA59EA50197F1F79EA78DA72B
:101ED0008FA598A9019798AB8FA78FA598A9009770
:101EE00069F714C069A97AA98BA99CA90E9441002D
:101EF000DC01CB0198AB8FA78FA598A99CA78BA7D6
:101F00008BA59CA50197F1F79CA78BA789AD88238A
:101F100041F4CE018D5B9F4F61E00E944D0689AF79
:101F200002C081E08AAF80E090E0A0E8BFE38FA329
:101F300098A7A9A7BAA76FA178A589A59AA520E017
:101F400030E04AEF54E40E941702DC01CB018BA37E
:101F50009CA3ADA3BEA36BA17CA18DA19EA120E0FB
:101F600030E040E85FE30E94710388232CF481E0B5
:101F700090E09AA389A33FC06BA17CA18DA19EA1F3
:101F800020E03FEF4FE757E40E94110318164CF58D
:101F90006FA178A589A59AA520E030E040E251E440
:101FA0000E941702DC01CB01BC01CD010E9441005F
:101FB000DC01CB019AA389A30FC088EC90E098A321
:101FC0008F8F8F8D98A10197F1F798A38F8F89A19B
:101FD0009AA101979AA389A389A19AA1009769F769
:101FE00014C06BA17CA18DA19EA10E944100DC01C7
:101FF000CB019AA389A389A19AA19E8F8D8F8D8DE4
:102000009E8D0197F1F79E8F8D8FFE01E95BFF4F4B
:102010000190F081E02D9281FE01E75BFF4F80810E
:10202000282F30E040E050E0892FBA01A9010E943A
:10203000E20880E090E0A0E8BFE3898F9A8FAB8F41
:10204000BC8F698D7A8D8B8D9C8D20E030E04AEFBE
:1020500054E40E941702DC01CB018D8B9E8BAF8B69
:10206000B88F6D897E898F89988D20E030E040E8B7
:102070005FE30E94710388232CF481E090E09C8B45
:102080008B8B3FC06D897E898F89988D20E03FEFD3
:102090004FE757E40E94110318164CF5698D7A8DAD
:1020A0008B8D9C8D20E030E040E251E40E941702CD
:1020B000DC01CB01BC01CD010E944100DC01CB0160
:1020C0009C8B8B8B0FC088EC90E09A8B898B8989D5
:1020D0009A890197F1F79A8B898B8B899C89019753
:1020E0009C8B8B8B8B899C89009769F714C06D89B9
:1020F0007E898F89988D0E944100DC01CB019C8BE9
:102100008B8B8B899C89988B8F878F85988901977A
:10211000F1F7988B8F8789AD882341F4CE018D5BD1
:102120009F4F60E00E944D0689AF02C081E08AAFF8
:1021300080E090E0A0E8BFE38B879C87AD87BE87F7
:102140006B857C858D859E8520E030E04AEF54E4E8
:102150000E941702DC01CB018F839887A987BA8779
:102160006F81788589859A8520E030E040E85FE3DB
:102170000E94710388232CF481E090E09E838D837C
:102180003FC06F81788589859A8520E03FEF4FE7D2
:1021900057E40E94110318164CF56B857C858D85DC
:1021A0009E8520E030E040E251E40E941702DC010D
:1021B000CB01BC01CD010E944100DC01CB019E831B
:1021C0008D830FC088EC90E09C838B838B819C81F6
:1021D0000197F1F79C838B838D819E8101979E836C
:1021E0008D838D819E81009769F714C06F817885FA
:1021F00089859A850E944100DC01CB019E838D83F5
:102200008D819E819A83898389819A810197F1F7D3
:102210009A83898389AD882311F41AAE08C081E0BE
:102220008AAF05C083E08AAF02C081E08AAF8AAD81
:10223000C75BDF4F0FB6F894DEBF0FBECDBFCF91A7
:10224000DF910895DF93CF9300D000D000D0CDB7B9
:10225000DEB79C838B837E836D8381E08A838B8151
:102260009C81009769F1EB81FC818081882351F189
:10227000EB81FC818081813001F5198212C0898156
:10228000282F30E08D819E81FC01E20FF31F208119
:102290008B819C81622F0E94810E8A8389818F5F4E
:1022A00089838981282F30E08D819E81FC01E20F96
:1022B000F31F8081882319F705C083E08A8302C059
:1022C00082E08A838A8126960FB6F894DEBF0FBE1D
:1022D000CDBFCF91DF9108950F931F93DF93CF93DD
:1022E000CDB7DEB764970FB6F894DEBF0FBECDBF93
:1022F000988B8F87498B5A8B6B8B7C8B81E08B8380
:102300008F859889009709F48BC0EF85F8898081C3
:10231000882309F487C0EF85F8898081813009F02E
:102320007CC01A82198289899A89AB89BC890097F5
:10233000A105B10509F044C08F85988960E30E942A
:10234000810E8B836FC08981882369F48981282F4E
:1023500030E0CE010496FC01E20FF31F1082898168
:102360008F5F89832DC08981082F10E089899A8920
:10237000AB89BC892AE030E040E050E0BC01CD01EF
:102380000E942815DC01CB01282FCE010496FC0108
:10239000E00FF11F208389899A89AB89BC892AE0E3
:1023A00030E040E050E0BC01CD010E942815DA0188
:1023B000C901898B9A8BAB8BBC8B89818F5F898399
:1023C00089899A89AB89BC890097A105B10509F073
:1023D000BACF898181508A8314C08A81282F30E046
:1023E000CE010496FC01E20FF31F8081282F205DAF
:1023F0008F859889622F0E94810E8B838A818150FC
:102400008A838A81282F30E0CE010496FC01E20FF6
:10241000F31F8081882309F705C083E08B8302C006
:1024200082E08B838B8164960FB6F894DEBF0FBE7B
:10243000CDBFCF91DF911F910F910895DF93CF937F
:1024400000D000D00F92CDB7DEB79B838A836C8318
:102450004D8381E089838A819B81009791F1EA8194
:10246000FB818081882379F1EA81FB818081813041
:1024700029F58C81882371F48D81803158F48D8108
:102480008F708068282F8A819B81622F0E94E00BC9
:10249000898319C08C81813071F48D81803158F429
:1024A0008D818F70806C282F8A819B81622F0E9482
:1024B000E00B898308C084E0898305C083E08983B9
:1024C00002C082E0898389810F900F900F900F9056
:1024D0000F90CF91DF910895DF93CF9300D000D07C
:1024E00000D0CDB7DEB79C838B836D834E8381E0B4
:1024F0008A838B819C81009731F18E818C3119F018
:102500008E818831E9F4EB81FC8180818823E9F0B8
:10251000EB81FC818081813081F4198209C08B813B
:102520009C816E810E94E00B8A8389818F5F898301
:1025300099818D81981798F308C083E08A8305C03C
:1025400084E08A8302C082E08A838A8126960FB65D
:10255000F894DEBF0FBECDBFCF91DF910895DF931A
:10256000CF93CDB7DEB727970FB6F894DEBF0FBE77
:10257000CDBF9C838B837E836D834F8381E08A8371
:102580008B819C81009709F44FC08D819E810097BB
:1025900009F44AC08F81883008F043C0EB81FC8188
:1025A0008081882309F442C0EB81FC8180818130E5
:1025B000A9F58F81882F90E0880F991F880F991FA8
:1025C000880F991F8064282F8B819C81622F0E9425
:1025D000E00B8A838A818823D1F4198215C089810E
:1025E000282F30E08D819E81FC01E20FF31F2081B6
:1025F0008B819C81622F0E94810E8A838A8188232D
:1026000031F489818F5F89838981883040F38B81A0
:102610009C8160E80E94E00B8A8308C083E08A8383
:1026200005C084E08A8302C082E08A838A8127967B
:102630000FB6F894DEBF0FBECDBFCF91DF910895E6
:10264000DF93CF9300D00F92CDB7DEB79B838A8301
:1026500081E089838A819B8161E00E94E00B89830C
:1026600089810F900F900F90CF91DF910895DF93A4
:10267000CF93CDB7DEB780E890E00E942F0980E8C5
:1026800090E02EE830E0B90140E00E94AF1280E80F
:1026900090E026E930E0B90141E00E94AF1280E805
:1026A00090E02EE930E0B90142E00E94AF1280E8EC
:1026B00090E026EA30E0B90143E00E94AF12CF91EA
:1026C000DF910895DF93CF93CDB7DEB7AA970FB60A
:1026D000F894DEBF0FBECDBF80E890E060E04CE034
:1026E0000E941E1280E890E063E00E94810E80E864
:1026F00090E062E00E94810E80E890E061E00E943C
:10270000810E80E890E060E00E94810E80E090E021
:10271000AAEFB3E48FA398A7A9A7BAA76FA178A53A
:1027200089A59AA520E030E04AEF54E40E94170200
:10273000DC01CB018BA39CA3ADA3BEA36BA17CA1A9
:102740008DA19EA120E030E040E85FE30E9471038C
:1027500088232CF481E090E09AA389A33FC06BA169
:102760007CA18DA19EA120E03FEF4FE757E40E949E
:10277000110318164CF56FA178A589A59AA520E03C
:1027800030E040E251E40E941702DC01CB01BC01C1
:10279000CD010E944100DC01CB019AA389A30FC0A7
:1027A00088EC90E098A38F8F8F8D98A10197F1F717
:1027B00098A38F8F89A19AA101979AA389A389A130
:1027C0009AA1009769F714C06BA17CA18DA19EA16D
:1027D0000E944100DC01CB019AA389A389A19AA19F
:1027E0009E8F8D8F8D8D9E8D0197F1F79E8F8D8F92
:1027F00080E890E00E94201380E890E061E046E0ED
:102800000E941E1280E890E063E00E94810E80E842
:1028100090E062E00E94810E80E890E061E00E941A
:10282000810E80E890E060E00E94810E80E090E000
:10283000AAEFB3E4898F9A8FAB8FBC8F698D7A8DA5
:102840008B8D9C8D20E030E04AEF54E40E9417020B
:10285000DC01CB018D8B9E8BAF8BB88F6D897E8910
:102860008F89988D20E030E040E85FE30E9471039B
:1028700088232CF481E090E09C8B8B8B3FC06D898A
:102880007E898F89988D20E03FEF4FE757E40E94C3
:10289000110318164CF5698D7A8D8B8D9C8D20E077
:1028A00030E040E251E40E941702DC01CB01BC01A0
:1028B000CD010E944100DC01CB019C8B8B8B0FC0B2
:1028C00088EC90E09A8B898B89899A890197F1F736
:1028D0009A8B898B8B899C8901979C8B8B8B8B899D
:1028E0009C89009769F714C06D897E898F89988DBE
:1028F0000E944100DC01CB019C8B8B8B8B899C89D6
:10290000988B8F878F8598890197F1F7988B8F87A0
:1029100080E890E00E94201380E890E060E040E0D2
:102920000E941E1280E890E063E00E94810E80E821
:1029300090E062E00E94810E80E890E061E00E94F9
:10294000810E80E890E060E00E94810E80E090E0DF
:10295000AAEFB3E48B879C87AD87BE876B857C85A8
:102960008D859E8520E030E04AEF54E40E941702F6
:10297000DC01CB018F839887A987BA876F8178851F
:1029800089859A8520E030E040E85FE30E9471038A
:1029900088232CF481E090E09E838D833FC06F817B
:1029A000788589859A8520E03FEF4FE757E40E94BC
:1029B000110318164CF56B857C858D859E8520E06E
:1029C00030E040E251E40E941702DC01CB01BC017F
:1029D000CD010E944100DC01CB019E838D830FC09D
:1029E00088EC90E09C838B838B819C810197F1F72D
:1029F0009C838B838D819E8101979E838D838D81A6
:102A00009E81009769F714C06F81788589859A85C2
:102A10000E944100DC01CB019E838D838D819E81CC
:102A20009A83898389819A810197F1F79A838983AF
:102A300080E890E00E9420134FCEDF93CF93CDB774
:102A4000DEB70E9437130E946213CF91DF91089581
:102A5000A1E21A2EAA1BBB1BFD010DC0AA1FBB1FA2
:102A6000EE1FFF1FA217B307E407F50720F0A21B14
:102A7000B30BE40BF50B661F771F881F991F1A9481
:102A800069F760957095809590959B01AC01BD01AB
:102A9000CF0108952F923F924F925F926F927F9253
:102AA0008F929F92AF92BF92CF92DF92EF92FF925E
:102AB0000F931F93CF93DF93CDB7DEB7CA1BDB0B0A
:102AC0000FB6F894DEBF0FBECDBF09942A883988AF
:102AD00048885F846E847D848C849B84AA84B984B6
:102AE000C884DF80EE80FD800C811B81AA81B981C2
:102AF000CE0FD11D0FB6F894DEBF0FBECDBFED01D6
:062B00000895F894FFCFD8
:102B060000000000000000003A00370034003100E9
:102B16003B00380035003200390036003300300003
:102B26000102000001020001020304050607000479
:102B36000A151F0000000000000003041800000032
:0E2B460000011F000600020017151F0000000E
:00000001FF
