:100000000C942A000C9447000C9447000C94470071
:100010000C9447000C9447000C9447000C94470044
:100020000C9447000C9447000C9447000C94470034
:100030000C9447000C9447000C9447000C94470024
:100040000C94440B0C9447000C9447000C9447000C
:100050000C94470011241FBECFE5D8E0DEBFCDBF12
:1000600011E0A0E6B0E0E0E3FBE402C005900D92F1
:10007000A639B107D9F711E0A6E9B1E001C01D9298
:10008000A839B107E1F70E940F250C9496250C942E
:100090000000EF92FF920F931F937B018C0120E0F1
:1000A00030E040E05FE40E94490388238CF0C801FF
:1000B000B70120E030E040E05FE40E94C1010E940F
:1000C000A9039B01AC01205030404040504806C07D
:1000D000C801B7010E94A9039B01AC01B901CA0183
:1000E0001F910F91FF90EF900895A0E0B0E0EBE733
:1000F000F0E00C942E25DC012B01FA019C9192304A
:1001000008F439C1EB018881823008F433C194309E
:1001100069F4843009F02FC111969C91119789815F
:10012000981709F428C1A0E6B0E025C1843009F48D
:1001300021C18230A9F4923009F01DC19A01AD01AC
:1001400088E0EA010990AE01E90109929E0181501F
:10015000C1F7E201898111969C918923818308C1AD
:10016000923009F407C112962D903C901397EB0141
:100170008A819B811496AD90BD90CD90DC901797AD
:10018000EC80FD800E811F819101281B390BB90184
:1001900037FF04C066277727621B730B6032710537
:1001A0000CF061C0121613066CF537014801062EDB
:1001B00004C096948794779467940A94D2F721E0C8
:1001C00030E040E050E004C0220F331F441F551FB1
:1001D0006A95D2F721503040404050402E213F21B7
:1001E00040235123211531054105510521F021E01E
:1001F00030E040E050E079018A01E628F72808293C
:1002000019293CC0232BD1F1260E371E350146019A
:10021000062E04C096948794779467940A94D2F734
:1002200021E030E040E050E004C0220F331F441FC3
:10023000551F6A95D2F721503040404050402A2146
:100240003B214C215D21211531054105510521F04E
:1002500021E030E040E050E059016A01A628B728CB
:10026000C828D9280BC0821593052CF01C01AA249C
:10027000BB24650103C0EE24FF24870111969C91E5
:10028000D20111968C91981709F445C0992339F041
:10029000A80197012A193B094C095D0906C0A6016E
:1002A00095012E193F09400B510B57FD08C01182D3
:1002B0003382228224833583468357831DC081E0A5
:1002C00081833382228288279927DC01821B930B4A
:1002D000A40BB50B84839583A683B7830DC0220F2F
:1002E000331F441F551F24833583468357838281E0
:1002F000938101979383828324813581468157813D
:10030000DA01C9010197A109B1098F5F9F4FAF4F72
:10031000BF4328F30BC0918333822282EA0CFB1C7B
:100320000C1D1D1DE482F5820683178383E0808304
:10033000248135814681578157FF1AC0C901AA27F8
:1003400097FDA095BA2F81709070A070B0705695EF
:10035000479537952795822B932BA42BB52B848318
:100360009583A683B7838281938101969383828349
:10037000DF0101C0D201CD01CDB7DEB7E2E10C94BF
:100380004A25A0E2B0E0E7ECF1E00C943A2569835D
:100390007A838B839C832D833E834F835887E9E048
:1003A000EE2EF12CEC0EFD1ECE010196B7010E943F
:1003B0009A058E010F5E1F4FCE010596B8010E946F
:1003C0009A058A8991E089278A8BC701B801AE0115
:1003D000475E5F4F0E9475000E94C504A096E6E04C
:1003E0000C945625A0E2B0E0E8EFF1E00C943A2539
:1003F00069837A838B839C832D833E834F835887C5
:10040000F9E0EF2EF12CEC0EFD1ECE010196B701A6
:100410000E949A058E010F5E1F4FCE010596B8010E
:100420000E949A05C701B801AE01475E5F4F0E9466
:1004300075000E94C504A096E6E00C945625A0E243
:10044000B0E0E5E2F2E00C942E2569837A838B8399
:100450009C832D833E834F835887CE010196BE0136
:10046000675F7F4F0E949A05CE010596BE016F5EC1
:100470007F4F0E949A059985923088F08989823051
:10048000C8F0943019F4823051F404C0843029F457
:10049000923081F480E690E0C6C0923049F420E0CA
:1004A0009A858A89981321E02A87CE010996BBC0D4
:1004B000823049F420E09A858A89981321E02A8BBA
:1004C000CE014196B0C02D843E844F8458886D88FB
:1004D0007E888F88988CEE24FF248701AA24BB2471
:1004E000650140E050E060E070E0E0E0F0E0C10174
:1004F00081709070892BE9F0E60CF71C081D191D1E
:100500009A01AB012A0D3B1D4C1D5D1D80E090E062
:10051000A0E0B0E0E614F7040805190520F481E036
:1005200090E0A0E0B0E0BA01A901480F591F6A1F8E
:100530007B1FAA0CBB1CCC1CDD1C97FE08C081E0F5
:1005400090E0A0E0B0E0A82AB92ACA2ADB2A3196B6
:10055000E032F10549F0660C771C881C991C569412
:10056000479437942794C3CFFA85EA892B893C892D
:100570008B859C85280F391F2E5F3F4F17C0CA01FE
:1005800081709070892B61F016950795F794E79428
:1005900080E090E0A0E0B0E8E82AF92A0A2B1B2BC3
:1005A00076956795579547952F5F3F4F77FDE7CF36
:1005B0000CC0440F551F661F771F17FD4160EE0CDE
:1005C000FF1C001F111F21503040403090E05907A0
:1005D00090E0690790E4790760F32B8F3C8FDB0193
:1005E000CA018F779070A070B07080349105A1051A
:1005F000B10561F447FD0AC0E114F10401051105DC
:1006000029F0405C5F4F6F4F7F4F40781A8EFE1786
:1006100011F081E08A8F4D8F5E8F6F8F78A383E01A
:10062000898FCE0149960E94C504A096E2E10C9400
:100630004A25A8E1B0E0EFE1F3E00C943A256983A4
:100640007A838B839C832D833E834F83588789E0F5
:10065000E82EF12CEC0EFD1ECE010196B7010E9492
:100660009A058E010F5E1F4FCE010596B8010E94BC
:100670009A058985823040F08989823028F0C70147
:10068000B8010E94120601C08FEF6896E6E00C9454
:100690005625A8E1B0E0EFE4F3E00C943A25698335
:1006A0007A838B839C832D833E834F83588789E095
:1006B000E82EF12CEC0EFD1ECE010196B7010E9432
:1006C0009A058E010F5E1F4FCE010596B8010E945C
:1006D0009A058985823040F08989823028F0C701E7
:1006E000B8010E94120601C08FEF6896E6E00C94F4
:1006F0005625A8E1B0E0EFE7F3E00C943A256983D2
:100700007A838B839C832D833E834F83588789E034
:10071000E82EF12CEC0EFD1ECE010196B7010E94D1
:100720009A058E010F5E1F4FCE010596B8010E94FB
:100730009A058985823040F08989823028F0C70186
:10074000B8010E94120601C081E06896E6E00C94B0
:100750005625ACE0B0E0EFEAF3E00C943E25698367
:100760007A838B839C83CE010196BE016B5F7F4FA2
:100770000E949A058D81823061F1823050F184307F
:1007800021F48E81882351F12EC02F81388537FDC9
:1007900020C06E812F3131051CF06623F9F023C093
:1007A0008EE190E0821B930B29853A854B855C8511
:1007B00004C056954795379527958A95D2F76623B5
:1007C000B1F050954095309521953F4F4F4F5F4F79
:1007D0000EC020E030E040E050E009C02FEF3FEFD6
:1007E0004FEF5FE704C020E030E040E050E8B9019F
:1007F000CA012C96E2E00C945A25A8E0B0E0E3E0B0
:10080000F4E00C9436257B018C016115710581059E
:10081000910519F482E0898360C083E089838EE1C9
:10082000C82ED12CDC82CB82ED82FE820F8318870A
:10083000C801B7010E947604FC013197F7FF3BC065
:10084000222733272E1B3F0B57016801022E04C0BD
:10085000D694C794B794A7940A94D2F740E050E096
:1008600060E070E081E090E0A0E0B0E004C0880FBC
:10087000991FAA1FBB1F2A95D2F70197A109B10999
:100880008E219F21A023B1230097A105B10521F05E
:1008900041E050E060E070E04A295B296C297D2945
:1008A0004D835E836F8378878EE190E08E1B9F0B74
:1008B0009C838B8312C0309781F00E2E04C0EE0C07
:1008C000FF1C001F111F0A94D2F7ED82FE820F83D6
:1008D0001887CE1ADF0ADC82CB821A82CE010196FB
:1008E0000E94C5042896EAE00C945225EF92FF92EC
:1008F0000F931F937B018C0180E0E81680E0F806DF
:1009000081E0080780E0180788F48FEFE816F1040B
:100910000105110531F028F088E090E0A0E0B0E09A
:1009200017C080E090E0A0E0B0E012C080E0E816E0
:1009300080E0F80680E0080781E0180728F088E1E9
:1009400090E0A0E0B0E004C080E190E0A0E0B0E082
:1009500020E230E040E050E0281B390B4A0B5B0BF3
:1009600004C016950795F794E7948A95D2F7F70196
:10097000E859FF4F8081281B310941095109C901FC
:100980001F910F91FF90EF900895DF92EF92FF92E9
:100990000F931F93FC01E480F58006811781D180BD
:1009A0008081823048F480E090E0A0E1B0E0E82A65
:1009B000F92A0A2B1B2BA5C0843009F49FC0823072
:1009C00021F4EE24FF24870105C0E114F1040105A0
:1009D000110519F4E0E0F0E096C0628173819FEFA9
:1009E000623879070CF05BC022E83FEF261B370B1B
:1009F0002A3131052CF020E030E040E050E02AC000
:100A0000B801A701022E04C07695679557954795C2
:100A10000A94D2F781E090E0A0E0B0E004C0880F33
:100A2000991FAA1FBB1F2A95D2F70197A109B109E7
:100A30008E219F21A023B1230097A105B10521F0AC
:100A400081E090E0A0E0B0E09A01AB01282B392BC7
:100A50004A2B5B2BDA01C9018F779070A070B070C0
:100A600080349105A105B10539F427FF09C0205C48
:100A70003F4F4F4F5F4F04C0215C3F4F4F4F5F4F81
:100A8000E0E0F0E02030A0E03A07A0E04A07A0E470
:100A90005A0710F0E1E0F0E079018A0127C06038E0
:100AA000710564F5FB01E158FF4FD801C7018F774D
:100AB0009070A070B07080349105A105B10539F433
:100AC000E7FE0DC080E490E0A0E0B0E004C08FE35A
:100AD00090E0A0E0B0E0E80EF91E0A1F1B1F17FF10
:100AE00005C016950795F794E794319687E016951B
:100AF0000795F794E7948A95D1F705C0EE24FF2473
:100B00008701EFEFF0E06E2F679566276795902FCE
:100B10009F77D794DD24D7948E2F8695492F462B27
:100B2000582F5D29B701CA011F910F91FF90EF90D7
:100B3000DF900895FC01DB01408151812281622F09
:100B40006F7770E0221F2227221F9381892F880F41
:100B5000822B282F30E0991F9927991F11969C937B
:100B6000119721153105A9F541155105610571054B
:100B700011F482E037C082E89FEF13969C938E9326
:100B800012979A01AB0167E0220F331F441F551FD4
:100B90006A95D1F783E08C930DC0220F331F441F59
:100BA000551F12968D919C911397019713969C93C4
:100BB0008E931297203080E0380780E0480780E469
:100BC000580758F314962D933D934D935C931797C4
:100BD00008952F3F310579F44115510561057105DF
:100BE00019F484E08C93089564FF03C081E08C9332
:100BF00012C01C9210C02F57304013963C932E9376
:100C0000129783E08C9387E0440F551F661F771F70
:100C10008A95D1F7706414964D935D936D937C9390
:100C2000179708951F93DC01FB019C91923008F403
:100C300047C08081823008F443C0943051F411964B
:100C40001C91843099F58181682F70E0611B7109D6
:100C50003FC0843021F0923031F48230B9F181818B
:100C6000882389F12DC011961C9111978230F1F0E3
:100C700081811817D9F412962D913C911397828196
:100C800093818217930794F028173907BCF01496C4
:100C90008D919D910D90BC91A02D2481358146812F
:100CA0005781281739074A075B0718F4112341F0C9
:100CB0000AC082179307A407B50740F4112319F05F
:100CC00061E070E005C06FEF7FEF02C060E070E0B0
:100CD000CB011F910895DF93CF9300D00F92CDB732
:100CE000DEB79B838A8381E089838A819B81009719
:100CF000B1F0EA81FB8122818A819B81622F0E946F
:100D0000980689838981882361F4EA81FB812381A4
:100D10008A819B81622F0E941D07898302C082E025
:100D2000898389810F900F900F90CF91DF91089563
:100D3000DF93CF9300D000D000D0CDB7DEB79B8338
:100D40008A836C8381E089838A819B81009709F47F
:100D500068C08C81282F30E03E832D838D819E8159
:100D6000009731F02D813E812130310571F15BC05A
:100D7000EA81FB818081882F90E0880F991FFC0118
:100D8000E859FE4FA081B181EA81FB818081882FE3
:100D900090E0880F991FFC01E859FE4F0190F08107
:100DA000E02D8081482FEA81FB818181282F30E06E
:100DB00081E090E0022E02C0880F991F0A94E2F7AA
:100DC000809584238C9319822EC0EA81FB818081D7
:100DD000882F90E0880F991FFC01E859FE4FA081F1
:100DE000B181EA81FB818081882F90E0880F991F73
:100DF000FC01E859FE4F0190F081E02D8081482FE1
:100E0000EA81FB818181282F30E081E090E0022E91
:100E100002C0880F991F0A94E2F7842B8C931982E1
:100E200002C082E08983898126960FB6F894DEBFDE
:100E30000FBECDBFCF91DF910895DF93CF9300D048
:100E400000D000D0CDB7DEB79B838A836C8381E06E
:100E500089838A819B81009709F468C08C81282F3F
:100E600030E03E832D838D819E81009731F02D816E
:100E70003E812130310571F15BC0EA81FB818081C7
:100E8000882F90E0880F991FFC01E059FE4FA08148
:100E9000B181EA81FB818081882F90E0880F991FC2
:100EA000FC01E059FE4F0190F081E02D8081482F38
:100EB000EA81FB818181282F30E081E090E0022EE1
:100EC00002C0880F991F0A94E2F7809584238C93BF
:100ED00019822EC0EA81FB818081882F90E0880FE3
:100EE000991FFC01E059FE4FA081B181EA81FB818D
:100EF0008081882F90E0880F991FFC01E059FE4FF8
:100F00000190F081E02D8081482FEA81FB81818171
:100F1000282F30E081E090E0022E02C0880F991F58
:100F20000A94E2F7842B8C93198202C082E08983B1
:100F3000898126960FB6F894DEBF0FBECDBFCF9144
:100F4000DF910895DF93CF9300D000D00F92CDB7FB
:100F5000DEB79B838A837D836C8381E089838A816A
:100F60009B81009711F1EA81FB818081882F90E0BD
:100F7000880F991FFC01E858FE4F0190F081E02D89
:100F80008081282F30E0EA81FB818181882F90E0E9
:100F9000A90102C0559547958A95E2F7CA0181706B
:100FA000EC81FD818083198202C082E0898389817E
:100FB0000F900F900F900F900F90CF91DF910895A9
:100FC000DF93CF9300D00F92CDB7DEB79B838A8398
:100FD00081E089838A819B81009761F1EA81FB81AD
:100FE0008081882F90E0880F991FFC01E059FE4F07
:100FF000A081B181EA81FB818081882F90E0880FF8
:10100000991FFC01E059FE4F0190F081E02D808195
:10101000482FEA81FB818181282F30E081E090E038
:10102000022E02C0880F991F0A94E2F784278C933E
:10103000198202C082E0898389810F900F900F90FE
:10104000CF91DF910895DF93CF93CDB7DEB7289787
:101050000FB6F894DEBF0FBECDBF8A836B834C837F
:1010600081E089838B81282F30E038872F838F811F
:101070009885009731F02F8138852130310579F03E
:101080001CC08A81882F90E0880F991FFC01E859C5
:10109000FE4F0190F081E02D108219820EC08A81EE
:1010A000882F90E0880F991FFC01E859FE4F0190AE
:1010B000F081E02D8FEF808319828C81282F30E022
:1010C0003E832D838D819E81009731F02D813E815D
:1010D0002130310579F01CC08A81882F90E0880F7B
:1010E000991FFC01E059FE4F0190F081E02D108224
:1010F00019820EC08A81882F90E0880F991FFC0109
:10110000E059FE4F0190F081E02D8FEF808319822E
:10111000898128960FB6F894DEBF0FBECDBFCF9160
:10112000DF910895DF93CF9300D000D00F92CDB719
:10113000DEB78A836B8381E089838B81282F30E03F
:101140003D832C838C819D81009731F02C813D81E2
:101150002130310579F01CC08A81882F90E0880FFA
:10116000991FFC01E859FE4F0190F081E02D10829B
:1011700019820EC08A81882F90E0880F991FFC0188
:10118000E859FE4F0190F081E02D8FEF80831982A6
:1011900089810F900F900F900F900F90CF91DF915A
:1011A0000895DF93CF9300D000D00F92CDB7DEB774
:1011B0008A836B8381E089838B81282F30E03D8394
:1011C0002C838C819D81009731F02C813D812130D1
:1011D000310579F01CC08A81882F90E0880F991F13
:1011E000FC01E059FE4F0190F081E02D1082198240
:1011F0000EC08A81882F90E0880F991FFC01E0596A
:10120000FE4F0190F081E02D8FEF8083198289815C
:101210000F900F900F900F900F90CF91DF91089546
:10122000DF93CF9300D000D0CDB7DEB78A837C8325
:101230006B8381E089838A81882F90E0880F991FD2
:10124000FC01E858FE4F0190F081E02D8081EB8198
:10125000FC818083198289810F900F900F900F90ED
:10126000CF91DF910895DF93CF9300D0CDB7DEB754
:101270008A8381E089838A81882F90E0880F991F73
:10128000FC01E859FE4FA081B1818A81882F90E04E
:10129000880F991FFC01E859FE4F0190F081E02D65
:1012A00020818A81882F90E0880F991FFC01E859DE
:1012B000FE4F0190F081E02D808182278C9319826E
:1012C00089810F900F90CF91DF910895DF93CF9395
:1012D00000D00F92CDB7DEB78A836B8381E089831C
:1012E0008A81882F90E0880F991FFC01E059FE4FFA
:1012F000A081B1818A81882F90E0880F991FFC011D
:10130000E059FE4F0190F081E02D80818F708C9329
:101310008A81882F90E0880F991FFC01E059FE4FC9
:10132000A081B1818A81882F90E0880F991FFC01EC
:10133000E059FE4F0190F081E02D8081282F8B81B4
:10134000882F90E082959295907F9827807F9827AC
:10135000822B8C93198289810F900F900F90CF91DF
:10136000DF910895DF93CF93CDB7DEB727970FB600
:10137000F894DEBF0FBECDBF8A834B835C836D8341
:101380007E8381E089838A81882F90E0880F991F6E
:10139000FC01E059FE4F0190F081E02D80818A81AF
:1013A000882F90E0880F991FFC01E059FE4F0190B3
:1013B000F081E02D10828A81882F90E0880F991F9C
:1013C000FC01E059FE4FA081B1818A81882F90E015
:1013D000880F991FFC01E059FE4F0190F081E02D2C
:1013E00090818B81892B8C931982898127960FB6E6
:1013F000F894DEBF0FBECDBFCF91DF910895DF938C
:10140000CF9300D000D00F92CDB7DEB79D838C83F1
:1014100081E08B838C819D81009709F467C01A82DB
:101420001982A6E2B0E0E6E2F0E080818F778C934B
:101430008A81282F2F73EC81FD818281882F90E093
:101440000024969587950794969587950794982FED
:10145000802D822B8A838A81282F2F7DEC81FD812C
:101460008381882F90E0880F991F82959295907FB5
:101470009827807F9827822B8A838A81982F907E55
:10148000EC81FD818481892B8A838981982F987FC3
:10149000EC81FD818581892B89838981282F277F94
:1014A000EC81FD818681882F90E0880F991F880F3D
:1014B000991F880F991F822B8983E7E2F0E08A81C8
:1014C0008083E6E2F0E089818083EC81FD81808188
:1014D00091819093970180939601A6E2B0E0E6E2B5
:1014E000F0E0808180688C931B8202C082E08B8355
:1014F0008B810F900F900F900F900F90CF91DF91F5
:101500000895DF93CF9300D00F92CDB7DEB79B83C2
:101510008A8381E089838A819B81009781F0A6E29A
:10152000B0E0E6E2F0E08081877F8C93A6E2B0E055
:10153000E6E2F0E080818F778C93198202C082E02E
:10154000898389810F900F900F90CF91DF9108953B
:10155000DF93CF9300D00F92CDB7DEB79B838A8302
:1015600081E089838A819B81009749F0A6E2B0E0FF
:10157000E6E2F0E0808180648C93198202C082E010
:10158000898389810F900F900F90CF91DF910895FB
:10159000DF93CF93CDB7DEB727970FB6F894DEBFB2
:1015A0000FBECDBF9B838A837D836C8381E089835B
:1015B0008A819B81009709F45BC08C819D81009793
:1015C00009F456C0E6E2F0E0808182958F70882FA2
:1015D00090E0817090700097A9F3A6E2B0E0E6E297
:1015E000F0E0808180618C93EA81FB818381282FE8
:1015F00030E03F832E838E819F81009731F02E81D2
:101600003F8121303105A9F030C0E4E2F0E0808173
:10161000282F30E0E5E2F0E08081882F90E0982FDD
:101620008827820F931FEC81FD819183808319822B
:1016300021C0E4E2F0E08081282F30E0E5E2F0E034
:101640008081882F90E0982F8827820F931F082E83
:10165000892F000C881F990B000C881F991FEC81A3
:10166000FD8191838083198205C081E0898302C056
:1016700082E08983898127960FB6F894DEBF0FBE7A
:10168000CDBFCF91DF9108951F920F920FB60F92A9
:1016900011242F933F934F935F936F937F938F9377
:1016A0009F93AF93BF93EF93FF93DF93CF93CDB708
:1016B000DEB78091960190919701009729F0E09113
:1016C0009601F09197010995CF91DF91FF91EF91EC
:1016D000BF91AF919F918F917F916F915F914F914A
:1016E0003F912F910F900FBE0F901F901895DF9391
:1016F000CF93CDB7DEB728970FB6F894DEBF0FBEF5
:10170000CDBF98878F8381E08A8381E089838F8131
:1017100098850097D9F0EF81F8858181EF81F88570
:101720009281EF81F88520818B839C8381E08D837A
:101730002E83CE0103960E946B06898389818823BC
:1017400011F41A8205C081E08A8302C082E08A8394
:101750008A8128960FB6F894DEBF0FBECDBFCF9119
:10176000DF910895DF93CF93CDB7DEB728970FB6FB
:10177000F894DEBF0FBECDBF98878F8381E08A8348
:1017800081E089838F8198850097E1F0EF81F8856A
:101790008181EF81F8859281EF81F88520818B83AB
:1017A0009C8381E08D832E83CE01039661E00E94AD
:1017B0001D0789838981882311F41A8205C081E07D
:1017C0008A8302C082E08A838A8128960FB6F894C1
:1017D000DEBF0FBECDBFCF91DF910895DF93CF93D2
:1017E000CDB7DEB728970FB6F894DEBF0FBECDBFDA
:1017F00098878F8381E08A8381E089838F819885B0
:101800000097E1F0EF81F8858181EF81F885928181
:10181000EF81F88520818B839C8381E08D832E83EB
:10182000CE01039660E00E941D0789838981882389
:1018300011F41A8205C081E08A8302C082E08A83A3
:101840008A8128960FB6F894DEBF0FBECDBFCF9128
:10185000DF910895DF93CF93CDB7DEB728970FB60A
:10186000F894DEBF0FBECDBF98878F8381E08A8357
:1018700081E089838F8198850097D9F0EF81F88581
:101880008181EF81F8859281EF81F88520818B83BA
:101890009C8381E08D832E83CE0103960E94E00716
:1018A00089838981882311F41A8205C081E08A83A3
:1018B00002C082E08A838A8128960FB6F894DEBF40
:1018C0000FBECDBFCF91DF9108950F931F93DF938C
:1018D000CF93CDB7DEB7CE59D0400FB6F894DEBF68
:1018E0000FBECDBFFE01E356FF4F91838083FE0103
:1018F000E058FF4F81E08083FE01E158FF4F81E017
:101900008083FE01E356FF4F80819181009709F4A7
:1019100018C7FE01E356FF4F0190F081E02D818151
:10192000FE01E356FF4F0190F081E02D9381FE010F
:10193000EF57FF4F8083FE01EF57FF4F9183FE016A
:10194000EF57FF4F81E08283FE01EF57FF4F138275
:10195000FE01E356FF4F0190F081E02D8181FE01F1
:10196000E356FF4F0190F081E02D9481FE01EB578B
:10197000FF4F8083FE01EB57FF4F9183FE01EB5732
:10198000FF4F81E08283FE01EB57FF4F1382FE0180
:10199000E356FF4F0190F081E02D8181FE01E35677
:1019A000FF4F0190F081E02D9581FE01E757FF4F39
:1019B0008083FE01E757FF4F9183FE01E757FF4FFA
:1019C00081E08283FE01E757FF4F1382CE018F57DC
:1019D0009F4F0E946B06FE01E158FF4F8083FE017E
:1019E000E158FF4F8081882351F4CE018B579F4FE0
:1019F0000E946B06FE01E158FF4F808305C0FE0187
:101A0000E058FF4F81E08083FE01E158FF4F808165
:101A1000882351F4CE0187579F4F0E946B06FE0129
:101A2000E158FF4F808305C0FE01E058FF4F81E081
:101A30008083FE01E356FF4F0190F081E02D80810D
:101A4000882309F042C4FE01E356FF4F0190F08164
:101A5000E02D8281FE01E356FF4F0190F081E02DE1
:101A60009285FE01E357FF4F8083FE01E357FF4F4E
:101A70009183FE01E357FF4F81E08283FE01E3572C
:101A8000FF4F1382FE01E356FF4F0190F081E02DDE
:101A90008281FE01E356FF4F0190F081E02D938596
:101AA000FE01EF56FF4F8083FE01EF56FF4F9183FB
:101AB000FE01EF56FF4F81E08283FE01EF56FF4F9C
:101AC0001382FE01E356FF4F0190F081E02D8281E9
:101AD000FE01E356FF4F0190F081E02D9485FE0159
:101AE000EB56FF4F8083FE01EB56FF4F9183FE01C3
:101AF000EB56FF4F81E08283FE01EB56FF4F1382CE
:101B0000FE01E356FF4F0190F081E02D8281FE013E
:101B1000E356FF4F0190F081E02D9585FE01E756D9
:101B2000FF4F8083FE01E756FF4F9183FE01E7568A
:101B3000FF4F81E08283FE01E756FF4F1382FE01D3
:101B4000E158FF4F8081882351F4CE0183579F4F86
:101B50000E946B06FE01E158FF4F808305C0FE0125
:101B6000E058FF4F81E08083FE01E158FF4F808104
:101B7000882351F4CE018F569F4F0E946B06FE01C1
:101B8000E158FF4F808305C0FE01E058FF4F81E020
:101B90008083FE01E158FF4F8081882351F4CE01FC
:101BA0008B569F4F0E946B06FE01E158FF4F8083CA
:101BB00005C0FE01E058FF4F81E08083FE01E1583F
:101BC000FF4F8081882351F4CE0187569F4F0E949A
:101BD0006B06FE01E158FF4F808305C0FE01E0580F
:101BE000FF4F81E08083FE01E558FF4F80E090E0E9
:101BF000A0EFB1E480839183A283B3838E0109585F
:101C00001F4FFE01E558FF4F6081718182819381F2
:101C100020E030E04AEF54E40E941F02DC01CB01D7
:101C2000F80180839183A283B383FE01E958FF4FBB
:101C3000608171818281938120E030E040E85FE340
:101C40000E947903882344F4FE01EB58FF4F81E0A2
:101C500090E09183808364C0FE01E958FF4F60816A
:101C600071818281938120E03FEF4FE757E40E942A
:101C7000190318160CF043C0FE01E558FF4F6081B0
:101C800071818281938120E030E040E251E40E9442
:101C90001F02DC01CB018E010B581F4FBC01CD018F
:101CA0000E944900DC01CB01F801918380831FC0B1
:101CB000FE01ED58FF4F88EC90E091838083FE0198
:101CC000ED58FF4F808191810197F1F7FE01ED58AA
:101CD000FF4F91838083DE01AB58BF4FFE01EB586D
:101CE000FF4F80819181019711969C938E93FE0105
:101CF000EB58FF4F808191810097D1F627C08E016C
:101D00000B581F4FFE01E958FF4F6081718182819E
:101D100093810E944900DC01CB01F801918380830B
:101D2000DE01AF58BF4FFE01EB58FF4F808191811C
:101D30008D939C93FE01EF58FF4F80819181019715
:101D4000F1F7FE01EF58FF4F91838083FE01E356C8
:101D5000FF4F8081918168E20E94B613FE01E35932
:101D6000FF4F80E090E0A8E4B2E480839183A283F7
:101D7000B3838E0107591F4FFE01E359FF4F608166
:101D800071818281938120E030E04AEF54E40E9427
:101D90001F02DC01CB01F80180839183A283B3830E
:101DA000FE01E759FF4F608171818281938120E0BC
:101DB00030E040E85FE30E947903882344F4FE01A9
:101DC000E959FF4F81E090E09183808364C0FE0178
:101DD000E759FF4F608171818281938120E03FEF5D
:101DE0004FE757E40E94190318160CF043C0FE0198
:101DF000E359FF4F608171818281938120E030E05F
:101E000040E251E40E941F02DC01CB018E0109591E
:101E10001F4FBC01CD010E944900DC01CB01F8013C
:101E2000918380831FC0FE01EB59FF4F88EC90E047
:101E300091838083FE01EB59FF4F8081918101974F
:101E4000F1F7FE01EB59FF4F91838083DE01A95921
:101E5000BF4FFE01E959FF4F808191810197119693
:101E60009C938E93FE01E959FF4F808191810097E9
:101E7000D1F627C08E0109591F4FFE01E759FF4FC8
:101E800060817181828193810E944900DC01CB01D4
:101E9000F80191838083DE01AD59BF4FFE01E959FE
:101EA000FF4F808191818D939C93FE01ED59FF4FEF
:101EB000808191810197F1F7FE01ED59FF4F9183E8
:101EC0008083FE01E356FF4F808191816FE00E9485
:101ED000B613FE01E15AFF4F80E090E0A8E4B2E4BF
:101EE00080839183A283B3838E01055A1F4FFE0125
:101EF000E15AFF4F608171818281938120E030E05F
:101F00004AEF54E40E941F02DC01CB01F8018083F8
:101F10009183A283B383FE01E55AFF4F60817181F3
:101F20008281938120E030E040E85FE30E94790302
:101F3000882344F4FE01E75AFF4F81E090E091834B
:101F4000808364C0FE01E55AFF4F60817181828108
:101F5000938120E03FEF4FE757E40E9419031816E2
:101F60000CF043C0FE01E15AFF4F60817181828114
:101F7000938120E030E040E251E40E941F02DC0146
:101F8000CB018E01075A1F4FBC01CD010E944900B1
:101F9000DC01CB01F801918380831FC0FE01E95A67
:101FA000FF4F88EC90E091838083FE01E95AFF4F58
:101FB000808191810197F1F7FE01E95AFF4F9183EA
:101FC0008083DE01A75ABF4FFE01E75AFF4F808191
:101FD0009181019711969C938E93FE01E75AFF4FD2
:101FE000808191810097D1F627C08E01075A1F4F3B
:101FF000FE01E55AFF4F60817181828193810E94C9
:102000004900DC01CB01F80191838083DE01AB5AEA
:10201000BF4FFE01E75AFF4F808191818D939C93C2
:10202000FE01EB5AFF4F808191810197F1F7FE018C
:10203000EB5AFF4F91838083FE01E356FF4F80816F
:10204000918161E00E94B613FE01EF5AFF4F80E0DC
:1020500090E0A8E4B2E480839183A283B3838E01ED
:10206000035B1F4FFE01EF5AFF4F60817181828138
:10207000938120E030E04AEF54E40E941F02DC012B
:10208000CB01F80180839183A283B383FE01E35BDC
:10209000FF4F608171818281938120E030E040E8D0
:1020A0005FE30E947903882344F4FE01E55BFF4F60
:1020B00081E090E09183808364C0FE01E35BFF4F89
:1020C000608171818281938120E03FEF4FE757E487
:1020D0000E94190318160CF043C0FE01EF5AFF4F7F
:1020E000608171818281938120E030E040E251E49F
:1020F0000E941F02DC01CB018E01055B1F4FBC015A
:10210000CD010E944900DC01CB01F801918380835D
:102110001FC0FE01E75BFF4F88EC90E09183808356
:10212000FE01E75BFF4F808191810197F1F7FE018E
:10213000E75BFF4F91838083DE01A55BBF4FFE010C
:10214000E55BFF4F80819181019711969C938E935F
:10215000FE01E55BFF4F808191810097D1F627C09A
:102160008E01055B1F4FFE01E35BFF4F60817181B4
:10217000828193810E944900DC01CB01F8019183A7
:102180008083DE01A95BBF4FFE01E55BFF4F8081CD
:1021900091818D939C93FE01E95BFF4F808191813A
:1021A0000197F1F7FE01E95BFF4F91838083FE0108
:1021B000E356FF4F8081918166E00E94B613FE01D5
:1021C000ED5BFF4F80E090E0A8E4B2E48083918370
:1021D000A283B3838E01015C1F4FFE01ED5BFF4FB5
:1021E000608171818281938120E030E04AEF54E484
:1021F0000E941F02DC01CB01F80180839183A2833E
:10220000B383FE01FF96608171818281938120E01A
:1022100030E040E85FE30E94790388232CF481E0FA
:1022200090E09EAF8DAF46C0FE01FF966081718148
:102230008281938120E03FEF4FE757E40E9419032A
:10224000181664F5FE01ED5BFF4F6081718182819C
:10225000938120E030E040E251E40E941F02DC0163
:10226000CB01BC01CD010E944900DC01CB019EAF36
:102270008DAF0FC088EC90E09CAF8BAF8BAD9CAD69
:102280000197F1F79CAF8BAF8DAD9EAD01979EAFDF
:102290008DAF8DAD9EAD009769F758C2FE01FF96D8
:1022A00060817181828193810E944900DC01CB01B0
:1022B0009EAF8DAF8DAD9EAD9AAF89AF89AD9AAD12
:1022C0000197F1F79AAF89AF41C2FE01E356FF4F84
:1022D0000190F081E02D8081813009F02CC2FE0157
:1022E000E158FF4F8081882381F4FE01E356FF4FC0
:1022F0000190F081E02D828161E040E00E9423089E
:10230000FE01E158FF4F808305C0FE01E058FF4FFA
:1023100081E0808380E090E0A0E8BFE38DAB9EABDE
:10232000AFABB8AF6DA97EA98FA998AD20E030E022
:102330004AEF54E40E941F02DC01CB0189AB9AAB47
:10234000ABABBCAB69A97AA98BA99CA920E030E012
:1023500040E85FE30E94790388232CF481E090E059
:1023600098AB8FA73FC069A97AA98BA99CA920E047
:102370003FEF4FE757E40E94190318164CF56DA97B
:102380007EA98FA998AD20E030E040E251E40E94A0
:102390001F02DC01CB01BC01CD010E944900DC0120
:1023A000CB0198AB8FA70FC088EC90E09EA78DA7BC
:1023B0008DA59EA50197F1F79EA78DA78FA598A93A
:1023C000019798AB8FA78FA598A9009769F714C0BC
:1023D00069A97AA98BA99CA90E944900DC01CB01BB
:1023E00098AB8FA78FA598A99CA78BA78BA59CA519
:1023F0000197F1F79CA78BA7FE01E158FF4F808161
:10240000882369F4FE01E356FF4F8081918168E3E0
:102410000E94B613FE01E058FF4F808305C0FE0105
:10242000E058FF4F81E0808380E090E0A0E8BFE3C8
:102430008FA398A7A9A7BAA76FA178A589A59AA5E0
:1024400020E030E04AEF54E40E941F02DC01CB019F
:102450008BA39CA3ADA3BEA36BA17CA18DA19EA1C8
:1024600020E030E040E85FE30E94790388232CF409
:1024700081E090E09AA389A33FC06BA17CA18DA1CC
:102480009EA120E03FEF4FE757E40E941903181682
:102490004CF56FA178A589A59AA520E030E040E22F
:1024A00051E40E941F02DC01CB01BC01CD010E945E
:1024B0004900DC01CB019AA389A30FC088EC90E00E
:1024C00098A38F8F8F8D98A10197F1F798A38F8F85
:1024D00089A19AA101979AA389A389A19AA100979A
:1024E00069F714C06BA17CA18DA19EA10E94490037
:1024F000DC01CB019AA389A389A19AA19E8F8D8F1C
:102500008D8D9E8D0197F1F79E8F8D8FFE01E05886
:10251000FF4F8081882369F4FE01E356FF4F8081DD
:1025200091816EE00E94B613FE01E058FF4F808358
:1025300005C0FE01E058FF4F81E0808380E090E01D
:10254000A0E8BFE3898F9A8FAB8FBC8F698D7A8D9E
:102550008B8D9C8D20E030E04AEF54E40E941F02F6
:10256000DC01CB018D8B9E8BAF8BB88F6D897E8903
:102570008F89988D20E030E040E85FE30E94790386
:1025800088232CF481E090E09C8B8B8B3FC06D897D
:102590007E898F89988D20E03FEF4FE757E40E94B6
:1025A000190318164CF5698D7A8D8B8D9C8D20E062
:1025B00030E040E251E40E941F02DC01CB01BC018B
:1025C000CD010E944900DC01CB019C8B8B8B0FC09D
:1025D00088EC90E09A8B898B89899A890197F1F729
:1025E0009A8B898B8B899C8901979C8B8B8B8B8990
:1025F0009C89009769F714C06D897E898F89988DB1
:102600000E944900DC01CB019C8B8B8B8B899C89C0
:10261000988B8F878F8598890197F1F7988B8F8793
:10262000FE01E058FF4F8081882369F4FE01E356E4
:10263000FF4F8081918161E00E94B613FE01E05856
:10264000FF4F808305C0FE01E058FF4F81E080838B
:1026500080E090E0A0E8BFE38B879C87AD87BE87D2
:102660006B857C858D859E8520E030E04AEF54E4C3
:102670000E941F02DC01CB018F839887A987BA874C
:102680006F81788589859A8520E030E040E85FE3B6
:102690000E94790388232CF481E090E09E838D834F
:1026A0003FC06F81788589859A8520E03FEF4FE7AD
:1026B00057E40E94190318164CF56B857C858D85AF
:1026C0009E8520E030E040E251E40E941F02DC01E0
:1026D000CB01BC01CD010E944900DC01CB019E83EE
:1026E0008D830FC088EC90E09C838B838B819C81D1
:1026F0000197F1F79C838B838D819E8101979E8347
:102700008D838D819E81009769F720C06F817885C8
:1027100089859A850E944900DC01CB019E838D83C7
:102720008D819E819A83898389819A810197F1F7AE
:102730009A8389830BC0FE01E058FF4F83E08083BA
:1027400005C0FE01E058FF4F82E08083FE01E058A3
:10275000FF4F8081C256DF4F0FB6F894DEBF0FBE29
:10276000CDBFCF91DF911F910F9108950F931F93CC
:10277000DF93CF93CDB7DEB7CD59D0400FB6F894E5
:10278000DEBF0FBECDBFFE01E556FF4F91838083B4
:10279000FE01E356FF4F6083FE01E257FF4F81E0E9
:1027A0008083FE01E357FF4F81E08083FE01E55601
:1027B000FF4F80819181009709F42FC7FE01E556F4
:1027C000FF4F0190F081E02D8181FE01E556FF4F22
:1027D0000190F081E02D9381FE01E157FF4F80834E
:1027E000FE01E157FF4F9183FE01E157FF4F81E06A
:1027F0008283FE01E157FF4F1382FE01E556FF4F32
:102800000190F081E02D8181FE01E556FF4F01909E
:10281000F081E02D9481FE01ED56FF4F8083FE0193
:10282000ED56FF4F9183FE01ED56FF4F81E082830D
:10283000FE01ED56FF4F1382FE01E556FF4F01905A
:10284000F081E02D8181FE01E556FF4F0190F0817E
:10285000E02D9581FE01E956FF4F8083FE01E95688
:10286000FF4F9183FE01E956FF4F81E08283FE0115
:10287000E956FF4F1382CE0181579F4F60E00E94BF
:102880001D07FE01E357FF4F8083FE01E357FF4F13
:102890008081882359F4CE018D569F4F60E00E94BD
:1028A0001D07FE01E357FF4F808305C0FE01E2577D
:1028B000FF4F81E08083FE01E757FF4F80E090E00B
:1028C000A0EFB1E480839183A283B3838E010B5781
:1028D0001F4FFE01E757FF4F608171818281938115
:1028E00020E030E04AEF54E40E941F02DC01CB01FB
:1028F000F80180839183A283B383FE01EB57FF4FDE
:10290000608171818281938120E030E040E85FE363
:102910000E947903882344F4FE01ED57FF4F81E0C4
:1029200090E09183808364C0FE01EB57FF4F60818C
:1029300071818281938120E03FEF4FE757E40E944D
:10294000190318160CF043C0FE01E757FF4F6081D2
:1029500071818281938120E030E040E251E40E9465
:102960001F02DC01CB018E010D571F4FBC01CD01B1
:102970000E944900DC01CB01F801918380831FC0D4
:10298000FE01EF57FF4F88EC90E091838083FE01BA
:10299000EF57FF4F808191810197F1F7FE01EF57CB
:1029A000FF4F91838083DE01AD57BF4FFE01ED578E
:1029B000FF4F80819181019711969C938E93FE0128
:1029C000ED57FF4F808191810097D1F628C08E018D
:1029D0000D571F4FFE01EB57FF4F608171818281C0
:1029E00093810E944900DC01CB01F801918380832F
:1029F000DE01A158BF4FFE01ED57FF4F808191814D
:102A000011969C938E93FE01E158FF4F8081918136
:102A10000197F1F7FE01E158FF4F91838083FE019A
:102A2000E556FF4F0190F081E02D8081882309F069
:102A30003DC4FE01E357FF4F8081882359F4CE0146
:102A400089569F4F61E00E941D07FE01E357FF4F2B
:102A5000808305C0FE01E257FF4F81E08083FE01C5
:102A6000E558FF4F80E090E0A8E4B2E480839183D2
:102A7000A283B3838E0109581F4FFE01E558FF4F13
:102A8000608171818281938120E030E04AEF54E4DB
:102A90000E941F02DC01CB01F80180839183A28395
:102AA000B383FE01E958FF4F608171818281938178
:102AB00020E030E040E85FE30E947903882344F49B
:102AC000FE01EB58FF4F81E090E09183808364C06A
:102AD000FE01E958FF4F608171818281938120E07E
:102AE0003FEF4FE757E40E94190318160CF043C05C
:102AF000FE01E558FF4F608171818281938120E062
:102B000030E040E251E40E941F02DC01CB018E0163
:102B10000B581F4FBC01CD010E944900DC01CB01C5
:102B2000F801918380831FC0FE01ED58FF4F88ECB0
:102B300090E091838083FE01ED58FF4F8081918169
:102B40000197F1F7FE01ED58FF4F91838083DE017D
:102B5000AB58BF4FFE01EB58FF4F80819181019729
:102B600011969C938E93FE01EB58FF4F80819181CB
:102B70000097D1F627C08E010B581F4FFE01E95870
:102B8000FF4F60817181828193810E944900DC0145
:102B9000CB01F80191838083DE01AF58BF4FFE0166
:102BA000EB58FF4F808191818D939C93FE01EF58EC
:102BB000FF4F808191810197F1F7FE01EF58FF4FA0
:102BC00091838083FE01E556FF4F0190F081E02D57
:102BD0002281FE01E356FF4F8081982F92959F70CE
:102BE000822F692F0E946609FE01E359FF4F80E0A2
:102BF00090E0A8E4B2E480839183A283B3838E0142
:102C000007591F4FFE01E359FF4F60817181828197
:102C1000938120E030E04AEF54E40E941F02DC017F
:102C2000CB01F80180839183A283B383FE01E7592E
:102C3000FF4F608171818281938120E030E040E824
:102C40005FE30E947903882344F4FE01E959FF4FB2
:102C500081E090E09183808364C0FE01E759FF4FDB
:102C6000608171818281938120E03FEF4FE757E4DB
:102C70000E94190318160CF043C0FE01E359FF4FE0
:102C8000608171818281938120E030E040E251E4F3
:102C90000E941F02DC01CB018E0109591F4FBC01AC
:102CA000CD010E944900DC01CB01F80191838083B2
:102CB0001FC0FE01EB59FF4F88EC90E091838083A9
:102CC000FE01EB59FF4F808191810197F1F7FE01E1
:102CD000EB59FF4F91838083DE01A959BF4FFE015D
:102CE000E959FF4F80819181019711969C938E93B2
:102CF000FE01E959FF4F808191810097D1F628C0EC
:102D00008E0109591F4FFE01E759FF4F6081718104
:102D1000828193810E944900DC01CB01F8019183FB
:102D20008083DE01AD59BF4FFE01E959FF4F80811D
:102D3000918111969C938E93FE01ED59FF4F8081F6
:102D400091810197F1F7FE01ED59FF4F9183808347
:102D5000FE01E357FF4F8081882359F4CE01895645
:102D60009F4F60E00E941D07FE01E357FF4F8083E5
:102D700005C0FE01E257FF4F81E08083FE01E15A6A
:102D8000FF4F80E090E0A8E4B2E480839183A283C7
:102D9000B3838E01055A1F4FFE01E15AFF4F608138
:102DA00071818281938120E030E04AEF54E40E94F7
:102DB0001F02DC01CB01F80180839183A283B383DE
:102DC000FE01E55AFF4F608171818281938120E08D
:102DD00030E040E85FE30E947903882344F4FE0179
:102DE000E75AFF4F81E090E09183808364C0FE0149
:102DF000E55AFF4F608171818281938120E03FEF2E
:102E00004FE757E40E94190318160CF043C0FE0167
:102E1000E15AFF4F608171818281938120E030E02F
:102E200040E251E40E941F02DC01CB018E01075AEF
:102E30001F4FBC01CD010E944900DC01CB01F8010C
:102E4000918380831FC0FE01E95AFF4F88EC90E018
:102E500091838083FE01E95AFF4F80819181019720
:102E6000F1F7FE01E95AFF4F91838083DE01A75AF3
:102E7000BF4FFE01E75AFF4F808191810197119664
:102E80009C938E93FE01E75AFF4F808191810097BA
:102E9000D1F628C08E01075A1F4FFE01E55AFF4F99
:102EA00060817181828193810E944900DC01CB01A4
:102EB000F80191838083DE01AB5ABF4FFE01E75AD0
:102EC000FF4F8081918111969C938E93FE01EB5A66
:102ED000FF4F808191810197F1F7FE01EB5AFF4F7F
:102EE00091838083FE01E357FF4F8081882359F44B
:102EF000CE0189569F4F61E00E941D07FE01E357F6
:102F0000FF4F808305C0FE01E257FF4F81E08083C1
:102F1000FE01EF5AFF4F80E090E0A8E4B2E4808326
:102F20009183A283B3838E01035B1F4FFE01EF5A8F
:102F3000FF4F608171818281938120E030E04AEF10
:102F400054E40E941F02DC01CB01F80180839183CD
:102F5000A283B383FE01E35BFF4F608171818281B5
:102F6000938120E030E040E85FE30E94790388230A
:102F700044F4FE01E55BFF4F81E090E091838083A4
:102F800064C0FE01E35BFF4F6081718182819381A8
:102F900020E03FEF4FE757E40E94190318160CF0AA
:102FA00043C0FE01EF5AFF4F60817181828193819E
:102FB00020E030E040E251E40E941F02DC01CB013E
:102FC0008E01055B1F4FBC01CD010E944900DC0151
:102FD000CB01F801918380831FC0FE01E75BFF4FA7
:102FE00088EC90E091838083FE01E75BFF4F808156
:102FF00091810197F1F7FE01E75BFF4F9183808399
:10300000DE01A55BBF4FFE01E55BFF4F8081918133
:10301000019711969C938E93FE01E55BFF4F808193
:1030200091810097D1F627C08E01055B1F4FFE01ED
:10303000E35BFF4F60817181828193810E9449002F
:10304000DC01CB01F80191838083DE01A95BBF4FD6
:10305000FE01E55BFF4F808191818D939C93FE0182
:10306000E95BFF4F808191810197F1F7FE01E95BF8
:10307000FF4F91838083FE01E556FF4F0190F08161
:10308000E02D8281FE01E356FF4F60810E946609B8
:10309000FE01ED5BFF4F80E090E0A8E4B2E48083A6
:1030A0009183A283B3838E01015C1F4FFE01ED5B10
:1030B000FF4F608171818281938120E030E04AEF8F
:1030C00054E40E941F02DC01CB01F801808391834C
:1030D000A283B383FE01FF96608171818281938117
:1030E00020E030E040E85FE30E94790388232CF47D
:1030F00081E090E09EAF8DAF46C0FE01FF966081FB
:1031000071818281938120E03FEF4FE757E40E9475
:103110001903181664F5FE01ED5BFF4F60817181A4
:103120008281938120E030E040E251E40E941F025E
:10313000DC01CB01BC01CD010E944900DC01CB01C7
:103140009EAF8DAF0FC088EC90E09CAF8BAF8BAD86
:103150009CAD0197F1F79CAF8BAF8DAD9EAD019704
:103160009EAF8DAF8DAD9EAD009769F716C0FE0185
:10317000FF9660817181828193810E944900DC0108
:10318000CB019EAF8DAF8DAD9EAD9AAF89AF89ADAE
:103190009AAD0197F1F79AAF89AFFE01E357FF4F60
:1031A0008081882359F4CE0189569F4F60E00E94A8
:1031B0001D07FE01E357FF4F808305C0FE01E25764
:1031C000FF4F81E0808380E090E0A8E4B2E48DAB23
:1031D0009EABAFABB8AF6DA97EA98FA998AD20E02B
:1031E00030E04AEF54E40E941F02DC01CB0189ABBE
:1031F0009AABABABBCAB69A97AA98BA99CA920E01F
:1032000030E040E85FE30E94790388232CF481E0FA
:1032100090E098AB8FA73FC069A97AA98BA99CA918
:1032200020E03FEF4FE757E40E94190318164CF5D2
:103230006DA97EA98FA998AD20E030E040E251E46D
:103240000E941F02DC01CB01BC01CD010E9449009C
:10325000DC01CB0198AB8FA70FC088EC90E09EA754
:103260008DA78DA59EA50197F1F79EA78DA78FA588
:1032700098A9019798AB8FA78FA598A9009769F790
:10328000BBC169A97AA98BA99CA90E944900DC014C
:10329000CB0198AB8FA78FA598A99CA78BA78BA5CF
:1032A0009CA50197F1F79CA78BA7A6C1FE01E55647
:1032B000FF4F0190F081E02D8081813009F097C1AE
:1032C000FE01E357FF4F8081882359F4CE018956D0
:1032D0009F4F61E00E941D07FE01E357FF4F80836F
:1032E00005C0FE01E257FF4F81E0808380E090E05F
:1032F000A0E8BFE38FA398A7A9A7BAA76FA178A555
:1033000089A59AA520E030E04AEF54E40E941F020C
:10331000DC01CB018BA39CA3ADA3BEA36BA17CA1BD
:103320008DA19EA120E030E040E85FE30E94790398
:1033300088232CF481E090E09AA389A33FC06BA17D
:103340007CA18DA19EA120E03FEF4FE757E40E94B2
:10335000190318164CF56FA178A589A59AA520E048
:1033600030E040E251E40E941F02DC01CB01BC01CD
:10337000CD010E944900DC01CB019AA389A30FC0B3
:1033800088EC90E098A38F8F8F8D98A10197F1F72B
:1033900098A38F8F89A19AA101979AA389A389A144
:1033A0009AA1009769F714C06BA17CA18DA19EA181
:1033B0000E944900DC01CB019AA389A389A19AA1AB
:1033C0009E8F8D8F8D8D9E8D0197F1F79E8F8D8FA6
:1033D000FE01E556FF4F0190F081E02D9281FE0144
:1033E000E356FF4F8081282F30E040E050E0892FE6
:1033F000BA01A9010E94B20980E090E0A0E8BFE311
:10340000898F9A8FAB8FBC8F698D7A8D8B8D9C8DB8
:1034100020E030E04AEF54E40E941F02DC01CB01BF
:103420008D8B9E8BAF8BB88F6D897E898F89988DA0
:1034300020E030E040E85FE30E94790388232CF429
:1034400081E090E09C8B8B8B3FC06D897E898F895A
:10345000988D20E03FEF4FE757E40E9419031816BC
:103460004CF5698D7A8D8B8D9C8D20E030E040E2AB
:1034700051E40E941F02DC01CB01BC01CD010E947E
:103480004900DC01CB019C8B8B8B0FC088EC90E05A
:103490009A8B898B89899A890197F1F79A8B898B05
:1034A0008B899C8901979C8B8B8B8B899C8900973E
:1034B00069F714C06D897E898F89988D0E944900B3
:1034C000DC01CB019C8B8B8B8B899C89988B8F87A4
:1034D0008F8598890197F1F7988B8F87FE01E357C5
:1034E000FF4F8081882359F4CE0189569F4F60E0B9
:1034F0000E941D07FE01E357FF4F808305C0FE01B8
:10350000E257FF4F81E0808380E090E0A0E8BFE3D6
:103510008B879C87AD87BE876B857C858D859E85D7
:1035200020E030E04AEF54E40E941F02DC01CB01AE
:103530008F839887A987BA876F81788589859A85CF
:1035400020E030E040E85FE30E94790388232CF418
:1035500081E090E09E838D833FC06F81788589856F
:103560009A8520E03FEF4FE757E40E9419031816B1
:103570004CF56B857C858D859E8520E030E040E2B2
:1035800051E40E941F02DC01CB01BC01CD010E946D
:103590004900DC01CB019E838D830FC088EC90E055
:1035A0009C838B838B819C810197F1F79C838B8318
:1035B0008D819E8101979E838D838D819E81009751
:1035C00069F71AC06F81788589859A850E944900BC
:1035D000DC01CB019E838D838D819E819A838983BB
:1035E00089819A810197F1F79A83898305C0FE0149
:1035F000E257FF4F83E08083FE01E357FF4F808156
:10360000882329F4FE01E257FF4F10820BC0FE0110
:10361000E257FF4F81E0808305C0FE01E257FF4F74
:1036200081E08083FE01E257FF4F8081C356DF4F68
:103630000FB6F894DEBF0FBECDBFCF91DF911F91C3
:103640000F9108950F931F93DF93CF93CDB7DEB7FC
:10365000CD59D0400FB6F894DEBF0FBECDBFFE01EE
:10366000E556FF4F91838083FE01E356FF4F608351
:10367000FE01E257FF4F81E08083FE01E357FF4FD9
:1036800081E08083FE01E556FF4F808191810097A4
:1036900009F42FC7FE01E556FF4F0190F081E02DA0
:1036A0008181FE01E556FF4F0190F081E02D93816D
:1036B000FE01E157FF4F8083FE01E157FF4F9183E9
:1036C000FE01E157FF4F81E08283FE01E157FF4F8A
:1036D0001382FE01E556FF4F0190F081E02D8181BC
:1036E000FE01E556FF4F0190F081E02D9481FE012F
:1036F000ED56FF4F8083FE01ED56FF4F9183FE0193
:10370000ED56FF4F81E08283FE01ED56FF4F13829D
:10371000FE01E556FF4F0190F081E02D8181FE0111
:10372000E556FF4F0190F081E02D9581FE01E956AD
:10373000FF4F8083FE01E956FF4F9183FE01E9565A
:10374000FF4F81E08283FE01E956FF4F1382CE01D5
:1037500081579F4F61E00E941D07FE01E357FF4F15
:103760008083FE01E357FF4F8081882359F4CE0107
:103770008D569F4F60E00E941D07FE01E357FF4FEB
:10378000808305C0FE01E257FF4F81E08083FE0188
:10379000E757FF4F80E090E0A0EFB1E48083918392
:1037A000A283B3838E010B571F4FFE01E757FF4FD4
:1037B000608171818281938120E030E04AEF54E49E
:1037C0000E941F02DC01CB01F80180839183A28358
:1037D000B383FE01EB57FF4F60817181828193813A
:1037E00020E030E040E85FE30E947903882344F45E
:1037F000FE01ED57FF4F81E090E09183808364C02C
:10380000FE01EB57FF4F608171818281938120E03F
:103810003FEF4FE757E40E94190318160CF043C01E
:10382000FE01E757FF4F608171818281938120E023
:1038300030E040E251E40E941F02DC01CB018E0126
:103840000D571F4FBC01CD010E944900DC01CB0187
:10385000F801918380831FC0FE01EF57FF4F88EC72
:1038600090E091838083FE01EF57FF4F808191812B
:103870000197F1F7FE01EF57FF4F91838083DE013F
:10388000AD57BF4FFE01ED57FF4F808191810197EA
:1038900011969C938E93FE01ED57FF4F808191818D
:1038A0000097D1F628C08E010D571F4FFE01EB5730
:1038B000FF4F60817181828193810E944900DC0108
:1038C000CB01F80191838083DE01A158BF4FFE0137
:1038D000ED57FF4F8081918111969C938E93FE014D
:1038E000E158FF4F808191810197F1F7FE01E15886
:1038F000FF4F91838083FE01E556FF4F0190F081D9
:10390000E02D8081882309F03DC4FE01E357FF4F7D
:103910008081882359F4CE0189569F4F61E00E942F
:103920001D07FE01E357FF4F808305C0FE01E257EC
:10393000FF4F81E08083FE01E558FF4F80E090E07B
:10394000A0EFB1E480839183A283B3838E010958F1
:103950001F4FFE01E558FF4F608171818281938185
:1039600020E030E04AEF54E40E941F02DC01CB016A
:10397000F80180839183A283B383FE01E958FF4F4E
:10398000608171818281938120E030E040E85FE3D3
:103990000E947903882344F4FE01EB58FF4F81E035
:1039A00090E09183808364C0FE01E958FF4F6081FD
:1039B00071818281938120E03FEF4FE757E40E94BD
:1039C000190318160CF043C0FE01E558FF4F608143
:1039D00071818281938120E030E040E251E40E94D5
:1039E0001F02DC01CB018E010B581F4FBC01CD0122
:1039F0000E944900DC01CB01F801918380831FC044
:103A0000FE01ED58FF4F88EC90E091838083FE012A
:103A1000ED58FF4F808191810197F1F7FE01ED583C
:103A2000FF4F91838083DE01AB58BF4FFE01EB58FF
:103A3000FF4F80819181019711969C938E93FE0197
:103A4000EB58FF4F808191810097D1F627C08E01FE
:103A50000B581F4FFE01E958FF4F60817181828131
:103A600093810E944900DC01CB01F801918380839E
:103A7000DE01AF58BF4FFE01EB58FF4F80819181AF
:103A80008D939C93FE01EF58FF4F808191810197A8
:103A9000F1F7FE01EF58FF4F91838083FE01E55659
:103AA000FF4F0190F081E02D2281FE01E356FF4F90
:103AB0008081982F92959F70822F692F0E946609AE
:103AC000FE01E359FF4F80E090E0A0EFB1E4808376
:103AD0009183A283B3838E0107591F4FFE01E359DF
:103AE000FF4F608171818281938120E030E04AEF55
:103AF00054E40E941F02DC01CB01F8018083918312
:103B0000A283B383FE01E759FF4F608171818281F7
:103B1000938120E030E040E85FE30E94790388234E
:103B200044F4FE01E959FF4F81E090E091838083E6
:103B300064C0FE01E759FF4F6081718182819381EA
:103B400020E03FEF4FE757E40E94190318160CF0EE
:103B500043C0FE01E359FF4F6081718182819381EF
:103B600020E030E040E251E40E941F02DC01CB0182
:103B70008E0109591F4FBC01CD010E944900DC0193
:103B8000CB01F801918380831FC0FE01EB59FF4FE9
:103B900088EC90E091838083FE01EB59FF4F808198
:103BA00091810197F1F7FE01EB59FF4F91838083DB
:103BB000DE01A959BF4FFE01E959FF4F8081918174
:103BC000019711969C938E93FE01E959FF4F8081D6
:103BD00091810097D1F628C08E0109591F4FFE012F
:103BE000E759FF4F60817181828193810E94490072
:103BF000DC01CB01F80191838083DE01AD59BF4F19
:103C0000FE01E959FF4F8081918111969C938E931B
:103C1000FE01ED59FF4F808191810197F1F7FE017F
:103C2000ED59FF4F91838083FE01E357FF4F808161
:103C3000882359F4CE0189569F4F60E00E941D07EA
:103C4000FE01E357FF4F808305C0FE01E257FF4F9F
:103C500081E08083FE01E15AFF4F80E090E0A0EF19
:103C6000B1E480839183A283B3838E01055A1F4FF1
:103C7000FE01E15AFF4F608171818281938120E0D2
:103C800030E04AEF54E40E941F02DC01CB01F8014E
:103C900080839183A283B383FE01E55AFF4F608145
:103CA00071818281938120E030E040E85FE30E94EF
:103CB0007903882344F4FE01E75AFF4F81E090E046
:103CC0009183808364C0FE01E55AFF4F608171815A
:103CD0008281938120E03FEF4FE757E40E94190370
:103CE00018160CF043C0FE01E15AFF4F608171814C
:103CF0008281938120E030E040E251E40E941F0283
:103D0000DC01CB018E01075A1F4FBC01CD010E947F
:103D10004900DC01CB01F801918380831FC0FE01C3
:103D2000E95AFF4F88EC90E091838083FE01E95AC5
:103D3000FF4F808191810197F1F7FE01E95AFF4F12
:103D400091838083DE01A75ABF4FFE01E75AFF4FE0
:103D500080819181019711969C938E93FE01E75A81
:103D6000FF4F808191810097D1F628C08E01075ABC
:103D70001F4FFE01E55AFF4F60817181828193815F
:103D80000E944900DC01CB01F80191838083DE01B0
:103D9000AB5ABF4FFE01E75AFF4F808191811196C8
:103DA0009C938E93FE01EB5AFF4F80819181019786
:103DB000F1F7FE01EB5AFF4F91838083FE01E35739
:103DC000FF4F8081882359F4CE0189569F4F61E0CF
:103DD0000E941D07FE01E357FF4F808305C0FE01CF
:103DE000E257FF4F81E08083FE01EF5AFF4F80E0F2
:103DF00090E0A0EFB1E480839183A283B3838E012E
:103E0000035B1F4FFE01EF5AFF4F6081718182817A
:103E1000938120E030E04AEF54E40E941F02DC016D
:103E2000CB01F80180839183A283B383FE01E35B1E
:103E3000FF4F608171818281938120E030E040E812
:103E40005FE30E947903882344F4FE01E55BFF4FA2
:103E500081E090E09183808364C0FE01E35BFF4FCB
:103E6000608171818281938120E03FEF4FE757E4C9
:103E70000E94190318160CF043C0FE01EF5AFF4FC1
:103E8000608171818281938120E030E040E251E4E1
:103E90000E941F02DC01CB018E01055B1F4FBC019C
:103EA000CD010E944900DC01CB01F80191838083A0
:103EB0001FC0FE01E75BFF4F88EC90E09183808399
:103EC000FE01E75BFF4F808191810197F1F7FE01D1
:103ED000E75BFF4F91838083DE01A55BBF4FFE014F
:103EE000E55BFF4F80819181019711969C938E93A2
:103EF000FE01E55BFF4F808191810097D1F627C0DD
:103F00008E01055B1F4FFE01E35BFF4F60817181F6
:103F1000828193810E944900DC01CB01F8019183E9
:103F20008083DE01A95BBF4FFE01E55BFF4F80810F
:103F300091818D939C93FE01E95BFF4F808191817C
:103F40000197F1F7FE01E95BFF4F91838083FE014A
:103F5000E556FF4F0190F081E02D8281FE01E3568E
:103F6000FF4F60810E946609FE01ED5BFF4F80E01C
:103F700090E0A0EFB1E480839183A283B3838E01AC
:103F8000015C1F4FFE01ED5BFF4F608171818281FB
:103F9000938120E030E04AEF54E40E941F02DC01EC
:103FA000CB01F80180839183A283B383FE01FF9646
:103FB000608171818281938120E030E040E85FE39D
:103FC0000E94790388232CF481E090E09EAF8DAFAE
:103FD00046C0FE01FF96608171818281938120E05D
:103FE0003FEF4FE757E40E941903181664F5FE01EE
:103FF000ED5BFF4F608171818281938120E030E031
:1040000040E251E40E941F02DC01CB01BC01CD0162
:104010000E944900DC01CB019EAF8DAF0FC088EC40
:1040200090E09CAF8BAF8BAD9CAD0197F1F79CAF4F
:104030008BAF8DAD9EAD01979EAF8DAF8DAD9EAD1B
:10404000009769F716C0FE01FF9660817181828139
:1040500093810E944900DC01CB019EAF8DAF8DADF5
:104060009EAD9AAF89AF89AD9AAD0197F1F79AAF3E
:1040700089AFFE01E357FF4F8081882359F4CE01B9
:1040800089569F4F60E00E941D07FE01E357FF4FD6
:10409000808305C0FE01E257FF4F81E0808380E00E
:1040A00090E0A0EFB1E48DAB9EABAFABB8AF6DA924
:1040B0007EA98FA998AD20E030E04AEF54E40E9439
:1040C0001F02DC01CB0189AB9AABABABBCAB69A9DE
:1040D0007AA98BA99CA920E030E040E85FE30E9428
:1040E000790388232CF481E090E098AB8FA73FC040
:1040F00069A97AA98BA99CA920E03FEF4FE757E473
:104100000E94190318164CF56DA97EA98FA998ADC8
:1041100020E030E040E251E40E941F02DC01CB01CC
:10412000BC01CD010E944900DC01CB0198AB8FA7F7
:104130000FC088EC90E09EA78DA78DA59EA5019746
:10414000F1F79EA78DA78FA598A9019798AB8FA788
:104150008FA598A9009769F7BBC169A97AA98BA90E
:104160009CA90E944900DC01CB0198AB8FA78FA5C9
:1041700098A99CA78BA78BA59CA50197F1F79CA755
:104180008BA7A6C1FE01E556FF4F0190F081E02DFF
:104190008081813009F097C1FE01E357FF4F808194
:1041A000882359F4CE0189569F4F61E00E941D0774
:1041B000FE01E357FF4F808305C0FE01E257FF4F2A
:1041C00081E0808380E090E0A0E8BFE38FA398A720
:1041D000A9A7BAA76FA178A589A59AA520E030E084
:1041E0004AEF54E40E941F02DC01CB018BA39CA385
:1041F000ADA3BEA36BA17CA18DA19EA120E030E068
:1042000040E85FE30E94790388232CF481E090E08A
:104210009AA389A33FC06BA17CA18DA19EA120E0A0
:104220003FEF4FE757E40E94190318164CF56FA1B2
:1042300078A589A59AA520E030E040E251E40E94EB
:104240001F02DC01CB01BC01CD010E944900DC0151
:10425000CB019AA389A30FC088EC90E098A38F8F1D
:104260008F8D98A10197F1F798A38F8F89A19AA1BB
:1042700001979AA389A389A19AA1009769F714C00D
:104280006BA17CA18DA19EA10E944900DC01CB0104
:104290009AA389A389A19AA19E8F8D8F8D8D9E8DC2
:1042A0000197F1F79E8F8D8FFE01E556FF4F01902C
:1042B000F081E02D9281FE01E356FF4F8081282F8F
:1042C00030E040E050E0892FBA01A9010E94B20914
:1042D00080E090E0A0E8BFE3898F9A8FAB8FBC8F1E
:1042E000698D7A8D8B8D9C8D20E030E04AEF54E40F
:1042F0000E941F02DC01CB018D8B9E8BAF8BB88F90
:104300006D897E898F89988D20E030E040E85FE3F9
:104310000E94790388232CF481E090E09C8B8B8BA6
:104320003FC06D897E898F89988D20E03FEF4FE7F0
:1043300057E40E94190318164CF5698D7A8D8B8D00
:104340009C8D20E030E040E251E40E941F02DC013D
:10435000CB01BC01CD010E944900DC01CB019C8B4B
:104360008B8B0FC088EC90E09A8B898B89899A8916
:104370000197F1F79A8B898B8B899C8901979C8B8C
:104380008B8B8B899C89009769F714C06D897E8916
:104390008F89988D0E944900DC01CB019C8B8B8B0F
:1043A0008B899C89988B8F878F8598890197F1F7E6
:1043B000988B8F87FE01E357FF4F8081882359F444
:1043C000CE0189569F4F60E00E941D07FE01E35712
:1043D000FF4F808305C0FE01E257FF4F81E08083DD
:1043E00080E090E0A0E8BFE38B879C87AD87BE8725
:1043F0006B857C858D859E8520E030E04AEF54E416
:104400000E941F02DC01CB018F839887A987BA879E
:104410006F81788589859A8520E030E040E85FE308
:104420000E94790388232CF481E090E09E838D83A1
:104430003FC06F81788589859A8520E03FEF4FE7FF
:1044400057E40E94190318164CF56B857C858D8501
:104450009E8520E030E040E251E40E941F02DC0132
:10446000CB01BC01CD010E944900DC01CB019E8340
:104470008D830FC088EC90E09C838B838B819C8123
:104480000197F1F79C838B838D819E8101979E8399
:104490008D838D819E81009769F71AC06F81788521
:1044A00089859A850E944900DC01CB019E838D831A
:1044B0008D819E819A83898389819A810197F1F701
:1044C0009A83898305C0FE01E257FF4F83E0808312
:1044D000FE01E357FF4F8081882329F4FE01E25754
:1044E000FF4F10820BC0FE01E257FF4F81E0808337
:1044F00005C0FE01E257FF4F81E08083FE01E257D5
:10450000FF4F8081C356DF4F0FB6F894DEBF0FBE5A
:10451000CDBFCF91DF911F910F910895DF93CF937E
:1045200000D000D000D0CDB7DEB79C838B837E83D4
:104530006D8381E08A838B819C81009769F1EB8197
:10454000FC818081882351F1EB81FC818081813065
:1045500001F5198212C08981282F30E08D819E815A
:10456000FC01E20FF31F20818B819C81622F0E944E
:10457000221B8A8389818F5F89838981282F30E07C
:104580008D819E81FC01E20FF31F8081882319F742
:1045900005C083E08A8302C082E08A838A812696EE
:1045A0000FB6F894DEBF0FBECDBFCF91DF91089557
:1045B000DF93CF93CDB7DEB76B970FB6F894DEBF1E
:1045C0000FBECDBF9F8B8E8B488F598F6A8F7B8F8D
:1045D00081E089838E899F89009701F1EE89FF89A7
:1045E00080818823E9F0EE89FF898081813099F408
:1045F000888D998D9E012E5F3F4FB9014AE050E0B2
:104600000E9465258E899F899E012E5F3F4FB901CB
:104610000E948E2205C083E0898302C082E08983E4
:1046200089816B960FB6F894DEBF0FBECDBFCF91D8
:10463000DF910895DF93CF9300D000D00F92CDB7D4
:10464000DEB79B838A836C834D8381E089838A8173
:104650009B81009791F1EA81FB818081882379F128
:10466000EA81FB818081813029F58C81882371F476
:104670008D81803158F48D818F708068282F8A81D8
:104680009B81622F0E94B613898319C08C8181306F
:1046900071F48D81803158F48D818F70806C282F5A
:1046A0008A819B81622F0E94B613898308C084E0AF
:1046B000898305C083E0898302C082E08983898180
:1046C0000F900F900F900F900F90CF91DF91089562
:1046D000DF93CF9300D000D000D0CDB7DEB79C835E
:1046E0008B836D834E8381E08A838B819C810097CD
:1046F00031F18E818C3119F08E818831E9F4EB81B2
:10470000FC8180818823E9F0EB81FC81808181300C
:1047100081F4198209C08B819C816E810E94B6133D
:104720008A8389818F5F898399818D81981798F316
:1047300008C083E08A8305C084E08A8302C082E0E7
:104740008A838A8126960FB6F894DEBF0FBECDBF4E
:10475000CF91DF910895DF93CF93CDB7DEB7279741
:104760000FB6F894DEBF0FBECDBF9C838B837E83D4
:104770006D834F8381E08A838B819C81009709F44C
:104780004FC08D819E81009709F44AC08F81883087
:1047900008F043C0EB81FC818081882309F442C08A
:1047A000EB81FC8180818130A9F58F81882F90E099
:1047B000880F991F880F991F880F991F8064282FD1
:1047C0008B819C81622F0E94B6138A838A81882301
:1047D000D1F4198215C08981282F30E08D819E8106
:1047E000FC01E20FF31F20818B819C81622F0E94CC
:1047F000221B8A838A81882331F489818F5F898390
:104800008981883040F38B819C8160E80E94B613D7
:104810008A8308C083E08A8305C084E08A8302C05B
:1048200082E08A838A8127960FB6F894DEBF0FBE96
:10483000CDBFCF91DF910895DF93CF9300D00F923A
:10484000CDB7DEB79B838A8381E089838A819B8190
:1048500061E00E94B61389838981882339F48A81B3
:104860009B8160E040E00E941A23898389810F9038
:104870000F900F90CF91DF910895DF93CF93CDB735
:10488000DEB780E891E00E94650C8EE891E00E941E
:10489000FF09CF91DF910895DF93CF93CDB7DEB7B6
:1048A00062970FB6F894DEBF0FBECDBF1A8A198A81
:1048B000188A1F868EE891E00E94A80A8EE891E08F
:1048C0009E012F5E3F4FB9010E94C80A89899A89CB
:1048D000CC01A0E0B0E0BC01CD010E94FD03DC01F1
:1048E000CB01BC01CD0126EF38E24CE950E40E9437
:1048F0001F02DC01CB01BC01CD010E944900DC019B
:10490000CB01988B8F878F8598892AE030E0B90199
:104910000E941A25CB01988B8F878F8598899C01DF
:1049200040E050E080E891E0BA01A9010E94D8225D
:1049300080E090E0AAE7B4E48B879C87AD87BE87D0
:104940006B857C858D859E8520E030E04AEF54E4C0
:104950000E941F02DC01CB018F839887A987BA8749
:104960006F81788589859A8520E030E040E85FE3B3
:104970000E94790388232CF481E090E09E838D834C
:104980003FC06F81788589859A8520E03FEF4FE7AA
:1049900057E40E94190318164CF56B857C858D85AC
:1049A0009E8520E030E040E251E40E941F02DC01DD
:1049B000CB01BC01CD010E944900DC01CB019E83EB
:1049C0008D830FC088EC90E09C838B838B819C81CE
:1049D0000197F1F79C838B838D819E8101979E8344
:1049E0008D838D819E81009769F714C06F817885D2
:1049F00089859A850E944900DC01CB019E838D83C5
:104A00008D819E819A83898389819A810197F1F7AB
:104A10009A83898380E891E00E941C244BCFDF9326
:104A2000CF93CDB7DEB70E943D240E944C24CF9196
:104A3000DF910895AA1BBB1B51E107C0AA1FBB1F32
:104A4000A617B70710F0A61BB70B881F991F5A951A
:104A5000A9F780959095BC01CD0108952F923F92C2
:104A60004F925F926F927F928F929F92AF92BF927E
:104A7000CF92DF92EF92FF920F931F93CF93DF932A
:104A8000CDB7DEB7CA1BDB0B0FB6F894DEBF0FBE87
:104A9000CDBF09942A88398848885F846E847D84D4
:104AA0008C849B84AA84B984C884DF80EE80FD80D6
:104AB0000C811B81AA81B981CE0FD11D0FB6F8944C
:104AC000DEBF0FBECDBFED010895FB019F01E8944D
:104AD0004230C4F04532B4F44A3029F497FB1EF456
:104AE000909581959F4F642F77270E941A25805DAE
:104AF0008A330CF0895D8193CB010097A1F716F4FE
:104B00005DE251931082C9010C948625DC01FC0101
:104B1000672F71917723E1F7329704C07C916D93F1
:104B200070836291AE17BF07C8F30895F894FFCF62
:104B30000000000000000000000102020303030364
:104B4000040404040404040405050505050505051D
:104B500005050505050505050606060606060606FD
:104B600006060606060606060606060606060606E5
:104B700006060606060606060707070707070707CD
:104B800007070707070707070707070707070707B5
:104B900007070707070707070707070707070707A5
:104BA0000707070707070707070707070707070795
:104BB000070707070707070708080808080808087D
:104BC0000808080808080808080808080808080865
:104BD0000808080808080808080808080808080855
:104BE0000808080808080808080808080808080845
:104BF0000808080808080808080808080808080835
:104C00000808080808080808080808080808080824
:104C10000808080808080808080808080808080814
:104C20000808080808080808080808080808080804
:104C300008080808080808083A003700340031005E
:104C40003B003800350032003900360033003000B8
:104C5000010203000102000102030405060700002F
:064C60000100000300004A
:00000001FF
