:100000000C942A000C9447000C9447000C94470071
:100010000C9444110C9411110C94DE100C94781073
:100020000C94AB100C9445100C9412100C94DF0F30
:100030000C9447000C9447000C9447000C94470024
:100040000C9447000C9447000C9447000C94470014
:100050000C94470011241FBECFE5D8E0DEBFCDBF12
:1000600011E0A0E6B0E0E2E8FDE502C005900D92E7
:10007000A438B107D9F711E0A4E8B1E001C01D929E
:10008000A33CB107E1F70E94382E0C94BF2E0C94CC
:100090000000EF92FF920F931F937B018C0120E0F1
:1000A00030E040E05FE40E94490388238CF0C801FF
:1000B000B70120E030E040E05FE40E94C1010E940F
:1000C000A9039B01AC01205030404040504806C07D
:1000D000C801B7010E94A9039B01AC01B901CA0183
:1000E0001F910F91FF90EF900895A0E0B0E0EBE733
:1000F000F0E00C94432EDC012B01FA019C9192302C
:1001000008F439C1EB018881823008F433C194309E
:1001100069F4843009F02FC111969C91119789815F
:10012000981709F428C1A7E2B1E025C1843009F489
:1001300021C18230A9F4923009F01DC19A01AD01AC
:1001400088E0EA010990AE01E90109929E0181501F
:10015000C1F7E201898111969C918923818308C1AD
:10016000923009F407C112962D903C901397EB0141
:100170008A819B811496AD90BD90CD90DC901797AD
:10018000EC80FD800E811F819101281B390BB90184
:1001900037FF04C066277727621B730B6032710537
:1001A0000CF061C0121613066CF537014801062EDB
:1001B00004C096948794779467940A94D2F721E0C8
:1001C00030E040E050E004C0220F331F441F551FB1
:1001D0006A95D2F721503040404050402E213F21B7
:1001E00040235123211531054105510521F021E01E
:1001F00030E040E050E079018A01E628F72808293C
:1002000019293CC0232BD1F1260E371E350146019A
:10021000062E04C096948794779467940A94D2F734
:1002200021E030E040E050E004C0220F331F441FC3
:10023000551F6A95D2F721503040404050402A2146
:100240003B214C215D21211531054105510521F04E
:1002500021E030E040E050E059016A01A628B728CB
:10026000C828D9280BC0821593052CF01C01AA249C
:10027000BB24650103C0EE24FF24870111969C91E5
:10028000D20111968C91981709F445C0992339F041
:10029000A80197012A193B094C095D0906C0A6016E
:1002A00095012E193F09400B510B57FD08C01182D3
:1002B0003382228224833583468357831DC081E0A5
:1002C00081833382228288279927DC01821B930B4A
:1002D000A40BB50B84839583A683B7830DC0220F2F
:1002E000331F441F551F24833583468357838281E0
:1002F000938101979383828324813581468157813D
:10030000DA01C9010197A109B1098F5F9F4FAF4F72
:10031000BF4328F30BC0918333822282EA0CFB1C7B
:100320000C1D1D1DE482F5820683178383E0808304
:10033000248135814681578157FF1AC0C901AA27F8
:1003400097FDA095BA2F81709070A070B0705695EF
:10035000479537952795822B932BA42BB52B848318
:100360009583A683B7838281938101969383828349
:10037000DF0101C0D201CD01CDB7DEB7E2E10C94BF
:100380005F2EA0E2B0E0E7ECF1E00C944F2E698321
:100390007A838B839C832D833E834F835887E9E048
:1003A000EE2EF12CEC0EFD1ECE010196B7010E943F
:1003B000D2048E010F5E1F4FCE010596B8010E9438
:1003C000D2048A8991E089278A8BC701B801AE01DE
:1003D000475E5F4F0E9475000E94FD03A096E6E015
:1003E0000C946B2EA0E2B0E0E8EFF1E00C944F2EFD
:1003F00069837A838B839C832D833E834F835887C5
:10040000F9E0EF2EF12CEC0EFD1ECE010196B701A6
:100410000E94D2048E010F5E1F4FCE010596B801D7
:100420000E94D204C701B801AE01475E5F4F0E942F
:1004300075000E94FD03A096E6E00C946B2EA0E2EE
:10044000B0E0E5E2F2E00C94432E69837A838B837B
:100450009C832D833E834F835887CE010196BE0136
:10046000675F7F4F0E94D204CE010596BE016F5E8A
:100470007F4F0E94D2049985923088F0898982301A
:10048000C8F0943019F4823051F404C0843029F457
:10049000923081F487E291E0C6C0923049F420E0C6
:1004A0009A858A89981321E02A87CE010996BBC0D4
:1004B000823049F420E09A858A89981321E02A8BBA
:1004C000CE014196B0C02D843E844F8458886D88FB
:1004D0007E888F88988CEE24FF248701AA24BB2471
:1004E000650140E050E060E070E0E0E0F0E0C10174
:1004F00081709070892BE9F0E60CF71C081D191D1E
:100500009A01AB012A0D3B1D4C1D5D1D80E090E062
:10051000A0E0B0E0E614F7040805190520F481E036
:1005200090E0A0E0B0E0BA01A901480F591F6A1F8E
:100530007B1FAA0CBB1CCC1CDD1C97FE08C081E0F5
:1005400090E0A0E0B0E0A82AB92ACA2ADB2A3196B6
:10055000E032F10549F0660C771C881C991C569412
:10056000479437942794C3CFFA85EA892B893C892D
:100570008B859C85280F391F2E5F3F4F17C0CA01FE
:1005800081709070892B61F016950795F794E79428
:1005900080E090E0A0E0B0E8E82AF92A0A2B1B2BC3
:1005A00076956795579547952F5F3F4F77FDE7CF36
:1005B0000CC0440F551F661F771F17FD4160EE0CDE
:1005C000FF1C001F111F21503040403090E05907A0
:1005D00090E0690790E4790760F32B8F3C8FDB0193
:1005E000CA018F779070A070B07080349105A1051A
:1005F000B10561F447FD0AC0E114F10401051105DC
:1006000029F0405C5F4F6F4F7F4F40781A8EFE1786
:1006100011F081E08A8F4D8F5E8F6F8F78A383E01A
:10062000898FCE0149960E94FD03A096E2E10C94C9
:100630005F2EA8E1B0E0EFE1F3E00C944F2E698368
:100640007A838B839C832D833E834F83588789E0F5
:10065000E82EF12CEC0EFD1ECE010196B7010E9492
:10066000D2048E010F5E1F4FCE010596B8010E9485
:10067000D2048985823040F08989823028F0C70110
:10068000B8010E944A0501C08FEF6896E6E00C941D
:100690006B2EA8E1B0E0EFE4F3E00C944F2E6983F9
:1006A0007A838B839C832D833E834F83588789E095
:1006B000E82EF12CEC0EFD1ECE010196B7010E9432
:1006C000D2048E010F5E1F4FCE010596B8010E9425
:1006D000D2048985823040F08989823028F0C701B0
:1006E000B8010E944A0501C08FEF6896E6E00C94BD
:1006F0006B2EA8E1B0E0EFE7F3E00C944F2E698396
:100700007A838B839C832D833E834F83588789E034
:10071000E82EF12CEC0EFD1ECE010196B7010E94D1
:10072000D2048E010F5E1F4FCE010596B8010E94C4
:10073000D2048985823040F08989823028F0C7014F
:10074000B8010E944A0501C081E06896E6E00C9479
:100750006B2EACE0B0E0EFEAF3E00C94532E69832B
:100760007A838B839C83CE010196BE016B5F7F4FA2
:100770000E94D2048D81823061F1823050F1843048
:1007800021F48E81882351F12EC02F81388537FDC9
:1007900020C06E812F3131051CF06623F9F023C093
:1007A0008EE190E0821B930B29853A854B855C8511
:1007B00004C056954795379527958A95D2F76623B5
:1007C000B1F050954095309521953F4F4F4F5F4F79
:1007D0000EC020E030E040E050E009C02FEF3FEFD6
:1007E0004FEF5FE704C020E030E040E050E8B9019F
:1007F000CA012C96E2E00C946F2EDF92EF92FF92EA
:100800000F931F93FC01E480F58006811781D1804E
:100810008081823048F480E090E0A0E1B0E0E82AF6
:10082000F92A0A2B1B2BA5C0843009F49FC0823003
:1008300021F4EE24FF24870105C0E114F104010531
:10084000110519F4E0E0F0E096C0628173819FEF3A
:10085000623879070CF05BC022E83FEF261B370BAC
:100860002A3131052CF020E030E040E050E02AC091
:10087000B801A701022E04C0769567955795479554
:100880000A94D2F781E090E0A0E0B0E004C0880FC5
:10089000991FAA1FBB1F2A95D2F70197A109B10979
:1008A0008E219F21A023B1230097A105B10521F03E
:1008B00081E090E0A0E0B0E09A01AB01282B392B59
:1008C0004A2B5B2BDA01C9018F779070A070B07052
:1008D00080349105A105B10539F427FF09C0205CDA
:1008E0003F4F4F4F5F4F04C0215C3F4F4F4F5F4F13
:1008F000E0E0F0E02030A0E03A07A0E04A07A0E402
:100900005A0710F0E1E0F0E079018A0127C0603871
:10091000710564F5FB01E158FF4FD801C7018F77DE
:100920009070A070B07080349105A105B10539F4C4
:10093000E7FE0DC080E490E0A0E0B0E004C08FE3EB
:1009400090E0A0E0B0E0E80EF91E0A1F1B1F17FFA1
:1009500005C016950795F794E794319687E01695AC
:100960000795F794E7948A95D1F705C0EE24FF2404
:100970008701EFEFF0E06E2F679566276795902F60
:100980009F77D794DD24D7948E2F8695492F462BB9
:10099000582F5D29B701CA011F910F91FF90EF9069
:1009A000DF900895FC01DB01408151812281622F9B
:1009B0006F7770E0221F2227221F9381892F880FD3
:1009C000822B282F30E0991F9927991F11969C930D
:1009D000119721153105A9F54115510561057105DD
:1009E00011F482E037C082E89FEF13969C938E93B8
:1009F00012979A01AB0167E0220F331F441F551F66
:100A00006A95D1F783E08C930DC0220F331F441FEA
:100A1000551F12968D919C911397019713969C9355
:100A20008E931297203080E0380780E0480780E4FA
:100A3000580758F314962D933D934D935C93179755
:100A400008952F3F310579F4411551056105710570
:100A500019F484E08C93089564FF03C081E08C93C3
:100A600012C01C9210C02F57304013963C932E9307
:100A7000129783E08C9387E0440F551F661F771F02
:100A80008A95D1F7706414964D935D936D937C9322
:100A9000179708951F93DC01FB019C91923008F495
:100AA00047C08081823008F443C0943051F41196DD
:100AB0001C91843099F58181682F70E0611B710968
:100AC0003FC0843021F0923031F48230B9F181811D
:100AD000882389F12DC011961C9111978230F1F075
:100AE00081811817D9F412962D913C911397828128
:100AF00093818217930794F028173907BCF0149656
:100B00008D919D910D90BC91A02D248135814681C0
:100B10005781281739074A075B0718F4112341F05A
:100B20000AC082179307A407B50740F4112319F0F0
:100B300061E070E005C06FEF7FEF02C060E070E041
:100B4000CB011F910895DF93CF93CDB7DEB780918E
:100B50008501909186012FE08234920771F486E737
:100B600091E060EC70E00E94280F109286011092D4
:100B7000850184E08093840109C080918501909172
:100B8000860101969093860180938501CF91DF9134
:100B90000895DF93CF93CDB7DEB788E591E00E944B
:100BA000271586E691E00E94F52C83EA95E0909364
:100BB0007D0180937C0186E791E00E94DC0C0E941D
:100BC0000B15CF91DF910895DF93CF9300D0CDB770
:100BD000DEB780918401282F30E03A832983898110
:100BE0009A818230910539F129813A81233031058A
:100BF00054F489819A810097C1F029813A8121308A
:100C00003105B1F0E6CF89819A8184309105C9F030
:100C100029813A81243031058CF089819A8185308F
:100C20009105B9F60E94680AD4CF0E942406D1CF5C
:100C30000E946C06CECF0E942507CBCF0E94800772
:100C4000C8CF0E948C07C5CFDF93CF93CDB7DEB757
:100C500088E591E060E040E00E94DC2B88E591E0CF
:100C600020E630E0B9010E94502B88E591E061E078
:100C700040E00E94DC2B88E591E021E730E0B901FB
:100C80000E94502B88E591E00E94DE2C88E591E0DF
:100C900060E040E00E94DC2B88E591E021E830E054
:100CA000B9010E94502B88E591E061E040E00E948C
:100CB000DC2B88E591E021E930E0B9010E94502B5E
:100CC00088E591E00E94DE2C0E94800A81E08093FA
:100CD0008401CF91DF910895DF93CF93CDB7DEB735
:100CE0008FE291E00E949E2D80912F01813409F0C6
:100CF00053C083E280932F0186E791E00E94830E28
:100D000088E591E00E94DE2C88E591E060E040E01B
:100D10000E94DC2B88E591E020EA30E0B9010E94D6
:100D2000502B88E591E061E040E00E94DC2B88E5F3
:100D300091E02FEA30E0B9010E94502B88E591E064
:100D40000E94DE2C88E591E060E040E00E94DC2B10
:100D500088E591E020EC30E0B9010E94502B88E555
:100D600091E061E040E00E94DC2B88E591E021ED1C
:100D700030E0B9010E94502B88E591E00E94DE2C02
:100D80000E94800A88E591E060E044E00E94DC2B4C
:100D900082E08093840156C080912F01823531F426
:100DA0000E94170C83E280932F014CC080912F0189
:100DB000873431F40E946C0783E280932F0142C094
:100DC00080912F01803521F583E280932F0188E502
:100DD00091E00E94DE2C88E591E060E040E00E9416
:100DE000DC2B88E591E02AED30E0B9010E94502B20
:100DF00088E591E061E040E00E94DC2B88E591E02D
:100E000028EE30E0B9010E94502B109284011AC0E4
:100E100080912F018332B1F083E280932F0188E526
:100E200091E00E94DE2C88E591E060E040E00E94C5
:100E3000DC2B88E591E020EF30E0B9010E94502BD7
:100E400010928401CF91DF910895DF93CF93CDB7B6
:100E5000DEB78FE291E00E949E2D80912F018834B1
:100E600031F40E943A0883E280932F0132C08091CE
:100E70002F018D3431F40E94F40883E280932F0116
:100E800028C080912F01833531F40E94AE0983E29E
:100E900080932F011EC080912F018434D1F488E506
:100EA00091E00E94DE2C88E591E060E040E00E9445
:100EB000DC2B88E591E022E031E0B9010E94502B63
:100EC00083E280932F0188E591E00E94DE2C0E944E
:100ED0006C07CF91DF910895DF93CF93CDB7DEB745
:100EE00086E791E00E94260E86E791E060EC70E0D4
:100EF0000E94280F83E080938401CF91DF910895B1
:100F0000DF93CF93CDB7DEB70E94800A85E0809350
:100F10008401CF91DF910895DF93CF93CDB7DEB7F2
:100F200080918F0190919001A0919101B0919201D7
:100F30008C339105A105B105A0F480918F019091AA
:100F40009001A0919101B09192010196A11DB11D56
:100F500080938F0190939001A0939101B09392019F
:100F600083C080918F0190919001A0919101B091E7
:100F700092018C339105A105B10509F075C010925D
:100F80008F01109290011092910110929201809124
:100F90008B0190918C01A0918D01B0918E018C33C9
:100FA0009105A105B105A0F480918B0190918C0170
:100FB000A0918D01B0918E010196A11DB11D80936C
:100FC0008B0190938C01A0938D01B0938E014CC046
:100FD00080918B0190918C01A0918D01B0918E0137
:100FE0008C339105A105B10509F03EC010928B012B
:100FF00010928C0110928D0110928E0180918701C8
:1010000090918801A0918901B0918A018831910560
:10101000A105B105A0F48091870190918801A0916C
:101020008901B0918A010196A11DB11D80938701AC
:1010300090938801A0938901B0938A0115C0809193
:10104000870190918801A0918901B0918A0188312E
:101050009105A105B10541F4109287011092880114
:101060001092890110928A0183E080938401CF91CC
:10107000DF910895DF93CF93CDB7DEB780918701DD
:1010800090918801A0918901B0918A0189309105E0
:10109000A105B10580F58091870190918801A0910B
:1010A0008901B0918A010196A11DB11D809387012C
:1010B00090938801A0938901B0938A0188E591E01B
:1010C00060E044E00E94DC2B88E591E040E050E0E5
:1010D00060E070E00E949A2B209187013091880196
:1010E0004091890150918A0188E591E0BA01A901F6
:1010F0000E949A2B73C08091870190918801A091E2
:101100008901B0918A0189309105A105B105A8F145
:101110008091870190918801A0918901B0918A0105
:1011200088319105A105B10540F580918701909125
:101130008801A0918901B0918A010196A11DB11D7C
:101140008093870190938801A0938901B0938A01CD
:1011500088E591E060E044E00E94DC2B209187016B
:10116000309188014091890150918A0188E591E090
:10117000BA01A9010E949A2B31C0809187019091F8
:101180008801A0918901B0918A0188319105A1055A
:10119000B10521F510928701109288011092890102
:1011A00010928A0188E591E060E044E00E94DC2B27
:1011B00020918701309188014091890150918A01E5
:1011C00088E591E0BA01A9010E949A2B88E591E097
:1011D00040E050E060E070E00E949A2B82E0809353
:1011E0008401CF91DF910895DF93CF93CDB7DEB720
:1011F00080918B0190918C01A0918D01B0918E0115
:1012000089309105A105B10580F580918B01909100
:101210008C01A0918D01B0918E010196A11DB11D8F
:1012200080938B0190938C01A0938D01B0938E01DC
:1012300088E591E060E047E00E94DC2B88E591E0E2
:1012400040E050E060E070E00E949A2B20918B011A
:1012500030918C0140918D0150918E0188E591E093
:10126000BA01A9010E949A2B73C080918B019091C1
:101270008C01A0918D01B0918E0189309105A1055D
:10128000B105A8F180918B0190918C01A0918D0105
:10129000B0918E018C339105A105B10540F5809187
:1012A0008B0190918C01A0918D01B0918E010196DE
:1012B000A11DB11D80938B0190938C01A0938D0192
:1012C000B0938E0188E591E060E047E00E94DC2B5E
:1012D00020918B0130918C0140918D0150918E01B4
:1012E00088E591E0BA01A9010E949A2B31C0809152
:1012F0008B0190918C01A0918D01B0918E018C3366
:101300009105A105B10521F510928B0110928C0178
:1013100010928D0110928E0188E591E060E047E027
:101320000E94DC2B20918B0130918C0140918D012A
:1013300050918E0188E591E0BA01A9010E949A2B93
:1013400088E591E040E050E060E070E00E949A2B78
:1013500082E080938401CF91DF910895DF93CF9352
:10136000CDB7DEB780918F0190919001A09191014E
:10137000B091920189309105A105B10580F5809168
:101380008F0190919001A0919101B09192010196ED
:10139000A11DB11D80938F0190939001A0939101A5
:1013A000B093920188E591E060E04AE00E94DC2B76
:1013B00088E591E040E050E060E070E00E949A2B08
:1013C00020918F01309190014091910150919201B3
:1013D00088E591E0BA01A9010E949A2B73C080911F
:1013E0008F0190919001A0919101B091920189306B
:1013F0009105A105B105A8F180918F01909190010F
:10140000A0919101B09192018C339105A105B10594
:1014100040F580918F0190919001A0919101B09140
:1014200092010196A11DB11D80938F0190939001AF
:10143000A0939101B093920188E591E060E04AE0C9
:101440000E94DC2B20918F013091900140919101FD
:101450005091920188E591E0BA01A9010E949A2B6E
:1014600031C080918F0190919001A0919101B09134
:1014700092018C339105A105B10521F510928F01E0
:1014800010929001109291011092920188E591E0E2
:1014900060E04AE00E94DC2B20918F0130919001A6
:1014A000409191015091920188E591E0BA01A90122
:1014B0000E949A2B88E591E040E050E060E070E007
:1014C0000E949A2B82E080938401CF91DF9108954E
:1014D000DF93CF93CDB7DEB78FE291E00E949E2DD0
:1014E00080912F01803549F483E280932F0186E7B4
:1014F00091E00E94830E10928401CF91DF910895B4
:10150000DF93CF93CDB7DEB78091870190918801AB
:10151000A0918901B0918A018A309105A105B10598
:10152000E8F488E591E060E044E00E94DC2B88E587
:1015300091E040E050E060E070E00E949A2B209142
:101540008701309188014091890150918A0188E595
:1015500091E0BA01A9010E949A2B58C0809187019D
:1015600090918801A0918901B0918A018A309105FA
:10157000A105B10510F18091870190918801A0919A
:101580008901B0918A0189319105A105B105A8F4BD
:1015900088E591E060E044E00E94DC2B2091870127
:1015A000309188014091890150918A0188E591E04C
:1015B000BA01A9010E949A2B29C0809187019091BC
:1015C0008801A0918901B0918A0189319105A10515
:1015D000B105E0F088E591E060E044E00E94DC2B9A
:1015E00020918701309188014091890150918A01B1
:1015F00088E591E0BA01A9010E949A2B88E591E063
:1016000040E050E060E070E00E949A2B88E591E0B5
:101610006AE30E94E42380918B0190918C01A09158
:101620008D01B0918E018A309105A105B105E8F4D4
:1016300088E591E060E047E00E94DC2B88E591E0DE
:1016400040E050E060E070E00E949A2B20918B0116
:1016500030918C0140918D0150918E0188E591E08F
:10166000BA01A9010E949A2B58C080918B019091D8
:101670008C01A0918D01B0918E018A309105A10558
:10168000B10510F180918B0190918C01A0918D0199
:10169000B0918E018D339105A105B105A8F488E5BF
:1016A00091E060E047E00E94DC2B20918B013091BB
:1016B0008C0140918D0150918E0188E591E0BA0135
:1016C000A9010E949A2B29C080918B0190918C01D5
:1016D000A0918D01B0918E018D339105A105B105C9
:1016E000E0F088E591E060E047E00E94DC2B20918B
:1016F0008B0130918C0140918D0150918E0188E5D4
:1017000091E0BA01A9010E949A2B88E591E040E09E
:1017100050E060E070E00E949A2B88E591E06AE377
:101720000E94E42380918F0190919001A0919101FA
:10173000B09192018A309105A105B105E8F488E5E0
:1017400091E060E04AE00E94DC2B88E591E040E017
:1017500050E060E070E00E949A2B20918F01309160
:101760009001409191015091920188E591E0BA0178
:10177000A9010E949A2B58C080918F0190919001ED
:10178000A0919101B09192018A309105A105B10516
:1017900010F180918F0190919001A0919101B091F1
:1017A00092018D339105A105B105A8F488E591E07A
:1017B00060E04AE00E94DC2B20918F013091900183
:1017C000409191015091920188E591E0BA01A901FF
:1017D0000E949A2B29C080918F0190919001A09135
:1017E0009101B09192018D339105A105B105E0F011
:1017F00088E591E060E04AE00E94DC2B20918F01B7
:1018000030919001409191015091920188E591E0D1
:10181000BA01A9010E949A2B88E591E040E050E0CE
:1018200060E070E00E949A2BCF91DF910895DF93E2
:10183000CF93CDB7DEB71092870110928801109236
:10184000890110928A0110928B0110928C011092E2
:101850008D0110928E0110928F01109290011092C2
:1018600091011092920186E791E00E94830E86E733
:1018700091E060E070E00E94280F88E591E00E940E
:10188000DE2C88E591E060E040E00E94DC2B88E5FA
:1018900091E023E131E0B9010E94502B88E591E00D
:1018A00061E040E00E94DC2B88E591E02FE131E02F
:1018B000B9010E94502B10928401CF91DF910895BD
:1018C000DF93CF9300D000D00F92CDB7DEB79B83CC
:1018D0008A8381E089838A819B81009709F461C0B2
:1018E000EA81FB818081282F30E03D832C838C812D
:1018F0009D818130910501F12C813D81223031059E
:10190000B9F18C819D81009709F048C0EA81FB8183
:1019100086819781009751F0EA81FB8186819781CA
:101920009093940180939301198202C082E089838D
:10193000198282E0898337C0EA81FB8186819781A1
:10194000009751F0EA81FB818681978190939801FD
:1019500080939701198202C082E08983198282E014
:101960008983198282E08983198282E089831BC07E
:10197000EA81FB8186819781009751F0EA81FB81A2
:10198000868197819093A00180939F01198202C064
:1019900082E08983198282E0898305C083E089839C
:1019A00002C082E0898389810F900F900F900F9081
:1019B0000F90CF91DF910895DF93CF9300D000D0A7
:1019C0000F92CDB7DEB79B838A8381E089838A81BA
:1019D0009B81009709F42FC1EA81FB818081282F28
:1019E00030E03D832C838C819D818130910509F409
:1019F0005DC02C813D812230310509F4BCC08C8151
:101A00009D81009709F014C1A3E5B0E0E3E5F0E0A3
:101A10008081282F2F7BEA81FB818181882F90E0B4
:101A20000024969587950794969587950794982F07
:101A3000802D822B8C93A3E5B0E0E3E5F0E080817C
:101A4000282F277FEA81FB8181818695882F90E06E
:101A5000880F991F880F991F880F991F822B8C93CD
:101A6000A3E5B0E0E3E5F0E08081282F2F7CEA8158
:101A7000FB818281882F90E082959295907F9827B4
:101A8000807F9827822B8C93A9E5B0E0E9E5F0E010
:101A90008081982F9C7FEA81FB818581892B8C93A3
:101AA0008A819B810E94600C8983C7C0AFE4B0E04B
:101AB000EFE4F0E08081982F9C7FEA81FB818181B7
:101AC000892B8C93AEE4B0E0EEE4F0E08081282F27
:101AD000277EEA81FB81818186958695882F90E01B
:101AE000880F991F880F991F880F991F822B8C933D
:101AF000AFE4B0E0EFE4F0E08081282F2F73EA81BB
:101B0000FB818281882F90E0002496958795079429
:101B1000969587950794982F802D822B8C93AFE410
:101B2000B0E0EFE4F0E08081282F2F7CEA81FB8198
:101B30008381882F90E082959295907F9827807F6F
:101B40009827822B8C93A9E5B0E0E9E5F0E080814D
:101B5000282F237CEA81FB818581882F90E0880FE4
:101B6000991F880F991F822B8C938A819B810E94D9
:101B7000600C898362C0A5E4B0E0E5E4F0E0808118
:101B8000282F2F7BEA81FB818181882F90E0002420
:101B9000969587950794969587950794982F802D0D
:101BA000822B8C93A5E4B0E0E5E4F0E08081282F5F
:101BB000277FEA81FB8181818695882F90E0880FBD
:101BC000991F880F991F880F991F822B8C93A5E46A
:101BD000B0E0E5E4F0E08081282F2F7CEA81FB81F2
:101BE0008281882F90E082959295907F9827807FC0
:101BF0009827822B8C93A9E5B0E0E9E5F0E080819D
:101C0000282F2C7FEA81FB818581882F90E000249A
:101C1000969587950794969587950794982F802D8C
:101C2000822B8C938A819B810E94600C898305C0E2
:101C300083E0898302C082E0898389810F900F90BD
:101C40000F900F900F90CF91DF910895DF93CF9376
:101C500000D000D00F92CDB7DEB79B838A8381E09E
:101C600089838A819B81009709F442C0EA81FB81C4
:101C70008081282F30E03D832C838C819D818130B1
:101C80009105B9F02C813D812230310501F18C8123
:101C90009D81009751F5A3E5B0E0E3E5F0E0808198
:101CA000982F987FEA81FB818481892B8C931982FC
:101CB00021C0AEE4B0E0EEE4F0E08081982F987FA0
:101CC000EA81FB818481892B8C93198213C0A5E45E
:101CD000B0E0E5E4F0E08081982F987FEA81FB8115
:101CE0008481892B8C93198205C083E0898302C08B
:101CF00082E0898389810F900F900F900F900F9051
:101D0000CF91DF910895DF93CF9300D000D00F9251
:101D1000CDB7DEB79B838A8381E089838A819B81EB
:101D2000009799F1EA81FB818081282F30E03D8383
:101D30002C838C819D818130910591F02C813D8196
:101D400022303105B1F08C819D810097D9F4A3E553
:101D5000B0E0E3E5F0E08081887F8C93198217C0C2
:101D6000AEE4B0E0EEE4F0E08081887F8C931982ED
:101D70000EC0A5E4B0E0E5E4F0E08081887F8C93BC
:101D8000198205C083E0898302C082E0898389814A
:101D90000F900F900F900F900F90CF91DF910895BB
:101DA000DF93CF93CDB7DEB727970FB6F894DEBF9A
:101DB0000FBECDBF9B838A837D836C8381E0898343
:101DC0008A819B810097C1F1EA81FB818081282F64
:101DD00030E03F832E838E819F8181309105A1F079
:101DE0002E813F8122303105C9F08E819F8100977D
:101DF00001F5E2E5F0E08081882F90E0EC81FD8143
:101E00009183808319821AC0ECE4F0E08081918193
:101E1000EC81FD8191838083198210C0E4E4F0E0BD
:101E20008081882F90E0EC81FD81918380831982ED
:101E300005C083E0898302C082E089838981279677
:101E40000FB6F894DEBF0FBECDBFCF91DF910895DE
:101E5000DF93CF93CDB7DEB727970FB6F894DEBFE9
:101E60000FBECDBF9B838A837D836C8381E0898392
:101E70008A819B81009761F1EA81FB818081282F13
:101E800030E03F832E838E819F818130910579F0F0
:101E90002E813F812230310591F08E819F81009704
:101EA000A1F4E2E5F0E08C818083198213C0ECE4B8
:101EB000F0E08C819D819183808319820BC0E4E4E2
:101EC000F0E08C818083198205C083E0898302C0A1
:101ED00082E08983898127960FB6F894DEBF0FBE12
:101EE000CDBFCF91DF910895DF93CF93CDB7DEB70C
:101EF00029970FB6F894DEBF0FBECDBF9B838A83B0
:101F00007D836C835F834E8381E089838A819B819B
:101F1000009709F448C0EA81FB818081282F30E0D6
:101F2000398728878885998581309105C1F0288572
:101F300039852230310529F188859985009781F509
:101F4000ECE5F0E08081882F90E0EC81FD819183C9
:101F50008083EE81FF8111821082198226C0EAE41B
:101F6000F0E080819181EC81FD8191838083E8E4C0
:101F7000F0E080819181EE81FF81918380831982DD
:101F800014C0E3E4F0E08081882F90E0EC81FD81D3
:101F900091838083EE81FF8111821082198205C0B6
:101FA00083E0898302C082E08983898129960FB604
:101FB000F894DEBF0FBECDBFCF91DF9108951F9281
:101FC0000F920FB60F9211242F933F934F935F936D
:101FD0006F937F938F939F93AF93BF93EF93FF93F1
:101FE000DF93CF93CDB7DEB78091930190919401A9
:101FF000009729F0E0919301F09194010995CF9118
:10200000DF91FF91EF91BF91AF919F918F917F9160
:102010006F915F914F913F912F910F900FBE0F9055
:102020001F9018951F920F920FB60F9211242F93A5
:102030003F934F935F936F937F938F939F93AF9350
:10204000BF93EF93FF93DF93CF93CDB7DEB780912C
:10205000950190919601009729F0E0919501F091FA
:1020600096010995CF91DF91FF91EF91BF91AF91CB
:102070009F918F917F916F915F914F913F912F91A0
:102080000F900FBE0F901F9018951F920F920FB6D2
:102090000F9211242F933F934F935F936F937F93EE
:1020A0008F939F93AF93BF93EF93FF93DF93CF9360
:1020B000CDB7DEB78091970190919801009729F0F4
:1020C000E0919701F09198010995CF91DF91FF91EF
:1020D000EF91BF91AF919F918F917F916F915F91A0
:1020E0004F913F912F910F900FBE0F901F90189519
:1020F0001F920F920FB60F9211242F933F934F937D
:102100005F936F937F938F939F93AF93BF93EF935F
:10211000FF93DF93CF93CDB7DEB780919B01909172
:102120009C01009729F0E0919B01F0919C01099599
:10213000CF91DF91FF91EF91BF91AF919F918F91DF
:102140007F916F915F914F913F912F910F900FBEB3
:102150000F901F9018951F920F920FB60F92112497
:102160002F933F934F935F936F937F938F939F939F
:10217000AF93BF93EF93FF93DF93CF93CDB7DEB7CA
:102180008091990190919A01009729F0E09199012D
:10219000F0919A010995CF91DF91FF91EF91BF9155
:1021A000AF919F918F917F916F915F914F913F91EF
:1021B0002F910F900FBE0F901F9018951F920F92A6
:1021C0000FB60F9211242F933F934F935F936F930A
:1021D0007F938F939F93AF93BF93EF93FF93DF937F
:1021E000CF93CDB7DEB780919D0190919E0100976E
:1021F00029F0E0919D01F0919E010995CF91DF9129
:10220000FF91EF91BF91AF919F918F917F916F91CE
:102210005F914F913F912F910F900FBE0F901F90A4
:1022200018951F920F920FB60F9211242F933F9380
:102230004F935F936F937F938F939F93AF93BF93CE
:10224000EF93FF93DF93CF93CDB7DEB780919F01DC
:102250009091A001009729F0E0919F01F091A001D9
:102260000995CF91DF91FF91EF91BF91AF919F9130
:102270008F917F916F915F914F913F912F910F902F
:102280000FBE0F901F9018951F920F920FB60F92CE
:1022900011242F933F934F935F936F937F938F936B
:1022A0009F93AF93BF93EF93FF93DF93CF93CDB7FC
:1022B000DEB78091A1019091A201009729F0E091F1
:1022C000A101F091A2010995CF91DF91FF91EF91CA
:1022D000BF91AF919F918F917F916F915F914F913E
:1022E0003F912F910F900FBE0F901F901895DF9385
:1022F000CF9300D00F92CDB7DEB79B838A8381E066
:1023000089838A819B810097B1F0EA81FB812281D8
:102310008A819B81622F0E94A411898389818823ED
:1023200061F4EA81FB8123818A819B81622F0E9473
:102330002912898302C082E0898389810F900F90DE
:102340000F90CF91DF910895DF93CF9300D000D00D
:1023500000D0CDB7DEB79B838A836C8381E089830D
:102360008A819B81009709F468C08C81282F30E016
:102370003E832D838D819E81009731F02D813E819A
:102380002130310571F15BC0EA81FB818081882FAA
:1023900090E0880F991FFC01E05DFE4FA081B181A4
:1023A000EA81FB818081882F90E0880F991FFC01D2
:1023B000E05DFE4F0190F081E02D8081482FEA81A1
:1023C000FB818181282F30E081E090E0022E02C065
:1023D000880F991F0A94E2F7809584238C931982C1
:1023E0002EC0EA81FB818081882F90E0880F991FA1
:1023F000FC01E05DFE4FA081B181EA81FB8180811B
:10240000882F90E0880F991FFC01E05DFE4F01903E
:10241000F081E02D8081482FEA81FB818181282F86
:1024200030E081E090E0022E02C0880F991F0A94EC
:10243000E2F7842B8C93198202C082E08983898120
:1024400026960FB6F894DEBF0FBECDBFCF91DF91B9
:102450000895DF93CF9300D000D000D0CDB7DEB782
:102460009B838A836C8381E089838A819B81009727
:1024700009F468C08C81282F30E03E832D838D8144
:102480009E81009731F02D813E812130310571F11F
:102490005BC0EA81FB818081882F90E0880F991FC3
:1024A000FC01E85CFE4FA081B181EA81FB81808163
:1024B000882F90E0880F991FFC01E85CFE4F019087
:1024C000F081E02D8081482FEA81FB818181282FD6
:1024D00030E081E090E0022E02C0880F991F0A943C
:1024E000E2F7809584238C9319822EC0EA81FB81C8
:1024F0008081882F90E0880F991FFC01E85CFE4FD7
:10250000A081B181EA81FB818081882F90E0880FD2
:10251000991FFC01E85CFE4F0190F081E02D808165
:10252000482FEA81FB818181282F30E081E090E013
:10253000022E02C0880F991F0A94E2F7842B8C9315
:10254000198202C082E08983898126960FB6F894A9
:10255000DEBF0FBECDBFCF91DF910895DF93CF9344
:1025600000D000D00F92CDB7DEB79B838A837D83E6
:102570006C8381E089838A819B81009711F1EA81D4
:10258000FB818081882F90E0880F991FFC01E05C1F
:10259000FE4F0190F081E02D8081282F30E0EA810C
:1025A000FB818181882F90E0A90102C05595479554
:1025B0008A95E2F7CA018170EC81FD8180831982DE
:1025C00002C082E0898389810F900F900F900F9055
:1025D0000F90CF91DF910895DF93CF9300D00F92AA
:1025E000CDB7DEB79B838A8381E089838A819B8113
:1025F000009761F1EA81FB818081882F90E0880F4C
:10260000991FFC01E85CFE4FA081B181EA81FB814A
:102610008081882F90E0880F991FFC01E85CFE4FB5
:102620000190F081E02D8081482FEA81FB8181813A
:10263000282F30E081E090E0022E02C0880F991F21
:102640000A94E2F784278C93198202C082E089837E
:1026500089810F900F900F90CF91DF910895DF93B4
:10266000CF93CDB7DEB728970FB6F894DEBF0FBE75
:10267000CDBF8A836B834C8381E089838B81282F34
:1026800030E038872F838F819885009731F02F8134
:1026900038852130310579F01CC08A81882F90E07F
:1026A000880F991FFC01E05DFE4F0190F081E02D45
:1026B000108219820EC08A81882F90E0880F991F9E
:1026C000FC01E05DFE4F0190F081E02D8FEF8083F3
:1026D00019828C81282F30E03E832D838D819E814D
:1026E000009731F02D813E812130310579F01CC0F9
:1026F0008A81882F90E0880F991FFC01E85CFE4FCB
:102700000190F081E02D108219820EC08A81882FFD
:1027100090E0880F991FFC01E85CFE4F0190F0816A
:10272000E02D8FEF80831982898128960FB6F89467
:10273000DEBF0FBECDBFCF91DF910895DF93CF9362
:1027400000D000D00F92CDB7DEB78A836B8381E0D3
:1027500089838B81282F30E03D832C838C819D8160
:10276000009731F02C813D812130310579F01CC07A
:102770008A81882F90E0880F991FFC01E05DFE4F51
:102780000190F081E02D108219820EC08A81882F7D
:1027900090E0880F991FFC01E05DFE4F0190F081F1
:1027A000E02D8FEF8083198289810F900F900F9019
:1027B0000F900F90CF91DF910895DF93CF9300D0CA
:1027C00000D00F92CDB7DEB78A836B8381E0898317
:1027D0008B81282F30E03D832C838C819D81009755
:1027E00031F02C813D812130310579F01CC08A8186
:1027F000882F90E0880F991FFC01E85CFE4F019044
:10280000F081E02D108219820EC08A81882F90E01D
:10281000880F991FFC01E85CFE4F0190F081E02DCC
:102820008FEF8083198289810F900F900F900F9006
:102830000F90CF91DF910895DF93CF9300D000D018
:10284000CDB7DEB78A837C836B8381E089838A81FD
:10285000882F90E0880F991FFC01E05CFE4F0190EB
:10286000F081E02D8081EB81FC8180831982898158
:102870000F900F900F900F90CF91DF910895DF93FD
:10288000CF9300D0CDB7DEB78A8381E089838A8178
:10289000882F90E0880F991FFC01E05DFE4FA0811A
:1028A000B1818A81882F90E0880F991FFC01E05D3B
:1028B000FE4F0190F081E02D20818A81882F90E0E9
:1028C000880F991FFC01E05DFE4F0190F081E02D23
:1028D000808182278C93198289810F900F90CF91EC
:1028E000DF910895DF93CF9300D00F92CDB7DEB77D
:1028F0008A836B8381E089838A81882F90E0880FA7
:10290000991FFC01E85CFE4FA081B1818A81882F6C
:1029100090E0880F991FFC01E85CFE4F0190F08168
:10292000E02D80818F708C938A81882F90E0880FB2
:10293000991FFC01E85CFE4FA081B1818A81882F3C
:1029400090E0880F991FFC01E85CFE4F0190F08138
:10295000E02D8081282F8B81882F90E082959295A1
:10296000907F9827807F9827822B8C93198289816A
:102970000F900F900F90CF91DF910895DF93CF9339
:10298000CDB7DEB727970FB6F894DEBF0FBECDBF29
:102990008A834B835C836D837E8381E089838A8114
:1029A000882F90E0880F991FFC01E85CFE4F019092
:1029B000F081E02D80818A81882F90E0880F991F17
:1029C000FC01E85CFE4F0190F081E02D10828A81CD
:1029D000882F90E0880F991FFC01E85CFE4FA081D2
:1029E000B1818A81882F90E0880F991FFC01E85CF3
:1029F000FE4F0190F081E02D90818B81892B8C938B
:102A00001982898127960FB6F894DEBF0FBECDBF1D
:102A1000CF91DF910895DF93CF93CDB7DEB7AFE5C8
:102A2000B0E0EFE5F0E0808180688C93CF91DF919A
:102A30000895DF93CF93CDB7DEB7AFE5B0E0EFE514
:102A4000F0E080818F778C93CF91DF9108950F9381
:102A50001F93DF93CF93CDB7DEB7CE59D0400FB6DB
:102A6000F894DEBF0FBECDBFFE01E356FF4F91834A
:102A70008083FE01E058FF4F81E08083FE01E15832
:102A8000FF4F81E08083FE01E356FF4F80819181FB
:102A9000009709F418C7FE01E356FF4F0190F0813B
:102AA000E02D8181FE01E356FF4F0190F081E02D82
:102AB0009381FE01EF57FF4F8083FE01EF57FF4FD9
:102AC0009183FE01EF57FF4F81E08283FE01EF57B4
:102AD000FF4F1382FE01E356FF4F0190F081E02D7E
:102AE0008181FE01E356FF4F0190F081E02D94813A
:102AF000FE01EB57FF4F8083FE01EB57FF4F9183A1
:102B0000FE01EB57FF4F81E08283FE01EB57FF4F41
:102B10001382FE01E356FF4F0190F081E02D818189
:102B2000FE01E356FF4F0190F081E02D9581FE01FB
:102B3000E757FF4F8083FE01E757FF4F9183FE0168
:102B4000E757FF4F81E08283FE01E757FF4F138273
:102B5000CE018F579F4F0E947711FE01E158FF4F22
:102B60008083FE01E158FF4F8081882351F4CE011C
:102B70008B579F4F0E947711FE01E158FF4F8083D2
:102B800005C0FE01E058FF4F81E08083FE01E1585F
:102B9000FF4F8081882351F4CE0187579F4F0E94B9
:102BA0007711FE01E158FF4F808305C0FE01E05818
:102BB000FF4F81E08083FE01E356FF4F0190F081DB
:102BC000E02D8081882309F042C4FE01E356FF4FC7
:102BD0000190F081E02D8281FE01E356FF4F0190CC
:102BE000F081E02D9285FE01E357FF4F8083FE01C7
:102BF000E357FF4F9183FE01E357FF4F81E082834C
:102C0000FE01E357FF4F1382FE01E356FF4F019091
:102C1000F081E02D8281FE01E356FF4F0190F081AB
:102C2000E02D9385FE01EF56FF4F8083FE01EF56A6
:102C3000FF4F9183FE01EF56FF4F81E08283FE013B
:102C4000EF56FF4F1382FE01E356FF4F0190F081D4
:102C5000E02D8281FE01E356FF4F0190F081E02DCF
:102C60009485FE01EB56FF4F8083FE01EB56FF4F2C
:102C70009183FE01EB56FF4F81E08283FE01EB560C
:102C8000FF4F1382FE01E356FF4F0190F081E02DCC
:102C90008281FE01E356FF4F0190F081E02D958582
:102CA000FE01E756FF4F8083FE01E756FF4F9183F9
:102CB000FE01E756FF4F81E08283FE01E756FF4F9A
:102CC0001382FE01E158FF4F8081882351F4CE0129
:102CD00083579F4F0E947711FE01E158FF4F808379
:102CE00005C0FE01E058FF4F81E08083FE01E158FE
:102CF000FF4F8081882351F4CE018F569F4F0E9451
:102D00007711FE01E158FF4F808305C0FE01E058B6
:102D1000FF4F81E08083FE01E158FF4F80818823CF
:102D200051F4CE018B569F4F0E947711FE01E1585E
:102D3000FF4F808305C0FE01E058FF4F81E0808394
:102D4000FE01E158FF4F8081882351F4CE01875660
:102D50009F4F0E947711FE01E158FF4F808305C00D
:102D6000FE01E058FF4F81E08083FE01E558FF4FF0
:102D700080E090E0A0EFB1E480839183A283B383ED
:102D80008E0109581F4FFE01E558FF4F6081718188
:102D90008281938120E030E04AEF54E40E941F02D8
:102DA000DC01CB01F80180839183A283B383FE0110
:102DB000E958FF4F608171818281938120E030E08A
:102DC00040E85FE30E947903882344F4FE01EB5856
:102DD000FF4F81E090E09183808364C0FE01E95859
:102DE000FF4F608171818281938120E03FEF4FE747
:102DF00057E40E94190318160CF043C0FE01E55871
:102E0000FF4F608171818281938120E030E040E258
:102E100051E40E941F02DC01CB018E010B581F4FB1
:102E2000BC01CD010E944900DC01CB01F801918376
:102E300080831FC0FE01ED58FF4F88EC90E0918326
:102E40008083FE01ED58FF4F808191810197F1F75A
:102E5000FE01ED58FF4F91838083DE01AB58BF4FD9
:102E6000FE01EB58FF4F80819181019711969C9351
:102E70008E93FE01EB58FF4F808191810097D1F630
:102E800027C08E010B581F4FFE01E958FF4F60818C
:102E90007181828193810E944900DC01CB01F8019C
:102EA00091838083DE01AF58BF4FFE01EB58FF4F87
:102EB000808191818D939C93FE01EF58FF4F80811B
:102EC00091810197F1F7FE01EF58FF4F91838083C5
:102ED000FE01E356FF4F8081918168E20E94781CD9
:102EE000FE01E359FF4F80E090E0A8E4B2E4808364
:102EF0009183A283B3838E0107591F4FFE01E359CB
:102F0000FF4F608171818281938120E030E04AEF40
:102F100054E40E941F02DC01CB01F80180839183FD
:102F2000A283B383FE01E759FF4F608171818281E3
:102F3000938120E030E040E85FE30E94790388233A
:102F400044F4FE01E959FF4F81E090E091838083D2
:102F500064C0FE01E759FF4F6081718182819381D6
:102F600020E03FEF4FE757E40E94190318160CF0DA
:102F700043C0FE01E359FF4F6081718182819381DB
:102F800020E030E040E251E40E941F02DC01CB016E
:102F90008E0109591F4FBC01CD010E944900DC017F
:102FA000CB01F801918380831FC0FE01EB59FF4FD5
:102FB00088EC90E091838083FE01EB59FF4F808184
:102FC00091810197F1F7FE01EB59FF4F91838083C7
:102FD000DE01A959BF4FFE01E959FF4F8081918160
:102FE000019711969C938E93FE01E959FF4F8081C2
:102FF00091810097D1F627C08E0109591F4FFE011C
:10300000E759FF4F60817181828193810E9449005D
:10301000DC01CB01F80191838083DE01AD59BF4F04
:10302000FE01E959FF4F808191818D939C93FE01B0
:10303000ED59FF4F808191810197F1F7FE01ED5924
:10304000FF4F91838083FE01E356FF4F8081918182
:103050006FE00E94781CFE01E15AFF4F80E090E093
:10306000A8E4B2E480839183A283B3838E01055ADE
:103070001F4FFE01E15AFF4F608171818281938170
:1030800020E030E04AEF54E40E941F02DC01CB0153
:10309000F80180839183A283B383FE01E55AFF4F39
:1030A000608171818281938120E030E040E85FE3BC
:1030B0000E947903882344F4FE01E75AFF4F81E020
:1030C00090E09183808364C0FE01E55AFF4F6081E8
:1030D00071818281938120E03FEF4FE757E40E94A6
:1030E000190318160CF043C0FE01E15AFF4F60812E
:1030F00071818281938120E030E040E251E40E94BE
:103100001F02DC01CB018E01075A1F4FBC01CD010C
:103110000E944900DC01CB01F801918380831FC02C
:10312000FE01E95AFF4F88EC90E091838083FE0115
:10313000E95AFF4F808191810197F1F7FE01E95A29
:10314000FF4F91838083DE01A75ABF4FFE01E75AEC
:10315000FF4F80819181019711969C938E93FE0180
:10316000E75AFF4F808191810097D1F627C08E01E9
:10317000075A1F4FFE01E55AFF4F6081718182811E
:1031800093810E944900DC01CB01F8019183808387
:10319000DE01AB5ABF4FFE01E75AFF4F808191819C
:1031A0008D939C93FE01EB5AFF4F80819181019793
:1031B000F1F7FE01EB5AFF4F91838083FE01E35646
:1031C000FF4F8081918161E00E94781CFE01EF5ADF
:1031D000FF4F80E090E0A8E4B2E480839183A28373
:1031E000B3838E01035B1F4FFE01EF5AFF4F6081D7
:1031F00071818281938120E030E04AEF54E40E94A3
:103200001F02DC01CB01F80180839183A283B38389
:10321000FE01E35BFF4F608171818281938120E039
:1032200030E040E85FE30E947903882344F4FE0124
:10323000E55BFF4F81E090E09183808364C0FE01F5
:10324000E35BFF4F608171818281938120E03FEFDA
:103250004FE757E40E94190318160CF043C0FE0113
:10326000EF5AFF4F608171818281938120E030E0CD
:1032700040E251E40E941F02DC01CB018E01055B9C
:103280001F4FBC01CD010E944900DC01CB01F801B8
:10329000918380831FC0FE01E75BFF4F88EC90E0C5
:1032A00091838083FE01E75BFF4F808191810197CD
:1032B000F1F7FE01E75BFF4F91838083DE01A55BA1
:1032C000BF4FFE01E55BFF4F808191810197119611
:1032D0009C938E93FE01E55BFF4F80819181009767
:1032E000D1F627C08E01055B1F4FFE01E35BFF4F48
:1032F00060817181828193810E944900DC01CB0150
:10330000F80191838083DE01A95BBF4FFE01E55B7D
:10331000FF4F808191818D939C93FE01E95BFF4F6C
:10332000808191810197F1F7FE01E95BFF4F918365
:103330008083FE01E356FF4F8081918166E00E9409
:10334000781CFE01ED5BFF4F80E090E0A8E4B2E462
:1033500080839183A283B3838E01015C1F4FFE01A2
:10336000ED5BFF4F608171818281938120E030E0CD
:103370004AEF54E40E941F02DC01CB01F801808374
:103380009183A283B383FE01FF9660817181828164
:10339000938120E030E040E85FE30E9479038823D6
:1033A0002CF481E090E09EAF8DAF46C0FE01FF9609
:1033B000608171818281938120E03FEF4FE757E484
:1033C0000E941903181664F5FE01ED5BFF4F608142
:1033D00071818281938120E030E040E251E40E94DB
:1033E0001F02DC01CB01BC01CD010E944900DC01C0
:1033F000CB019EAF8DAF0FC088EC90E09CAF8BAF40
:103400008BAD9CAD0197F1F79CAF8BAF8DAD9EADB1
:1034100001979EAF8DAF8DAD9EAD009769F758C2F5
:10342000FE01FF9660817181828193810E94490033
:10343000DC01CB019EAF8DAF8DAD9EAD9AAF89AF54
:1034400089AD9AAD0197F1F79AAF89AF41C2FE01FC
:10345000E356FF4F0190F081E02D8081813009F02B
:103460002CC2FE01E158FF4F8081882381F4FE01C8
:10347000E356FF4F0190F081E02D828161E040E052
:103480000E942F13FE01E158FF4F808305C0FE010B
:10349000E058FF4F81E0808380E090E0A0E8BFE348
:1034A0008DAB9EABAFABB8AF6DA97EA98FA998AD20
:1034B00020E030E04AEF54E40E941F02DC01CB011F
:1034C00089AB9AABABABBCAB69A97AA98BA99CA918
:1034D00020E030E040E85FE30E94790388232CF489
:1034E00081E090E098AB8FA73FC069A97AA98BA92A
:1034F0009CA920E03FEF4FE757E40E9419031816FC
:103500004CF56DA97EA98FA998AD20E030E040E28E
:1035100051E40E941F02DC01CB01BC01CD010E94DD
:103520004900DC01CB0198AB8FA70FC088EC90E07D
:103530009EA78DA78DA59EA50197F1F79EA78DA7A4
:103540008FA598A9019798AB8FA78FA598A90097E9
:1035500069F714C069A97AA98BA99CA90E9449009E
:10356000DC01CB0198AB8FA78FA598A99CA78BA74F
:103570008BA59CA50197F1F79CA78BA7FE01E158AD
:10358000FF4F8081882369F4FE01E356FF4F80815D
:10359000918168E30E94781CFE01E058FF4F808310
:1035A00005C0FE01E058FF4F81E0808380E090E09D
:1035B000A0E8BFE38FA398A7A9A7BAA76FA178A592
:1035C00089A59AA520E030E04AEF54E40E941F024A
:1035D000DC01CB018BA39CA3ADA3BEA36BA17CA1FB
:1035E0008DA19EA120E030E040E85FE30E947903D6
:1035F00088232CF481E090E09AA389A33FC06BA1BB
:103600007CA18DA19EA120E03FEF4FE757E40E94EF
:10361000190318164CF56FA178A589A59AA520E085
:1036200030E040E251E40E941F02DC01CB01BC010A
:10363000CD010E944900DC01CB019AA389A30FC0F0
:1036400088EC90E098A38F8F8F8D98A10197F1F768
:1036500098A38F8F89A19AA101979AA389A389A181
:103660009AA1009769F714C06BA17CA18DA19EA1BE
:103670000E944900DC01CB019AA389A389A19AA1E8
:103680009E8F8D8F8D8D9E8D0197F1F79E8F8D8FE3
:10369000FE01E058FF4F8081882369F4FE01E35664
:1036A000FF4F808191816CE00E94781CFE01E05800
:1036B000FF4F808305C0FE01E058FF4F81E080830B
:1036C00080E090E0A0E8BFE3898F9A8FAB8FBC8F3A
:1036D000698D7A8D8B8D9C8D20E030E04AEF54E42B
:1036E0000E941F02DC01CB018D8B9E8BAF8BB88FAC
:1036F0006D897E898F89988D20E030E040E85FE316
:103700000E94790388232CF481E090E09C8B8B8BC2
:103710003FC06D897E898F89988D20E03FEF4FE70C
:1037200057E40E94190318164CF5698D7A8D8B8D1C
:103730009C8D20E030E040E251E40E941F02DC0159
:10374000CB01BC01CD010E944900DC01CB019C8B67
:103750008B8B0FC088EC90E09A8B898B89899A8932
:103760000197F1F79A8B898B8B899C8901979C8BA8
:103770008B8B8B899C89009769F714C06D897E8932
:103780008F89988D0E944900DC01CB019C8B8B8B2B
:103790008B899C89988B8F878F8598890197F1F702
:1037A000988B8F87FE01E058FF4F8081882369F452
:1037B000FE01E356FF4F8081918161E00E94781CF9
:1037C000FE01E058FF4F808305C0FE01E058FF4F27
:1037D00081E0808380E090E0A0E8BFE38B879C8756
:1037E000AD87BE876B857C858D859E8520E030E02A
:1037F0004AEF54E40E941F02DC01CB018F839887BB
:10380000A987BA876F81788589859A8520E030E01D
:1038100040E85FE30E94790388232CF481E090E084
:103820009E838D833FC06F81788589859A8520E04E
:103830003FEF4FE757E40E94190318164CF56B85CC
:103840007C858D859E8520E030E040E251E40E9439
:103850001F02DC01CB01BC01CD010E944900DC014B
:10386000CB019E838D830FC088EC90E09C838B837B
:103870008B819C810197F1F79C838B838D819E8145
:1038800001979E838D838D819E81009769F720C06B
:103890006F81788589859A850E944900DC01CB017A
:1038A0009E838D838D819E819A83898389819A816C
:1038B0000197F1F79A8389830BC0FE01E058FF4F0F
:1038C00083E0808305C0FE01E058FF4F82E08083E3
:1038D000FE01E058FF4F8081C256DF4F0FB6F894CB
:1038E000DEBF0FBECDBFCF91DF911F910F91089525
:1038F0000F931F93DF93CF93CDB7DEB7CD59D04051
:103900000FB6F894DEBF0FBECDBFFE01E556FF4FE8
:1039100091838083FE01E356FF4F6083FE01E257EF
:10392000FF4F81E08083FE01E357FF4F81E08083FA
:10393000FE01E556FF4F80819181009709F42FC762
:10394000FE01E556FF4F0190F081E02D8181FE01DF
:10395000E556FF4F0190F081E02D9381FE01E15784
:10396000FF4F8083FE01E157FF4F9183FE01E15736
:10397000FF4F81E08283FE01E157FF4F1382FE017A
:10398000E556FF4F0190F081E02D8181FE01E55663
:10399000FF4F0190F081E02D9481FE01ED56FF4F25
:1039A0008083FE01ED56FF4F9183FE01ED56FF4FE0
:1039B00081E08283FE01ED56FF4F1382FE01E55642
:1039C000FF4F0190F081E02D8181FE01E556FF4F10
:1039D0000190F081E02D9581FE01E956FF4F808333
:1039E000FE01E956FF4F9183FE01E956FF4F81E04A
:1039F0008283FE01E956FF4F1382CE0181579F4F0C
:103A000060E00E942912FE01E357FF4F8083FE0110
:103A1000E357FF4F8081882359F4CE018D569F4F85
:103A200060E00E942912FE01E357FF4F808305C02A
:103A3000FE01E257FF4F81E08083FE01E757FF4F11
:103A400080E090E0A0EFB1E480839183A283B38310
:103A50008E010B571F4FFE01E757FF4F60817181A9
:103A60008281938120E030E04AEF54E40E941F02FB
:103A7000DC01CB01F80180839183A283B383FE0133
:103A8000EB57FF4F608171818281938120E030E0AC
:103A900040E85FE30E947903882344F4FE01ED5778
:103AA000FF4F81E090E09183808364C0FE01EB577B
:103AB000FF4F608171818281938120E03FEF4FE76A
:103AC00057E40E94190318160CF043C0FE01E75793
:103AD000FF4F608171818281938120E030E040E27C
:103AE00051E40E941F02DC01CB018E010D571F4FD4
:103AF000BC01CD010E944900DC01CB01F80191839A
:103B000080831FC0FE01EF57FF4F88EC90E0918348
:103B10008083FE01EF57FF4F808191810197F1F77C
:103B2000FE01EF57FF4F91838083DE01AD57BF4FFA
:103B3000FE01ED57FF4F80819181019711969C9373
:103B40008E93FE01ED57FF4F808191810097D1F652
:103B500028C08E010D571F4FFE01EB57FF4F6081AC
:103B60007181828193810E944900DC01CB01F801BF
:103B700091838083DE01A158BF4FFE01ED57FF4FB7
:103B80008081918111969C938E93FE01E158FF4FA5
:103B9000808191810197F1F7FE01E158FF4F9183F8
:103BA0008083FE01E556FF4F0190F081E02D80817A
:103BB000882309F03DC4FE01E357FF4F808188232D
:103BC00059F4CE0189569F4F61E00E942912FE01EF
:103BD000E357FF4F808305C0FE01E257FF4F81E0AE
:103BE0008083FE01E558FF4F80E090E0A8E4B2E456
:103BF00080839183A283B3838E0109581F4FFE01F6
:103C0000E558FF4F608171818281938120E030E02F
:103C10004AEF54E40E941F02DC01CB01F8018083CB
:103C20009183A283B383FE01E958FF4F60817181C4
:103C30008281938120E030E040E85FE30E947903D5
:103C4000882344F4FE01EB58FF4F81E090E091831C
:103C5000808364C0FE01E958FF4F608171818281D9
:103C6000938120E03FEF4FE757E40E9419031816B5
:103C70000CF043C0FE01E558FF4F608171818281E5
:103C8000938120E030E040E251E40E941F02DC0119
:103C9000CB018E010B581F4FBC01CD010E94490082
:103CA000DC01CB01F801918380831FC0FE01ED5838
:103CB000FF4F88EC90E091838083FE01ED58FF4F29
:103CC000808191810197F1F7FE01ED58FF4F9183BB
:103CD0008083DE01AB58BF4FFE01EB58FF4F808160
:103CE0009181019711969C938E93FE01EB58FF4FA3
:103CF000808191810097D1F627C08E010B581F4F0C
:103D0000FE01E958FF4F60817181828193810E9499
:103D10004900DC01CB01F80191838083DE01AF58BB
:103D2000BF4FFE01EB58FF4F808191818D939C9393
:103D3000FE01EF58FF4F808191810197F1F7FE015D
:103D4000EF58FF4F91838083FE01E556FF4F0190AE
:103D5000F081E02D2281FE01E356FF4F8081982FF4
:103D600092959F70822F692F0E947214FE01E35971
:103D7000FF4F80E090E0A8E4B2E480839183A283C7
:103D8000B3838E0107591F4FFE01E359FF4F608136
:103D900071818281938120E030E04AEF54E40E94F7
:103DA0001F02DC01CB01F80180839183A283B383DE
:103DB000FE01E759FF4F608171818281938120E08C
:103DC00030E040E85FE30E947903882344F4FE0179
:103DD000E959FF4F81E090E09183808364C0FE0148
:103DE000E759FF4F608171818281938120E03FEF2D
:103DF0004FE757E40E94190318160CF043C0FE0168
:103E0000E359FF4F608171818281938120E030E02E
:103E100040E251E40E941F02DC01CB018E010959EE
:103E20001F4FBC01CD010E944900DC01CB01F8010C
:103E3000918380831FC0FE01EB59FF4F88EC90E017
:103E400091838083FE01EB59FF4F8081918101971F
:103E5000F1F7FE01EB59FF4F91838083DE01A959F1
:103E6000BF4FFE01E959FF4F808191810197119663
:103E70009C938E93FE01E959FF4F808191810097B9
:103E8000D1F628C08E0109591F4FFE01E759FF4F97
:103E900060817181828193810E944900DC01CB01A4
:103EA000F80191838083DE01AD59BF4FFE01E959CE
:103EB000FF4F8081918111969C938E93FE01ED5965
:103EC000FF4F808191810197F1F7FE01ED59FF4F7E
:103ED00091838083FE01E357FF4F8081882359F44B
:103EE000CE0189569F4F60E00E942912FE01E357E0
:103EF000FF4F808305C0FE01E257FF4F81E08083C2
:103F0000FE01E15AFF4F80E090E0A8E4B2E4808334
:103F10009183A283B3838E01055A1F4FFE01E15A9C
:103F2000FF4F608171818281938120E030E04AEF10
:103F300054E40E941F02DC01CB01F80180839183CD
:103F4000A283B383FE01E55AFF4F608171818281B4
:103F5000938120E030E040E85FE30E94790388230A
:103F600044F4FE01E75AFF4F81E090E091838083A3
:103F700064C0FE01E55AFF4F6081718182819381A7
:103F800020E03FEF4FE757E40E94190318160CF0AA
:103F900043C0FE01E15AFF4F6081718182819381AC
:103FA00020E030E040E251E40E941F02DC01CB013E
:103FB0008E01075A1F4FBC01CD010E944900DC0150
:103FC000CB01F801918380831FC0FE01E95AFF4FA6
:103FD00088EC90E091838083FE01E95AFF4F808155
:103FE00091810197F1F7FE01E95AFF4F9183808398
:103FF000DE01A75ABF4FFE01E75AFF4F8081918132
:10400000019711969C938E93FE01E75AFF4F808192
:1040100091810097D1F628C08E01075A1F4FFE01EB
:10402000E55AFF4F60817181828193810E9449002E
:10403000DC01CB01F80191838083DE01AB5ABF4FD5
:10404000FE01E75AFF4F8081918111969C938E93D8
:10405000FE01EB5AFF4F808191810197F1F7FE013C
:10406000EB5AFF4F91838083FE01E357FF4F80811E
:10407000882359F4CE0189569F4F61E00E9429128E
:10408000FE01E357FF4F808305C0FE01E257FF4F5B
:1040900081E08083FE01EF5AFF4F80E090E0A8E4CA
:1040A000B2E480839183A283B3838E01035B1F4FAD
:1040B000FE01EF5AFF4F608171818281938120E080
:1040C00030E04AEF54E40E941F02DC01CB01F8010A
:1040D00080839183A283B383FE01E35BFF4F608102
:1040E00071818281938120E030E040E85FE30E94AB
:1040F0007903882344F4FE01E55BFF4F81E090E003
:104100009183808364C0FE01E35BFF4F6081718116
:104110008281938120E03FEF4FE757E40E9419032B
:1041200018160CF043C0FE01EF5AFF4F60817181F9
:104130008281938120E030E040E251E40E941F023E
:10414000DC01CB018E01055B1F4FBC01CD010E943C
:104150004900DC01CB01F801918380831FC0FE017F
:10416000E75BFF4F88EC90E091838083FE01E75B83
:10417000FF4F808191810197F1F7FE01E75BFF4FCF
:1041800091838083DE01A55BBF4FFE01E55BFF4F9E
:1041900080819181019711969C938E93FE01E55B3E
:1041A000FF4F808191810097D1F627C08E01055B7A
:1041B0001F4FFE01E35BFF4F60817181828193811C
:1041C0000E944900DC01CB01F80191838083DE016C
:1041D000A95BBF4FFE01E55BFF4F808191818D930D
:1041E0009C93FE01E95BFF4F808191810197F1F77C
:1041F000FE01E95BFF4F91838083FE01E556FF4F8F
:104200000190F081E02D8281FE01E356FF4F608135
:104210000E947214FE01ED5BFF4F80E090E0A8E485
:10422000B2E480839183A283B3838E01015C1F4F2C
:10423000FE01ED5BFF4F608171818281938120E0FF
:1042400030E04AEF54E40E941F02DC01CB01F80188
:1042500080839183A283B383FE01FF966081718185
:104260008281938120E030E040E85FE30E9479039F
:1042700088232CF481E090E09EAF8DAF46C0FE0114
:10428000FF96608171818281938120E03FEF4FE74B
:1042900057E40E941903181664F5FE01ED5BFF4F09
:1042A000608171818281938120E030E040E251E4BD
:1042B0000E941F02DC01CB01BC01CD010E9449001C
:1042C000DC01CB019EAF8DAF0FC088EC90E09CAFBE
:1042D0008BAF8BAD9CAD0197F1F79CAF8BAF8DADE4
:1042E0009EAD01979EAF8DAF8DAD9EAD009769F7E6
:1042F00016C0FE01FF9660817181828193810E94C8
:104300004900DC01CB019EAF8DAF8DAD9EAD9AAF64
:1043100089AF89AD9AAD0197F1F79AAF89AFFE01E8
:10432000E357FF4F8081882359F4CE0189569F4F70
:1043300060E00E942912FE01E357FF4F808305C011
:10434000FE01E257FF4F81E0808380E090E0A8E427
:10435000B2E48DAB9EABAFABB8AF6DA97EA98FA910
:1043600098AD20E030E04AEF54E40E941F02DC01E7
:10437000CB0189AB9AABABABBCAB69A97AA98BA9D2
:104380009CA920E030E040E85FE30E9479038823A5
:104390002CF481E090E098AB8FA73FC069A97AA97F
:1043A0008BA99CA920E03FEF4FE757E40E94190337
:1043B00018164CF56DA97EA98FA998AD20E030E0C4
:1043C00040E251E40E941F02DC01CB01BC01CD019F
:1043D0000E944900DC01CB0198AB8FA70FC088EC8D
:1043E00090E09EA78DA78DA59EA50197F1F79EA7AA
:1043F0008DA78FA598A9019798AB8FA78FA598A98E
:10440000009769F7BBC169A97AA98BA99CA90E94E9
:104410004900DC01CB0198AB8FA78FA598A99CA779
:104420008BA78BA59CA50197F1F79CA78BA7A6C18D
:10443000FE01E556FF4F0190F081E02D8081813033
:1044400009F097C1FE01E357FF4F8081882359F49B
:10445000CE0189569F4F61E00E942912FE01E35769
:10446000FF4F808305C0FE01E257FF4F81E080834C
:1044700080E090E0A0E8BFE38FA398A7A9A7BAA720
:104480006FA178A589A59AA520E030E04AEF54E411
:104490000E941F02DC01CB018BA39CA3ADA3BEA392
:1044A0006BA17CA18DA19EA120E030E040E85FE3FC
:1044B0000E94790388232CF481E090E09AA389A3D9
:1044C0003FC06BA17CA18DA19EA120E03FEF4FE7F3
:1044D00057E40E94190318164CF56FA178A589A519
:1044E0009AA520E030E040E251E40E941F02DC0186
:1044F000CB01BC01CD010E944900DC01CB019AA394
:1045000089A30FC088EC90E098A38F8F8F8D98A11E
:104510000197F1F798A38F8F89A19AA101979AA388
:1045200089A389A19AA1009769F714C06BA17CA106
:104530008DA19EA10E944900DC01CB019AA389A311
:1045400089A19AA19E8F8D8F8D8D9E8D0197F1F7F8
:104550009E8F8D8FFE01E556FF4F0190F081E02D7B
:104560009281FE01E356FF4F8081282F30E040E02A
:1045700050E0892FBA01A9010E94BE1480E090E0AA
:10458000A0E8BFE3898F9A8FAB8FBC8F698D7A8D3E
:104590008B8D9C8D20E030E04AEF54E40E941F0296
:1045A000DC01CB018D8B9E8BAF8BB88F6D897E89A3
:1045B0008F89988D20E030E040E85FE30E94790326
:1045C00088232CF481E090E09C8B8B8B3FC06D891D
:1045D0007E898F89988D20E03FEF4FE757E40E9456
:1045E000190318164CF5698D7A8D8B8D9C8D20E002
:1045F00030E040E251E40E941F02DC01CB01BC012B
:10460000CD010E944900DC01CB019C8B8B8B0FC03C
:1046100088EC90E09A8B898B89899A890197F1F7C8
:104620009A8B898B8B899C8901979C8B8B8B8B892F
:104630009C89009769F714C06D897E898F89988D50
:104640000E944900DC01CB019C8B8B8B8B899C8960
:10465000988B8F878F8598890197F1F7988B8F8733
:10466000FE01E357FF4F8081882359F4CE0189561C
:104670009F4F60E00E942912FE01E357FF4F8083A5
:1046800005C0FE01E257FF4F81E0808380E090E0AB
:10469000A0E8BFE38B879C87AD87BE876B857C8551
:1046A0008D859E8520E030E04AEF54E40E941F0291
:1046B000DC01CB018F839887A987BA876F817885C2
:1046C00089859A8520E030E040E85FE30E94790325
:1046D00088232CF481E090E09E838D833FC06F811E
:1046E000788589859A8520E03FEF4FE757E40E945F
:1046F000190318164CF56B857C858D859E8520E009
:1047000030E040E251E40E941F02DC01CB01BC0119
:10471000CD010E944900DC01CB019E838D830FC037
:1047200088EC90E09C838B838B819C810197F1F7CF
:104730009C838B838D819E8101979E838D838D8148
:104740009E81009769F71AC06F81788589859A855F
:104750000E944900DC01CB019E838D838D819E8167
:104760009A83898389819A810197F1F79A83898352
:1047700005C0FE01E257FF4F83E08083FE01E3574F
:10478000FF4F8081882329F4FE01E257FF4F1082FA
:104790000BC0FE01E257FF4F81E0808305C0FE01A0
:1047A000E257FF4F81E08083FE01E257FF4F808197
:1047B000C356DF4F0FB6F894DEBF0FBECDBFCF910B
:1047C000DF911F910F9108950F931F93DF93CF9364
:1047D000CDB7DEB7CD59D0400FB6F894DEBF0FBECF
:1047E000CDBFFE01E556FF4F91838083FE01E35666
:1047F000FF4F6083FE01E257FF4F81E08083FE019F
:10480000E357FF4F81E08083FE01E556FF4F808133
:104810009181009709F42FC7FE01E556FF4F0190E3
:10482000F081E02D8181FE01E556FF4F0190F0817E
:10483000E02D9381FE01E157FF4F8083FE01E15798
:10484000FF4F9183FE01E157FF4F81E08283FE011C
:10485000E157FF4F1382FE01E556FF4F0190F081B3
:10486000E02D8181FE01E556FF4F0190F081E02DA2
:104870009481FE01ED56FF4F8083FE01ED56FF4F00
:104880009183FE01ED56FF4F81E08283FE01ED56DC
:10489000FF4F1382FE01E556FF4F0190F081E02D9E
:1048A0008181FE01E556FF4F0190F081E02D958159
:1048B000FE01E956FF4F8083FE01E956FF4F9183C9
:1048C000FE01E956FF4F81E08283FE01E956FF4F6A
:1048D0001382CE0181579F4F61E00E942912FE0191
:1048E000E357FF4F8083FE01E357FF4F808188230A
:1048F00059F4CE018D569F4F60E00E942912FE01AF
:10490000E357FF4F808305C0FE01E257FF4F81E070
:104910008083FE01E757FF4F80E090E0A0EFB1E415
:1049200080839183A283B3838E010B571F4FFE01B7
:10493000E757FF4F608171818281938120E030E0F1
:104940004AEF54E40E941F02DC01CB01F80180838E
:104950009183A283B383FE01EB57FF4F6081718186
:104960008281938120E030E040E85FE30E94790398
:10497000882344F4FE01ED57FF4F81E090E09183DE
:10498000808364C0FE01EB57FF4F6081718182819B
:10499000938120E03FEF4FE757E40E941903181678
:1049A0000CF043C0FE01E757FF4F608171818281A7
:1049B000938120E030E040E251E40E941F02DC01DC
:1049C000CB018E010D571F4FBC01CD010E94490044
:1049D000DC01CB01F801918380831FC0FE01EF57FA
:1049E000FF4F88EC90E091838083FE01EF57FF4FEB
:1049F000808191810197F1F7FE01EF57FF4F91837D
:104A00008083DE01AD57BF4FFE01ED57FF4F808120
:104A10009181019711969C938E93FE01ED57FF4F64
:104A2000808191810097D1F628C08E010D571F4FCC
:104A3000FE01EB57FF4F60817181828193810E945B
:104A40004900DC01CB01F80191838083DE01A1588C
:104A5000BF4FFE01ED57FF4F8081918111969C93CE
:104A60008E93FE01E158FF4F808191810197F1F70C
:104A7000FE01E158FF4F91838083FE01E556FF4F11
:104A80000190F081E02D8081882309F03DC4FE0172
:104A9000E357FF4F8081882359F4CE0189569F4FF9
:104AA00061E00E942912FE01E357FF4F808305C099
:104AB000FE01E257FF4F81E08083FE01E558FF4F82
:104AC00080E090E0A0EFB1E480839183A283B38380
:104AD0008E0109581F4FFE01E558FF4F608171811B
:104AE0008281938120E030E04AEF54E40E941F026B
:104AF000DC01CB01F80180839183A283B383FE01A3
:104B0000E958FF4F608171818281938120E030E01C
:104B100040E85FE30E947903882344F4FE01EB58E8
:104B2000FF4F81E090E09183808364C0FE01E958EB
:104B3000FF4F608171818281938120E03FEF4FE7D9
:104B400057E40E94190318160CF043C0FE01E55803
:104B5000FF4F608171818281938120E030E040E2EB
:104B600051E40E941F02DC01CB018E010B581F4F44
:104B7000BC01CD010E944900DC01CB01F801918309
:104B800080831FC0FE01ED58FF4F88EC90E09183B9
:104B90008083FE01ED58FF4F808191810197F1F7ED
:104BA000FE01ED58FF4F91838083DE01AB58BF4F6C
:104BB000FE01EB58FF4F80819181019711969C93E4
:104BC0008E93FE01EB58FF4F808191810097D1F6C3
:104BD00027C08E010B581F4FFE01E958FF4F60811F
:104BE0007181828193810E944900DC01CB01F8012F
:104BF00091838083DE01AF58BF4FFE01EB58FF4F1A
:104C0000808191818D939C93FE01EF58FF4F8081AD
:104C100091810197F1F7FE01EF58FF4F9183808357
:104C2000FE01E556FF4F0190F081E02D2281FE014B
:104C3000E356FF4F8081982F92959F70822F692FA6
:104C40000E947214FE01E359FF4F80E090E0A0EF54
:104C5000B1E480839183A283B3838E0107591F4FF0
:104C6000FE01E359FF4F608171818281938120E0D1
:104C700030E04AEF54E40E941F02DC01CB01F8014E
:104C800080839183A283B383FE01E759FF4F608144
:104C900071818281938120E030E040E85FE30E94EF
:104CA0007903882344F4FE01E959FF4F81E090E045
:104CB0009183808364C0FE01E759FF4F6081718159
:104CC0008281938120E03FEF4FE757E40E94190370
:104CD00018160CF043C0FE01E359FF4F608171814B
:104CE0008281938120E030E040E251E40E941F0283
:104CF000DC01CB018E0109591F4FBC01CD010E947F
:104D00004900DC01CB01F801918380831FC0FE01C3
:104D1000EB59FF4F88EC90E091838083FE01EB59C3
:104D2000FF4F808191810197F1F7FE01EB59FF4F11
:104D300091838083DE01A959BF4FFE01E959FF4FDE
:104D400080819181019711969C938E93FE01E95980
:104D5000FF4F808191810097D1F628C08E010959BB
:104D60001F4FFE01E759FF4F60817181828193815E
:104D70000E944900DC01CB01F80191838083DE01B0
:104D8000AD59BF4FFE01E959FF4F808191811196C6
:104D90009C938E93FE01ED59FF4F80819181019785
:104DA000F1F7FE01ED59FF4F91838083FE01E35738
:104DB000FF4F8081882359F4CE0189569F4F60E0D0
:104DC0000E942912FE01E357FF4F808305C0FE01B8
:104DD000E257FF4F81E08083FE01E15AFF4F80E000
:104DE00090E0A0EFB1E480839183A283B3838E012E
:104DF000055A1F4FFE01E15AFF4F60817181828188
:104E0000938120E030E04AEF54E40E941F02DC016D
:104E1000CB01F80180839183A283B383FE01E55A1D
:104E2000FF4F608171818281938120E030E040E812
:104E30005FE30E947903882344F4FE01E75AFF4FA1
:104E400081E090E09183808364C0FE01E55AFF4FCA
:104E5000608171818281938120E03FEF4FE757E4C9
:104E60000E94190318160CF043C0FE01E15AFF4FCF
:104E7000608171818281938120E030E040E251E4E1
:104E80000E941F02DC01CB018E01075A1F4FBC019B
:104E9000CD010E944900DC01CB01F80191838083A0
:104EA0001FC0FE01E95AFF4F88EC90E09183808398
:104EB000FE01E95AFF4F808191810197F1F7FE01D0
:104EC000E95AFF4F91838083DE01A75ABF4FFE014D
:104ED000E75AFF4F80819181019711969C938E93A1
:104EE000FE01E75AFF4F808191810097D1F628C0DB
:104EF0008E01075A1F4FFE01E55AFF4F60817181F5
:104F0000828193810E944900DC01CB01F8019183E9
:104F10008083DE01AB5ABF4FFE01E75AFF4F80810D
:104F2000918111969C938E93FE01EB5AFF4F8081E5
:104F300091810197F1F7FE01EB5AFF4F9183808336
:104F4000FE01E357FF4F8081882359F4CE01895633
:104F50009F4F61E00E942912FE01E357FF4F8083BB
:104F600005C0FE01E257FF4F81E08083FE01EF5A4A
:104F7000FF4F80E090E0A0EFB1E480839183A283B3
:104F8000B3838E01035B1F4FFE01EF5AFF4F608119
:104F900071818281938120E030E04AEF54E40E94E5
:104FA0001F02DC01CB01F80180839183A283B383CC
:104FB000FE01E35BFF4F608171818281938120E07C
:104FC00030E040E85FE30E947903882344F4FE0167
:104FD000E55BFF4F81E090E09183808364C0FE0138
:104FE000E35BFF4F608171818281938120E03FEF1D
:104FF0004FE757E40E94190318160CF043C0FE0156
:10500000EF5AFF4F608171818281938120E030E00F
:1050100040E251E40E941F02DC01CB018E01055BDE
:105020001F4FBC01CD010E944900DC01CB01F801FA
:10503000918380831FC0FE01E75BFF4F88EC90E007
:1050400091838083FE01E75BFF4F8081918101970F
:10505000F1F7FE01E75BFF4F91838083DE01A55BE3
:10506000BF4FFE01E55BFF4F808191810197119653
:105070009C938E93FE01E55BFF4F808191810097A9
:10508000D1F627C08E01055B1F4FFE01E35BFF4F8A
:1050900060817181828193810E944900DC01CB0192
:1050A000F80191838083DE01A95BBF4FFE01E55BC0
:1050B000FF4F808191818D939C93FE01E95BFF4FAF
:1050C000808191810197F1F7FE01E95BFF4F9183A8
:1050D0008083FE01E556FF4F0190F081E02D828133
:1050E000FE01E356FF4F60810E947214FE01ED5BEA
:1050F000FF4F80E090E0A0EFB1E480839183A28332
:10510000B3838E01015C1F4FFE01ED5BFF4F608199
:1051100071818281938120E030E04AEF54E40E9463
:105120001F02DC01CB01F80180839183A283B3834A
:10513000FE01FF96608171818281938120E030E0E1
:1051400040E85FE30E94790388232CF481E090E03B
:105150009EAF8DAF46C0FE01FF9660817181828156
:10516000938120E03FEF4FE757E40E9419031816A0
:1051700064F5FE01ED5BFF4F608171818281938157
:1051800020E030E040E251E40E941F02DC01CB014C
:10519000BC01CD010E944900DC01CB019EAF8DAF67
:1051A0000FC088EC90E09CAF8BAF8BAD9CAD0197AE
:1051B000F1F79CAF8BAF8DAD9EAD01979EAF8DAFDC
:1051C0008DAD9EAD009769F716C0FE01FF96608118
:1051D0007181828193810E944900DC01CB019EAFE5
:1051E0008DAF8DAD9EAD9AAF89AF89AD9AAD019768
:1051F000F1F79AAF89AFFE01E357FF4F8081882313
:1052000059F4CE0189569F4F60E00E942912FE0199
:10521000E357FF4F808305C0FE01E257FF4F81E057
:10522000808380E090E0A0EFB1E48DAB9EABAFABAC
:10523000B8AF6DA97EA98FA998AD20E030E04AEF04
:1052400054E40E941F02DC01CB0189AB9AABABABEB
:10525000BCAB69A97AA98BA99CA920E030E040E801
:105260005FE30E94790388232CF481E090E098ABFF
:105270008FA73FC069A97AA98BA99CA920E03FEF1D
:105280004FE757E40E94190318164CF56DA97EA943
:105290008FA998AD20E030E040E251E40E941F0267
:1052A000DC01CB01BC01CD010E944900DC01CB0136
:1052B00098AB8FA70FC088EC90E09EA78DA78DA517
:1052C0009EA50197F1F79EA78DA78FA598A9019795
:1052D00098AB8FA78FA598A9009769F7BBC169A95B
:1052E0007AA98BA99CA90E944900DC01CB0198AB4B
:1052F0008FA78FA598A99CA78BA78BA59CA5019785
:10530000F1F79CA78BA7A6C1FE01E556FF4F0190C0
:10531000F081E02D8081813009F097C1FE01E357D3
:10532000FF4F8081882359F4CE0189569F4F61E059
:105330000E942912FE01E357FF4F808305C0FE0142
:10534000E257FF4F81E0808380E090E0A0E8BFE378
:105350008FA398A7A9A7BAA76FA178A589A59AA591
:1053600020E030E04AEF54E40E941F02DC01CB0150
:105370008BA39CA3ADA3BEA36BA17CA18DA19EA179
:1053800020E030E040E85FE30E94790388232CF4BA
:1053900081E090E09AA389A33FC06BA17CA18DA17D
:1053A0009EA120E03FEF4FE757E40E941903181633
:1053B0004CF56FA178A589A59AA520E030E040E2E0
:1053C00051E40E941F02DC01CB01BC01CD010E940F
:1053D0004900DC01CB019AA389A30FC088EC90E0BF
:1053E00098A38F8F8F8D98A10197F1F798A38F8F36
:1053F00089A19AA101979AA389A389A19AA100974B
:1054000069F714C06BA17CA18DA19EA10E944900E7
:10541000DC01CB019AA389A389A19AA19E8F8D8FCC
:105420008D8D9E8D0197F1F79E8F8D8FFE01E55634
:10543000FF4F0190F081E02D9281FE01E356FF4F76
:105440008081282F30E040E050E0892FBA01A90187
:105450000E94BE1480E090E0A0E8BFE3898F9A8F9D
:10546000AB8FBC8F698D7A8D8B8D9C8D20E030E069
:105470004AEF54E40E941F02DC01CB018D8B9E8B0E
:10548000AF8BB88F6D897E898F89988D20E030E051
:1054900040E85FE30E94790388232CF481E090E0E8
:1054A0009C8B8B8B3FC06D897E898F89988D20E086
:1054B0003FEF4FE757E40E94190318164CF5698D2A
:1054C0007A8D8B8D9C8D20E030E040E251E40E948B
:1054D0001F02DC01CB01BC01CD010E944900DC01AF
:1054E000CB019C8B8B8B0FC088EC90E09A8B898BC7
:1054F00089899A890197F1F79A8B898B8B899C8985
:1055000001979C8B8B8B8B899C89009769F714C0C2
:105510006D897E898F89988D0E944900DC01CB01BD
:105520009C8B8B8B8B899C89988B8F878F85988997
:105530000197F1F7988B8F87FE01E357FF4F80812A
:10554000882359F4CE0189569F4F60E00E942912AA
:10555000FE01E357FF4F808305C0FE01E257FF4F76
:1055600081E0808380E090E0A0E8BFE38B879C87A8
:10557000AD87BE876B857C858D859E8520E030E07C
:105580004AEF54E40E941F02DC01CB018F8398870D
:10559000A987BA876F81788589859A8520E030E070
:1055A00040E85FE30E94790388232CF481E090E0D7
:1055B0009E838D833FC06F81788589859A8520E0A1
:1055C0003FEF4FE757E40E94190318164CF56B851F
:1055D0007C858D859E8520E030E040E251E40E948C
:1055E0001F02DC01CB01BC01CD010E944900DC019E
:1055F000CB019E838D830FC088EC90E09C838B83CE
:105600008B819C810197F1F79C838B838D819E8197
:1056100001979E838D838D819E81009769F71AC0C3
:105620006F81788589859A850E944900DC01CB01CC
:105630009E838D838D819E819A83898389819A81BE
:105640000197F1F79A83898305C0FE01E257FF4F66
:1056500083E08083FE01E357FF4F8081882329F494
:10566000FE01E257FF4F10820BC0FE01E257FF4FD1
:1056700081E0808305C0FE01E257FF4F81E0808317
:10568000FE01E257FF4F8081C356DF4F0FB6F894FB
:10569000DEBF0FBECDBFCF91DF911F910F91089557
:1056A000DF93CF9300D000D000D0CDB7DEB79C837E
:1056B0008B837E836D8381E08A838B819C810097BD
:1056C00069F1EB81FC818081882351F1EB81FC81C0
:1056D0008081813001F5198212C08981282F30E044
:1056E0008D819E81FC01E20FF31F20818B819C81C3
:1056F000622F0E94E4238A8389818F5F8983898155
:10570000282F30E08D819E81FC01E20FF31F808104
:10571000882319F705C083E08A8302C082E08A8368
:105720008A8126960FB6F894DEBF0FBECDBFCF910B
:10573000DF910895DF93CF93CDB7DEB76B970FB6A8
:10574000F894DEBF0FBECDBF9F8B8E8B488F598FD5
:105750006A8F7B8F81E089838E899F89009701F111
:10576000EE89FF8980818823E9F0EE89FF898081B5
:10577000813099F4888D998D9E012E5F3F4FB9013C
:105780004AE050E00E947A2E8E899F899E012E5F0A
:105790003F4FB9010E94502B05C083E0898302C0AE
:1057A00082E0898389816B960FB6F894DEBF0FBEC5
:1057B000CDBFCF91DF910895DF93CF9300D000D07C
:1057C0000F92CDB7DEB79B838A836C834D8381E0D4
:1057D00089838A819B81009791F1EA81FB81808195
:1057E000882379F1EA81FB818081813029F58C81E0
:1057F000882371F48D81803158F48D818F70806899
:10580000282F8A819B81622F0E94781C898319C06E
:105810008C81813071F48D81803158F48D818F704D
:10582000806C282F8A819B81622F0E94781C89833B
:1058300008C084E0898305C083E0898302C082E0D8
:10584000898389810F900F900F900F900F90CF91C7
:10585000DF910895DF93CF9300D000D000D0CDB773
:10586000DEB79C838B836D834E8381E08A838B813B
:105870009C81009731F18E818C3119F08E818831B5
:10588000E9F4EB81FC8180818823E9F0EB81FC81E4
:105890008081813081F4198209C08B819C816E8165
:1058A0000E94781C8A8389818F5F898399818D8189
:1058B000981798F308C083E08A8305C084E08A8340
:1058C00002C082E08A838A8126960FB6F894DEBFF2
:1058D0000FBECDBFCF91DF910895DF93CF93CDB7AA
:1058E000DEB727970FB6F894DEBF0FBECDBF9C83FF
:1058F0008B837E836D834F8381E08A838B819C8140
:10590000009709F44FC08D819E81009709F44AC029
:105910008F81883008F043C0EB81FC81808188232F
:1059200009F442C0EB81FC8180818130A9F58F812F
:10593000882F90E0880F991F880F991F880F991F53
:105940008064282F8B819C81622F0E94781C8A831F
:105950008A818823D1F4198215C08981282F30E0EB
:105960008D819E81FC01E20FF31F20818B819C8140
:10597000622F0E94E4238A838A81882331F48981FB
:105980008F5F89838981883040F38B819C8160E8B7
:105990000E94781C8A8308C083E08A8305C084E063
:1059A0008A8302C082E08A838A8127960FB6F894A0
:1059B000DEBF0FBECDBFCF91DF910895DF93CF93B0
:1059C00000D00F92CDB7DEB79B838A8381E08983B5
:1059D0008A819B8161E00E94781C898389810F9074
:1059E0000F900F90CF91DF910895DF93CF93CDB7B4
:1059F000DEB72E970FB6F894DEBF0FBECDBF9E87E1
:105A00008D8781E08C8381E08B838D859E850097D7
:105A100009F488C01A823BC08A81282F30E08D8526
:105A20009E85820F931FFC01349640818A81282F26
:105A300030E08D859E85FC01E20FF31F80814D8350
:105A40008E8381E08F8381E08887CE0105960E9456
:105A500077118B838B818823B9F48A81882F90E01A
:105A6000880F991F880F991FFC01ED55FE4F8D81FE
:105A70009E81AF81B88580839183A283B3831C828A
:105A80008A818F5F8A8303C081E08C8303C08A810F
:105A9000843010F28B81882309F041C019823BC009
:105AA0008981282F30E08D859E85820F931FFC0110
:105AB0003C9640818981282F30E08D859E85820F1C
:105AC000931FFC013896808149878A871B8681E075
:105AD0008C87CE0109960E9477118B838B81882356
