:020000040800F2
:1000000000000120011400085114000851140008D8
:100010005114000851140008511400080000000099
:100020000000000000000000000000005114000863
:100030005114000800000000511400087913000852
:100040000000000051140008511400085114000869
:100050005114000851140008550A000851140008F2
:1000600051140008511400085114000851140008DC
:1000700051140008511400085114000851140008CC
:100080005114000851140008511400080000000029
:1000900000000000000000000000000051140008F3
:1000A000511400085114000851140008511400089C
:1000B000511400085114000851140008511400088C
:1000C000511400085114000851140008511400087C
:1000D00051140008511400085114000800000000D9
:1000E00051140008511400085114000800000000C9
:1000F0000000000000000000000000005114000893
:1001000000000000511400085114000851140008A8
:1001100000000000000000000000000000000000DF
:10012000350A000851140008511400085114000841
:100130005114000800000000000000000000000052
:100140000000000000000000000000005114000842
:1001500051140008511400085114000851140008EB
:1001600051140008511400080000000000000000B5
:10017000000000000000000000000000000000007F
:10018000000000000000000000000000000000006F
:0401900051140008FE
:1001940010B5054C237833B9044B13B10448AFF3BD
:1001A40000800123237010BD5800002000000000CF
:1001B4009C14000808B5034B1BB103490348AFF373
:1001C400008008BD000000005C0000209C140008B2
:1001D40080B500AF00F086FF0021002000F0AAFFE8
:1001E4000C21032000F0A6FF02220521002000F0CC
:1001F40045FC02220621002000F040FC02220721D7
:10020400002000F03BFC05220521002000F0F2FE56
:1002140005220621002000F0EDFE05220721002022
:1002240000F0E8FE074800F0B3F9064800F01EFBB2
:100234000021044800F09FFA00F05CF800F05CF93B
:1002440000BF80BD0000002080B500AF0249034814
:1002540001F05EF8FAE700BF6502000840420F00B3
:1002640080B500AF1E4B1B780133DAB21C4B1A70F9
:100274001B4B1B783C2B2DD11A4B1B780133DAB264
:10028400184B1A70164B00221A70164B1B783C2B15
:1002940008D1154B1B780133DAB2134B1A70114B8A
:1002A40000221A70104B1B780C2B13D10E4B00221A
:1002B4001A700E4B1B78002B03D10C4B01221A70C1
:1002C40008E00B4B1B780133DAB2094B1A70074B69
:1002D40000221A7000F00EF800F00EF900BF80BD85
:1002E40076000020750000207400002078000020B3
:1002F4007700002080B584B004AF774B1B78774A31
:10030400A2FB0323DB08DBB23033DBB2002203920F
:100314004FF48062029272496A4603C982E803007C
:1003240014220A216F4800F0D2FA6B4B1A786B4BF7
:10033400A3FB0213D9080B469B000B445B00D31AA2
:10034400DBB23033DBB2002203924FF480620292BC
:1003540063496A4603C982E80300142219216148EB
:1003640000F0B5FA002303934FF4806302935C4AD0
:100374006B4692E8030083E803003A231422282101
:10038400584800F0A4FA584B1B78544AA2FB0323A4
:10039400DB08DBB23033DBB2002203924FF480621D
:1003A40002924F496A4603C982E8030014223221AB
:1003B4004C4800F08CFA4C4B1A78484BA3FB0213C0
:1003C400D9080B469B000B445B00D31ADBB23033D5
:1003D400DBB2002203924FF48062029240496A46E3
:1003E40003C982E80300142241213E4800F06FFA59
:1003F400002303934FF480630293394A6B4692E8D7
:10040400030083E803003A2314225021354800F006
:100414005EFA364B1B78314AA2FB0323DB08DBB2BE
:100424003033DBB2002203924FF4806202922C49F3
:100434006A4603C982E8030014225A21294800F0BD
:1004440046FA2A4B1A78254BA3FB0213D9080B460C
:100454009B000B445B00D31ADBB23033DBB20022C7
:1004640003924FF4806202921D496A4603C982E8EE
:100474000300142269211B4800F029FA1C4B1B7845
:100484001A461C4B13F81230002203924FF4806278
:10049400029213496A4603C982E8030032223221D8
:1004A400104800F014FA124B1B78124A5B001344F4
:1004B4005B78002203924FF48062029208496A46F4
:1004C40003C982E8030032223C21064800F0FFF908
:1004D40000BFBD4680BD00BF74000020CDCCCCCC95
:1004E400500000200000002075000020760000204D
:1004F400780000200400002090B587B004AF204BA2
:100504001B78072B02D11E4B00221A701E23FB718D
:1005140000233B6021E01A4B1B781946194A0B460D
:100524009B000B445B001A443B6813441B78FC7922
:10053400002203924FF48062029213496A4603C96F
:1005440082E8030050222146104800F0C0F9FB79EC
:100554000B33FB713B6801333B60094B1B78194635
:10056400084A0B469B000B445B001A443B68134447
:100574001B78002BCFD100BF00BF0C37BD4690BD08
:100584007700002008000020500000200000002018
:1005940080B586B000AF78600123FB757B68002BC3
:1005A40053D02D4A07F10C0307CA03C31A7007F18D
:1005B4000C03184600F020FE7B6898787B68DB7893
:1005C4000122194600F05AFA7B6898787B68DB7838
:1005D4000022194600F0EAFA7B6898787B68DB7899
:1005E4000222194600F070FB7B6818787B685B7800
:1005F4000122194600F042FA7B6818787B685B7820
:100604000022194600F0D2FA7B6818787B685B7880
:100614000222194600F058FB786800F061F81121B5
:10062400786800F01BF8012000F03EFE3A2178685B
:1006340000F014F80521786800F031F82921786871
:1006440000F00CF80023FB7501E00223FB75FB7D31
:1006540018461837BD4680BDB414000880B584B070
:1006640000AF78600B46FB700123FB737B68002BA3
:100674000ED07B6898787B68DB780022194600F0FE
:10068400B7FBFB78184600F0F1FD0023FB7301E093
:100694000223FB73FB7B18461037BD4680BD80B533
:1006A40084B000AF78600B46FB700123FB737B685A
:1006B400002B0ED07B6898787B68DB780122194682
:1006C40000F096FBFB78184600F0D0FD0023FB7386
:1006D40001E00223FB73FB7B18461037BD4680BD47
:1006E40080B584B000AF78600123FB737B68002B76
:1006F4003AD07B6818787B685B780122194600F051
:1007040077FB642000F0D0FD7B6818787B685B7809
:100714000022194600F06CFB012000F0C5FD7B6847
:1007240018787B685B780122194600F061FB64202D
:1007340000F0BAFD7B6818787B685B780022194664
:1007440000F056FB642000F0AFFD7B6818787B68EE
:100754005B780122194600F04BFB4FF4966000F0E1
:10076400A3FD0023FB7301E00223FB73FB7B18460C
:100774001037BD4680BD80B584B000AF78600B46AD
:100784007B800123FB737B68002B1AD00023BB8181
:1007940012E07B88FB727B881B0A9BB2BB72BB7A1C
:1007A40019467868FFF77BFFFB7A19467868FFF7EC
:1007B40076FFBB890133BB81BB89B3F5A04FE8D376
:1007C40001E00223FB73FB7B18461037BD4680BD56
:1007D40080B584B000AF7860084611461A460346D7
:1007E400FB700B46BB7013467B700123FB737B6865
:1007F400002B34D02A217868FFF730FFFB781946A4
:100804007868FFF74CFFFB7819467868FFF747FFD5
:10081400FB7819467868FFF742FFBB781946786879
:10082400FFF73DFF2B217868FFF718FF7B78194607
:100834007868FFF734FF7B7819467868FFF72FFF55
:100844007B7819467868FFF72AFF3B7E194678685B
:10085400FFF725FF2C217868FFF700FF01E0022352
:10086400FB73FB7B18461037BD4680BD80B586B050
:1008740002AF78600123FB737B68002B20D09F2399
:10088400009300237F2200217868FFF7A1FF002353
:10089400BB8110E0FF23FB72FF23BB72BB7A1946B6
:1008A4007868FFF7FCFEFB7A19467868FFF7F7FED5
:1008B400BB890133BB81BB89B3F5A04FEAD301E007
:1008C4000223FB73FB7B18461037BD4680BD80B501
:1008D40084B000AF7860084611461A460346FB70A0
:1008E4000B46BB7013467B700123FB737B68002BA4
:1008F40000F082802A217868FFF7B0FE0021786832
:10090400FFF7CDFEFB7819467868FFF7C8FE002193
:100914007868FFF7C4FE3A7EFB781344DBB2013BF0
:10092400DBB219467868FFF7BAFE2B217868FFF727
:1009340095FE00217868FFF7B2FEBB781946786807
:10094400FFF7ADFE00217868FFF7A9FE7A7EBB7839
:100954001344DBB2013BDBB219467868FFF79FFE14
:100964002C217868FFF77AFE0023BB733DE0FA6917
:100974007B78203B797E03FB01F1BB7B0B445B005E
:1009840013441B88BB6000237B7327E07B7BBA681E
:1009940002FA03F303F40043002B0ED03B8C1B0A32
:1009A4009BB2DBB219467868FFF779FE3B8CDBB269
:1009B40019467868FFF773FE0DE0BB8C1B0A9BB2E7
:1009C400DBB219467868FFF76AFEBB8CDBB21946C6
:1009D4007868FFF764FE7B7B01337B733B7E7A7B15
:1009E4009A42D3D3BB7B0133BB737B7EBA7B9A42DF
:1009F400BDD30023FB7301E00223FB73FB7B18468A
:100A04001037BD4680BD000080B483B000AF0346FC
:100A1400FB71064B9B68054A43F03D03936000BF9E
:100A240018460C37BD465DF8047B704700640240ED
:100A340080B500AF054B1B68002B02D0034B1B682D
:100A440098470020FFF7E0FF00BF80BD7C00002036
:100A540080B500AF074B1B68002B08D0054B1B6803
:100A64009847054B5B69044A43F00103536100BF97
:100A740080BD00BF80000020003C014080B485B0F0
:100A840000AF0346FB710B46BB7113467B71012318
:100A9400FB73FB79052B73D8BB790F2B70D87B794B
:100AA400002B6DD07B79032B6AD8FB79052B63D897
:100AB40001A252F823F000BFD50A0008F10A000889
:100AC4000D0B0008290B0008450B0008610B0008FA
:100AD400304B1B687979BA79520001FA02F2114657
:100AE4002C4A0B4313600023FB7348E02A4B1B681A
:100AF4007979BA79520001FA02F21146264A0B4377
:100B040013600023FB733AE0244B1B687979BA79AC
:100B1400520001FA02F21146204A0B4313600023EB
:100B2400FB732CE01E4B1B687979BA79520001FAE9
:100B340002F211461A4A0B4313600023FB731EE0B2
:100B4400184B1B687979BA79520001FA02F21146FE
:100B5400144A0B4313600023FB7310E0124B1B6811
:100B64007979BA79520001FA02F211460E4A0B431E
:100B740013600023FB7302E00223FB7300BF01E058
:100B84000223FB73FB7B18461437BD465DF8047BD8
:100B9400704700BF00000240000402400008024009
:100BA400000C024000100240001C024080B485B0DA
:100BB40000AF0346FB710B46BB7113467B710123E7
:100BC400FB73FB79052B69D8BB790F2B66D87B792E
:100BD400012B63D8FB79052B5CD801A252F823F0D2
:100BE400FD0B0008170C0008310C00084B0C000822
:100BF400650C00087F0C00082D4B5B687979BA7985
:100C040001FA02F211462A4A0B4353600023FB7394
:100C140043E0284B5B687979BA7901FA02F211460C
:100C2400244A0B4353600023FB7336E0224B5B687A
:100C34007979BA7901FA02F211461F4A0B435360DB
:100C44000023FB7329E01D4B5B687979BA7901FABB
:100C540002F21146194A0B4353600023FB731CE054
:100C6400174B5B687979BA7901FA02F21146144A92
:100C74000B4353600023FB730FE0124B5B687979DD
:100C8400BA7901FA02F211460E4A0B43536000236B
:100C9400FB7302E00223FB7300BF01E00223FB733A
:100CA400FB7B18461437BD465DF8047B704700BFD4
:100CB400000002400004024000080240000C024010
:100CC40000100240001C024080B485B000AF03460F
:100CD400FB710B46BB7113467B710123FB73FB79DC
:100CE400052B6FD8BB790F2B6CD87B79032B69D874
:100CF400FB79052B62D801A252F823F0190D0008E4
:100D0400350D0008510D00086D0D0008890D00080F
:100D1400A50D0008304B9B687979BA79520001FA25
:100D240002F211462C4A0B4393600023FB7348E004
:100D34002A4B9B687979BA79520001FA02F211467A
:100D4400264A0B4393600023FB733AE0244B9B68D1
:100D54007979BA79520001FA02F21146204A0B431A
:100D640093600023FB732CE01E4B9B687979BA795E
:100D7400520001FA02F211461A4A0B43936000230F
:100D8400FB731EE0184B9B687979BA79520001FA1B
:100D940002F21146144A0B4393600023FB7310E0E4
:100DA400124B9B687979BA79520001FA02F2114622
:100DB4000E4A0B4393600023FB7302E00223FB7390
:100DC40000BF01E00223FB73FB7B18461437BD46CA
:100DD4005DF8047B704700BF00000240000402403D
:100DE40000080240000C024000100240001C0240B7
:100DF40080B485B000AF0346FB710B46BB7113464C
:100E04007B710123FB73FB79052B00F2DE80BB7938
:100E14000F2B00F2DA807B79012B00F2D6807B79EC
:100E2400012B62D1FB79052B5CD801A252F823F087
:100E34004D0E0008670E0008810E00089B0E000886
:100E4400B50E0008CF0E0008644B5B69BA79012126
:100E540001FA02F21146614A0B4353610023FB730A
:100E6400B2E05F4B5B69BA79012101FA02F21146E3
:100E74005B4A0B4353610023FB73A5E0594B5B6949
:100E8400BA79012101FA02F21146564A0B43536121
:100E94000023FB7398E0544B5B69BA79012101FA92
:100EA40002F21146504A0B4353610023FB738BE05B
:100EB4004E4B5B69BA79012101FA02F211464B4AA1
:100EC4000B4353610023FB737EE0494B5B69BA79A2
:100ED400012101FA02F21146454A0B4353610023F2
:100EE400FB7371E00223FB736EE07B79002B68D106
:100EF400FB79052B62D801A252F823F0190F0008E0
:100F0400350F0008510F00086D0F0008890F000805
:100F1400A50F0008314B5B69BA79012101FA02F28D
:100F2400D24311462D4A0B4053610023FB734BE01F
:100F34002B4B5B69BA79012101FA02F2D2431146C3
:100F4400274A0B4053610023FB733DE0254B5B694B
:100F5400BA79012101FA02F2D2431146214A0B4027
:100F640053610023FB732FE01F4B5B69BA790121A6
:100F740001FA02F2D24311461B4A0B40536100238B
:100F8400FB7321E0194B5B69BA79012101FA02F282
:100F9400D2431146154A0B4053610023FB7313E0FF
:100FA400134B5B69BA79012101FA02F2D24311466B
:100FB4000F4A0B4053610023FB7305E00223FB73CC
:100FC40002E00223FB7302E001E00223FB73FB7BDC
:100FD40018461437BD465DF8047B70470000024094
:100FE4000004024000080240000C024000100240CD
:100FF400001C024080B483B000AF0346FB710B4673
:10100400BB7113467B71BB79072B2DD8FB79022B5F
:101014001ED0022B59DC002B02D0012B0CD054E043
:101024002D4B1B6A7979BA79920001FA02F21146C2
:10103400294A0B43136248E0284B1B6A7979BA7931
:10104400920001FA02F21146244A0B4313623CE077
:10105400234B1B6A7979BA79920001FA02F211469C
:101064001F4A0B43136230E0BB790F2B2DD8FB7959
:10107400022B1ED0022B28DC002B02D0012B0CD01B
:1010840023E0154B5B6A7979BA79920001FA02F28E
:101094001146114A0B43536217E0104B5B6A79798E
:1010A400BA79920001FA02F211460C4A0B435362D8
:1010B4000BE00B4B5B6A7979BA79920001FA02F280
:1010C4001146074A0B43536200BF00BF18460C3752
:1010D400BD465DF8047B70470000024000040240F6
:1010E4000008024080B483B000AF0123FB71104BB1
:1010F4009B680F4A23F0030393600D4B1B680C4A53
:1011040043F0010313600023FB71094B9B6823F434
:101114007C4323F0F003064A43F4104343F0800376
:101124009360FB7918460C37BD465DF8047B704725
:101134000038024080B485B000AF03460A46FB7114
:101144001346BB710123FB73FB79042B48D8BB798D
:101154001F2B45D8FB79032B3ED801A252F823F06C
:10116400751100088F110008A9110008C3110008A7
:10117400204B1B6BBA79012101FA02F211461D4A78
:101184000B4313630023FB7329E01A4B5B6BBA799F
:10119400012101FA02F21146164A0B43536300235C
:1011A400FB731CE0134B1B6CBA79012101FA02F2A8
:1011B4001146104A0B4313640023FB730FE00D4BDD
:1011C4005B6CBA79012101FA02F21146094A0B4318
:1011D40053640023FB7302E00323FB7302E001E08A
:1011E4000323FB73FB7B18461437BD465DF8047B71
:1011F400704700BF0038024080B485B000AF78600B
:101204000123FB737B68002B24D0174B1B687B687E
:101214005B785B001A467B681B7813437A68927884
:10122400920013437A685279D20113437A6892790F
:10123400120213437A68D279520213437A68127AFB
:10124400D20213437A68127992011146064A0B437B
:10125400136001E00223FB73FB7B18461437BD4681
:101264005DF8047B704700BF0030014080B485B056
:1012740000AF0346FB710123FB730A4AFB79D36079
:1012840000BF084B9B68DB0903F00103012BF8D076
:101294000023FB73FB7B18461437BD465DF8047BC3
:1012A400704700BF0030014080B485B000AF786063
:1012B4000123FB73154A7B685360144B1B68134A64
:1012C40043F001031360114B1B68104A23F004031D
:1012D400136000BF0D4B1B6803F48033002BF9D05F
:1012E4000A4B1B68094A23F001031360074B0022D1
:1012F4005A60064B00229A600023FB73FB7B18465E
:101304001437BD465DF8047B704700BF10E000E071
:1013140080B485B000AF786039600123FB733B680B
:10132400002B17D0104A7B685360104A3B68136047
:101334000F4B01221A700C4B1B680B4A43F001033C
:101344001360094B1B68084A43F00203136000232F
:10135400FB7301E00223FB73FB7B18461437BD4685
:101364005DF8047B704700BF10E000E0D800002067
:10137400DC00002080B582B000AF194B1B68002B45
:101384002AD00023FB71174B1B78002B16D1164B68
:101394001B681B0CDBB203F00103FB71104B1B68D1
:1013A4009847114B1B68104A23F0010313600E4B3E
:1013B40000225A600C4B00229A600DE0094B1B7806
:1013C400012B09D1084B1B681B0CDBB203F0010392
:1013D400FB71034B1B68984700BF0837BD4680BDAF
:1013E400D8000020DC00002010E000E080B500AF51
:1013F400FEF7EEFEFEF728FF00BF80BD0D488546D0
:10140400AFF300800C480D490D4A002302E0D45884
:10141400C4500433C4188C42F9D30A4A0A4C00233A
:1014240001E013600432A242FBD300F011F8FFF78D
:10143400DDFFFEE70000012000000020580000202E
:101444002422000858000020E0000020FEE70000ED
:1014540070B50D4D0D4C641BA4100026A64209D195
:101464000B4D0C4C00F018F8641BA4100026A64287
:1014740005D170BD55F8043B98470136EEE755F8A1
:10148400043B98470136F2E71C2200081C2200089E
:101494001C22000820220008F8B500BFF8BC08BCD4
:1014A4009E467047F8B500BFF8BC08BC9E4670471E
:1014B4000101010001000101000000000000000022
:1014C4000000000000000000000000000000000018
:1014D4000000000000000000000000000000000008
:1014E4000000000C000C000C000C000C000C000CA4
:1014F400000C000C000C000C0000000C000C0000A0
:10150400000000000000001B001B001B001B001B50
:1015140000000000000000000000000000000000C7
:1015240000000000000000000000801980198019EC
:101534008019C07FC07F80190033C07FC07F003313
:101544000033003300330000000000000000001EE0
:10155400003F807580650074003C001E0007800514
:10156400806580658075003F001E00040004000053
:101574000000007000D840D8C0D880D9007300069D
:10158400000C801BC036C066C046C0068003000045
:10159400000000000000001E003F00330033003351
:1015A400001E000CC03CC066806380618063C03E46
:1015B400801C0000000000000000000C000C000C67
:1015C400000C000C000000000000000000000000FF
:1015D4000000000000000000000000008000000186
:1015E4000003000600060004000C000C000C000CB4
:1015F400000C000C0004000600060003000180003B
:10160400002000100018000C000C00040006000666
:1016140000060006000600060004000C000C00187A
:10162400001000200000000C002D003F001E0033BD
:1016340000000000000000000000000000000000A6
:101644000000000000000000000000000000000C8A
:10165400000C000C000CC0FFC0FF000C000C000CC0
:10166400000C00000000000000000000000000006A
:101674000000000000000000000000000000000066
:10168400000000000000000C000C0004000400082E
:101694000000000000000000000000000000000046
:1016A4000000001E001E00000000000000000000FA
:1016B4000000000000000000000000000000000026
:1016C4000000000000000000000000000000000C0A
:1016D400000C0000000000000000000300030003F1
:1016E4000006000600060006000C000C000C000CAE
:1016F4000018001800180000000000000000001E80
:10170400003F0033806180618061806D806D806105
:10171400806180610033003F001E00000000000073
:1017240000000006000E001E00360026000600061B
:10173400000600060006000600060006000600007B
:10174400000000000000001E003F80738061806183
:10175400800100030006000C001800300060807F48
:10176400807F0000000000000000001C003E0063B9
:1017740000630003000E000E0003800180018061FD
:101784008073003F001E00000000000000000006FF
:10179400000E000E001E001E001600360036006605
:1017A400807F807F00060006000600000000000025
:1017B4000000007F007F006000600060006E007F1A
:1017C40080638001800180618073003F001E0000FF
:1017D400000000000000001E003F803380610060B4
:1017E400006E007F80738061806180618033003F80
:1017F400001E0000000000000000807F807F800148
:101804000003000300060006000C000C000C000896
:101814000018001800180000000000000000001E5E
:10182400003F8063806180610021001E003F806171
:10183400806180618061003F001E000000000000A4
:101844000000001E003F007380618061806180732E
:10185400803F801D800180610073003F001E0000F6
:101864000000000000000000000000000000000C68
:10187400000C000000000000000000000000000C4C
:10188400000C000000000000000000000000000048
:1018940000000000000C000C00000000000000002C
:1018A4000000000C000C000400040008000000000C
:1018B4000000000080008003000E00380060003843
:1018C400000E800380000000000000000000000003
:1018D40000000000000000000000807F807F000006
:1018E4000000807F807F00000000000000000000F6
:1018F4000000000000000000000000000040007034
:10190400001C000780010007001C0070004000005C
:1019140000000000000000000000001F803FC071B4
:10192400C060C000C00180030007000E000C000C62
:101934000000000C000C0000000000000000001E6D
:10194400003F803180718063806F806D806D806F17
:10195400806700600032003E001C000000000000B0
:101964000000000E000E001B001B001B001B80313A
:101974008031803F803F8031C060C060C060000023
:10198400000000000000007C007E00630063006330
:101994000063007E007E0063806180618063007F5D
:1019A400007E0000000000000000001E003F8031A7
:1019B4008061006000600060006000600060806121
:1019C4008031003F001E0000000000000000007C89
:1019D400007F0063806380618061806180618061D9
:1019E400806100630063007E007C00000000000052
:1019F4000000807F807F0060006000600060007FE6
:101A0400007F0060006000600060807F807F0000D5
:101A1400000000000000807F807F006000600060A4
:101A24000060007F007F0060006000600060006074
:101A340000600000000000000000001E003F803134
:101A44008061006000600060806380638061806109
:101A54008031803F001E0000000000000000806113
:101A640080618061806180618061807F807F80612E
:101A740080618061806180618061000000000000FD
:101A84000000003F003F000C000C000C000C000C98
:101A9400000C000C000C000C000C003F003F000088
:101AA40000000000000080018001800180018001AD
:101AB4008001800180018001806180618073003F2A
:101AC400001E0000000000000000C0608061006390
:101AD40000660066006C0078007C006600660063A7
:101AE40080618061C06000000000000000000060B0
:101AF40000600060006000600060006000600060E2
:101B0400006000600060807F807F000000000000B3
:101B14000000C071C071C07BC07AC06AC06AC06E68
:101B2400C064C060C060C060C060C060C0600000CD
:101B340000000000000080718071807980798079D4
:101B4400806D806D806D806580678067806780634D
:101B540080630000000000000000001E003F00330E
:101B64008061806180618061806180618061806169
:101B74000033003F001E0000000000000000007E53
:101B8400007F80638061806180618063007F007E6C
:101B94000060006000600060006000000000000061
:101BA4000000001E003F003380618061806180611D
:101BB40080618061806580670033803F401E000043
:101BC400000000000000007E007F8063806180616F
:101BD4008063007F007E0066006300638061806133
:101BE400C0600000000000000000000E001F8031F3
:101BF400803100300038001E00078003806180615E
:101C04008031003F001E0000000000000000C0FF03
:101C1400C0FF000C000C000C000C000C000C000CAD
:101C2400000C000C000C000C000C00000000000074
:101C34000000806180618061806180618061806179
:101C440080618061806180618073003F001E0000BC
:101C5400000000000000C060C060C06080318031BE
:101C64008031001B001B001B001B000E000E000E29
:101C740000040000000000000000C0C0C0C0C0C0DC
:101C8400C0C0C0C0C0CC804C804C805E80528052AA
:101C94008073806180610000000000000000C0C00B
:101CA400806080610033003B001E000C000C001EAD
:101CB400001F003B80718061C0C000000000000074
:101CC4000000C0C08061806100330033001E001E2C
:101CD400000C000C000C000C000C000C000C0000AC
:101CE400000000000000803F803F800100030003EB
:101CF4000006000C000C0018001800300060807F03
:101D0400807F000000000000000F000F000C000C9A
:101D1400000C000C000C000C000C000C000C000C5F
:101D2400000C000C000C000C000F000F0000001849
:101D340000180018000C000C000C000C0006000633
:101D4400000600060003000300030000000000007A
:101D5400001E001E0006000600060006000600061F
:101D6400000600060006000600060006000600063F
:101D7400001E001E0000000C000C001E00120033A8
:101D8400003380618061000000000000000000005A
:101D9400000000000000000000000000000000003F
:101DA400000000000000000000000000000000002F
:101DB4000000000000000000E0FF00000000003808
:101DC4000018000C000000000000000000000000EB
:101DD40000000000000000000000000000000000FF
:101DE40000000000000000000000001F803F806130
:101DF4008001801F803F80618063807FC038000045
:101E04000000000000000060006000600060006EE0
:101E1400007F807380618061806180618073007F56
:101E2400006E000000000000000000000000000040
:101E34000000001E003F80738061006000608061CC
:101E44008073003F001E00000000000000008001BD
:101E5400800180018001801D803F807380618061EA
:101E6400806180618073803F801D0000000000005D
:101E740000000000000000000000001E003F00738E
:101E84008061807F807F00608071003F001E0000C1
:101E9400000000000000C007C00F000C000C807F91
:101EA400807F000C000C000C000C000C000C000CDB
:101EB400000C000000000000000000000000000012
:101EC400801D803F80738061806180618061807348
:101ED400803F801D80018063007F003E0000006021
:101EE400006000600060006F807F807180618061AD
:101EF4008061806180618061806100000000000079
:101F040000000006000600000000003E003E00063F
:101F14000006000600060006000600060006000093
:101F2400000000000006000600000000003E003E25
:101F3400000600060006000600060006000600066D
:101F440000060046007E003C000000600060006067
:101F54000060806100630066006C007C00760063B2
:101F640000638061C0600000000000000000003ECB
:101F7400003E0006000600060006000600060006F5
:101F8400000600060006000600060000000000002F
:101F94000000000000000000000080DDC0FFC0CE93
:101FA400C0CCC0CCC0CCC0CCC0CCC0CCC0CC000059
:101FB4000000000000000000000000000000006FAE
:101FC400807F8071806180618061806180618061D7
:101FD400806100000000000000000000000000001C
:101FE4000000001E003F8073806180618061806119
:101FF4008073003F001E000000000000000000008D
:1020040000000000006E007F807380618061806149
:1020140080618073007F006E00600060006000607B
:102024000000000000000000801D803F807380617C
:102034008061806180618073803F801D80018001A8
:102044008001800100000000000000000000006723
:10205400803F003900300030003000300030003064
:10206400003000000000000000000000000000003C
:102074000000001E803F80610060007F803F80017F
:102084008061007F001E00000000000000000000CE
:10209400000800180018007F007F001800180018BE
:1020A400001800180018801F800F000000000000B6
:1020B4000000000000000000000080618061806179
:1020C40080618061806180618063807F803D0000E9
:1020D4000000000000000000000000000000C060DC
:1020E400803180318031001B001B001B000E000E6C
:1020F40000060000000000000000000000000000D6
:10210400000080DD80DD80DD00550055005500773E
:102114000077002200220000000000000000000000
:10212400000000000000806100330033001E000C3A
:10213400000C001E0033003380610000000000002A
:1021440000000000000000008061806180310033E5
:102154000033001B001B001B000E000E000E001CB1
:10216400007C007000000000000000000000C07F40
:10217400C07F800100030006000C00180030C07FFF
:10218400C07F0000000000008003800700060006F6
:10219400000600060006000E001C001C000E0006CF
:1021A40000060006000600068007800300060006FD
:1021B40000060006000600060006000600060006EB
:1021C40000060006000600060006000600060006DB
:1021D4000038003C000C000C000C000C000C000E3D
:1021E40000070007000E000C000C000C000C000C93
:1021F400003C003800000000000000000000000067
:1022040000008038807F00470000000000000000CC
:082214000000000000000000C2
:04221C00B9010008FC
:04222000950100081C
:1022240000000001414D504D6672696461790000FF
:1022340000007361747572646179000073756E6473
:102244006179000000006D6F6E6461790000000028
:10225400747565736461790000007765646E6573F5
:1022640064617900746875727364617900000000B8
:082274000B120000C014000869
:0400000508001401DA
:00000001FF
