:100000000C942A000C9447000C9447000C94470071
:100010000C9447000C9447000C9447000C94470044
:100020000C9447000C9447000C9447000C94470034
:100030000C9447000C9447000C9447000C94470024
:100040000C9447000C9447000C9447000C94470014
:100050000C94470011241FBECFE5D8E0DEBFCDBF12
:1000600010E0A0E6B0E0E6EBFBE402C005900D92E4
:10007000A83CB107D9F711E0A8ECB0E001C01D928F
:10008000A03CB107E1F70E94E4240C94D9250C941C
:100090000000EF92FF920F931F937B018C0120E0F1
:1000A00030E040E05FE40E94490388238CF0C801FF
:1000B000B70120E030E040E05FE40E94C1010E940F
:1000C000A9039B01AC01205030404040504806C07D
:1000D000C801B7010E94A9039B01AC01B901CA0183
:1000E0001F910F91FF90EF900895A0E0B0E0EBE733
:1000F000F0E00C943025DC012B01FA019C91923048
:1001000008F439C1EB018881823008F433C194309E
:1001100069F4843009F02FC111969C91119789815F
:10012000981709F428C1A8E7B0E025C1843009F484
:1001300021C18230A9F4923009F01DC19A01AD01AC
:1001400088E0EA010990AE01E90109929E0181501F
:10015000C1F7E201898111969C918923818308C1AD
:10016000923009F407C112962D903C901397EB0141
:100170008A819B811496AD90BD90CD90DC901797AD
:10018000EC80FD800E811F819101281B390BB90184
:1001900037FF04C066277727621B730B6032710537
:1001A0000CF061C0121613066CF537014801062EDB
:1001B00004C096948794779467940A94D2F721E0C8
:1001C00030E040E050E004C0220F331F441F551FB1
:1001D0006A95D2F721503040404050402E213F21B7
:1001E00040235123211531054105510521F021E01E
:1001F00030E040E050E079018A01E628F72808293C
:1002000019293CC0232BD1F1260E371E350146019A
:10021000062E04C096948794779467940A94D2F734
:1002200021E030E040E050E004C0220F331F441FC3
:10023000551F6A95D2F721503040404050402A2146
:100240003B214C215D21211531054105510521F04E
:1002500021E030E040E050E059016A01A628B728CB
:10026000C828D9280BC0821593052CF01C01AA249C
:10027000BB24650103C0EE24FF24870111969C91E5
:10028000D20111968C91981709F445C0992339F041
:10029000A80197012A193B094C095D0906C0A6016E
:1002A00095012E193F09400B510B57FD08C01182D3
:1002B0003382228224833583468357831DC081E0A5
:1002C00081833382228288279927DC01821B930B4A
:1002D000A40BB50B84839583A683B7830DC0220F2F
:1002E000331F441F551F24833583468357838281E0
:1002F000938101979383828324813581468157813D
:10030000DA01C9010197A109B1098F5F9F4FAF4F72
:10031000BF4328F30BC0918333822282EA0CFB1C7B
:100320000C1D1D1DE482F5820683178383E0808304
:10033000248135814681578157FF1AC0C901AA27F8
:1003400097FDA095BA2F81709070A070B0705695EF
:10035000479537952795822B932BA42BB52B848318
:100360009583A683B7838281938101969383828349
:10037000DF0101C0D201CD01CDB7DEB7E2E10C94BF
:100380004C25A0E2B0E0E7ECF1E00C943C25698359
:100390007A838B839C832D833E834F835887E9E048
:1003A000EE2EF12CEC0EFD1ECE010196B7010E943F
:1003B000D2048E010F5E1F4FCE010596B8010E9438
:1003C000D2048A8991E089278A8BC701B801AE01DE
:1003D000475E5F4F0E9475000E94FD03A096E6E015
:1003E0000C945825A0E2B0E0E8EFF1E00C943C2535
:1003F00069837A838B839C832D833E834F835887C5
:10040000F9E0EF2EF12CEC0EFD1ECE010196B701A6
:100410000E94D2048E010F5E1F4FCE010596B801D7
:100420000E94D204C701B801AE01475E5F4F0E942F
:1004300075000E94FD03A096E6E00C945825A0E20A
:10044000B0E0E5E2F2E00C94302569837A838B8397
:100450009C832D833E834F835887CE010196BE0136
:10046000675F7F4F0E94D204CE010596BE016F5E8A
:100470007F4F0E94D2049985923088F0898982301A
:10048000C8F0943019F4823051F404C0843029F457
:10049000923081F488E790E0C6C0923049F420E0C1
:1004A0009A858A89981321E02A87CE010996BBC0D4
:1004B000823049F420E09A858A89981321E02A8BBA
:1004C000CE014196B0C02D843E844F8458886D88FB
:1004D0007E888F88988CEE24FF248701AA24BB2471
:1004E000650140E050E060E070E0E0E0F0E0C10174
:1004F00081709070892BE9F0E60CF71C081D191D1E
:100500009A01AB012A0D3B1D4C1D5D1D80E090E062
:10051000A0E0B0E0E614F7040805190520F481E036
:1005200090E0A0E0B0E0BA01A901480F591F6A1F8E
:100530007B1FAA0CBB1CCC1CDD1C97FE08C081E0F5
:1005400090E0A0E0B0E0A82AB92ACA2ADB2A3196B6
:10055000E032F10549F0660C771C881C991C569412
:10056000479437942794C3CFFA85EA892B893C892D
:100570008B859C85280F391F2E5F3F4F17C0CA01FE
:1005800081709070892B61F016950795F794E79428
:1005900080E090E0A0E0B0E8E82AF92A0A2B1B2BC3
:1005A00076956795579547952F5F3F4F77FDE7CF36
:1005B0000CC0440F551F661F771F17FD4160EE0CDE
:1005C000FF1C001F111F21503040403090E05907A0
:1005D00090E0690790E4790760F32B8F3C8FDB0193
:1005E000CA018F779070A070B07080349105A1051A
:1005F000B10561F447FD0AC0E114F10401051105DC
:1006000029F0405C5F4F6F4F7F4F40781A8EFE1786
:1006100011F081E08A8F4D8F5E8F6F8F78A383E01A
:10062000898FCE0149960E94FD03A096E2E10C94C9
:100630004C25A8E1B0E0EFE1F3E00C943C256983A0
:100640007A838B839C832D833E834F83588789E0F5
:10065000E82EF12CEC0EFD1ECE010196B7010E9492
:10066000D2048E010F5E1F4FCE010596B8010E9485
:10067000D2048985823040F08989823028F0C70110
:10068000B8010E944A0501C08FEF6896E6E00C941D
:100690005825A8E1B0E0EFE4F3E00C943C25698331
:1006A0007A838B839C832D833E834F83588789E095
:1006B000E82EF12CEC0EFD1ECE010196B7010E9432
:1006C000D2048E010F5E1F4FCE010596B8010E9425
:1006D000D2048985823040F08989823028F0C701B0
:1006E000B8010E944A0501C08FEF6896E6E00C94BD
:1006F0005825A8E1B0E0EFE7F3E00C943C256983CE
:100700007A838B839C832D833E834F83588789E034
:10071000E82EF12CEC0EFD1ECE010196B7010E94D1
:10072000D2048E010F5E1F4FCE010596B8010E94C4
:10073000D2048985823040F08989823028F0C7014F
:10074000B8010E944A0501C081E06896E6E00C9479
:100750005825ACE0B0E0EFEAF3E00C944025698363
:100760007A838B839C83CE010196BE016B5F7F4FA2
:100770000E94D2048D81823061F1823050F1843048
:1007800021F48E81882351F12EC02F81388537FDC9
:1007900020C06E812F3131051CF06623F9F023C093
:1007A0008EE190E0821B930B29853A854B855C8511
:1007B00004C056954795379527958A95D2F76623B5
:1007C000B1F050954095309521953F4F4F4F5F4F79
:1007D0000EC020E030E040E050E009C02FEF3FEFD6
:1007E0004FEF5FE704C020E030E040E050E8B9019F
:1007F000CA012C96E2E00C945C25DF92EF92FF9206
:100800000F931F93FC01E480F58006811781D1804E
:100810008081823048F480E090E0A0E1B0E0E82AF6
:10082000F92A0A2B1B2BA5C0843009F49FC0823003
:1008300021F4EE24FF24870105C0E114F104010531
:10084000110519F4E0E0F0E096C0628173819FEF3A
:10085000623879070CF05BC022E83FEF261B370BAC
:100860002A3131052CF020E030E040E050E02AC091
:10087000B801A701022E04C0769567955795479554
:100880000A94D2F781E090E0A0E0B0E004C0880FC5
:10089000991FAA1FBB1F2A95D2F70197A109B10979
:1008A0008E219F21A023B1230097A105B10521F03E
:1008B00081E090E0A0E0B0E09A01AB01282B392B59
:1008C0004A2B5B2BDA01C9018F779070A070B07052
:1008D00080349105A105B10539F427FF09C0205CDA
:1008E0003F4F4F4F5F4F04C0215C3F4F4F4F5F4F13
:1008F000E0E0F0E02030A0E03A07A0E04A07A0E402
:100900005A0710F0E1E0F0E079018A0127C0603871
:10091000710564F5FB01E158FF4FD801C7018F77DE
:100920009070A070B07080349105A105B10539F4C4
:10093000E7FE0DC080E490E0A0E0B0E004C08FE3EB
:1009400090E0A0E0B0E0E80EF91E0A1F1B1F17FFA1
:1009500005C016950795F794E794319687E01695AC
:100960000795F794E7948A95D1F705C0EE24FF2404
:100970008701EFEFF0E06E2F679566276795902F60
:100980009F77D794DD24D7948E2F8695492F462BB9
:10099000582F5D29B701CA011F910F91FF90EF9069
:1009A000DF900895FC01DB01408151812281622F9B
:1009B0006F7770E0221F2227221F9381892F880FD3
:1009C000822B282F30E0991F9927991F11969C930D
:1009D000119721153105A9F54115510561057105DD
:1009E00011F482E037C082E89FEF13969C938E93B8
:1009F00012979A01AB0167E0220F331F441F551F66
:100A00006A95D1F783E08C930DC0220F331F441FEA
:100A1000551F12968D919C911397019713969C9355
:100A20008E931297203080E0380780E0480780E4FA
:100A3000580758F314962D933D934D935C93179755
:100A400008952F3F310579F4411551056105710570
:100A500019F484E08C93089564FF03C081E08C93C3
:100A600012C01C9210C02F57304013963C932E9307
:100A7000129783E08C9387E0440F551F661F771F02
:100A80008A95D1F7706414964D935D936D937C9322
:100A9000179708951F93DC01FB019C91923008F495
:100AA00047C08081823008F443C0943051F41196DD
:100AB0001C91843099F58181682F70E0611B710968
:100AC0003FC0843021F0923031F48230B9F181811D
:100AD000882389F12DC011961C9111978230F1F075
:100AE00081811817D9F412962D913C911397828128
:100AF00093818217930794F028173907BCF0149656
:100B00008D919D910D90BC91A02D248135814681C0
:100B10005781281739074A075B0718F4112341F05A
:100B20000AC082179307A407B50740F4112319F0F0
:100B300061E070E005C06FEF7FEF02C060E070E041
:100B4000CB011F910895DF93CF9300D0CDB7DEB7CF
:100B50008091C800282F30E03A83298389819A81C7
:100B60008430910509F45EC029813A812530310530
:100B7000ECF489819A818130910509F450C0298172
:100B80003A81223031052CF489819A81009779F1DC
:100B9000DFCF29813A812230310509F44FC08981A4
:100BA0009A818330910509F44FC0D2CF29813A81CF
:100BB0002730310509F43FC089819A818830910539
:100BC0005CF429813A812530310579F189819A8156
:100BD0008630910569F1BCCF29813A8128303105F1
:100BE00081F189819A818930910589F1B1CF80E8BD
:100BF00090E00E94442404C080E890E00E944424D5
:100C0000809180008332C1F3209180008AEA90E0D5
:100C1000622F0E94801A81E08093C80099CF0E94C1
:100C2000500696CF0E94990693CF0E94B40690CFAB
:100C30000E94CF068DCF0E94DF068ACF0E9409074F
:100C400087CF0E94B30784CF0E94F60781CF8AEA3C
:100C500090E00E947A2380E690E0882F90E09C014B
:100C60008AEA90E0B9010E94EC218AEA90E061E012
:100C700040E00E9478228EE690E0882F90E09C0170
:100C80008AEA90E0B9010E94EC218AEA90E00E9491
:100C90007A2383E28093800083E08093C80058CF5A
:100CA000DF93CF93CDB7DEB7809180008033A0F083
:100CB000809180008A3380F48091C900882321F4D8
:100CC00084E08093C80032C08091C900813071F502
:100CD00085E08093C8002AC0809180008B3261F04B
:100CE000809180008D3241F0809180008A3221F025
:100CF000809180008F3239F481E08093C90086E0D2
:100D00008093C80013C080918000833621F483E073
:100D10008093C8000BC0809180008D3321F487E060
:100D20008093C80003C089E08093C800CF91DF9111
:100D30000895DF93CF93CDB7DEB78091CA00882F97
:100D400090E020918000FC01E45AFE4F20838091C6
:100D5000CA008F5F8093CA0083E280938000109264
:100D6000C800CF91DF910895DF93CF93CDB7DEB761
:100D70008091CB00882F90E020918000FC01E8500A
:100D8000FF4F20838091CB008F5F8093CB0083E265
:100D9000809380001092C800CF91DF910895DF9377
:100DA000CF93CDB7DEB7809180008093810083E23E
:100DB000809380001092C800CF91DF910895DF9357
:100DC000CF93CDB7DEB78CE591E00E946725AA27C7
:100DD00097FDA095BA2F8093CC009093CD00A0935F
:100DE000CE00B093CF0088EF90E00E946725AA273D
:100DF00097FDA095BA2F8093D0009093D100A09337
:100E0000D200B093D30082E08093C800CF91DF91ED
:100E10000895EF92FF920F931F93DF93CF93CDB777
:100E2000DEB7809181008B3201F52091CC003091AA
:100E3000CD004091CE005091CF008091D000909194
:100E4000D100A091D200B091D300820F931FA41FB4
:100E5000B51F8093D4009093D500A093D600B09393
:100E6000D70088E08093C80077C0809181008D32E0
:100E700021F52091CC003091CD004091CE005091D1
:100E8000CF008091D0009091D100A091D200B0917C
:100E9000D30079018A01E81AF90A0A0B1B0BD80161
:100EA000C7018093D4009093D500A093D600B0934F
:100EB000D70088E08093C8004FC0809181008A32BB
:100EC00011F58091CC009091CD00A091CE00B09111
:100ED000CF002091D0003091D1004091D2005091AC
:100EE000D300BC01CD010E94EF24DC01CB01809333
:100EF000D4009093D500A093D600B093D70088E09B
:100F00008093C80029C0809181008F3211F58091B3
:100F1000CC009091CD00A091CE00B091CF00209157
:100F2000D0003091D1004091D2005091D300BC014B
:100F3000CD010E940E25DA01C9018093D40090935F
:100F4000D500A093D600B093D70088E08093C80066
:100F500003C089E08093C800CF91DF911F910F916A
:100F6000FF90EF900895DF93CF93CDB7DEB7209138
:100F7000D4003091D5004091D6005091D7008AEA34
:100F800090E0BA01A9010E94362283E2809380009A
:100F90001092C9001092CA001092CB0083E2809395
:100FA00081001092CC001092CD001092CE001092D1
:100FB000CF001092D0001092D1001092D200109267
:100FC000D3008CE591E060E070E044E650E00E94E0
:100FD000852588EF90E060E070E044E650E00E94F4
:100FE00085251092C800CF91DF910895DF93CF93AC
:100FF000CDB7DEB78AEA90E00E947A2383E280933D
:1010000080001092C9001092CA001092CB0083E2B7
:10101000809381001092CC001092CD001092CE00EF
:101020001092CF001092D0001092D1001092D200F6
:101030001092D3008CE591E060E070E044E650E06F
:101040000E94852588EF90E060E070E044E650E083
:101050000E9485251092C800CF91DF910895DF93FB
:10106000CF9300D00F92CDB7DEB79B838A8381E008
:1010700089838A819B810097B1F0EA81FB8122817B
:101080008A819B81622F0E945C08898389818823E1
:1010900061F4EA81FB8123818A819B81622F0E9416
:1010A000E108898302C082E0898389810F900F90D3
:1010B0000F90CF91DF910895DF93CF9300D000D0B0
:1010C00000D0CDB7DEB79B838A836C8381E08983B0
:1010D0008A819B81009709F468C08C81282F30E0B9
:1010E0003E832D838D819E81009731F02D813E813D
:1010F0002130310571F15BC0EA81FB818081882F4D
:1011000090E0880F991FFC01EE57FF4FA081B1813D
:10111000EA81FB818081882F90E0880F991FFC0174
:10112000EE57FF4F0190F081E02D8081482FEA813A
:10113000FB818181282F30E081E090E0022E02C007
:10114000880F991F0A94E2F7809584238C93198263
:101150002EC0EA81FB818081882F90E0880F991F43
:10116000FC01EE57FF4FA081B181EA81FB818081B4
:10117000882F90E0880F991FFC01EE57FF4F0190D8
:10118000F081E02D8081482FEA81FB818181282F29
:1011900030E081E090E0022E02C0880F991F0A948F
:1011A000E2F7842B8C93198202C082E089838981C3
:1011B00026960FB6F894DEBF0FBECDBFCF91DF915C
:1011C0000895DF93CF9300D000D000D0CDB7DEB725
:1011D0009B838A836C8381E089838A819B810097CA
:1011E00009F468C08C81282F30E03E832D838D81E7
:1011F0009E81009731F02D813E812130310571F1C2
:101200005BC0EA81FB818081882F90E0880F991F65
:10121000FC01E657FF4FA081B181EA81FB8180810B
:10122000882F90E0880F991FFC01E657FF4F01902F
:10123000F081E02D8081482FEA81FB818181282F78
:1012400030E081E090E0022E02C0880F991F0A94DE
:10125000E2F7809584238C9319822EC0EA81FB816A
:101260008081882F90E0880F991FFC01E657FF4F7F
:10127000A081B181EA81FB818081882F90E0880F75
:10128000991FFC01E657FF4F0190F081E02D80810E
:10129000482FEA81FB818181282F30E081E090E0B6
:1012A000022E02C0880F991F0A94E2F7842B8C93B8
:1012B000198202C082E08983898126960FB6F8944C
:1012C000DEBF0FBECDBFCF91DF910895DF93CF93E7
:1012D00000D000D00F92CDB7DEB79B838A837D8389
:1012E0006C8381E089838A819B81009711F1EA8177
:1012F000FB818081882F90E0880F991FFC01EE56BA
:10130000FF4F0190F081E02D8081282F30E0EA81AD
:10131000FB818181882F90E0A90102C055954795F6
:101320008A95E2F7CA018170EC81FD818083198280
:1013300002C082E0898389810F900F900F900F90F7
:101340000F90CF91DF910895DF93CF9300D00F924C
:10135000CDB7DEB79B838A8381E089838A819B81B5
:10136000009761F1EA81FB818081882F90E0880FEE
:10137000991FFC01E657FF4FA081B181EA81FB81F3
:101380008081882F90E0880F991FFC01E657FF4F5E
:101390000190F081E02D8081482FEA81FB818181DD
:1013A000282F30E081E090E0022E02C0880F991FC4
:1013B0000A94E2F784278C93198202C082E0898321
:1013C00089810F900F900F90CF91DF910895DF9357
:1013D000CF93CDB7DEB728970FB6F894DEBF0FBE18
:1013E000CDBF8A836B834C8381E089838B81282FD7
:1013F00030E038872F838F819885009731F02F81D7
:1014000038852130310579F01CC08A81882F90E021
:10141000880F991FFC01EE57FF4F0190F081E02DDE
:10142000108219820EC08A81882F90E0880F991F40
:10143000FC01EE57FF4F0190F081E02D8FEF80838C
:1014400019828C81282F30E03E832D838D819E81EF
:10145000009731F02D813E812130310579F01CC09B
:101460008A81882F90E0880F991FFC01E657FF4F73
:101470000190F081E02D108219820EC08A81882FA0
:1014800090E0880F991FFC01E657FF4F0190F08113
:10149000E02D8FEF80831982898128960FB6F8940A
:1014A000DEBF0FBECDBFCF91DF910895DF93CF9305
:1014B00000D000D00F92CDB7DEB78A836B8381E076
:1014C00089838B81282F30E03D832C838C819D8103
:1014D000009731F02C813D812130310579F01CC01D
:1014E0008A81882F90E0880F991FFC01EE57FF4FEB
:1014F0000190F081E02D108219820EC08A81882F20
:1015000090E0880F991FFC01EE57FF4F0190F0818A
:10151000E02D8FEF8083198289810F900F900F90BB
:101520000F900F90CF91DF910895DF93CF9300D06C
:1015300000D00F92CDB7DEB78A836B8381E08983B9
:101540008B81282F30E03D832C838C819D810097F7
:1015500031F02C813D812130310579F01CC08A8128
:10156000882F90E0880F991FFC01E657FF4F0190EC
:10157000F081E02D108219820EC08A81882F90E0C0
:10158000880F991FFC01E657FF4F0190F081E02D75
:101590008FEF8083198289810F900F900F900F90A9
:1015A0000F90CF91DF910895DF93CF9300D000D0BB
:1015B000CDB7DEB78A837C836B8381E089838A81A0
:1015C000882F90E0880F991FFC01EE56FF4F019085
:1015D000F081E02D8081EB81FC81808319828981FB
:1015E0000F900F900F900F90CF91DF910895DF93A0
:1015F000CF9300D0CDB7DEB78A8381E089838A811B
:10160000882F90E0880F991FFC01EE57FF4FA081B3
:10161000B1818A81882F90E0880F991FFC01EE57D5
:10162000FF4F0190F081E02D20818A81882F90E08A
:10163000880F991FFC01EE57FF4F0190F081E02DBC
:10164000808182278C93198289810F900F90CF918E
:10165000DF910895DF93CF9300D00F92CDB7DEB71F
:101660008A836B8381E089838A81882F90E0880F49
:10167000991FFC01E657FF4FA081B1818A81882F15
:1016800090E0880F991FFC01E657FF4F0190F08111
:10169000E02D80818F708C938A81882F90E0880F55
:1016A000991FFC01E657FF4FA081B1818A81882FE5
:1016B00090E0880F991FFC01E657FF4F0190F081E1
:1016C000E02D8081282F8B81882F90E08295929544
:1016D000907F9827807F9827822B8C93198289810D
:1016E0000F900F900F90CF91DF910895DF93CF93DC
:1016F000CDB7DEB727970FB6F894DEBF0FBECDBFCC
:101700008A834B835C836D837E8381E089838A81B6
:10171000882F90E0880F991FFC01E657FF4F01903A
:10172000F081E02D80818A81882F90E0880F991FB9
:10173000FC01E657FF4F0190F081E02D10828A8175
:10174000882F90E0880F991FFC01E657FF4FA0817A
:10175000B1818A81882F90E0880F991FFC01E6579C
:10176000FF4F0190F081E02D90818B81892B8C932C
:101770001982898127960FB6F894DEBF0FBECDBFC0
:10178000CF91DF9108950F931F93DF93CF93CDB740
:10179000DEB7CE59D0400FB6F894DEBF0FBECDBF36
:1017A000FE01E356FF4F91838083FE01E058FF4F17
:1017B00081E08083FE01E158FF4F81E08083FE01DC
:1017C000E356FF4F80819181009709F418C7FE010D
:1017D000E356FF4F0190F081E02D8181FE01E35639
:1017E000FF4F0190F081E02D9381FE01EF57FF4FF5
:1017F0008083FE01EF57FF4F9183FE01EF57FF4FAC
:1018000081E08283FE01EF57FF4F1382FE01E35612
:10181000FF4F0190F081E02D8181FE01E356FF4FE3
:101820000190F081E02D9481FE01EB57FF4F808302
:10183000FE01EB57FF4F9183FE01EB57FF4F81E015
:101840008283FE01EB57FF4F1382FE01E356FF4FE9
:101850000190F081E02D8181FE01E356FF4F019060
:10186000F081E02D9581FE01E757FF4F8083FE0157
:10187000E757FF4F9183FE01E757FF4F81E08283D7
:10188000FE01E757FF4F1382CE018F579F4F0E94F3
:101890002F08FE01E158FF4F8083FE01E158FF4F02
:1018A0008081882351F4CE018B579F4F0E942F08CF
:1018B000FE01E158FF4F808305C0FE01E058FF4F55
:1018C00081E08083FE01E158FF4F8081882351F43D
:1018D000CE0187579F4F0E942F08FE01E158FF4F0E
:1018E000808305C0FE01E058FF4F81E08083FE0148
:1018F000E356FF4F0190F081E02D8081882309F0AD
:1019000042C4FE01E356FF4F0190F081E02D828139
:10191000FE01E356FF4F0190F081E02D9285FE011C
:10192000E357FF4F8083FE01E357FF4F9183FE0192
:10193000E357FF4F81E08283FE01E357FF4F13829D
:10194000FE01E356FF4F0190F081E02D8281FE0100
:10195000E356FF4F0190F081E02D9385FE01EF5695
:10196000FF4F8083FE01EF56FF4F9183FE01EF563C
:10197000FF4F81E08283FE01EF56FF4F1382FE018D
:10198000E356FF4F0190F081E02D8281FE01E35686
:10199000FF4F0190F081E02D9485FE01EB56FF4F43
:1019A0008083FE01EB56FF4F9183FE01EB56FF4F04
:1019B00081E08283FE01EB56FF4F1382FE01E35666
:1019C000FF4F0190F081E02D8281FE01E356FF4F31
:1019D0000190F081E02D9585FE01E756FF4F808351
:1019E000FE01E756FF4F9183FE01E756FF4F81E06E
:1019F0008283FE01E756FF4F1382FE01E158FF4F3D
:101A00008081882351F4CE0183579F4F0E942F0875
:101A1000FE01E158FF4F808305C0FE01E058FF4FF3
:101A200081E08083FE01E158FF4F8081882351F4DB
:101A3000CE018F569F4F0E942F08FE01E158FF4FA5
:101A4000808305C0FE01E058FF4F81E08083FE01E6
:101A5000E158FF4F8081882351F4CE018B569F4F70
:101A60000E942F08FE01E158FF4F808305C0FE0150
:101A7000E058FF4F81E08083FE01E158FF4F8081F5
:101A8000882351F4CE0187569F4F0E942F08FE01F4
:101A9000E158FF4F808305C0FE01E058FF4F81E011
:101AA0008083FE01E558FF4F80E090E0A0EFB1E4B5
:101AB00080839183A283B3838E0109581F4FFE0157
:101AC000E558FF4F608171818281938120E030E091
:101AD0004AEF54E40E941F02DC01CB01F80180832D
:101AE0009183A283B383FE01E958FF4F6081718126
:101AF0008281938120E030E040E85FE30E94790337
:101B0000882344F4FE01EB58FF4F81E090E091837D
:101B1000808364C0FE01E958FF4F6081718182813A
:101B2000938120E03FEF4FE757E40E941903181616
:101B30000CF043C0FE01E558FF4F60817181828146
:101B4000938120E030E040E251E40E941F02DC017A
:101B5000CB018E010B581F4FBC01CD010E944900E3
:101B6000DC01CB01F801918380831FC0FE01ED5899
:101B7000FF4F88EC90E091838083FE01ED58FF4F8A
:101B8000808191810197F1F7FE01ED58FF4F91831C
:101B90008083DE01AB58BF4FFE01EB58FF4F8081C1
:101BA0009181019711969C938E93FE01EB58FF4F04
:101BB000808191810097D1F627C08E010B581F4F6D
:101BC000FE01E958FF4F60817181828193810E94FB
:101BD0004900DC01CB01F80191838083DE01AF581D
:101BE000BF4FFE01EB58FF4F808191818D939C93F5
:101BF000FE01EF58FF4F808191810197F1F7FE01BF
:101C0000EF58FF4F91838083FE01E356FF4F8081A1
:101C1000918168E20E941413FE01E359FF4F80E0B6
:101C200090E0A8E4B2E480839183A283B3838E0121
:101C300007591F4FFE01E359FF4F60817181828177
:101C4000938120E030E04AEF54E40E941F02DC015F
:101C5000CB01F80180839183A283B383FE01E7590E
:101C6000FF4F608171818281938120E030E040E804
:101C70005FE30E947903882344F4FE01E959FF4F92
:101C800081E090E09183808364C0FE01E759FF4FBB
:101C9000608171818281938120E03FEF4FE757E4BB
:101CA0000E94190318160CF043C0FE01E359FF4FC0
:101CB000608171818281938120E030E040E251E4D3
:101CC0000E941F02DC01CB018E0109591F4FBC018C
:101CD000CD010E944900DC01CB01F8019183808392
:101CE0001FC0FE01EB59FF4F88EC90E09183808389
:101CF000FE01EB59FF4F808191810197F1F7FE01C1
:101D0000EB59FF4F91838083DE01A959BF4FFE013C
:101D1000E959FF4F80819181019711969C938E9391
:101D2000FE01E959FF4F808191810097D1F627C0CC
:101D30008E0109591F4FFE01E759FF4F60817181E4
:101D4000828193810E944900DC01CB01F8019183DB
:101D50008083DE01AD59BF4FFE01E959FF4F8081FD
:101D600091818D939C93FE01ED59FF4F808191816C
:101D70000197F1F7FE01ED59FF4F91838083FE013A
:101D8000E356FF4F808191816FE00E941413FE01A2
:101D9000E15AFF4F80E090E0A8E4B2E480839183B1
:101DA000A283B3838E01055A1F4FFE01E15AFF4FF4
:101DB000608171818281938120E030E04AEF54E4B8
:101DC0000E941F02DC01CB01F80180839183A28372
:101DD000B383FE01E55AFF4F608171818281938157
:101DE00020E030E040E85FE30E947903882344F478
:101DF000FE01E75AFF4F81E090E09183808364C049
:101E0000FE01E55AFF4F608171818281938120E05C
:101E10003FEF4FE757E40E94190318160CF043C038
:101E2000FE01E15AFF4F608171818281938120E040
:101E300030E040E251E40E941F02DC01CB018E0140
:101E4000075A1F4FBC01CD010E944900DC01CB01A4
:101E5000F801918380831FC0FE01E95AFF4F88EC8F
:101E600090E091838083FE01E95AFF4F8081918148
:101E70000197F1F7FE01E95AFF4F91838083DE015C
:101E8000A75ABF4FFE01E75AFF4F8081918101970A
:101E900011969C938E93FE01E75AFF4F80819181AA
:101EA0000097D1F627C08E01075A1F4FFE01E55A51
:101EB000FF4F60817181828193810E944900DC0122
:101EC000CB01F80191838083DE01AB5ABF4FFE0145
:101ED000E75AFF4F808191818D939C93FE01EB5ACD
:101EE000FF4F808191810197F1F7FE01EB5AFF4F7F
:101EF00091838083FE01E356FF4F8081918161E0F1
:101F00000E941413FE01EF5AFF4F80E090E0A8E416
:101F1000B2E480839183A283B3838E01035B1F4F5E
:101F2000FE01EF5AFF4F608171818281938120E031
:101F300030E04AEF54E40E941F02DC01CB01F801BB
:101F400080839183A283B383FE01E35BFF4F6081B3
:101F500071818281938120E030E040E85FE30E945C
:101F60007903882344F4FE01E55BFF4F81E090E0B4
:101F70009183808364C0FE01E35BFF4F60817181C8
:101F80008281938120E03FEF4FE757E40E941903DD
:101F900018160CF043C0FE01EF5AFF4F60817181AB
:101FA0008281938120E030E040E251E40E941F02F0
:101FB000DC01CB018E01055B1F4FBC01CD010E94EE
:101FC0004900DC01CB01F801918380831FC0FE0131
:101FD000E75BFF4F88EC90E091838083FE01E75B35
:101FE000FF4F808191810197F1F7FE01E75BFF4F81
:101FF00091838083DE01A55BBF4FFE01E55BFF4F50
:1020000080819181019711969C938E93FE01E55BEF
:10201000FF4F808191810097D1F627C08E01055B2B
:102020001F4FFE01E35BFF4F6081718182819381CD
:102030000E944900DC01CB01F80191838083DE011D
:10204000A95BBF4FFE01E55BFF4F808191818D93BE
:102050009C93FE01E95BFF4F808191810197F1F72D
:10206000FE01E95BFF4F91838083FE01E356FF4F42
:102070008081918166E00E941413FE01ED5BFF4FA9
:1020800080E090E0A8E4B2E480839183A283B383EC
:102090008E01015C1F4FFE01ED5BFF4F608171817E
:1020A0008281938120E030E04AEF54E40E941F02D5
:1020B000DC01CB01F80180839183A283B383FE010D
:1020C000FF96608171818281938120E030E040E859
:1020D0005FE30E94790388232CF481E090E09EAFB7
:1020E0008DAF46C0FE01FF96608171818281938130
:1020F00020E03FEF4FE757E40E941903181664F5FC
:10210000FE01ED5BFF4F608171818281938120E050
:1021100030E040E251E40E941F02DC01CB01BC012F
:10212000CD010E944900DC01CB019EAF8DAF0FC0F5
:1021300088EC90E09CAF8BAF8BAD9CAD0197F1F735
:102140009CAF8BAF8DAD9EAD01979EAF8DAF8DAD2A
:102150009EAD009769F758C2FE01FF9660817181BC
:10216000828193810E944900DC01CB019EAF8DAF3B
:102170008DAD9EAD9AAF89AF89AD9AAD0197F1F75C
:102180009AAF89AF41C2FE01E356FF4F0190F08143
:10219000E02D8081813009F02CC2FE01E158FF4F13
:1021A0008081882381F4FE01E356FF4F0190F08186
:1021B000E02D828161E040E00E94E709FE01E158E4
:1021C000FF4F808305C0FE01E058FF4F81E0808310
:1021D00080E090E0A0E8BFE38DAB9EABAFABB8AFC3
:1021E0006DA97EA98FA998AD20E030E04AEF54E4B4
:1021F0000E941F02DC01CB0189AB9AABABABBCAB3D
:1022000069A97AA98BA99CA920E030E040E85FE3A6
:102210000E94790388232CF481E090E098AB8FA78B
:102220003FC069A97AA98BA99CA920E03FEF4FE79D
:1022300057E40E94190318164CF56DA97EA98FA9C1
:1022400098AD20E030E040E251E40E941F02DC0142
:10225000CB01BC01CD010E944900DC01CB0198AB50
:102260008FA70FC088EC90E09EA78DA78DA59EA597
:102270000197F1F79EA78DA78FA598A9019798AB15
:102280008FA78FA598A9009769F714C069A97AA9A3
:102290008BA99CA90E944900DC01CB0198AB8FA7B8
:1022A0008FA598A99CA78BA78BA59CA50197F1F753
:1022B0009CA78BA7FE01E158FF4F8081882369F41A
:1022C000FE01E356FF4F8081918168E30E94141361
:1022D000FE01E058FF4F808305C0FE01E058FF4F2C
:1022E00081E0808380E090E0A0E8BFE38FA398A71F
:1022F000A9A7BAA76FA178A589A59AA520E030E083
:102300004AEF54E40E941F02DC01CB018BA39CA383
:10231000ADA3BEA36BA17CA18DA19EA120E030E066
:1023200040E85FE30E94790388232CF481E090E089
:102330009AA389A33FC06BA17CA18DA19EA120E09F
:102340003FEF4FE757E40E94190318164CF56FA1B1
:1023500078A589A59AA520E030E040E251E40E94EA
:102360001F02DC01CB01BC01CD010E944900DC0150
:10237000CB019AA389A30FC088EC90E098A38F8F1C
:102380008F8D98A10197F1F798A38F8F89A19AA1BA
:1023900001979AA389A389A19AA1009769F714C00C
:1023A0006BA17CA18DA19EA10E944900DC01CB0103
:1023B0009AA389A389A19AA19E8F8D8F8D8D9E8DC1
:1023C0000197F1F79E8F8D8FFE01E058FF4F8081BE
:1023D000882369F4FE01E356FF4F808191816EE00E
:1023E0000E941413FE01E058FF4F808305C0FE01D8
:1023F000E058FF4F81E0808380E090E0A0E8BFE3F9
:10240000898F9A8FAB8FBC8F698D7A8D8B8D9C8DC8
:1024100020E030E04AEF54E40E941F02DC01CB01CF
:102420008D8B9E8BAF8BB88F6D897E898F89988DB0
:1024300020E030E040E85FE30E94790388232CF439
:1024400081E090E09C8B8B8B3FC06D897E898F896A
:10245000988D20E03FEF4FE757E40E9419031816CC
:102460004CF5698D7A8D8B8D9C8D20E030E040E2BB
:1024700051E40E941F02DC01CB01BC01CD010E948E
:102480004900DC01CB019C8B8B8B0FC088EC90E06A
:102490009A8B898B89899A890197F1F79A8B898B15
:1024A0008B899C8901979C8B8B8B8B899C8900974E
:1024B00069F714C06D897E898F89988D0E944900C3
:1024C000DC01CB019C8B8B8B8B899C89988B8F87B4
:1024D0008F8598890197F1F7988B8F87FE01E058D7
:1024E000FF4F8081882369F4FE01E356FF4F80810E
:1024F000918161E00E941413FE01E058FF4F808338
:1025000005C0FE01E058FF4F81E0808380E090E04D
:10251000A0E8BFE38B879C87AD87BE876B857C85F2
:102520008D859E8520E030E04AEF54E40E941F0232
:10253000DC01CB018F839887A987BA876F81788563
:1025400089859A8520E030E040E85FE30E947903C6
:1025500088232CF481E090E09E838D833FC06F81BF
:10256000788589859A8520E03FEF4FE757E40E9400
:10257000190318164CF56B857C858D859E8520E0AA
:1025800030E040E251E40E941F02DC01CB01BC01BB
:10259000CD010E944900DC01CB019E838D830FC0D9
:1025A00088EC90E09C838B838B819C810197F1F771
:1025B0009C838B838D819E8101979E838D838D81EA
:1025C0009E81009769F720C06F81788589859A85FB
:1025D0000E944900DC01CB019E838D838D819E8109
:1025E0009A83898389819A810197F1F79A838983F4
:1025F0000BC0FE01E058FF4F83E0808305C0FE0161
:10260000E058FF4F82E08083FE01E058FF4F808159
:10261000C256DF4F0FB6F894DEBF0FBECDBFCF91CD
:10262000DF911F910F9108950F931F93DF93CF9325
:10263000CDB7DEB7CD59D0400FB6F894DEBF0FBE90
:10264000CDBFFE01E556FF4F91838083FE01E35627
:10265000FF4F6083FE01E257FF4F81E08083FE0160
:10266000E357FF4F81E08083FE01E556FF4F8081F5
:102670009181009709F42FC7FE01E556FF4F0190A5
:10268000F081E02D8181FE01E556FF4F0190F08140
:10269000E02D9381FE01E157FF4F8083FE01E1575A
:1026A000FF4F9183FE01E157FF4F81E08283FE01DE
:1026B000E157FF4F1382FE01E556FF4F0190F08175
:1026C000E02D8181FE01E556FF4F0190F081E02D64
:1026D0009481FE01ED56FF4F8083FE01ED56FF4FC2
:1026E0009183FE01ED56FF4F81E08283FE01ED569E
:1026F000FF4F1382FE01E556FF4F0190F081E02D60
:102700008181FE01E556FF4F0190F081E02D95811A
:10271000FE01E956FF4F8083FE01E956FF4F91838A
:10272000FE01E956FF4F81E08283FE01E956FF4F2B
:102730001382CE0181579F4F60E00E94E108FE01A5
:10274000E357FF4F8083FE01E357FF4F80818823CB
:1027500059F4CE018D569F4F60E00E94E108FE01C2
:10276000E357FF4F808305C0FE01E257FF4F81E032
:102770008083FE01E757FF4F80E090E0A0EFB1E4D7
:1027800080839183A283B3838E010B571F4FFE0179
:10279000E757FF4F608171818281938120E030E0B3
:1027A0004AEF54E40E941F02DC01CB01F801808350
:1027B0009183A283B383FE01EB57FF4F6081718148
:1027C0008281938120E030E040E85FE30E9479035A
:1027D000882344F4FE01ED57FF4F81E090E09183A0
:1027E000808364C0FE01EB57FF4F6081718182815D
:1027F000938120E03FEF4FE757E40E94190318163A
:102800000CF043C0FE01E757FF4F60817181828168
:10281000938120E030E040E251E40E941F02DC019D
:10282000CB018E010D571F4FBC01CD010E94490005
:10283000DC01CB01F801918380831FC0FE01EF57BB
:10284000FF4F88EC90E091838083FE01EF57FF4FAC
:10285000808191810197F1F7FE01EF57FF4F91833E
:102860008083DE01AD57BF4FFE01ED57FF4F8081E2
:102870009181019711969C938E93FE01ED57FF4F26
:10288000808191810097D1F628C08E010D571F4F8E
:10289000FE01EB57FF4F60817181828193810E941D
:1028A0004900DC01CB01F80191838083DE01A1584E
:1028B000BF4FFE01ED57FF4F8081918111969C9390
:1028C0008E93FE01E158FF4F808191810197F1F7CE
:1028D000FE01E158FF4F91838083FE01E556FF4FD3
:1028E0000190F081E02D8081882309F03DC4FE0134
:1028F000E357FF4F8081882359F4CE0189569F4FBB
:1029000061E00E94E108FE01E357FF4F808305C0AC
:10291000FE01E257FF4F81E08083FE01E558FF4F43
:1029200080E090E0A8E4B2E480839183A283B38343
:102930008E0109581F4FFE01E558FF4F60817181DC
:102940008281938120E030E04AEF54E40E941F022C
:10295000DC01CB01F80180839183A283B383FE0164
:10296000E958FF4F608171818281938120E030E0DE
:1029700040E85FE30E947903882344F4FE01EB58AA
:10298000FF4F81E090E09183808364C0FE01E958AD
:10299000FF4F608171818281938120E03FEF4FE79B
:1029A00057E40E94190318160CF043C0FE01E558C5
:1029B000FF4F608171818281938120E030E040E2AD
:1029C00051E40E941F02DC01CB018E010B581F4F06
:1029D000BC01CD010E944900DC01CB01F8019183CB
:1029E00080831FC0FE01ED58FF4F88EC90E091837B
:1029F0008083FE01ED58FF4F808191810197F1F7AF
:102A0000FE01ED58FF4F91838083DE01AB58BF4F2D
:102A1000FE01EB58FF4F80819181019711969C93A5
:102A20008E93FE01EB58FF4F808191810097D1F684
:102A300027C08E010B581F4FFE01E958FF4F6081E0
:102A40007181828193810E944900DC01CB01F801F0
:102A500091838083DE01AF58BF4FFE01EB58FF4FDB
:102A6000808191818D939C93FE01EF58FF4F80816F
:102A700091810197F1F7FE01EF58FF4F9183808319
:102A8000FE01E556FF4F0190F081E02D2281FE010D
:102A9000E356FF4F8081982F92959F70822F692F68
:102AA0000E942A0BFE01E359FF4F80E090E0A8E46A
:102AB000B2E480839183A283B3838E0107591F4FB1
:102AC000FE01E359FF4F608171818281938120E093
:102AD00030E04AEF54E40E941F02DC01CB01F80110
:102AE00080839183A283B383FE01E759FF4F608106
:102AF00071818281938120E030E040E85FE30E94B1
:102B00007903882344F4FE01E959FF4F81E090E006
:102B10009183808364C0FE01E759FF4F608171811A
:102B20008281938120E03FEF4FE757E40E94190331
:102B300018160CF043C0FE01E359FF4F608171810C
:102B40008281938120E030E040E251E40E941F0244
:102B5000DC01CB018E0109591F4FBC01CD010E9440
:102B60004900DC01CB01F801918380831FC0FE0185
:102B7000EB59FF4F88EC90E091838083FE01EB5985
:102B8000FF4F808191810197F1F7FE01EB59FF4FD3
:102B900091838083DE01A959BF4FFE01E959FF4FA0
:102BA00080819181019711969C938E93FE01E95942
:102BB000FF4F808191810097D1F628C08E0109597D
:102BC0001F4FFE01E759FF4F608171818281938120
:102BD0000E944900DC01CB01F80191838083DE0172
:102BE000AD59BF4FFE01E959FF4F80819181119688
:102BF0009C938E93FE01ED59FF4F80819181019747
:102C0000F1F7FE01ED59FF4F91838083FE01E357F9
:102C1000FF4F8081882359F4CE0189569F4F60E091
:102C20000E94E108FE01E357FF4F808305C0FE01CB
:102C3000E257FF4F81E08083FE01E15AFF4F80E0C1
:102C400090E0A8E4B2E480839183A283B3838E01F1
:102C5000055A1F4FFE01E15AFF4F60817181828149
:102C6000938120E030E04AEF54E40E941F02DC012F
:102C7000CB01F80180839183A283B383FE01E55ADF
:102C8000FF4F608171818281938120E030E040E8D4
:102C90005FE30E947903882344F4FE01E75AFF4F63
:102CA00081E090E09183808364C0FE01E55AFF4F8C
:102CB000608171818281938120E03FEF4FE757E48B
:102CC0000E94190318160CF043C0FE01E15AFF4F91
:102CD000608171818281938120E030E040E251E4A3
:102CE0000E941F02DC01CB018E01075A1F4FBC015D
:102CF000CD010E944900DC01CB01F8019183808362
:102D00001FC0FE01E95AFF4F88EC90E09183808359
:102D1000FE01E95AFF4F808191810197F1F7FE0191
:102D2000E95AFF4F91838083DE01A75ABF4FFE010E
:102D3000E75AFF4F80819181019711969C938E9362
:102D4000FE01E75AFF4F808191810097D1F628C09C
:102D50008E01075A1F4FFE01E55AFF4F60817181B6
:102D6000828193810E944900DC01CB01F8019183AB
:102D70008083DE01AB5ABF4FFE01E75AFF4F8081CF
:102D8000918111969C938E93FE01EB5AFF4F8081A7
:102D900091810197F1F7FE01EB5AFF4F91838083F8
:102DA000FE01E357FF4F8081882359F4CE018956F5
:102DB0009F4F61E00E94E108FE01E357FF4F8083CF
:102DC00005C0FE01E257FF4F81E08083FE01EF5A0C
:102DD000FF4F80E090E0A8E4B2E480839183A28377
:102DE000B3838E01035B1F4FFE01EF5AFF4F6081DB
:102DF00071818281938120E030E04AEF54E40E94A7
:102E00001F02DC01CB01F80180839183A283B3838D
:102E1000FE01E35BFF4F608171818281938120E03D
:102E200030E040E85FE30E947903882344F4FE0128
:102E3000E55BFF4F81E090E09183808364C0FE01F9
:102E4000E35BFF4F608171818281938120E03FEFDE
:102E50004FE757E40E94190318160CF043C0FE0117
:102E6000EF5AFF4F608171818281938120E030E0D1
:102E700040E251E40E941F02DC01CB018E01055BA0
:102E80001F4FBC01CD010E944900DC01CB01F801BC
:102E9000918380831FC0FE01E75BFF4F88EC90E0C9
:102EA00091838083FE01E75BFF4F808191810197D1
:102EB000F1F7FE01E75BFF4F91838083DE01A55BA5
:102EC000BF4FFE01E55BFF4F808191810197119615
:102ED0009C938E93FE01E55BFF4F8081918100976B
:102EE000D1F627C08E01055B1F4FFE01E35BFF4F4C
:102EF00060817181828193810E944900DC01CB0154
:102F0000F80191838083DE01A95BBF4FFE01E55B81
:102F1000FF4F808191818D939C93FE01E95BFF4F70
:102F2000808191810197F1F7FE01E95BFF4F918369
:102F30008083FE01E556FF4F0190F081E02D8281F4
:102F4000FE01E356FF4F60810E942A0BFE01ED5BFC
:102F5000FF4F80E090E0A8E4B2E480839183A283F5
:102F6000B3838E01015C1F4FFE01ED5BFF4F60815B
:102F700071818281938120E030E04AEF54E40E9425
:102F80001F02DC01CB01F80180839183A283B3830C
:102F9000FE01FF96608171818281938120E030E0A3
:102FA00040E85FE30E94790388232CF481E090E0FD
:102FB0009EAF8DAF46C0FE01FF9660817181828118
:102FC000938120E03FEF4FE757E40E941903181662
:102FD00064F5FE01ED5BFF4F608171818281938119
:102FE00020E030E040E251E40E941F02DC01CB010E
:102FF000BC01CD010E944900DC01CB019EAF8DAF29
:103000000FC088EC90E09CAF8BAF8BAD9CAD01976F
:10301000F1F79CAF8BAF8DAD9EAD01979EAF8DAF9D
:103020008DAD9EAD009769F716C0FE01FF966081D9
:103030007181828193810E944900DC01CB019EAFA6
:103040008DAF8DAD9EAD9AAF89AF89AD9AAD019729
:10305000F1F79AAF89AFFE01E357FF4F80818823D4
:1030600059F4CE0189569F4F60E00E94E108FE01AD
:10307000E357FF4F808305C0FE01E257FF4F81E019
:10308000808380E090E0A8E4B2E48DAB9EABAFAB70
:10309000B8AF6DA97EA98FA998AD20E030E04AEFC6
:1030A00054E40E941F02DC01CB0189AB9AABABABAD
:1030B000BCAB69A97AA98BA99CA920E030E040E8C3
:1030C0005FE30E94790388232CF481E090E098ABC1
:1030D0008FA73FC069A97AA98BA99CA920E03FEFDF
:1030E0004FE757E40E94190318164CF56DA97EA905
:1030F0008FA998AD20E030E040E251E40E941F0229
:10310000DC01CB01BC01CD010E944900DC01CB01F7
:1031100098AB8FA70FC088EC90E09EA78DA78DA5D8
:103120009EA50197F1F79EA78DA78FA598A9019756
:1031300098AB8FA78FA598A9009769F7BBC169A91C
:103140007AA98BA99CA90E944900DC01CB0198AB0C
:103150008FA78FA598A99CA78BA78BA59CA5019746
:10316000F1F79CA78BA7A6C1FE01E556FF4F019082
:10317000F081E02D8081813009F097C1FE01E35795
:10318000FF4F8081882359F4CE0189569F4F61E01B
:103190000E94E108FE01E357FF4F808305C0FE0156
:1031A000E257FF4F81E0808380E090E0A0E8BFE33A
:1031B0008FA398A7A9A7BAA76FA178A589A59AA553
:1031C00020E030E04AEF54E40E941F02DC01CB0112
:1031D0008BA39CA3ADA3BEA36BA17CA18DA19EA13B
:1031E00020E030E040E85FE30E94790388232CF47C
:1031F00081E090E09AA389A33FC06BA17CA18DA13F
:103200009EA120E03FEF4FE757E40E9419031816F4
:103210004CF56FA178A589A59AA520E030E040E2A1
:1032200051E40E941F02DC01CB01BC01CD010E94D0
:103230004900DC01CB019AA389A30FC088EC90E080
:1032400098A38F8F8F8D98A10197F1F798A38F8FF7
:1032500089A19AA101979AA389A389A19AA100970C
:1032600069F714C06BA17CA18DA19EA10E944900A9
:10327000DC01CB019AA389A389A19AA19E8F8D8F8E
:103280008D8D9E8D0197F1F79E8F8D8FFE01E556F6
:10329000FF4F0190F081E02D9281FE01E356FF4F38
:1032A0008081282F30E040E050E0892FBA01A90149
:1032B0000E94760B80E090E0A0E8BFE3898F9A8FB0
:1032C000AB8FBC8F698D7A8D8B8D9C8D20E030E02B
:1032D0004AEF54E40E941F02DC01CB018D8B9E8BD0
:1032E000AF8BB88F6D897E898F89988D20E030E013
:1032F00040E85FE30E94790388232CF481E090E0AA
:103300009C8B8B8B3FC06D897E898F89988D20E047
:103310003FEF4FE757E40E94190318164CF5698DEB
:103320007A8D8B8D9C8D20E030E040E251E40E944C
:103330001F02DC01CB01BC01CD010E944900DC0170
:10334000CB019C8B8B8B0FC088EC90E09A8B898B88
:1033500089899A890197F1F79A8B898B8B899C8946
:1033600001979C8B8B8B8B899C89009769F714C084
:103370006D897E898F89988D0E944900DC01CB017F
:103380009C8B8B8B8B899C89988B8F878F85988959
:103390000197F1F7988B8F87FE01E357FF4F8081EC
:1033A000882359F4CE0189569F4F60E00E94E108BE
:1033B000FE01E357FF4F808305C0FE01E257FF4F38
:1033C00081E0808380E090E0A0E8BFE38B879C876A
:1033D000AD87BE876B857C858D859E8520E030E03E
:1033E0004AEF54E40E941F02DC01CB018F839887CF
:1033F000A987BA876F81788589859A8520E030E032
:1034000040E85FE30E94790388232CF481E090E098
:103410009E838D833FC06F81788589859A8520E062
:103420003FEF4FE757E40E94190318164CF56B85E0
:103430007C858D859E8520E030E040E251E40E944D
:103440001F02DC01CB01BC01CD010E944900DC015F
:10345000CB019E838D830FC088EC90E09C838B838F
:103460008B819C810197F1F79C838B838D819E8159
:1034700001979E838D838D819E81009769F71AC085
:103480006F81788589859A850E944900DC01CB018E
:103490009E838D838D819E819A83898389819A8180
:1034A0000197F1F79A83898305C0FE01E257FF4F28
:1034B00083E08083FE01E357FF4F8081882329F456
:1034C000FE01E257FF4F10820BC0FE01E257FF4F93
:1034D00081E0808305C0FE01E257FF4F81E08083D9
:1034E000FE01E257FF4F8081C356DF4F0FB6F894BD
:1034F000DEBF0FBECDBFCF91DF911F910F91089519
:103500000F931F93DF93CF93CDB7DEB7CD59D04044
:103510000FB6F894DEBF0FBECDBFFE01E556FF4FDC
:1035200091838083FE01E356FF4F6083FE01E257E3
:10353000FF4F81E08083FE01E357FF4F81E08083EE
:10354000FE01E556FF4F80819181009709F42FC756
:10355000FE01E556FF4F0190F081E02D8181FE01D3
:10356000E556FF4F0190F081E02D9381FE01E15778
:10357000FF4F8083FE01E157FF4F9183FE01E1572A
:10358000FF4F81E08283FE01E157FF4F1382FE016E
:10359000E556FF4F0190F081E02D8181FE01E55657
:1035A000FF4F0190F081E02D9481FE01ED56FF4F19
:1035B0008083FE01ED56FF4F9183FE01ED56FF4FD4
:1035C00081E08283FE01ED56FF4F1382FE01E55636
:1035D000FF4F0190F081E02D8181FE01E556FF4F04
:1035E0000190F081E02D9581FE01E956FF4F808327
:1035F000FE01E956FF4F9183FE01E956FF4F81E03E
:103600008283FE01E956FF4F1382CE0181579F4FFF
:1036100061E00E94E108FE01E357FF4F8083FE0155
:10362000E357FF4F8081882359F4CE018D569F4F79
:1036300060E00E94E108FE01E357FF4F808305C070
:10364000FE01E257FF4F81E08083FE01E757FF4F05
:1036500080E090E0A0EFB1E480839183A283B38304
:103660008E010B571F4FFE01E757FF4F608171819D
:103670008281938120E030E04AEF54E40E941F02EF
:10368000DC01CB01F80180839183A283B383FE0127
:10369000EB57FF4F608171818281938120E030E0A0
:1036A00040E85FE30E947903882344F4FE01ED576C
:1036B000FF4F81E090E09183808364C0FE01EB576F
:1036C000FF4F608171818281938120E03FEF4FE75E
:1036D00057E40E94190318160CF043C0FE01E75787
:1036E000FF4F608171818281938120E030E040E270
:1036F00051E40E941F02DC01CB018E010D571F4FC8
:10370000BC01CD010E944900DC01CB01F80191838D
:1037100080831FC0FE01EF57FF4F88EC90E091833C
:103720008083FE01EF57FF4F808191810197F1F770
:10373000FE01EF57FF4F91838083DE01AD57BF4FEE
:10374000FE01ED57FF4F80819181019711969C9367
:103750008E93FE01ED57FF4F808191810097D1F646
:1037600028C08E010D571F4FFE01EB57FF4F6081A0
:103770007181828193810E944900DC01CB01F801B3
:1037800091838083DE01A158BF4FFE01ED57FF4FAB
:103790008081918111969C938E93FE01E158FF4F99
:1037A000808191810197F1F7FE01E158FF4F9183EC
:1037B0008083FE01E556FF4F0190F081E02D80816E
:1037C000882309F03DC4FE01E357FF4F8081882321
:1037D00059F4CE0189569F4F61E00E94E108FE0135
:1037E000E357FF4F808305C0FE01E257FF4F81E0A2
:1037F0008083FE01E558FF4F80E090E0A0EFB1E448
:1038000080839183A283B3838E0109581F4FFE01E9
:10381000E558FF4F608171818281938120E030E023
:103820004AEF54E40E941F02DC01CB01F8018083BF
:103830009183A283B383FE01E958FF4F60817181B8
:103840008281938120E030E040E85FE30E947903C9
:10385000882344F4FE01EB58FF4F81E090E0918310
:10386000808364C0FE01E958FF4F608171818281CD
:10387000938120E03FEF4FE757E40E9419031816A9
:103880000CF043C0FE01E558FF4F608171818281D9
:10389000938120E030E040E251E40E941F02DC010D
:1038A000CB018E010B581F4FBC01CD010E94490076
:1038B000DC01CB01F801918380831FC0FE01ED582C
:1038C000FF4F88EC90E091838083FE01ED58FF4F1D
:1038D000808191810197F1F7FE01ED58FF4F9183AF
:1038E0008083DE01AB58BF4FFE01EB58FF4F808154
:1038F0009181019711969C938E93FE01EB58FF4F97
:10390000808191810097D1F627C08E010B581F4FFF
:10391000FE01E958FF4F60817181828193810E948D
:103920004900DC01CB01F80191838083DE01AF58AF
:10393000BF4FFE01EB58FF4F808191818D939C9387
:10394000FE01EF58FF4F808191810197F1F7FE0151
:10395000EF58FF4F91838083FE01E556FF4F0190A2
:10396000F081E02D2281FE01E356FF4F8081982FE8
:1039700092959F70822F692F0E942A0BFE01E359B6
:10398000FF4F80E090E0A0EFB1E480839183A283B9
:10399000B3838E0107591F4FFE01E359FF4F60812A
:1039A00071818281938120E030E04AEF54E40E94EB
:1039B0001F02DC01CB01F80180839183A283B383D2
:1039C000FE01E759FF4F608171818281938120E080
:1039D00030E040E85FE30E947903882344F4FE016D
:1039E000E959FF4F81E090E09183808364C0FE013C
:1039F000E759FF4F608171818281938120E03FEF21
:103A00004FE757E40E94190318160CF043C0FE015B
:103A1000E359FF4F608171818281938120E030E022
:103A200040E251E40E941F02DC01CB018E010959E2
:103A30001F4FBC01CD010E944900DC01CB01F80100
:103A4000918380831FC0FE01EB59FF4F88EC90E00B
:103A500091838083FE01EB59FF4F80819181019713
:103A6000F1F7FE01EB59FF4F91838083DE01A959E5
:103A7000BF4FFE01E959FF4F808191810197119657
:103A80009C938E93FE01E959FF4F808191810097AD
:103A9000D1F628C08E0109591F4FFE01E759FF4F8B
:103AA00060817181828193810E944900DC01CB0198
:103AB000F80191838083DE01AD59BF4FFE01E959C2
:103AC000FF4F8081918111969C938E93FE01ED5959
:103AD000FF4F808191810197F1F7FE01ED59FF4F72
:103AE00091838083FE01E357FF4F8081882359F43F
:103AF000CE0189569F4F60E00E94E108FE01E35726
:103B0000FF4F808305C0FE01E257FF4F81E08083B5
:103B1000FE01E15AFF4F80E090E0A0EFB1E4808326
:103B20009183A283B3838E01055A1F4FFE01E15A90
:103B3000FF4F608171818281938120E030E04AEF04
:103B400054E40E941F02DC01CB01F80180839183C1
:103B5000A283B383FE01E55AFF4F608171818281A8
:103B6000938120E030E040E85FE30E9479038823FE
:103B700044F4FE01E75AFF4F81E090E09183808397
:103B800064C0FE01E55AFF4F60817181828193819B
:103B900020E03FEF4FE757E40E94190318160CF09E
:103BA00043C0FE01E15AFF4F6081718182819381A0
:103BB00020E030E040E251E40E941F02DC01CB0132
:103BC0008E01075A1F4FBC01CD010E944900DC0144
:103BD000CB01F801918380831FC0FE01E95AFF4F9A
:103BE00088EC90E091838083FE01E95AFF4F808149
:103BF00091810197F1F7FE01E95AFF4F918380838C
:103C0000DE01A75ABF4FFE01E75AFF4F8081918125
:103C1000019711969C938E93FE01E75AFF4F808186
:103C200091810097D1F628C08E01075A1F4FFE01DF
:103C3000E55AFF4F60817181828193810E94490022
:103C4000DC01CB01F80191838083DE01AB5ABF4FC9
:103C5000FE01E75AFF4F8081918111969C938E93CC
:103C6000FE01EB5AFF4F808191810197F1F7FE0130
:103C7000EB5AFF4F91838083FE01E357FF4F808112
:103C8000882359F4CE0189569F4F61E00E94E108D4
:103C9000FE01E357FF4F808305C0FE01E257FF4F4F
:103CA00081E08083FE01EF5AFF4F80E090E0A0EFBB
:103CB000B1E480839183A283B3838E01035B1F4FA2
:103CC000FE01EF5AFF4F608171818281938120E074
:103CD00030E04AEF54E40E941F02DC01CB01F801FE
:103CE00080839183A283B383FE01E35BFF4F6081F6
:103CF00071818281938120E030E040E85FE30E949F
:103D00007903882344F4FE01E55BFF4F81E090E0F6
:103D10009183808364C0FE01E35BFF4F608171810A
:103D20008281938120E03FEF4FE757E40E9419031F
:103D300018160CF043C0FE01EF5AFF4F60817181ED
:103D40008281938120E030E040E251E40E941F0232
:103D5000DC01CB018E01055B1F4FBC01CD010E9430
:103D60004900DC01CB01F801918380831FC0FE0173
:103D7000E75BFF4F88EC90E091838083FE01E75B77
:103D8000FF4F808191810197F1F7FE01E75BFF4FC3
:103D900091838083DE01A55BBF4FFE01E55BFF4F92
:103DA00080819181019711969C938E93FE01E55B32
:103DB000FF4F808191810097D1F627C08E01055B6E
:103DC0001F4FFE01E35BFF4F608171818281938110
:103DD0000E944900DC01CB01F80191838083DE0160
:103DE000A95BBF4FFE01E55BFF4F808191818D9301
:103DF0009C93FE01E95BFF4F808191810197F1F770
:103E0000FE01E95BFF4F91838083FE01E556FF4F82
:103E10000190F081E02D8281FE01E356FF4F608129
:103E20000E942A0BFE01ED5BFF4F80E090E0A0EFC7
:103E3000B1E480839183A283B3838E01015C1F4F21
:103E4000FE01ED5BFF4F608171818281938120E0F3
:103E500030E04AEF54E40E941F02DC01CB01F8017C
:103E600080839183A283B383FE01FF966081718179
:103E70008281938120E030E040E85FE30E94790393
:103E800088232CF481E090E09EAF8DAF46C0FE0108
:103E9000FF96608171818281938120E03FEF4FE73F
:103EA00057E40E941903181664F5FE01ED5BFF4FFD
:103EB000608171818281938120E030E040E251E4B1
:103EC0000E941F02DC01CB01BC01CD010E94490010
:103ED000DC01CB019EAF8DAF0FC088EC90E09CAFB2
:103EE0008BAF8BAD9CAD0197F1F79CAF8BAF8DADD8
:103EF0009EAD01979EAF8DAF8DAD9EAD009769F7DA
:103F000016C0FE01FF9660817181828193810E94BB
:103F10004900DC01CB019EAF8DAF8DAD9EAD9AAF58
:103F200089AF89AD9AAD0197F1F79AAF89AFFE01DC
:103F3000E357FF4F8081882359F4CE0189569F4F64
:103F400060E00E94E108FE01E357FF4F808305C057
:103F5000FE01E257FF4F81E0808380E090E0A0EF18
:103F6000B1E48DAB9EABAFABB8AF6DA97EA98FA905
:103F700098AD20E030E04AEF54E40E941F02DC01DB
:103F8000CB0189AB9AABABABBCAB69A97AA98BA9C6
:103F90009CA920E030E040E85FE30E947903882399
:103FA0002CF481E090E098AB8FA73FC069A97AA973
:103FB0008BA99CA920E03FEF4FE757E40E9419032B
:103FC00018164CF56DA97EA98FA998AD20E030E0B8
:103FD00040E251E40E941F02DC01CB01BC01CD0193
:103FE0000E944900DC01CB0198AB8FA70FC088EC81
:103FF00090E09EA78DA78DA59EA50197F1F79EA79E
:104000008DA78FA598A9019798AB8FA78FA598A981
:10401000009769F7BBC169A97AA98BA99CA90E94DD
:104020004900DC01CB0198AB8FA78FA598A99CA76D
:104030008BA78BA59CA50197F1F79CA78BA7A6C181
:10404000FE01E556FF4F0190F081E02D8081813027
:1040500009F097C1FE01E357FF4F8081882359F48F
:10406000CE0189569F4F61E00E94E108FE01E357AF
:10407000FF4F808305C0FE01E257FF4F81E0808340
:1040800080E090E0A0E8BFE38FA398A7A9A7BAA714
:104090006FA178A589A59AA520E030E04AEF54E405
:1040A0000E941F02DC01CB018BA39CA3ADA3BEA386
:1040B0006BA17CA18DA19EA120E030E040E85FE3F0
:1040C0000E94790388232CF481E090E09AA389A3CD
:1040D0003FC06BA17CA18DA19EA120E03FEF4FE7E7
:1040E00057E40E94190318164CF56FA178A589A50D
:1040F0009AA520E030E040E251E40E941F02DC017A
:10410000CB01BC01CD010E944900DC01CB019AA387
:1041100089A30FC088EC90E098A38F8F8F8D98A112
:104120000197F1F798A38F8F89A19AA101979AA37C
:1041300089A389A19AA1009769F714C06BA17CA1FA
:104140008DA19EA10E944900DC01CB019AA389A305
:1041500089A19AA19E8F8D8F8D8D9E8D0197F1F7EC
:104160009E8F8D8FFE01E556FF4F0190F081E02D6F
:104170009281FE01E356FF4F8081282F30E040E01E
:1041800050E0892FBA01A9010E94760B80E090E0EF
:10419000A0E8BFE3898F9A8FAB8FBC8F698D7A8D32
:1041A0008B8D9C8D20E030E04AEF54E40E941F028A
:1041B000DC01CB018D8B9E8BAF8BB88F6D897E8997
:1041C0008F89988D20E030E040E85FE30E9479031A
:1041D00088232CF481E090E09C8B8B8B3FC06D8911
:1041E0007E898F89988D20E03FEF4FE757E40E944A
:1041F000190318164CF5698D7A8D8B8D9C8D20E0F6
:1042000030E040E251E40E941F02DC01CB01BC011E
:10421000CD010E944900DC01CB019C8B8B8B0FC030
:1042200088EC90E09A8B898B89899A890197F1F7BC
:104230009A8B898B8B899C8901979C8B8B8B8B8923
:104240009C89009769F714C06D897E898F89988D44
:104250000E944900DC01CB019C8B8B8B8B899C8954
:10426000988B8F878F8598890197F1F7988B8F8727
:10427000FE01E357FF4F8081882359F4CE01895610
:104280009F4F60E00E94E108FE01E357FF4F8083EB
:1042900005C0FE01E257FF4F81E0808380E090E09F
:1042A000A0E8BFE38B879C87AD87BE876B857C8545
:1042B0008D859E8520E030E04AEF54E40E941F0285
:1042C000DC01CB018F839887A987BA876F817885B6
:1042D00089859A8520E030E040E85FE30E94790319
:1042E00088232CF481E090E09E838D833FC06F8112
:1042F000788589859A8520E03FEF4FE757E40E9453
:10430000190318164CF56B857C858D859E8520E0FC
:1043100030E040E251E40E941F02DC01CB01BC010D
:10432000CD010E944900DC01CB019E838D830FC02B
:1043300088EC90E09C838B838B819C810197F1F7C3
:104340009C838B838D819E8101979E838D838D813C
:104350009E81009769F71AC06F81788589859A8553
:104360000E944900DC01CB019E838D838D819E815B
:104370009A83898389819A810197F1F79A83898346
:1043800005C0FE01E257FF4F83E08083FE01E35743
:10439000FF4F8081882329F4FE01E257FF4F1082EE
:1043A0000BC0FE01E257FF4F81E0808305C0FE0194
:1043B000E257FF4F81E08083FE01E257FF4F80818B
:1043C000C356DF4F0FB6F894DEBF0FBECDBFCF91FF
:1043D000DF911F910F910895DF93CF9300D000D00C
:1043E00000D0CDB7DEB79C838B837E836D8381E065
:1043F0008A838B819C81009769F1EB81FC818081AC
:10440000882351F1EB81FC818081813001F5198293
:1044100012C08981282F30E08D819E81FC01E20F3E
:10442000F31F20818B819C81622F0E94801A8A83D6
:1044300089818F5F89838981282F30E08D819E81DA
:10444000FC01E20FF31F8081882319F705C083E088
:104450008A8302C082E08A838A8126960FB6F89406
:10446000DEBF0FBECDBFCF91DF910895DF93CF9315
:10447000CDB7DEB76B970FB6F894DEBF0FBECDBFDA
:104480009F8B8E8B488F598F6A8F7B8F81E08983BA
:104490008E899F89009701F1EE89FF8980818823A9
:1044A000E9F0EE89FF898081813099F4888D998DBA
:1044B0009E012E5F3F4FB9014AE050E00E948C25DB
:1044C0008E899F899E012E5F3F4FB9010E94EC218A
:1044D00005C083E0898302C082E0898389816B966D
:1044E0000FB6F894DEBF0FBECDBFCF91DF91089518
:1044F000DF93CF9300D000D00F92CDB7DEB79B8370
:104500008A836C834D8381E089838A819B810097B4
:1045100091F1EA81FB818081882379F1EA81FB8135
:104520008081813029F58C81882371F48D818031DF
:1045300058F48D818F708068282F8A819B81622F2B
:104540000E941413898319C08C81813071F48D818C
:10455000803158F48D818F70806C282F8A819B81E7
:10456000622F0E941413898308C084E0898305C0E8
:1045700083E0898302C082E0898389810F900F9054
:104580000F900F900F90CF91DF910895DF93CF930D
:1045900000D000D000D0CDB7DEB79C838B836D8375
:1045A0004E8381E08A838B819C81009731F18E81DB
:1045B0008C3119F08E818831E9F4EB81FC818081A6
:1045C0008823E9F0EB81FC818081813081F41982BC
:1045D00009C08B819C816E810E9414138A8389811A
:1045E0008F5F898399818D81981798F308C083E044
:1045F0008A8305C084E08A8302C082E08A838A813C
:1046000026960FB6F894DEBF0FBECDBFCF91DF91D7
:104610000895DF93CF93CDB7DEB727970FB6F89401
:10462000DEBF0FBECDBF9C838B837E836D834F83A4
:1046300081E08A838B819C81009709F44FC08D8132
:104640009E81009709F44AC08F81883008F043C0EA
:10465000EB81FC818081882309F442C0EB81FC81DD
:1046600080818130A9F58F81882F90E0880F991F74
:10467000880F991F880F991F8064282F8B819C8138
:10468000622F0E9414138A838A818823D1F41982AD
:1046900015C08981282F30E08D819E81FC01E20FB9
:1046A000F31F20818B819C81622F0E94801A8A8354
:1046B0008A81882331F489818F5F89838981883059
:1046C00040F38B819C8160E80E9414138A8308C0A8
:1046D00083E08A8305C084E08A8302C082E08A8303
:1046E0008A8127960FB6F894DEBF0FBECDBFCF915B
:1046F000DF910895DF93CF9300D00F92CDB7DEB74F
:104700009B838A8381E089838A819B8161E00E9407
:10471000141389838981882339F48A819B8160E01D
:1047200040E00E947822898389810F900F900F903A
:10473000CF91DF910895DF93CF93CDB7DEB72E975A
:104740000FB6F894DEBF0FBECDBF9E878D8781E088
:104750008C8381E08B838D859E85009709F488C0CA
:104760001A823BC08A81282F30E08D859E85820F7A
:10477000931FFC01349640818A81282F30E08D857B
:104780009E85FC01E20FF31F80814D838E8381E0C3
:104790008F8381E08887CE0105960E942F088B8346
:1047A0008B818823B9F48A81882F90E0880F991F24
:1047B000880F991FFC01E852FF4F8D819E81AF81C8
:1047C000B88580839183A283B3831C828A818F5FA3
:1047D0008A8303C081E08C8303C08A81843010F215
:1047E0008B81882309F041C019823BC08981282F21
:1047F00030E08D859E85820F931FFC013C964081A1
:104800008981282F30E08D859E85820F931FFC01C2
:104810003896808149878A871B8681E08C87CE0104
:1048200009960E942F088B838B818823B9F4898194
:10483000882F90E0880F991F880F991FFC01E8517D
:10484000FF4F89859A85AB85BC8580839183A28340
:10485000B3831C8289818F5F898303C081E08C834D
:1048600009C08981843010F205C081E08C8302C0C8
:1048700082E08C838C812E960FB6F894DEBF0FBE3B
:10488000CDBFCF91DF910895DF93CF93CDB7DEB742
:1048900027970FB6F894DEBF0FBECDBF9F838E83E0
:1048A00081E08C8381E08B838E819F81009709F466
:1048B00069C01A8262C08A81882F90E0880F991F90
:1048C000880F991F88529F4F60E00E94E1088B83F8
:1048D00019823FC08981882F90E0880F991F880F27
:1048E000991F88519F4F9E012B5F3F4FB9010E9436
:1048F00066098B838D81882349F510C08981882FB3
:1049000090E0880F991F880F991F88519F4F9E0133
:104910002B5F3F4FB9010E9466098B838D818823ED
:1049200069F38A81482F50E08981282F30E0CA013D
:10493000880F991F880F991F820F931FFC01E6565D
:10494000FF4F8081EE81FF81808307C089818F5F67
:1049500089838981843008F4BDCF8A81882F90E0D3
:10496000880F991F880F991F88529F4F61E00E94FE
:10497000E1088B838A818F5F8A838A81843008F47F
:104980009ACF02C082E08C838C8127960FB6F89470
:10499000DEBF0FBECDBFCF91DF910895DF93CF93E0
:1049A000CDB7DEB78AEA90E00E94C30B88EB90E0B7
:1049B0000E949B23CF91DF910895DF93CF93CDB7D2
:1049C000DEB70E94A305FDCFDF93CF93CDB7DEB74F
:1049D0000E94CE240E94DD24CF91DF910895629F32
:1049E000D001739FF001829FE00DF11D649FE00DE7
:1049F000F11D929FF00D839FF00D749FF00D659F48
:104A0000F00D9927729FB00DE11DF91F639FB00D46
:104A1000E11DF91FBD01CF0111240895A1E21A2E55
:104A2000AA1BBB1BFD010DC0AA1FBB1FEE1FFF1F52
:104A3000A217B307E407F50720F0A21BB30BE40BA2
:104A4000F50B661F771F881F991F1A9469F76095E9
:104A50007095809590959B01AC01BD01CF010895A3
:104A60002F923F924F925F926F927F928F929F927E
:104A7000AF92BF92CF92DF92EF92FF920F931F936C
:104A8000CF93DF93CDB7DEB7CA1BDB0B0FB6F8941D
:104A9000DEBF0FBECDBF09942A88398848885F845D
:104AA0006E847D848C849B84AA84B984C884DF80CE
:104AB000EE80FD800C811B81AA81B981CE0FD11DB2
:104AC0000FB6F894DEBF0FBECDBFED010895FC0117
:104AD00088279927E89421912032E9F3293010F0B2
:104AE0002E30C8F32B3241F02D3239F4689404C0D3
:104AF0000E94AD25820F911D219120532A30C0F3D1
:104B00001EF4909581959F4F0895DC0101C06D932F
:104B100041505040E0F70895FB019F01E894423076
:104B2000C4F04532B4F44A3029F497FB1EF4909552
:104B300081959F4F642F77270E94C525805D8A331A
:104B40000CF0895D8193CB010097A1F716F45DE22B
:104B500051931082C9010C94B5257AE0979F902D4E
:104B6000879F802D910D11240895DC01FC01672F92
:104B700071917723E1F7329704C07C916D93708334
:104B80006291AE17BF07C8F30895AA1BBB1B51E182
:104B900007C0AA1FBB1FA617B70710F0A61BB70BAD
:104BA000881F991F5A95A9F780959095BC01CD0152
:064BB0000895F894FFCF08
:104BB600496E76616C696420496E70757400547232
:104BC6007920416761696E00000000000000000066
:104BD60023233A003700340031003B00380035000B
:104BE600320039003600330030003738392F34357B
:104BF600362A3132332D63303D2B0102000001028B
:104C06000001020304050607000102030303030370
:084C1600040506070303030374
:00000001FF
