:100000000C942A000C943F000C943F000C943F0089
:100010000C943F000C943F000C943F000C943F0064
:100020000C943F000C943F000C943F000C943F0054
:100030000C943F000C943F000C943F000C943F0044
:100040000C943F000C943F000C943F000C943F0034
:100050000C943F0011241FBECFE5D8E0DEBFCDBF1A
:1000600011E0A0E6B0E0ECEAF9E202C005900D92E2
:10007000A032B107D9F70E9494140C94D4140C94B4
:100080000000EF92FF920F931F937B018C0120E001
:1000900030E040E05FE40E94410388238CF0C80117
:1000A000B70120E030E040E05FE40E94B9010E9427
:1000B000A1039B01AC01205030404040504806C095
:1000C000C801B7010E94A1039B01AC01B901CA019B
:1000D0001F910F91FF90EF900895A0E0B0E0E3E74B
:1000E000F0E00C949D14DC012B01FA019C919230FC
:1000F00008F439C1EB018881823008F433C19430AF
:1001000069F4843009F02FC111969C91119789816F
:10011000981709F428C1A0E6B0E025C1843009F49D
:1001200021C18230A9F4923009F01DC19A01AD01BC
:1001300088E0EA010990AE01E90109929E0181502F
:10014000C1F7E201898111969C918923818308C1BD
:10015000923009F407C112962D903C901397EB0151
:100160008A819B811496AD90BD90CD90DC901797BD
:10017000EC80FD800E811F819101281B390BB90194
:1001800037FF04C066277727621B730B6032710547
:100190000CF061C0121613066CF537014801062EEB
:1001A00004C096948794779467940A94D2F721E0D8
:1001B00030E040E050E004C0220F331F441F551FC1
:1001C0006A95D2F721503040404050402E213F21C7
:1001D00040235123211531054105510521F021E02E
:1001E00030E040E050E079018A01E628F72808294C
:1001F00019293CC0232BD1F1260E371E35014601AB
:10020000062E04C096948794779467940A94D2F744
:1002100021E030E040E050E004C0220F331F441FD3
:10022000551F6A95D2F721503040404050402A2156
:100230003B214C215D21211531054105510521F05E
:1002400021E030E040E050E059016A01A628B728DB
:10025000C828D9280BC0821593052CF01C01AA24AC
:10026000BB24650103C0EE24FF24870111969C91F5
:10027000D20111968C91981709F445C0992339F051
:10028000A80197012A193B094C095D0906C0A6017E
:1002900095012E193F09400B510B57FD08C01182E3
:1002A0003382228224833583468357831DC081E0B5
:1002B00081833382228288279927DC01821B930B5A
:1002C000A40BB50B84839583A683B7830DC0220F3F
:1002D000331F441F551F24833583468357838281F0
:1002E000938101979383828324813581468157814D
:1002F000DA01C9010197A109B1098F5F9F4FAF4F83
:10030000BF4328F30BC0918333822282EA0CFB1C8B
:100310000C1D1D1DE482F5820683178383E0808314
:10032000248135814681578157FF1AC0C901AA2708
:1003300097FDA095BA2F81709070A070B0705695FF
:10034000479537952795822B932BA42BB52B848328
:100350009583A683B7838281938101969383828359
:10036000DF0101C0D201CD01CDB7DEB7E2E10C94CF
:10037000B914A0E2B0E0EFEBF1E00C94A9146983AA
:100380007A838B839C832D833E834F835887E9E058
:10039000EE2EF12CEC0EFD1ECE010196B7010E944F
:1003A000CA048E010F5E1F4FCE010596B8010E9450
:1003B000CA048A8991E089278A8BC701B801AE01F6
:1003C000475E5F4F0E946D000E94F503A096E6E035
:1003D0000C94C514A0E2B0E0E0EFF1E00C94A91495
:1003E00069837A838B839C832D833E834F835887D5
:1003F000F9E0EF2EF12CEC0EFD1ECE010196B701B7
:100400000E94CA048E010F5E1F4FCE010596B801EF
:100410000E94CA04C701B801AE01475E5F4F0E9447
:100420006D000E94F503A096E6E00C94C514A0E2CE
:10043000B0E0EDE1F2E00C949D1469837A838B8344
:100440009C832D833E834F835887CE010196BE0146
:10045000675F7F4F0E94CA04CE010596BE016F5EA2
:100460007F4F0E94CA049985923088F08989823032
:10047000C8F0943019F4823051F404C0843029F467
:10048000923081F480E690E0C6C0923049F420E0DA
:100490009A858A89981321E02A87CE010996BBC0E4
:1004A000823049F420E09A858A89981321E02A8BCA
:1004B000CE014196B0C02D843E844F8458886D880B
:1004C0007E888F88988CEE24FF248701AA24BB2481
:1004D000650140E050E060E070E0E0E0F0E0C10184
:1004E00081709070892BE9F0E60CF71C081D191D2E
:1004F0009A01AB012A0D3B1D4C1D5D1D80E090E073
:10050000A0E0B0E0E614F7040805190520F481E046
:1005100090E0A0E0B0E0BA01A901480F591F6A1F9E
:100520007B1FAA0CBB1CCC1CDD1C97FE08C081E005
:1005300090E0A0E0B0E0A82AB92ACA2ADB2A3196C6
:10054000E032F10549F0660C771C881C991C569422
:10055000479437942794C3CFFA85EA892B893C893D
:100560008B859C85280F391F2E5F3F4F17C0CA010E
:1005700081709070892B61F016950795F794E79438
:1005800080E090E0A0E0B0E8E82AF92A0A2B1B2BD3
:1005900076956795579547952F5F3F4F77FDE7CF46
:1005A0000CC0440F551F661F771F17FD4160EE0CEE
:1005B000FF1C001F111F21503040403090E05907B0
:1005C00090E0690790E4790760F32B8F3C8FDB01A3
:1005D000CA018F779070A070B07080349105A1052A
:1005E000B10561F447FD0AC0E114F10401051105EC
:1005F00029F0405C5F4F6F4F7F4F40781A8EFE1797
:1006000011F081E08A8F4D8F5E8F6F8F78A383E02A
:10061000898FCE0149960E94F503A096E2E10C94E1
:10062000B914A8E1B0E0E7E1F3E00C94A914698300
:100630007A838B839C832D833E834F83588789E005
:10064000E82EF12CEC0EFD1ECE010196B7010E94A2
:10065000CA048E010F5E1F4FCE010596B8010E949D
:10066000CA048985823040F08989823028F0C70128
:10067000B8010E94420501C08FEF6896E6E00C9435
:10068000C514A8E1B0E0E7E4F3E00C94A914698391
:100690007A838B839C832D833E834F83588789E0A5
:1006A000E82EF12CEC0EFD1ECE010196B7010E9442
:1006B000CA048E010F5E1F4FCE010596B8010E943D
:1006C000CA048985823040F08989823028F0C701C8
:1006D000B8010E94420501C08FEF6896E6E00C94D5
:1006E000C514A8E1B0E0E7E7F3E00C94A91469832E
:1006F0007A838B839C832D833E834F83588789E045
:10070000E82EF12CEC0EFD1ECE010196B7010E94E1
:10071000CA048E010F5E1F4FCE010596B8010E94DC
:10072000CA048985823040F08989823028F0C70167
:10073000B8010E94420501C081E06896E6E00C9491
:10074000C514ACE0B0E0E7EAF3E00C94AD146983C3
:100750007A838B839C83CE010196BE016B5F7F4FB2
:100760000E94CA048D81823061F1823050F1843060
:1007700021F48E81882351F12EC02F81388537FDD9
:1007800020C06E812F3131051CF06623F9F023C0A3
:100790008EE190E0821B930B29853A854B855C8521
:1007A00004C056954795379527958A95D2F76623C5
:1007B000B1F050954095309521953F4F4F4F5F4F89
:1007C0000EC020E030E040E050E009C02FEF3FEFE6
:1007D0004FEF5FE704C020E030E040E050E8B901AF
:1007E000CA012C96E2E00C94C914DF92EF92FF92BA
:1007F0000F931F93FC01E480F58006811781D1805F
:100800008081823048F480E090E0A0E1B0E0E82A06
:10081000F92A0A2B1B2BA5C0843009F49FC0823013
:1008200021F4EE24FF24870105C0E114F104010541
:10083000110519F4E0E0F0E096C0628173819FEF4A
:10084000623879070CF05BC022E83FEF261B370BBC
:100850002A3131052CF020E030E040E050E02AC0A1
:10086000B801A701022E04C0769567955795479564
:100870000A94D2F781E090E0A0E0B0E004C0880FD5
:10088000991FAA1FBB1F2A95D2F70197A109B10989
:100890008E219F21A023B1230097A105B10521F04E
:1008A00081E090E0A0E0B0E09A01AB01282B392B69
:1008B0004A2B5B2BDA01C9018F779070A070B07062
:1008C00080349105A105B10539F427FF09C0205CEA
:1008D0003F4F4F4F5F4F04C0215C3F4F4F4F5F4F23
:1008E000E0E0F0E02030A0E03A07A0E04A07A0E412
:1008F0005A0710F0E1E0F0E079018A0127C0603882
:10090000710564F5FB01E158FF4FD801C7018F77EE
:100910009070A070B07080349105A105B10539F4D4
:10092000E7FE0DC080E490E0A0E0B0E004C08FE3FB
:1009300090E0A0E0B0E0E80EF91E0A1F1B1F17FFB1
:1009400005C016950795F794E794319687E01695BC
:100950000795F794E7948A95D1F705C0EE24FF2414
:100960008701EFEFF0E06E2F679566276795902F70
:100970009F77D794DD24D7948E2F8695492F462BC9
:10098000582F5D29B701CA011F910F91FF90EF9079
:10099000DF900895FC01DB01408151812281622FAB
:1009A0006F7770E0221F2227221F9381892F880FE3
:1009B000822B282F30E0991F9927991F11969C931D
:1009C000119721153105A9F54115510561057105ED
:1009D00011F482E037C082E89FEF13969C938E93C8
:1009E00012979A01AB0167E0220F331F441F551F76
:1009F0006A95D1F783E08C930DC0220F331F441FFB
:100A0000551F12968D919C911397019713969C9365
:100A10008E931297203080E0380780E0480780E40A
:100A2000580758F314962D933D934D935C93179765
:100A300008952F3F310579F4411551056105710580
:100A400019F484E08C93089564FF03C081E08C93D3
:100A500012C01C9210C02F57304013963C932E9317
:100A6000129783E08C9387E0440F551F661F771F12
:100A70008A95D1F7706414964D935D936D937C9332
:100A8000179708951F93DC01FB019C91923008F4A5
:100A900047C08081823008F443C0943051F41196ED
:100AA0001C91843099F58181682F70E0611B710978
:100AB0003FC0843021F0923031F48230B9F181812D
:100AC000882389F12DC011961C9111978230F1F085
:100AD00081811817D9F412962D913C911397828138
:100AE00093818217930794F028173907BCF0149666
:100AF0008D919D910D90BC91A02D248135814681D1
:100B00005781281739074A075B0718F4112341F06A
:100B10000AC082179307A407B50740F4112319F000
:100B200061E070E005C06FEF7FEF02C060E070E051
:100B3000CB011F910895DF93CF9300D00F92CDB7D3
:100B4000DEB79B838A8381E089838A819B810097BA
:100B5000B1F0EA81FB8122818A819B81622F0E9410
:100B6000C80589838981882361F4EA81FB81238117
:100B70008A819B81622F0E944D06898302C082E098
:100B8000898389810F900F900F90CF91DF91089505
:100B9000DF93CF9300D000D000D0CDB7DEB79B83DA
:100BA0008A836C8381E089838A819B81009709F421
:100BB00068C08C81282F30E03E832D838D819E81FB
:100BC000009731F02D813E812130310571F15BC0FC
:100BD000EA81FB818081882F90E0880F991FFC01BA
:100BE000E859FF4FA081B181EA81FB818081882F84
:100BF00090E0880F991FFC01E859FF4F0190F081A8
:100C0000E02D8081482FEA81FB818181282F30E00F
:100C100081E090E0022E02C0880F991F0A94E2F74B
:100C2000809584238C9319822EC0EA81FB81808178
:100C3000882F90E0880F991FFC01E859FF4FA08191
:100C4000B181EA81FB818081882F90E0880F991F14
:100C5000FC01E859FF4F0190F081E02D8081482F81
:100C6000EA81FB818181282F30E081E090E0022E33
:100C700002C0880F991F0A94E2F7842B8C93198283
:100C800002C082E08983898126960FB6F894DEBF80
:100C90000FBECDBFCF91DF910895DF93CF9300D0EA
:100CA00000D000D0CDB7DEB79B838A836C8381E010
:100CB00089838A819B81009709F468C08C81282FE1
:100CC00030E03E832D838D819E81009731F02D8110
:100CD0003E812130310571F15BC0EA81FB81808169
:100CE000882F90E0880F991FFC01E059FF4FA081E9
:100CF000B181EA81FB818081882F90E0880F991F64
:100D0000FC01E059FF4F0190F081E02D8081482FD8
:100D1000EA81FB818181282F30E081E090E0022E82
:100D200002C0880F991F0A94E2F7809584238C9360
:100D300019822EC0EA81FB818081882F90E0880F84
:100D4000991FFC01E059FF4FA081B181EA81FB812D
:100D50008081882F90E0880F991FFC01E059FF4F98
:100D60000190F081E02D8081482FEA81FB81818113
:100D7000282F30E081E090E0022E02C0880F991FFA
:100D80000A94E2F7842B8C93198202C082E0898353
:100D9000898126960FB6F894DEBF0FBECDBFCF91E6
:100DA000DF910895DF93CF9300D000D00F92CDB79D
:100DB000DEB79B838A837D836C8381E089838A810C
:100DC0009B81009711F1EA81FB818081882F90E05F
:100DD000880F991FFC01E858FF4F0190F081E02D2A
:100DE0008081282F30E0EA81FB818181882F90E08B
:100DF000A90102C0559547958A95E2F7CA0181700D
:100E0000EC81FD818083198202C082E0898389811F
:100E10000F900F900F900F900F90CF91DF9108954A
:100E2000DF93CF9300D00F92CDB7DEB79B838A8339
:100E300081E089838A819B81009761F1EA81FB814E
:100E40008081882F90E0880F991FFC01E059FF4FA7
:100E5000A081B181EA81FB818081882F90E0880F99
:100E6000991FFC01E059FF4F0190F081E02D808136
:100E7000482FEA81FB818181282F30E081E090E0DA
:100E8000022E02C0880F991F0A94E2F784278C93E0
:100E9000198202C082E0898389810F900F900F90A0
:100EA000CF91DF910895DF93CF93CDB7DEB7289729
:100EB0000FB6F894DEBF0FBECDBF8A836B834C8321
:100EC00081E089838B81282F30E038872F838F81C1
:100ED0009885009731F02F8138852130310579F0E0
:100EE0001CC08A81882F90E0880F991FFC01E85967
:100EF000FF4F0190F081E02D108219820EC08A818F
:100F0000882F90E0880F991FFC01E859FF4F01904E
:100F1000F081E02D8FEF808319828C81282F30E0C3
:100F20003E832D838D819E81009731F02D813E81FE
:100F30002130310579F01CC08A81882F90E0880F1C
:100F4000991FFC01E059FF4F0190F081E02D1082C4
:100F500019820EC08A81882F90E0880F991FFC01AA
:100F6000E059FF4F0190F081E02D8FEF80831982CF
:100F7000898128960FB6F894DEBF0FBECDBFCF9102
:100F8000DF910895DF93CF9300D000D00F92CDB7BB
:100F9000DEB78A836B8381E089838B81282F30E0E1
:100FA0003D832C838C819D81009731F02C813D8184
:100FB0002130310579F01CC08A81882F90E0880F9C
:100FC000991FFC01E859FF4F0190F081E02D10823C
:100FD00019820EC08A81882F90E0880F991FFC012A
:100FE000E859FF4F0190F081E02D8FEF8083198247
:100FF00089810F900F900F900F900F90CF91DF91FC
:101000000895DF93CF9300D000D00F92CDB7DEB715
:101010008A836B8381E089838B81282F30E03D8335
:101020002C838C819D81009731F02C813D81213072
:10103000310579F01CC08A81882F90E0880F991FB4
:10104000FC01E059FF4F0190F081E02D10821982E0
:101050000EC08A81882F90E0880F991FFC01E0590B
:10106000FF4F0190F081E02D8FEF808319828981FD
:101070000F900F900F900F900F90CF91DF910895E8
:10108000DF93CF9300D000D0CDB7DEB78A837C83C7
:101090006B8381E089838A81882F90E0880F991F74
:1010A000FC01E858FF4F0190F081E02D8081EB8139
:1010B000FC818083198289810F900F900F900F908F
:1010C000CF91DF910895DF93CF9300D0CDB7DEB7F6
:1010D0008A8381E089838A81882F90E0880F991F15
:1010E000FC01E859FF4FA081B1818A81882F90E0EF
:1010F000880F991FFC01E859FF4F0190F081E02D06
:1011000020818A81882F90E0880F991FFC01E8597F
:10111000FF4F0190F081E02D808182278C9319820E
:1011200089810F900F90CF91DF910895DF93CF9336
:10113000CDB7DEB7C454D0400FB6F894DEBF0FBEB3
:10114000CDBFFE01ED5BFF4F9183808381E08A83F9
:1011500081E08983FE01ED5BFF4F808191810097E3
:1011600009F4D2C1FE01ED5BFF4F0190F081E02D4B
:101170008081813009F0DFC0FE01ED5BFF4F0190FF
:10118000F081E02D9785FE01ED5BFF4F0190F0812E
:10119000E02D80899B838C8381E08D8381E08E8329
:1011A000FE01ED5BFF4F0190F081E02D9181FE018A
:1011B000ED5BFF4F0190F081E02D82819F83888756
:1011C00081E0898781E08A87FE01ED5BFF4F019016
:1011D000F081E02D9381FE01ED5BFF4F0190F081E6
:1011E000E02D84819B878C8781E08D8781E08E87CD
:1011F000FE01ED5BFF4F0190F081E02D9581FE0136
:10120000ED5BFF4F0190F081E02D86819F87888BF9
:1012100081E0898B81E08A8BFE01ED5BFF4F0190BD
:10122000F081E02D9781FE01ED5BFF4F0190F08191
:10123000E02D80859B8B8C8B81E08D8B81E08E8B6C
:10124000FE01ED5BFF4F0190F081E02D9185FE01E5
:10125000ED5BFF4F0190F081E02D82859F8B888FA1
:1012600081E0898F81E08A8FFE01ED5BFF4F019065
:10127000F081E02D9385FE01ED5BFF4F0190F08141
:10128000E02D84859B8F8C8F81E08D8F81E08E8F08
:10129000FE01ED5BFF4F0190F081E02D9585FE0191
:1012A000ED5BFF4F0190F081E02D86859F8F88A335
:1012B00081E089A381E08AA3CE0103960E949B0569
:1012C00089838981882329F4CE0107960E949B0592
:1012D00089838981882321F4CE010B960E949B0586
:1012E0008981882321F4CE010F960E949B05898174
:1012F000882321F4CE0143960E949B05898188238F
:1013000021F4CE0147960E949B058981882321F410
:10131000CE014B960E949B058981882321F4CE0142
:101320004F960E949B058981882311F41A82EEC092
:1013300081E08A83EBC0FE01ED5BFF4F0190F081FD
:10134000E02D8081882309F0E1C0FE01ED5BFF4FB5
:101350000190F081E02D9785FE01ED5BFF4F01903C
:10136000F081E02D80899BA38CA381E08DA31EA238
:10137000FE01ED5BFF4F0190F081E02D9181FE01B8
:10138000ED5BFF4F0190F081E02D82819FA388A744
:1013900081E089A71AA6FE01ED5BFF4F0190F08165
:1013A000E02D9381FE01ED5BFF4F0190F081E02D78
:1013B00084819BA78CA781E08DA71EA6FE01ED5B13
:1013C000FF4F0190F081E02D9581FE01ED5BFF4F15
:1013D0000190F081E02D86819FA788AB81E089ABE9
:1013E0001AAAFE01ED5BFF4F0190F081E02D97817D
:1013F000FE01ED5BFF4F0190F081E02D80859BABFE
:101400008CAB81E08DAB1EAAFE01ED5BFF4F01901E
:10141000F081E02D9185FE01ED5BFF4F0190F081A1
:10142000E02D82859FAB88AF81E089AF1AAEFE01C7
:10143000ED5BFF4F0190F081E02D9385FE01ED5BA8
:10144000FF4F0190F081E02D84859BAF8CAF81E050
:101450008DAF1EAEFE01ED5BFF4F0190F081E02DE0
:101460008585FE01ED5BFF4F0190F081E02D9685B3
:10147000FE01FF968083FE01FF969183FE01FF9699
:1014800081E08283FE01FF961382CE0183960E9443
:101490009B0589838981882329F4CE0187960E9440
:1014A0009B0589838981882321F4CE018B960E9434
:1014B0009B058981882321F4CE018F960E949B058C
:1014C0008981882321F4CE01C3960E949B058981DE
:1014D000882321F4CE01C7960E949B058981882329
:1014E00021F4CE01CB960E949B058981882321F4AB
:1014F000CE01CF960E949B058981882311F41A8220
:1015000005C081E08A8302C082E08A838A81CC5B45
:10151000DF4F0FB6F894DEBF0FBECDBFCF91DF9186
:101520000895DF93CF93CDB7DEB7ED970FB6F8945C
:10153000DEBF0FBECDBF9CAF8BAF6DAF81E08A83A6
:1015400081E089838BAD9CAD009709F415C2EBADAA
:10155000FCAD8081813009F008C1EBADFCAD91811B
:10156000EBADFCAD82819B838C8381E08D8381E038
:101570008E83EBADFCAD9381EBADFCAD84819F839D
:10158000888781E0898781E08A87EBADFCAD958112
:10159000EBADFCAD86819B878C8781E08D8781E0F8
:1015A0008E87EBADFCAD9781EBADFCAD80859F8761
:1015B000888B81E0898B81E08A8BEBADFCAD9185D6
:1015C000EBADFCAD82859B8B8C8B81E08D8B81E0BC
:1015D0008E8BEBADFCAD9385EBADFCAD84859F8B25
:1015E000888F81E0898F81E08A8FEBADFCAD958596
:1015F000EBADFCAD86859B8F8C8F81E08D8F81E07C
:101600008E8F8DAD282F30E0C901880F991F880F6C
:10161000991F880F991F821B930BFC01EA53FF4F00
:101620002081CE010396622F0E944D068983898115
:101630008823B1F48DAD282F30E0C901880F991FA0
:10164000880F991F880F991F821B930BFC01E95388
:10165000FF4F2081CE010796622F0E944D0689839D
:1016600089818823B1F48DAD282F30E0C901880F1E
:10167000991F880F991F880F991F821B930BFC01DC
:10168000E853FF4F2081CE010B96622F0E944D063A
:10169000898389818823B1F48DAD282F30E0C90179
:1016A000880F991F880F991F880F991F821B930B12
:1016B000FC01E753FF4F2081CE010F96622F0E945D
:1016C0004D06898389818823B1F48DAD282F30E0C0
:1016D000C901880F991F880F991F880F991F821BB6
:1016E000930BFC01E653FF4F2081CE014396622FFE
:1016F0000E944D06898389818823B1F48DAD282FFE
:1017000030E0C901880F991F880F991F880F991F12
:10171000821B930BFC01E553FF4F2081CE014796BE
:10172000622F0E944D06898389818823B1F48DAD93
:10173000282F30E0C901880F991F880F991F880F43
:10174000991F821B930BFC01E453FF4F2081CE01B4
:101750004B96622F0E944D0689838981882311F45C
:101760001A820CC181E08A8309C1EBADFCAD808196
:10177000882309F003C1EBADFCAD9181EBADFCAD6D
:1017800082819F8F88A381E089A31AA2EBADFCAD73
:101790009381EBADFCAD84819BA38CA381E08DA3F1
:1017A0001EA2EBADFCAD9581EBADFCAD86819FA398
:1017B00088A781E089A71AA6EBADFCAD9781EBADB8
:1017C000FCAD80859BA78CA781E08DA71EA6EBAD05
:1017D000FCAD9185EBADFCAD82859FA788AB81E028
:1017E00089AB1AAAEBADFCAD9385EBADFCAD84855E
:1017F0009BAB8CAB81E08DAB1EAAEBADFCAD9585B0
:10180000EBADFCAD86859FAB88AF81E089AF1AAEAA
:101810008DAD282F30E0C901880F991F880F991FBF
:10182000880F991F821B930BFC01E058FF4F20810A
:10183000CE014F96622F0E944D06898389818823AD
:10184000B1F48DAD282F30E0C901880F991F880FA2
:10185000991F880F991F821B930BFC01EF57FF4FB5
:101860002081CE018396622F0E944D068983898153
:101870008823B1F48DAD282F30E0C901880F991F5E
:10188000880F991F880F991F821B930BFC01EE573D
:10189000FF4F2081CE018796622F0E944D068983DB
:1018A00089818823B1F48DAD282F30E0C901880FDC
:1018B000991F880F991F880F991F821B930BFC019A
:1018C000ED57FF4F2081CE018B96622F0E944D066F
:1018D000898389818823B1F48DAD282F30E0C90137
:1018E000880F991F880F991F880F991F821B930BD0
:1018F000FC01EC57FF4F2081CE018F96622F0E9492
:101900004D06898389818823B1F48DAD282F30E07D
:10191000C901880F991F880F991F880F991F821B73
:10192000930BFC01EB57FF4F2081CE01C396622F32
:101930000E944D06898389818823B1F48DAD282FBB
:1019400030E0C901880F991F880F991F880F991FD0
:10195000821B930BFC01EA57FF4F2081CE01C796F3
:10196000622F0E944D0689838981882311F41A828F
:1019700005C081E08A8302C082E08A838A81ED9675
:101980000FB6F894DEBF0FBECDBFCF91DF910895A3
:10199000DF93CF93CDB7DEB72C970FB6F894DEBFA9
:1019A0000FBECDBF9C878B8781E08A8381E08983CE
:1019B0008B859C850097D9F1EB85FC8580818130F2
:1019C000C9F4EB85FC859189EB85FC8582899B8335
:1019D0008C8381E08D8381E08E83CE0103960E940B
:1019E0009B0589838981882311F41A8222C081E0B2
:1019F0008A831FC0EB85FC8580818823D1F4EB8529
:101A0000FC859189EB85FC8582899F83888781E0AD
:101A100089871A86CE0107960E949B058983898152
:101A2000882311F41A8205C081E08A8302C082E013
:101A30008A838A812C960FB6F894DEBF0FBECDBF85
:101A4000CF91DF910895DF93CF93CDB7DEB72C9779
:101A50000FB6F894DEBF0FBECDBF9C878B8781E0A9
:101A60008A8381E089838B859C85009709F440C037
:101A7000EB85FC8580818130C1F4EB85FC85918903
:101A8000EB85FC8582899B838C8381E08D831E821C
:101A9000CE0103960E949B0589838981882311F4D6
:101AA0001A8228C081E08A8325C0EB85FC8580816D
:101AB000882301F5EB85FC859189EB85FC8582897E
:101AC0009F83888781E0898781E08A87CE01079696
:101AD0000E949B058983CE0107960E949B058983FE
:101AE0008981882311F41A8205C081E08A8302C0AB
:101AF00082E08A838A812C960FB6F894DEBF0FBEEF
:101B0000CDBFCF91DF910895DF93CF93CDB7DEB7EF
:101B100028970FB6F894DEBF0FBECDBF98878F838E
:101B200081E08A8381E089838F8198850097D9F04D
:101B3000EF81F8858181EF81F8859281EF81F885C9
:101B400020818B839C8381E08D832E83CE0103963D
:101B50000E949B0589838981882311F41A8205C01C
:101B600081E08A8302C082E08A838A8128960FB648
:101B7000F894DEBF0FBECDBFCF91DF910895DF9304
:101B8000CF93CDB7DEB728970FB6F894DEBF0FBE60
:101B9000CDBF98878F8381E08A8381E089838F819D
:101BA00098850097E1F0EF81F8858181EF81F885D4
:101BB0009281EF81F88520818B839C8381E08D83E6
:101BC0002E83CE01039661E00E944D0689838981B0
:101BD000882311F41A8205C081E08A8302C082E062
:101BE0008A838A8128960FB6F894DEBF0FBECDBFD8
:101BF000CF91DF910895DF93CF93CDB7DEB72897CC
:101C00000FB6F894DEBF0FBECDBF98878F8381E0FB
:101C10008A8381E089838F8198850097E1F0EF8145
:101C2000F8858181EF81F8859281EF81F8852081A7
:101C30008B839C8381E08D832E83CE01039660E0AD
:101C40000E944D0689838981882311F41A8205C078
:101C500081E08A8302C082E08A838A8128960FB657
:101C6000F894DEBF0FBECDBFCF91DF910895DF9313
:101C7000CF93CDB7DEB728970FB6F894DEBF0FBE6F
:101C8000CDBF98878F8381E08A8381E089838F81AC
:101C900098850097D9F0EF81F8858181EF81F885EB
:101CA0009281EF81F88520818B839C8381E08D83F5
:101CB0002E83CE0103960E94100789838981882391
:101CC00011F41A8205C081E08A8302C082E08A830F
:101CD0008A8128960FB6F894DEBF0FBECDBFCF9194
:101CE000DF910895DF93CF93CDB7DEB78CE091E01D
:101CF0000E949608CF91DF9108950F931F93DF9371
:101D0000CF93CDB7DEB7CC58D0400FB6F894DEBF36
:101D10000FBECDBF8CE091E060E00E94910AFE0111
:101D2000E757FF4F80E090E0AAE7B4E48083918317
:101D3000A283B3838E010B571F4FFE01E757FF4F5E
:101D4000608171818281938120E030E04AEF54E428
:101D50000E941702DC01CB01F80180839183A283EA
:101D6000B383FE01EB57FF4F6081718182819381C4
:101D700020E030E040E85FE30E947103882344F4F0
:101D8000FE01ED57FF4F81E090E09183808364C0B6
:101D9000FE01EB57FF4F608171818281938120E0CA
:101DA0003FEF4FE757E40E94110318160CF043C0B1
:101DB000FE01E757FF4F608171818281938120E0AE
:101DC00030E040E251E40E941702DC01CB018E01B9
:101DD0000D571F4FBC01CD010E944100DC01CB011A
:101DE000F801918380831FC0FE01EF57FF4F88ECFD
:101DF00090E091838083FE01EF57FF4F80819181B6
:101E00000197F1F7FE01EF57FF4F91838083DE01C9
:101E1000AD57BF4FFE01ED57FF4F80819181019774
:101E200011969C938E93FE01ED57FF4F8081918117
:101E30000097D1F627C08E010D571F4FFE01EB57BB
:101E4000FF4F60817181828193810E944100DC019A
:101E5000CB01F80191838083DE01A158BF4FFE01C1
:101E6000ED57FF4F808191818D939C93FE01E15846
:101E7000FF4F808191810197F1F7FE01E158FF4FFB
:101E8000918380838CE091E061E00E94910AFE01E1
:101E9000E558FF4F80E090E0AAE7B4E480839183A7
:101EA000A283B3838E0109581F4FFE01E558FF4FEF
:101EB000608171818281938120E030E04AEF54E4B7
:101EC0000E941702DC01CB01F80180839183A28379
:101ED000B383FE01E958FF4F608171818281938154
:101EE00020E030E040E85FE30E947103882344F47F
:101EF000FE01EB58FF4F81E090E09183808364C046
:101F0000FE01E958FF4F608171818281938120E059
:101F10003FEF4FE757E40E94110318160CF043C03F
:101F2000FE01E558FF4F608171818281938120E03D
:101F300030E040E251E40E941702DC01CB018E0147
:101F40000B581F4FBC01CD010E944100DC01CB01A9
:101F5000F801918380831FC0FE01ED58FF4F88EC8C
:101F600090E091838083FE01ED58FF4F8081918145
:101F70000197F1F7FE01ED58FF4F91838083DE0159
:101F8000AB58BF4FFE01EB58FF4F80819181019705
:101F900011969C938E93FE01EB58FF4F80819181A7
:101FA0000097D1F627C08E010B581F4FFE01E9584C
:101FB000FF4F60817181828193810E944100DC0129
:101FC000CB01F80191838083DE01AF58BF4FFE0142
:101FD000EB58FF4F808191818D939C93FE01EF58C8
:101FE000FF4F808191810197F1F7FE01EF58FF4F7C
:101FF000918380838CE091E062E00E94910AFE016F
:10200000E359FF4F80E090E0AAE7B4E48083918336
:10201000A283B3838E0107591F4FFE01E359FF4F7F
:10202000608171818281938120E030E04AEF54E445
:102030000E941702DC01CB01F80180839183A28307
:10204000B383FE01E759FF4F6081718182819381E3
:1020500020E030E040E85FE30E947103882344F40D
:10206000FE01E959FF4F81E090E09183808364C0D5
:10207000FE01E759FF4F608171818281938120E0E9
:102080003FEF4FE757E40E94110318160CF043C0CE
:10209000FE01E359FF4F608171818281938120E0CD
:1020A00030E040E251E40E941702DC01CB018E01D6
:1020B00009591F4FBC01CD010E944100DC01CB0139
:1020C000F801918380831FC0FE01EB59FF4F88EC1C
:1020D00090E091838083FE01EB59FF4F80819181D5
:1020E0000197F1F7FE01EB59FF4F91838083DE01E9
:1020F000A959BF4FFE01E959FF4F80819181019796
:1021000011969C938E93FE01E959FF4F8081918136
:102110000097D1F627C08E0109591F4FFE01E759DC
:10212000FF4F60817181828193810E944100DC01B7
:10213000CB01F80191838083DE01AD59BF4FFE01D1
:10214000E959FF4F808191818D939C93FE01ED5958
:10215000FF4F808191810197F1F7FE01ED59FF4F0B
:10216000918380838CE091E063E00E94910AFE01FC
:10217000E15AFF4F80E090E0AAE7B4E480839183C6
:10218000A283B3838E01055A1F4FFE01E15AFF4F10
:10219000608171818281938120E030E04AEF54E4D4
:1021A0000E941702DC01CB01F80180839183A28396
:1021B000B383FE01E55AFF4F608171818281938173
:1021C00020E030E040E85FE30E947103882344F49C
:1021D000FE01E75AFF4F81E090E09183808364C065
:1021E000FE01E55AFF4F608171818281938120E079
:1021F0003FEF4FE757E40E94110318160CF043C05D
:10220000FE01E15AFF4F608171818281938120E05C
:1022100030E040E251E40E941702DC01CB018E0164
:10222000075A1F4FBC01CD010E944100DC01CB01C8
:10223000F801918380831FC0FE01E95AFF4F88ECAB
:1022400090E091838083FE01E95AFF4F8081918164
:102250000197F1F7FE01E95AFF4F91838083DE0178
:10226000A75ABF4FFE01E75AFF4F80819181019726
:1022700011969C938E93FE01E75AFF4F80819181C6
:102280000097D1F627C08E01075A1F4FFE01E55A6D
:10229000FF4F60817181828193810E944100DC0146
:1022A000CB01F80191838083DE01AB5ABF4FFE0161
:1022B000E75AFF4F808191818D939C93FE01EB5AE9
:1022C000FF4F808191810197F1F7FE01EB5AFF4F9B
:1022D000918380838CE091E064E00E94910AFE018A
:1022E000EF5AFF4F80E090E0AAE7B4E48083918347
:1022F000A283B3838E01035B1F4FFE01EF5AFF4F92
:10230000608171818281938120E030E04AEF54E462
:102310000E941702DC01CB01F80180839183A28324
:10232000B383FE01E35BFF4F608171818281938102
:1023300020E030E040E85FE30E947103882344F42A
:10234000FE01E55BFF4F81E090E09183808364C0F4
:10235000FE01E35BFF4F608171818281938120E008
:102360003FEF4FE757E40E94110318160CF043C0EB
:10237000FE01EF5AFF4F608171818281938120E0DD
:1023800030E040E251E40E941702DC01CB018E01F3
:10239000055B1F4FBC01CD010E944100DC01CB0158
:1023A000F801918380831FC0FE01E75BFF4F88EC3B
:1023B00090E091838083FE01E75BFF4F80819181F4
:1023C0000197F1F7FE01E75BFF4F91838083DE0108
:1023D000A55BBF4FFE01E55BFF4F808191810197B7
:1023E00011969C938E93FE01E55BFF4F8081918156
:1023F0000097D1F627C08E01055B1F4FFE01E35BFE
:10240000FF4F60817181828193810E944100DC01D4
:10241000CB01F80191838083DE01A95BBF4FFE01F0
:10242000E55BFF4F808191818D939C93FE01E95B79
:10243000FF4F808191810197F1F7FE01E95BFF4F2A
:10244000918380838CE091E065E00E94910AFE0117
:10245000ED5BFF4F80E090E0AAE7B4E480839183D6
:10246000A283B3838E01015C1F4FFE01ED5BFF4F22
:10247000608171818281938120E030E04AEF54E4F1
:102480000E941702DC01CB01F80180839183A283B3
:10249000B383FE01FF96608171818281938120E088
:1024A00030E040E85FE30E94710388232CF481E070
:1024B00090E09EAF8DAF46C0FE01FF9660817181B6
:1024C0008281938120E03FEF4FE757E40E941103A0
:1024D000181664F5FE01ED5BFF4F6081718182810A
:1024E000938120E030E040E251E40E941702DC01D9
:1024F000CB01BC01CD010E944100DC01CB019EAFAC
:102500008DAF0FC088EC90E09CAF8BAF8BAD9CADD6
:102510000197F1F79CAF8BAF8DAD9EAD01979EAF4C
:102520008DAF8DAD9EAD009769F716C0FE01FF9689
:1025300060817181828193810E944100DC01CB0125
:102540009EAF8DAF8DAD9EAD9AAF89AF89AD9AAD7F
:102550000197F1F79AAF89AF8CE091E066E00E94B5
:10256000910A80E090E0AAE7B4E48DAB9EABAFABFC
:10257000B8AF6DA97EA98FA998AD20E030E04AEFF1
:1025800054E40E941702DC01CB0189AB9AABABABE0
:10259000BCAB69A97AA98BA99CA920E030E040E8EE
:1025A0005FE30E94710388232CF481E090E098ABF4
:1025B0008FA73FC069A97AA98BA99CA920E03FEF0A
:1025C0004FE757E40E94110318164CF56DA97EA938
:1025D0008FA998AD20E030E040E251E40E9417025C
:1025E000DC01CB01BC01CD010E944100DC01CB012B
:1025F00098AB8FA70FC088EC90E09EA78DA78DA504
:102600009EA50197F1F79EA78DA78FA598A9019781
:1026100098AB8FA78FA598A9009769F714C069A9EF
:102620007AA98BA99CA90E944100DC01CB0198AB3F
:102630008FA78FA598A99CA78BA78BA59CA5019771
:10264000F1F79CA78BA78CE091E067E00E94910ACC
:1026500080E090E0AAE7B4E48FA398A7A9A7BAA75F
:102660006FA178A589A59AA520E030E04AEF54E44F
:102670000E941702DC01CB018BA39CA3ADA3BEA3D8
:102680006BA17CA18DA19EA120E030E040E85FE33A
:102690000E94710388232CF481E090E09AA389A31F
:1026A0003FC06BA17CA18DA19EA120E03FEF4FE731
:1026B00057E40E94110318164CF56FA178A589A55F
:1026C0009AA520E030E040E251E40E941702DC01CC
:1026D000CB01BC01CD010E944100DC01CB019AA3DA
:1026E00089A30FC088EC90E098A38F8F8F8D98A15D
:1026F0000197F1F798A38F8F89A19AA101979AA3C7
:1027000089A389A19AA1009769F714C06BA17CA144
:102710008DA19EA10E944100DC01CB019AA389A357
:1027200089A19AA19E8F8D8F8D8D9E8D0197F1F736
:102730009E8F8D8F8CE091E068E00E94910A80E08E
:1027400090E0AAE7B4E4898F9A8FAB8FBC8F698D34
:102750007A8D8B8D9C8D20E030E04AEF54E40E940E
:102760001702DC01CB018D8B9E8BAF8BB88F6D89EF
:102770007E898F89988D20E030E040E85FE30E94F9
:10278000710388232CF481E090E09C8B8B8B3FC0FD
:102790006D897E898F89988D20E03FEF4FE757E460
:1027A0000E94110318164CF5698D7A8D8B8D9C8DC6
:1027B00020E030E040E251E40E941702DC01CB014E
:1027C000BC01CD010E944100DC01CB019C8B8B8BB5
:1027D0000FC088EC90E09A8B898B89899A89019740
:1027E000F1F79A8B898B8B899C8901979C8B8B8BBA
:1027F0008B899C89009769F714C06D897E898F89C0
:10280000988D0E944100DC01CB019C8B8B8B8B89C6
:102810009C89988B8F878F8598890197F1F7988B82
:102820008F878CE091E069E00E94910A80E090E05F
:10283000AAE7B4E48B879C87AD87BE876B857C85D0
:102840008D859E8520E030E04AEF54E40E94170217
:10285000DC01CB018F839887A987BA876F81788540
:1028600089859A8520E030E040E85FE30E947103AB
:1028700088232CF481E090E09E838D833FC06F819C
:10288000788589859A8520E03FEF4FE757E40E94DD
:10289000110318164CF56B857C858D859E8520E08F
:1028A00030E040E251E40E941702DC01CB01BC01A0
:1028B000CD010E944100DC01CB019E838D830FC0BE
:1028C00088EC90E09C838B838B819C810197F1F74E
:1028D0009C838B838D819E8101979E838D838D81C7
:1028E0009E81009769F714C06F81788589859A85E4
:1028F0000E944100DC01CB019E838D838D819E81EE
:102900009A83898389819A810197F1F79A838983D0
:10291000C457DF4F0FB6F894DEBF0FBECDBFCF91C7
:10292000DF911F910F910895DF93CF93CDB7DEB75D
:102930000E94720E0E94720EFDCF2F923F924F9214
:102940005F926F927F928F929F92AF92BF92CF923F
:10295000DF92EF92FF920F931F93CF93DF93CDB748
:10296000DEB7CA1BDB0B0FB6F894DEBF0FBECDBFC0
:1029700009942A88398848885F846E847D848C8491
:102980009B84AA84B984C884DF80EE80FD800C819A
:102990001B81AA81B981CE0FD11D0FB6F894DEBF7D
:0C29A0000FBECDBFED010895F894FFCFED
:1029AC0000000000000000003A0037003400310045
:1029BC003B0038003500320039003600330030005F
:1029CC0001010101010100000101000000000101F1
:1029DC0000010100010101010100000100010100E1
:1029EC0000010101000101000101010001010101CF
:1029FC0001010101000000000101010101010101BF
:102A0C0001010100010100000000000001010000B3
:102A1C0001010101000001000001000000000001A3
:102A2C000100010000010100000001000001000094
:102A3C000001000000000000000001010101000085
:102A4C000000000000000000000100000102000274
:102A5C00010202020302040205020602070106003B
:00000001FF
