:100000000C942A000C9447000C9447000C94470071
:100010000C9447000C9447000C9447000C94470044
:100020000C9447000C94A8100C9447000C944700C3
:100030000C9447000C9447000C9447000C94470024
:100040000C9447000C9447000C9447000C94470014
:100050000C94470011241FBECFE5D8E0DEBFCDBF12
:1000600014E0A0E6B0E0ECEEFEE202C005900D92D6
:10007000A231B107D9F714E0A2E1B4E001C01D92AA
:10008000A731B107E1F70E94F3160C9474170C9492
:100090000000EF92FF920F931F937B018C0120E0F1
:1000A00030E040E05FE40E94F50388238CF0C80153
:1000B000B70120E030E040E05FE40E94C1010E940F
:1000C00085049B01AC01205030404040504806C0A0
:1000D000C801B7010E9485049B01AC01B901CA01A6
:1000E0001F910F91FF90EF900895A0E0B0E0EBE733
:1000F000F0E00C943D17DC012B01FA019C91923049
:1001000008F439C1EB018881823008F433C194309E
:1001100069F4843009F02FC111969C91119789815F
:10012000981709F428C1A0EDB2E025C1843009F484
:1001300021C18230A9F4923009F01DC19A01AD01AC
:1001400088E0EA010990AE01E90109929E0181501F
:10015000C1F7E201898111969C918923818308C1AD
:10016000923009F407C112962D903C901397EB0141
:100170008A819B811496AD90BD90CD90DC901797AD
:10018000EC80FD800E811F819101281B390BB90184
:1001900037FF04C066277727621B730B6032710537
:1001A0000CF061C0121613066CF537014801062EDB
:1001B00004C096948794779467940A94D2F721E0C8
:1001C00030E040E050E004C0220F331F441F551FB1
:1001D0006A95D2F721503040404050402E213F21B7
:1001E00040235123211531054105510521F021E01E
:1001F00030E040E050E079018A01E628F72808293C
:1002000019293CC0232BD1F1260E371E350146019A
:10021000062E04C096948794779467940A94D2F734
:1002200021E030E040E050E004C0220F331F441FC3
:10023000551F6A95D2F721503040404050402A2146
:100240003B214C215D21211531054105510521F04E
:1002500021E030E040E050E059016A01A628B728CB
:10026000C828D9280BC0821593052CF01C01AA249C
:10027000BB24650103C0EE24FF24870111969C91E5
:10028000D20111968C91981709F445C0992339F041
:10029000A80197012A193B094C095D0906C0A6016E
:1002A00095012E193F09400B510B57FD08C01182D3
:1002B0003382228224833583468357831DC081E0A5
:1002C00081833382228288279927DC01821B930B4A
:1002D000A40BB50B84839583A683B7830DC0220F2F
:1002E000331F441F551F24833583468357838281E0
:1002F000938101979383828324813581468157813D
:10030000DA01C9010197A109B1098F5F9F4FAF4F72
:10031000BF4328F30BC0918333822282EA0CFB1C7B
:100320000C1D1D1DE482F5820683178383E0808304
:10033000248135814681578157FF1AC0C901AA27F8
:1003400097FDA095BA2F81709070A070B0705695EF
:10035000479537952795822B932BA42BB52B848318
:100360009583A683B7838281938101969383828349
:10037000DF0101C0D201CD01CDB7DEB7E2E10C94BF
:100380005917A0E2B0E0E7ECF1E00C94491769835B
:100390007A838B839C832D833E834F835887E9E048
:1003A000EE2EF12CEC0EFD1ECE010196B7010E943F
:1003B00076068E010F5E1F4FCE010596B8010E9492
:1003C00076068A8991E089278A8BC701B801AE0138
:1003D000475E5F4F0E9475000E94A105A096E6E06F
:1003E0000C946517A0E2B0E0E8EFF1E00C94491737
:1003F00069837A838B839C832D833E834F835887C5
:10040000F9E0EF2EF12CEC0EFD1ECE010196B701A6
:100410000E9476068E010F5E1F4FCE010596B80131
:100420000E947606C701B801AE01475E5F4F0E9489
:1004300075000E94A105A096E6E00C946517A0E265
:10044000B0E0E5E2F2E00C943D1769837A838B8398
:100450009C832D833E834F835887CE010196BE0136
:10046000675F7F4F0E947606CE010596BE016F5EE4
:100470007F4F0E9476069985923088F08989823074
:10048000C8F0943019F4823051F404C0843029F457
:10049000923081F480ED92E0C6C0923049F420E0C1
:1004A0009A858A89981321E02A87CE010996BBC0D4
:1004B000823049F420E09A858A89981321E02A8BBA
:1004C000CE014196B0C02D843E844F8458886D88FB
:1004D0007E888F88988CEE24FF248701AA24BB2471
:1004E000650140E050E060E070E0E0E0F0E0C10174
:1004F00081709070892BE9F0E60CF71C081D191D1E
:100500009A01AB012A0D3B1D4C1D5D1D80E090E062
:10051000A0E0B0E0E614F7040805190520F481E036
:1005200090E0A0E0B0E0BA01A901480F591F6A1F8E
:100530007B1FAA0CBB1CCC1CDD1C97FE08C081E0F5
:1005400090E0A0E0B0E0A82AB92ACA2ADB2A3196B6
:10055000E032F10549F0660C771C881C991C569412
:10056000479437942794C3CFFA85EA892B893C892D
:100570008B859C85280F391F2E5F3F4F17C0CA01FE
:1005800081709070892B61F016950795F794E79428
:1005900080E090E0A0E0B0E8E82AF92A0A2B1B2BC3
:1005A00076956795579547952F5F3F4F77FDE7CF36
:1005B0000CC0440F551F661F771F17FD4160EE0CDE
:1005C000FF1C001F111F21503040403090E05907A0
:1005D00090E0690790E4790760F32B8F3C8FDB0193
:1005E000CA018F779070A070B07080349105A1051A
:1005F000B10561F447FD0AC0E114F10401051105DC
:1006000029F0405C5F4F6F4F7F4F40781A8EFE1786
:1006100011F081E08A8F4D8F5E8F6F8F78A383E01A
:10062000898FCE0149960E94A105A096E2E10C9423
:100630005917A8E1B0E0EFE1F3E00C9445176983A6
:100640007A838B839C832D833E834F835887B9E0C5
:10065000EB2EF12CEC0EFD1ECE010196B7010E948F
:1006600076068E010F5E1F4FCE010596B8010E94DF
:1006700076062985223008F47EC03989323010F49C
:10068000B8017CC08A859A8989278A87243011F02D
:10069000223031F4231709F06EC060ED72E06EC0B5
:1006A000343039F41D861E861F86188A1C861B86E8
:1006B00004C0323021F484E08987B7015FC02B8504
:1006C0003C858B899C89281B390B3C872B87ED84C3
:1006D000FE840F851889AD88BE88CF88D88CEA142F
:1006E000FB040C051D0540F4EE0CFF1C001F111F40
:1006F000215030403C872B8720E030E040E050E044
:1007000080E090E0A0E0B0E460E070E0EA14FB0478
:100710000C051D0540F0282B392B4A2B5B2BEA18C2
:10072000FB080C091D09B695A79597958795EE0CC2
:10073000FF1C001F111F6F5F7F4F6F31710531F775
:10074000DA01C9018F779070A070B0708034910584
:10075000A105B10561F427FD0AC0E114F10401050A
:10076000110529F0205C3F4F4F4F5F4F20782D87B8
:100770003E874F87588BBE01675F7F4FCB010E943A
:10078000A1056896EAE00C946117A8E1B0E0EBECF3
:10079000F3E00C94491769837A838B839C832D83C0
:1007A0003E834F83588789E0E82EF12CEC0EFD1E26
:1007B000CE010196B7010E9476068E010F5E1F4F93
:1007C000CE010596B8010E9476068985823040F0F8
:1007D0008989823028F0C701B8010E94EE0601C065
:1007E0008FEF6896E6E00C946517A8E1B0E0EBEFB8
:1007F000F3E00C94491769837A838B839C832D8360
:100800003E834F83588789E0E82EF12CEC0EFD1EC5
:10081000CE010196B7010E9476068E010F5E1F4F32
:10082000CE010596B8010E9476068985823040F097
:100830008989823028F0C701B8010E94EE0601C004
:100840008FEF6896E6E00C946517A8E1B0E0EBE264
:10085000F4E00C94491769837A838B839C832D83FE
:100860003E834F83588789E0E82EF12CEC0EFD1E65
:10087000CE010196B7010E9476068E010F5E1F4FD2
:10088000CE010596B8010E9476068985823040F037
:100890008989823028F0C701B8010E94EE0601C0A4
:1008A00081E06896E6E00C946517A8E1B0E0EBE51E
:1008B000F4E00C94491769837A838B839C832D839E
:1008C0003E834F83588789E0E82EF12CEC0EFD1E05
:1008D000CE010196B7010E9476068E010F5E1F4F72
:1008E000CE010596B8010E9476068985823040F0D7
:1008F0008989823028F0C701B8010E94EE0601C044
:1009000081E06896E6E00C946517ACE0B0E0EBE8B7
:10091000F4E00C944D1769837A838B839C83CE011A
:100920000196BE016B5F7F4F0E9476068D818230FB
:1009300061F1823050F1843021F48E81882351F1AD
:100940002EC02F81388537FD20C06E812F313105B3
:100950001CF06623F9F023C08EE190E0821B930B1C
:1009600029853A854B855C8504C056954795379512
:1009700027958A95D2F76623B1F05095409530952A
:1009800021953F4F4F4F5F4F0EC020E030E040E0D9
:1009900050E009C02FEF3FEF4FEF5FE704C020E0CA
:1009A00030E040E050E8B901CA012C96E2E00C9436
:1009B0006917A8E0B0E0EFEDF4E00C9445177B0177
:1009C0008C01611571058105910519F482E0898317
:1009D00060C083E089838EE1C82ED12CDC82CB827B
:1009E000ED82FE820F831887C801B7010E9452056D
:1009F000FC013197F7FF3BC0222733272E1B3F0B0B
:100A000057016801022E04C0D694C794B794A794E6
:100A10000A94D2F740E050E060E070E081E090E0BE
:100A2000A0E0B0E004C0880F991FAA1FBB1F2A9541
:100A3000D2F70197A109B1098E219F21A023B123EB
:100A40000097A105B10521F041E050E060E070E0C1
:100A50004A295B296C297D294D835E836F837887C2
:100A60008EE190E08E1B9F0B9C838B8312C030978E
:100A700081F00E2E04C0EE0CFF1C001F111F0A9403
:100A8000D2F7ED82FE820F831887CE1ADF0ADC824E
:100A9000CB821A82CE0101960E94A1052896EAE037
:100AA0000C946117EF92FF920F931F937B018C01BF
:100AB00080E0E81680E0F80681E0080780E018078B
:100AC00088F48FEFE816F1040105110531F028F0E4
:100AD00088E090E0A0E0B0E017C080E090E0A0E007
:100AE000B0E012C080E0E81680E0F80680E0080779
:100AF00081E0180728F088E190E0A0E0B0E004C0B1
:100B000080E190E0A0E0B0E020E230E040E050E0A2
:100B1000281B390B4A0B5B0B04C016950795F794FD
:100B2000E7948A95D2F7F701E852FD4F8081281BA0
:100B3000310941095109C9011F910F91FF90EF90AF
:100B40000895DF92EF92FF920F931F93FC01E480D0
:100B5000F58006811781D1808081823048F480E061
:100B600090E0A0E1B0E0E82AF92A0A2B1B2BA5C0EF
:100B7000843009F49FC0823021F4EE24FF248701E1
:100B800005C0E114F1040105110519F4E0E0F0E0FD
:100B900096C0628173819FEF623879070CF05BC069
:100BA00022E83FEF261B370B2A3131052CF020E0DD
:100BB00030E040E050E02AC0B801A701022E04C096
:100BC00076956795579547950A94D2F781E090E01E
:100BD000A0E0B0E004C0880F991FAA1FBB1F2A9590
:100BE000D2F70197A109B1098E219F21A023B1233A
:100BF0000097A105B10521F081E090E0A0E0B0E010
:100C00009A01AB01282B392B4A2B5B2BDA01C90146
:100C10008F779070A070B07080349105A105B105F8
:100C200039F427FF09C0205C3F4F4F4F5F4F04C08E
:100C3000215C3F4F4F4F5F4FE0E0F0E02030A0E0FD
:100C40003A07A0E04A07A0E45A0710F0E1E0F0E01C
:100C500079018A0127C06038710564F5FB01E1580C
:100C6000FF4FD801C7018F779070A070B0708034AB
:100C70009105A105B10539F4E7FE0DC080E490E0CF
:100C8000A0E0B0E004C08FE390E0A0E0B0E0E80EA8
:100C9000F91E0A1F1B1F17FF05C016950795F7942D
:100CA000E794319687E016950795F794E7948A952F
:100CB000D1F705C0EE24FF248701EFEFF0E06E2F9F
:100CC000679566276795902F9F77D794DD24D794F3
:100CD0008E2F8695492F462B582F5D29B701CA01C3
:100CE0001F910F91FF90EF90DF900895FC01DB01C1
:100CF000408151812281622F6F7770E0221F22276D
:100D0000221F9381892F880F822B282F30E0991F73
:100D10009927991F11969C93119721153105A9F5D3
:100D2000411551056105710511F482E037C082E873
:100D30009FEF13969C938E9312979A01AB0167E0F5
:100D4000220F331F441F551F6A95D1F783E08C9300
:100D50000DC0220F331F441F551F12968D919C9179
:100D60001397019713969C938E931297203080E0EF
:100D7000380780E0480780E4580758F314962D930D
:100D80003D934D935C93179708952F3F310579F468
:100D9000411551056105710519F484E08C9308959E
:100DA00064FF03C081E08C9312C01C9210C02F57C7
:100DB000304013963C932E93129783E08C9387E0F8
:100DC000440F551F661F771F8A95D1F770641496DC
:100DD0004D935D936D937C93179708951F93DC015A
:100DE000FB019C91923008F447C08081823008F466
:100DF00043C0943051F411961C91843099F581814F
:100E0000682F70E0611B71093FC0843021F092307F
:100E100031F48230B9F18181882389F12DC0119696
:100E20001C9111978230F1F081811817D9F4129634
:100E30002D913C911397828193818217930794F0AF
:100E400028173907BCF014968D919D910D90BC9197
:100E5000A02D2481358146815781281739074A07FB
:100E60005B0718F4112341F00AC082179307A40707
:100E7000B50740F4112319F061E070E005C06FEF91
:100E80007FEF02C060E070E0CB011F910895DF9317
:100E9000CF9300D00F92CDB7DEB719828981813010
:100EA00009F48CC080911204282F30E03B832A8300
:100EB0008A819B818330910509F465C02A813B8139
:100EC000243031058CF48A819B818130910509F4AD
:100ED00050C02A813B81223031050CF04FC08A81FD
:100EE0009B810097A1F063C02A813B8125303105A9
:100EF00009F453C08A819B81853091050CF448C068
:100F00002A813B812630310509F44CC050C080E66F
:100F100090E00E94471683E690E00E94471688E81A
:100F200090E00E9447168EE990E00E94471685EBFC
:100F300090E00E94471687EC90E00E9447168AEDE9
:100F400090E00E94471685EE90E00E94471680E6EA
:100F500090E00E9447160E942D1680931204809103
:100F600012040E943A168091120480538093120456
:100F700095CF0E94E4071092120490CF0E940F08B0
:100F8000109212048BCF0E943A081092120486CF5E
:100F90000E945B081092120481CF0E947C0810927C
:100FA00012047CCF81E089831092120477CF85EF01
:100FB00090E00E9447161092120470CF0F900F908D
:100FC0000F90CF91DF910895DF93CF93CDB7DEB728
:100FD00084EF93E060E00E945C158AEF93E060E0AC
:100FE0000E945C1580E094E060E00E945C1586E061
:100FF00094E060E00E945C1584EF93E00E94891405
:101000008AEF93E00E94891480E094E00E948914A2
:1010100086E094E00E948914CF91DF910895DF93D8
:10102000CF93CDB7DEB784EF93E061E00E945C150B
:101030008AEF93E061E00E945C1580E094E061E05B
:101040000E945C1586E094E061E00E945C1584EFEC
:1010500093E00E9489148AEF93E00E94891480E053
:1010600094E00E94891486E094E00E948914CF9154
:10107000DF910895DF93CF93CDB7DEB780E094E0A2
:1010800060E00E945C1586E094E060E00E945C15E0
:1010900084EF93E00E94B6138AEF93E00E94B613A8
:1010A00080E094E00E94891486E094E00E94891414
:1010B000CF91DF910895DF93CF93CDB7DEB784EF63
:1010C00093E060E00E945C158AEF93E060E00E948C
:1010D0005C1580E094E00E94B61386E094E00E94E4
:1010E000B61384EF93E00E9489148AEF93E00E9484
:1010F0008914CF91DF910895DF93CF93CDB7DEB7F9
:1011000084EF93E00E94B6138AEF93E00E94B61337
:1011100080E094E00E94B61386E094E00E94B6134B
:10112000CF91DF910895DF93CF9300D000D000D00E
:10113000CDB7DEB71A821B821C82198287E191E04B
:101140000E9447168981813009F484C08A81282F42
:1011500030E03E832D838D819E818330910509F49B
:101160006DC02D813E812430310584F48D819E81B6
:101170008130910589F12D813E81223031050CF0BD
:1011800051C08D819E810097A1F0DCCF2D813E81E1
:101190002530310509F44AC08D819E818530910545
:1011A0000CF448C02D813E812630310509F44BC036
:1011B000C9CF80EF93E09E012C5F3F4FB9010E94A1
:1011C000951282EF93E09E012D5F3F4FB9010E947F
:1011D000951281E08A83B6CF8C81882331F48B818C
:1011E000882319F482E08A83ADCF8C81813031F479
:1011F0008B81882319F484E08A83A4CF8C8188238F
:1012000031F48B81813019F485E08A839BCF8C8106
:10121000813009F097CF8B81813009F093CF83E043
:101220008A8390CF0E9433091A828CCF0E945E0974
:101230001A8288CF0E947F091A8284CF0E94A00957
:1012400086E08A837FCF8DE291E00E94471681E09D
:10125000898378CF26960FB6F894DEBF0FBECDBF38
:10126000CF91DF910895DF93CF93CDB7DEB784EFB1
:1012700093E060E00E945C158AEF93E060E00E94DA
:101280005C1580E094E060E00E945C1586E094E0EC
:1012900060E00E945C1584EF93E00E9489148AEF5D
:1012A00093E00E94891480E094E00E94891486E013
:1012B00094E00E948914CF91DF910895DF93CF933A
:1012C000CDB7DEB780E094E060E00E945C1586E078
:1012D00094E060E00E945C1584EF93E00E94B613F6
:1012E0008AEF93E00E94B61380E094E00E94891494
:1012F00086E094E00E948914CF91DF910895DF93F6
:10130000CF93CDB7DEB784EF93E060E00E945C1529
:101310008AEF93E060E00E945C1580E094E00E9418
:10132000B61386E094E00E94B61384EF93E00E9427
:1013300089148AEF93E00E948914CF91DF91089578
:10134000DF93CF93CDB7DEB784EF93E00E94B6135F
:101350008AEF93E00E94B61380E094E00E94B613F7
:1013600086E094E00E94B613CF91DF910895DF9359
:10137000CF93CDB7DEB7E5970FB6F894DEBF0FBEBB
:10138000CDBF84E08FA780E090E0A0E0B0E088AB24
:1013900099ABAAABBBAB1EA61DA61CA61BA68BA514
:1013A000813009F492C28FA5282F30E03DAB2CABE1
:1013B0008CA99DA98230910509F41CC12CA93DA9D5
:1013C0002330310564F48CA99DA9009709F476C0F7
:1013D0002CA93DA92130310509F4E9C0E0CF8CA941
:1013E0009DA98430910569F02CA93DA924303105CF
:1013F0000CF426C18CA99DA98530910509F44EC233
:10140000CECF8DA5882359F587E591E00E94471638
:1014100081E891E00E94471683EB91E00E94471615
:101420008FEB91E00E9447168AEC91E00E944716EC
:101430000E942D168EA78EA580538EA78EA50E9482
:101440003A168EA5882319F08EA5813019F41DA6B1
:101450001FA6A5CF81E08DA784E08FA7A0CF8DA583
:10146000813009F09CCF8DEC91E00E94471681E815
:1014700091E00E94471683EB91E00E9447168FEBA4
:1014800091E00E9447168AEC91E00E9447160E9464
:101490002D168EA78EA580538EA78EA50E943A1674
:1014A0008EA5882319F08EA5813019F41DA61FA6DC
:1014B00076CF81E08DA784E08FA771CFCE01C09653
:1014C0000E94EC1080E090E0A0EFB1E48FA398A719
:1014D000A9A7BAA76FA178A589A59AA520E030E0B1
:1014E0004AEF54E40E941F02DC01CB018BA39CA3B2
:1014F000ADA3BEA36BA17CA18DA19EA120E030E095
:1015000040E85FE30E94250488232CF481E090E00A
:101510009AA389A33FC06BA17CA18DA19EA120E0CD
:101520003FEF4FE757E40E94C50318164CF56FA133
:1015300078A589A59AA520E030E040E251E40E9418
:101540001F02DC01CB01BC01CD010E944900DC017E
:10155000CB019AA389A30FC088EC90E098A38F8F4A
:101560008F8D98A10197F1F798A38F8F89A19AA1E8
:1015700001979AA389A389A19AA1009769F714C03A
:101580006BA17CA18DA19EA10E944900DC01CB0131
:101590009AA389A389A19AA19E8F8D8F8D8D9E8DEF
:1015A0000197F1F79E8F8D8F81E08FA7F8CE88A9E4
:1015B00099A9AAA9BBA9BC01CD0120E030E048E46B
:1015C00052E40E94F50388231CF082E08FA7E7CE47
:1015D00088A999A9AAA9BBA9BC01CD0120E030E046
:1015E00044E452E40E94550418160CF4D8CE83E06B
:1015F0008FA7D5CE84EF93E060E00E945C158AEF60
:1016000093E060E00E945C1580E094E060E00E945E
:101610005C1586E094E060E00E945C1584EF93E046
:101620000E9489148AEF93E00E94891480E094E07C
:101630000E94891486E094E00E9489141FA6AFCE10
:101640008CA5843008F027C18CA58F5F8CA78EA550
:10165000882309F08EC084EF93E060E00E945C155F
:101660008AEF93E060E00E945C1584EF93E00E94B3
:1016700089148AEF93E00E94891480E094E00E942C
:10168000B61386E094E00E94B61380E090E0AAE7EB
:10169000B4E4898F9A8FAB8FBC8F698D7A8D8B8DD7
:1016A0009C8D20E030E04AEF54E40E941F02DC01F0
:1016B000CB018D8B9E8BAF8BB88F6D897E898F8987
:1016C000988D20E030E040E85FE30E942504882305
:1016D0002CF481E090E09C8B8B8B3FC06D897E89E0
:1016E0008F89988D20E03FEF4FE757E40E94C503B4
:1016F00018164CF5698D7A8D8B8D9C8D20E030E02D
:1017000040E251E40E941F02DC01CB01BC01CD018B
:101710000E944900DC01CB019C8B8B8B0FC088ECB5
:1017200090E09A8B898B89899A890197F1F79A8B36
:10173000898B8B899C8901979C8B8B8B8B899C894E
:10174000009769F714C06D897E898F89988D0E94F2
:101750004900DC01CB019C8B8B8B8B899C89988BFE
:101760008F878F8598890197F1F7988B8F871FA6B0
:1017700016CE8EA5813009F012CE80E094E060E0B4
:101780000E945C1586E094E060E00E945C1580E0B9
:1017900094E00E94891486E094E00E94891484EF0A
:1017A00093E00E94B6138AEF93E00E94B61380E0A4
:1017B00090E0AAE7B4E48B879C87AD87BE876B85F2
:1017C0007C858D859E8520E030E04AEF54E40E94C0
:1017D0001F02DC01CB018F839887A987BA876F81AD
:1017E000788589859A8520E030E040E85FE30E94B3
:1017F000250488232CF481E090E09E838D833FC0F4
:101800006F81788589859A8520E03FEF4FE757E41F
:101810000E94C50318164CF56B857C858D859E85C9
:1018200020E030E040E251E40E941F02DC01CB01E5
:10183000BC01CD010E944900DC01CB019E838D8358
:101840000FC088EC90E09C838B838B819C810197F7
:10185000F1F79C838B838D819E8101979E838D837D
:101860008D819E81009769F714C06F817885898585
:101870009A850E944900DC01CB019E838D838D8176
:101880009E819A83898389819A810197F1F79A834E
:1018900089831FA684CD85E08FA781CD84EF93E057
:1018A0000E94B6138AEF93E00E94B61380E094E0A2
:1018B0000E94B61386E094E00E94B6138FEE91E08A
:1018C0000E94471681E08BA76ACD80E0E5960FB6AF
:1018D000F894DEBF0FBECDBFCF91DF9108950F9377
:1018E0001F93DF93CF9300D000D0CDB7DEB76983CD
:1018F0007A838B839C83AAE2B0E0EAE2F0E0808105
:1019000088618C93A0E4B0E0E0E4F0E08081866838
:101910008C9309E210E089819A81AB81BC81880FA8
:10192000991FAA1FBB1F880F991FAA1FBB1F880FD3
:10193000991FAA1FBB1F880F991FAA1FBB1F9C01BD
:10194000AD0180E092E1AAE7B0E0BC01CD010E94C8
:101950001B17DA01C9018150F801808300E410E00F
:1019600089819A81AB81BC81880F991FAA1FBB1FF7
:10197000880F991FAA1FBB1F880F991FAA1FBB1F83
:10198000880F991FAA1FBB1F9C01AD0180E092E147
:10199000AAE7B0E0BC01CD010E941B17DA01C90122
:1019A0000197A109B109892F9A2FAB2FBB27F80105
:1019B00080830F900F900F900F90CF91DF911F9128
:1019C0000F910895DF93CF93CDB7DEB7EBE2F0E050
:1019D00080818823DCF7ECE2F0E08081CF91DF9119
:1019E0000895DF93CF930F92CDB7DEB78983EBE2F3
:1019F000F0E08081882F90E0807290700097B9F3BA
:101A0000ECE2F0E0898180830F90CF91DF9108951F
:101A1000DF93CF9300D00F92CDB7DEB79B838A833D
:101A200019820EC08981282F30E08A819B81FC01B8
:101A3000E20FF31F80810E94F10C89818F5F8983FF
:101A40008981282F30E08A819B81FC01E20FF31FFE
:101A50008081882339F70F900F900F90CF91DF91FD
:101A60000895DF93CF93CDB7DEB7AFE4B0E0EFE4F6
:101A7000F0E080818C7F8C93AEE4B0E0EEE4F0E0A7
:101A80008081877E8C93A9E5B0E0E9E5F0E0808174
:101A9000837C84608C930E945F0DCF91DF910895C9
:101AA000DF93CF93CDB7DEB7AEE4B0E0EEE4F0E085
:101AB0008081887F81608C93CF91DF910895DF933F
:101AC000CF93CDB7DEB7AFE5B0E0EFE5F0E08081D2
:101AD00080688C93CF91DF910895DF93CF93CDB73A
:101AE000DEB7AFE5B0E0EFE5F0E080818F778C9373
:101AF000CF91DF910895DF93CF9300D000D00F9264
:101B0000CDB7DEB79B838A8319828A819B81009738
:101B100061F0EA81FB818081869586958695877044
:101B2000882F90E08830910514F019827EC0EA81F8
:101B3000FB81808182958695869583708170282FA0
:101B400030E03D832C838C819D810097C9F12C81ED
:101B50003D812130310509F067C0EA81FB81808138
:101B60008770882F90E0880F991FFC01E852FC4F86
:101B7000A081B181EA81FB8180818770882F90E00C
:101B8000880F991FFC01E852FC4F0190F081E02D75
:101B90008081482FEA81FB81808186958695869594
:101BA0008770282F30E081E090E0022E02C0880F7D
:101BB000991F0A94E2F7842B8C9381E0898335C0C6
:101BC000EA81FB8180818770882F90E0880F991FC0
:101BD000FC01E852FC4FA081B181EA81FB81808148
:101BE0008770882F90E0880F991FFC01E852FC4F06
:101BF0000190F081E02D8081482FEA81FB81808176
:101C00008695869586958770282F30E081E090E054
:101C1000022E02C0880F991F0A94E2F78095842350
:101C20008C9381E0898301C0198289810F900F9084
:101C30000F900F900F90CF91DF910895DF93CF9386
:101C400000D000D00F92CDB7DEB79B838A837D830F
:101C50006C8319828A819B81009781F08C819D81A0
:101C6000009761F0EA81FB81808186958695869553
:101C70008770882F90E08830910514F0198227C072
:101C8000EA81FB8180818770882F90E0880F991FFF
:101C9000FC01E852FC4F0190F081E02D8081282F5B
:101CA00030E0EA81FB8180818695869586958770F4
:101CB000882F90E0A90102C0559547958A95E2F7D3
:101CC000CA018170EC81FD81808381E089838981F3
:101CD0000F900F900F900F900F90CF91DF9108957C
:101CE000DF93CF9300D000D000D0CDB7DEB79B8379
:101CF0008A836C8319828A819B81009761F0EA81D3
:101D0000FB8180818695869586958770882F90E0E7
:101D10008830910514F0198277C08C81282F30E02B
:101D20003E832D838D819E81009731F02D813E81F0
:101D300021303105A9F167C0EA81FB81808187707C
:101D4000882F90E0880F991FFC01E052FC4FA08182
:101D5000B181EA81FB8180818770882F90E0880FB4
:101D6000991FFC01E052FC4F0190F081E02D808131
:101D7000482FEA81FB8180818695869586958770BC
:101D8000282F30E081E090E0022E02C0880F991FDA
:101D90000A94E2F7809584238C9381E0898334C090
:101DA000EA81FB8180818770882F90E0880F991FDE
:101DB000FC01E052FC4FA081B181EA81FB8180816E
:101DC0008770882F90E0880F991FFC01E052FC4F2C
:101DD0000190F081E02D8081482FEA81FB81808194
:101DE0008695869586958770282F30E081E090E073
:101DF000022E02C0880F991F0A94E2F7842B8C935D
:101E000081E0898301C01982898126960FB6F894F2
:101E1000DEBF0FBECDBFCF91DF910895DF93CF938B
:101E200000D000D00F92CDB7DEB79B838A837D832D
:101E30006C8319828A819B81009781F08C819D81BE
:101E4000009761F0EA81FB81808186958695869571
:101E50008770882F90E08830910514F0198227C090
:101E6000EA81FB8180818770882F90E0880F991F1D
:101E7000FC01E851FC4F0190F081E02D8081282F7A
:101E800030E0EA81FB818081869586958695877012
:101E9000882F90E0A90102C0559547958A95E2F7F1
:101EA000CA018170EC81FD81808381E08983898111
:101EB0000F900F900F900F900F90CF91DF9108959A
:101EC000DF93CF9300D00F92CDB7DEB79B838A8389
:101ED00019828A819B81009761F0EA81FB81808170
:101EE0008695869586958770882F90E08730910536
:101EF00014F0198232C0EA81FB8180818770882FBB
:101F000090E0880F991FFC01E052FC4FA081B18145
:101F1000EA81FB8180818770882F90E0880F991F6C
:101F2000FC01E052FC4F0190F081E02D8081482FB0
:101F3000EA81FB8180818695869586958770282F1A
:101F400030E081E090E0022E02C0880F991F0A94D1
:101F5000E2F784278C9381E0898389810F900F9029
:101F60000F90CF91DF910895DF93CF9300D00F9220
:101F7000CDB7DEB79B838A8319828A819B810097C4
:101F800011F4198212C08A819B810E947B0D898382
:101F9000EA81FB818081881F8827881F282F8A81FA
:101FA0009B81622F0E94700E898389810F900F9010
:101FB0000F90CF91DF910895DF93CF9300D00F92D0
:101FC000CDB7DEB78A836B8319828A81853010F0A2
:101FD00019820FC08A81882F90E0880F991FFC0119
:101FE000E852FC4F0190F081E02D8B81808381E0ED
:101FF000898389810F900F900F90CF91DF91089581
:10200000DF93CF9300D000D0CDB7DEB78A837C8337
:102010006B8319828B819C81009719F08A818530AE
:1020200010F0198211C08A81882F90E0880F991FC3
:10203000FC01E852FC4F0190F081E02D8081EB81A2
:10204000FC81808381E0898389810F900F900F90BC
:102050000F90CF91DF910895DF93CF9300D00F922F
:10206000CDB7DEB78A836B8319828A81853010F001
:1020700019820FC08A81882F90E0880F991FFC0178
:10208000E052FC4F0190F081E02D8B81808381E054
:10209000898389810F900F900F90CF91DF910895E0
:1020A000DF93CF9300D000D0CDB7DEB78A837C8397
:1020B0006B8319828B819C81009719F08A8185300E
:1020C00010F0198211C08A81882F90E0880F991F23
:1020D000FC01E851FC4F0190F081E02D8081EB8103
:1020E000FC81808381E0898389810F900F900F901C
:1020F0000F90CF91DF910895DF93CF9300D0CDB7AC
:10210000DEB78A8319828A81853010F019821AC05D
:102110008A81882F90E0880F991FFC01E052FC4FC4
:10212000A081B1818A81882F90E0880F991FFC01DE
:10213000E052FC4F0190F081E02D808180958C93DE
:1021400081E0898389810F900F90CF91DF9108956D
:102150001F920F920FB60F9211248F939F93DF93CC
:10216000CF93CDB7DEB780911304909114040196FC
:102170009093140480931304CF91DF919F918F91DA
:102180000F900FBE0F901F901895DF93CF93CDB790
:10219000DEB7A1E3B0E0E1E3F0E0808180688C93FA
:1021A000A1E3B0E0E1E3F0E080818F7B8C93A2E3D8
:1021B000B0E0E2E3F0E0808180648C93A2E3B0E0E1
:1021C000E2E3F0E080818F778C930E94310D0E94D2
:1021D0005F0DCF91DF910895EF92FF920F931F93C0
:1021E000DF93CF93CDB7DEB7A4970FB6F894DEBFD9
:1021F0000FBECDBF9CA38BA3ECE4F0E01182108254
:10220000E8E5F0E080E28083AEE4B0E0EEE4F0E008
:10221000808180648C930E94500DA2E3B0E0E2E3E1
:10222000F0E0808180688C9380E090E0A0E2B1E4EF
:102230008D8B9E8BAF8BB88F6D897E898F89988DA2
:102240002BEA3AEA4AE250E40E941F02DC01CB0189
:10225000898B9A8BAB8BBC8B69897A898B899C899A
:1022600020E030E040E85FE30E94250488231CF46E
:1022700081E0888B91C069897A898B899C8920E06B
:1022800030E04FE753E40E94C50318160CF07BC002
:102290006D897E898F89988D20E030E04AE754E48B
:1022A0000E941903DC01CB018C879D87AE87BF8715
:1022B0006C857D858E859F8520E030E04AEF54E473
:1022C0000E941F02DC01CB0188879987AA87BB8700
:1022D000688579858A859B8520E030E040E85FE36A
:1022E0000E94250488232CF481E090E09F838E8354
:1022F0003FC0688579858A859B8520E03FEF4FE761
:1023000057E40E94C50318164CF56C857D858E85B3
:102310009F8520E030E040E251E40E941F02DC0192
:10232000CB01BC01CD010E944900DC01CB019F83A0
:102330008E830FC088EC90E09D838C838C819D817F
:102340000197F1F79D838C838E819F8101979F83F5
:102350008E838E819F81009769F724C06885798577
:102360008A859B850E944900DC01CB019F838E8377
:102370008E819F819B838A838A819B810197F1F75C
:102380009B838A830FC069897A898B899C890E9483
:102390004900DC01CB01888B8889898389818A95F2
:1023A000F1F78983A2E3B0E0E2E3F0E080818F7788
:1023B0008C93E8E5F0E08081882F90E08072907047
:1023C0000097B9F3ECE4F0E011821082109214044B
:1023D00010921304E8E5F0E080E28083AEE4B0E020
:1023E000EEE4F0E080818F7B8C93E8E5F0E0808183
:1023F000882F90E0807290700097B9F3E6E4F0E0E7
:102400008081282F30E0E7E4F0E08081882F90E0A1
:10241000982F8827820F931F9AA389A3E8E5F0E0FD
:1024200080E2808389A19AA17C0100E010E0809184
:10243000130490911404CC01A0E0B0E02FEF3FEF23
:1024400040E050E0BC01CD010E94FC16DC01CB0154
:102450008E0D9F1DA01FB11F8D8F9E8FAF8FB8A3B4
:102460006D8D7E8D8F8D98A10E94D904DC01CB01EA
:10247000BC01CD0129E23CE349EE53E40E9419037B
:10248000DC01CB01898F9A8FAB8FBC8FEBA1FCA1B4
:10249000898D9A8DAB8DBC8D80839183A283B3830C
:1024A000A4960FB6F894DEBF0FBECDBFCF91DF91DB
:1024B0001F910F91FF90EF900895DF93CF9300D07D
:1024C00000D0CDB7DEB79C838B8381E089838B817D
:1024D0009C81009719F481E089831FC0EB81FC8106
:1024E0008181982F9770EB81FC818081282F277044
:1024F0001A8297708A81887F892B8A83822F8770BE
:10250000982F990F990F990F8A81877C892B8A833D
:10251000CE0102960E94B40F198289810F900F900C
:102520000F900F90CF91DF910895DF93CF93CDB7A8
:10253000DEB727970FB6F894DEBF0FBECDBF9D83E1
:102540008C837F836E8381E089838C819D8100975A
:1025500019F481E0898331C0EC81FD818181982F5C
:102560009770EC81FD818081282F27701B829770E6
:102570008B81887F892B8B83822F8770982F990F6F
:10258000990F990F8B81877C892B8B83CE010396C2
:102590009E012E5F3F4FB9010E940E0F8A8181304C
:1025A00021F4EE81FF81108207C08A81882321F403
:1025B000EE81FF8181E080831982898127960FB6A1
:1025C000F894DEBF0FBECDBFCF91DF910895DF93AA
:1025D000CF93CDB7DEB727970FB6F894DEBF0FBE07
:1025E000CDBF9F838E838E819F81009719F481E0F8
:1025F0008983B2C0EE81FF818581882309F052C0B2
:10260000EE81FF818081982F9770EE81FF8181811B
:10261000282F2770EE81FF818481382F31709770C9
:102620008A81887F892B8A83822F8770982F990FC0
:10263000990F990F8A81877C892B8A838A8180648C
:102640008A83932F9795992797958A818F77892BDE
:102650008A83EE81FF818281982F9770EE81FF81BE
:102660008381282F277097708B81887F892B8B839C
:10267000822F8770982F990F990F990F8B81877CE4
:10268000892B8B838B8180648B838B818F778B836A
:10269000CE0102960E94B40FCE0103960E94B40FA1
:1026A00019825AC0EE81FF818581813009F052C0C4
:1026B000EE81FF818081982F9770EE81FF8181816B
:1026C000282F277097708C81887F892B8C83822F8D
:1026D0008770982F990F990F990F8C81877C892B80
:1026E0008C838C8180648C838C818F778C83EE814A
:1026F000FF818281982F9770EE81FF818381282F3F
:102700002770EE81FF818481382F317097708D8121
:10271000887F892B8D83822F8770982F990F990F2F
:10272000990F8D81877C892B8D838D8180648D832A
:10273000932F9795992797958D818F77892B8D83E7
:10274000CE0104960E94B40FCE0105960E94B40FEC
:10275000198202C081E08983898127960FB6F89497
:10276000DEBF0FBECDBFCF91DF910895DF93CF9332
:10277000CDB7DEB727970FB6F894DEBF0FBECDBF3B
:102780009F838E838E819F81009719F481E08983D6
:10279000B6C0EE81FF818581882309F054C0EE81A7
:1027A000FF818081982F9770EE81FF818181282F92
:1027B0002770EE81FF818481382F317097708A8174
:1027C000887F892B8A83822F8770982F990F990F82
:1027D000990F8A81877C892B8A838A8180648A8386
:1027E000932F9795992797958A818F77892B8A833D
:1027F000EE81FF818281982F9770EE81FF81838126
:10280000282F277097708B81887F892B8B83822F4D
:102810008770982F990F990F990F8B81877C892B3F
:102820008B838B8180648B838B818F778B83CE01AD
:10283000029660E00E94700ECE01039660E00E9456
:10284000700E19825CC0EE81FF818581813009F0B4
:1028500054C0EE81FF818081982F9770EE81FF81B7
:102860008181282F277097708C81887F892B8C839A
:10287000822F8770982F990F990F990F8C81877CE1
:10288000892B8C838C8180648C838C818F778C8363
:10289000EE81FF818281982F9770EE81FF81838185
:1028A000282F2770EE81FF818481382F3170977037
:1028B0008D81887F892B8D83822F8770982F990F28
:1028C000990F990F8D81877C892B8D838D818064F1
:1028D0008D83932F9795992797958D818F77892B46
:1028E0008D83CE01049660E00E94700ECE010596A5
:1028F00060E00E94700E198202C081E089838981A4
:1029000027960FB6F894DEBF0FBECDBFCF91DF91F3
:102910000895DF93CF93CDB7DEB727970FB6F8941E
:10292000DEBF0FBECDBF9F838E838E819F810097B8
:1029300019F481E08983B6C0EE81FF818581882307
:1029400009F054C0EE81FF818081982F9770EE814D
:10295000FF818181282F2770EE81FF818481382FAC
:10296000317097708A81887F892B8A83822F877044
:10297000982F990F990F990F8A81877C892B8A83C9
:102980008A8180648A83932F9795992797958A8166
:102990008F77892B8A83EE81FF818281982F9770B0
:1029A000EE81FF818381282F277097708B81887F2C
:1029B000892B8B83822F8770982F990F990F990FEE
:1029C0008B81877C892B8B838B8180648B838B812C
:1029D0008F778B83CE01029661E00E94700ECE014C
:1029E000039660E00E94700E19825CC0EE81FF8148
:1029F0008581813009F054C0EE81FF818081982F5C
:102A00009770EE81FF818181282F277097708C81CC
:102A1000887F892B8C83822F8770982F990F990F2D
:102A2000990F8C81877C892B8C838C8180648C832B
:102A30008C818F778C83EE81FF818281982F9770B4
:102A4000EE81FF818381282F2770EE81FF818481B1
:102A5000382F317097708D81887F892B8D83822FDD
:102A60008770982F990F990F990F8D81877C892BEB
:102A70008D838D8180648D83932F9795992797956A
:102A80008D818F77892B8D83CE01049660E00E9423
:102A9000700ECE01059661E00E94700E198202C090
:102AA00081E08983898127960FB6F894DEBF0FBE37
:102AB000CDBFCF91DF910895DF93CF93CDB7DEB730
:102AC00028970FB6F894DEBF0FBECDBF9F838E83CD
:102AD00068878E819F81009719F481E08983A6C061
:102AE0008885882309F04EC0EE81FF818081982F70
:102AF0009770EE81FF818181282F2770EE81FF8101
:102B00008481382F317097708A81887F892B8A83DE
:102B1000822F8770982F990F990F990F8A81877C40
:102B2000892B8A838A8180648A83932F979599273A
:102B300097958A818F77892B8A83EE81FF818281A5
:102B4000982F9770EE81FF818381282F27709770CF
:102B50008B81887F892B8B83822F8770982F990F89
:102B6000990F990F8B81877C892B8B838B81806454
:102B70008B838B818F778B83EE81FF818885858323
:102B8000198254C08885813009F04EC0EE81FF81E2
:102B90008081982F9770EE81FF818181282F277087
:102BA00097708C81887F892B8C83822F8770982FD8
:102BB000990F990F990F8C81877C892B8C838C813D
:102BC00080648C838C818F778C83EE81FF818281FE
:102BD000982F9770EE81FF818381282F2770EE81D7
:102BE000FF818481382F317097708D81887F892B88
:102BF0008D83822F8770982F990F990F990F8D8150
:102C0000877C892B8D838D8180648D83932F97950D
:102C1000992797958D818F77892B8D83EE81FF8101
:102C200088858583198202C081E0898389812896FD
:102C30000FB6F894DEBF0FBECDBFCF91DF910895E0
:102C4000DF93CF93CDB7DEB760E875E280E090E028
:102C50000E946F0CCF91DF910895DF93CF930F9275
:102C6000CDB7DEB70E94E20C898389810F90CF91A6
:102C7000DF910895DF93CF930F92CDB7DEB78983AD
:102C800089810E94F10C0F90CF91DF910895DF931D
:102C9000CF9300D0CDB7DEB79A83898389819A819B
:102CA0000E94080D0F900F90CF91DF910895DF9350
:102CB000CF93CDB7DEB70E94201680EF93E00E943D
:102CC0005D1282EF93E00E945D1284EF93E00E9418
:102CD000E7128AEF93E00E94E71280E094E00E94FE
:102CE000E71286E094E00E94E71284EF93E060E050
:102CF0000E945C158AEF93E060E00E945C1580E022
:102D000094E060E00E945C1586E094E060E00E9440
:102D10005C150E94C510CF91DF910895DF93CF938A
:102D200000D0CDB7DEB780911504282F30E03A836C
:102D3000298389819A8181309105D9F129813A814C
:102D4000223031052CF489819A81009761F040C0CE
:102D500029813A812230310589F189819A81833034
:102D6000910589F135C08AE192E00E9447168DE114
:102D700092E00E9447168AE592E00E94471687E794
:102D800092E00E94471680E992E00E9447168AE18D
:102D900092E00E9447160E942D16809315048091A0
:102DA00015040E943A1680911504805380931504EF
:102DB00015C00E9447071092150410C00E94930886
:102DC000109215040BC00E94B7091092150406C09A
:102DD0008EEA92E00E944716109215040F900F9011
:102DE000CF91DF910895DF93CF93CDB7DEB70E94E7
:102DF00057160E948E16FDCF629FD001739FF0017F
:102E0000829FE00DF11D649FE00DF11D929FF00D7A
:102E1000839FF00D749FF00D659FF00D9927729FB1
:102E2000B00DE11DF91F639FB00DE11DF91FBD013C
:102E3000CF0111240895A1E21A2EAA1BBB1BFD018C
:102E40000DC0AA1FBB1FEE1FFF1FA217B307E40789
:102E5000F50720F0A21BB30BE40BF50B661F771FE1
:102E6000881F991F1A9469F76095709580959095C1
:102E70009B01AC01BD01CF0108952F923F924F926B
:102E80005F926F927F928F929F92AF92BF92CF92FA
:102E9000DF92EF92FF920F931F93CF93DF93CDB703
:102EA000DEB7CA1BDB0B0FB6F894DEBF0FBECDBF7B
:102EB00009942A88398848885F846E847D848C844C
:102EC0009B84AA84B984C884DF80EE80FD800C8155
:102ED0001B81AA81B981CE0FD11D0FB6F894DEBF38
:0C2EE0000FBECDBFED010895F894FFCFA8
:102EEC000D0A004E6F7720596F752041726520498D
:102EFC006E204D6F62696C6520436F6E74726F6CDF
:102F0C00204D6F64650D0A0031202D20546F204D2B
:102F1C006F766520466F72776172640D0A003220FD
:102F2C002D20546F204D6F7665204261636B776165
:102F3C0072640D0A0033202D20526F746174652069
:102F4C004C6566740D0A0034202D20526F74617428
:102F5C00652052696768740D0A0035202D20537462
:102F6C006F700D0A0036202D2045786974204D6F46
:102F7C0064650D0A00496E76616C69642043686F64
:102F8C0069636520506C65617365205472792041CA
:102F9C006761696E0D0A004C696E6520466F6C6C3A
:102FAC006F7765722053746172740D0A004C696EF0
:102FBC006520466F6C6C6F77657220526561636833
:102FCC002054686520456E64204F66205468652047
:102FDC004C696E650D0A004E6F7720596F75204154
:102FEC00726520496E205468652041766F696420B3
:102FFC004F62737461636C6573204D6F64650D0A69
:10300C0000506C656173652043686F6F7365204376
:10301C0061722044656661756C74204469726563E5
:10302C0074696F6E20496E20526F746174696F6E93
:10303C000D0A0030202D2052696768740D0A00318A
:10304C00202D204C6566740D0A000D0A00496E7621
:10305C00616C69642043686F69636520506C6561BD
:10306C0073652054727920416761696E0D0A004EB8
:10307C004F20506F737369626C65205061746820C7
:10308C00466F722054686520526F626F74204578C9
:10309C0069742E2E2E2E2E0D0A000D0A0048656C1A
:1030AC006C6F204920616D20596F75722034574424
:1030BC0020526F626F742043617220506C65617393
:1030CC00652043686F6F7365204F7065726174691A
:1030DC006F6E204D6F64650D0A0031202D204D6FF1
:1030EC0062696C6520436F6E74726F6C6C657220D4
:1030FC004D6F64650D0A0032202D204C696E6520E1
:10310C00466F6C6C6F776572204D6F64650D0A00AD
:10311C0033202D2041766F6964696E67204F62738E
:10312C007461636C6573204D6F64650D0A00496EA4
:10313C0076616C69642043686F69636520506C65C7
:10314C006173652054727920416761696E0D0A00C4
:10315C000000000000000000000102020303030352
:10316C00040404040404040405050505050505050B
:10317C0005050505050505050606060606060606EB
:10318C0006060606060606060606060606060606D3
:10319C0006060606060606060707070707070707BB
:1031AC0007070707070707070707070707070707A3
:1031BC000707070707070707070707070707070793
:1031CC000707070707070707070707070707070783
:1031DC00070707070707070708080808080808086B
:1031EC000808080808080808080808080808080853
:1031FC000808080808080808080808080808080843
:10320C000808080808080808080808080808080832
:10321C000808080808080808080808080808080822
:10322C000808080808080808080808080808080812
:10323C000808080808080808080808080808080802
:10324C0008080808080808080808080808080808F2
:10325C0008080808080808083A003700340031004C
:10326C003B003800350032003900360033003000A6
:10327C000002010200000001000000020003000037
:10328C000004000500000006000700004048500044
:02329C00000030
:00000001FF
