:020000040800F2
:100000000000012025120008751200087512000872
:100010007512000875120008751200080000000033
:100020000000000000000000000000007512000841
:10003000751200080000000075120008B90E0008D3
:100040000000000075120008751200087512000803
:1000500075120008751200085D0B00087512000883
:100060007512000875120008751200087512000854
:100070007512000875120008751200087512000844
:1000800075120008751200087512000800000000C3
:1000900000000000000000000000000075120008D1
:1000A0007512000875120008751200087512000814
:1000B0007512000875120008751200087512000804
:1000C00075120008751200087512000875120008F4
:1000D0007512000875120008751200080000000073
:1000E0007512000875120008751200080000000063
:1000F0000000000000000000000000007512000871
:100100000000000075120008751200087512000842
:1001100000000000000000000000000000000000DF
:100120003D0B0008751200087512000875120008D2
:100130007512000800000000000000000000000030
:100140000000000000000000000000007512000820
:100150007512000875120008751200087512000863
:100160007512000875120008000000000000000071
:10017000000000000000000000000000000000007F
:10018000000000000000000000000000000000006F
:0401900075120008DC
:1001980010B5054C237833B9044B13B10448AFF3B9
:1001A80000800123237010BD0C0000200000000017
:1001B800C012000808B5034B1BB103490348AFF34D
:1001C800008008BD0000000010000020C0120008D8
:1001D80081F0004102E000BF83F0004330B54FEAF0
:1001E80041044FEA430594EA050F08BF90EA020F5D
:1001F8001FBF54EA000C55EA020C7FEA645C7FEAF0
:10020800655C00F0E2804FEA5454D4EB5555B8BF12
:100218006D420CDD2C4480EA020281EA030382EA83
:10022800000083EA010180EA020281EA0303362D15
:1002380088BF30BD11F0004F4FEA01314FF4801CE8
:100248004CEA113102D0404261EB410113F0004FFA
:100258004FEA03334CEA133302D0524263EB4303B1
:1002680094EA050F00F0A780A4F10104D5F1200E4F
:100278000DDB02FA0EFC22FA05F2801841F10001AA
:1002880003FA0EF2801843FA05F359410EE0A5F17E
:1002980020050EF1200E012A03FA0EFC28BF4CF0AF
:1002A800020C43FA05F3C01851EBE37101F0004565
:1002B80007D54FF0000EDCF1000C7EEB00006EEB72
:1002C8000101B1F5801F1BD3B1F5001F0CD34908FC
:1002D8005FEA30004FEA3C0C04F101044FEA445253
:1002E80012F5800F80F09A80BCF1004F08BF5FEADA
:1002F800500C50F1000041EB045141EA050130BDBA
:100308005FEA4C0C404141EB0101013C28BFB1F5CB
:10031800801FE9D291F0000F04BF01460020B1FA16
:1003280081F308BF2033A3F10B03B3F120020CDAE9
:100338000C3208DD02F1140CC2F10C0201FA0CF0C7
:1003480021FA02F10CE002F11402D8BFC2F1200C2C
:1003580001FA02F120FA0CFCDCBF41EA0C019040E2
:10036800E41AA2BF01EB0451294330BD6FEA04042B
:100378001F3C1CDA0C340EDC04F11404C4F1200216
:1003880020FA04F001FA02F340EA030021FA04F328
:1003980045EA030130BDC4F10C04C4F1200220FA7F
:1003A80002F001FA04F340EA0300294630BD21FABD
:1003B80004F0294630BD94F0000F83F4801306BF83
:1003C80081F480110134013D4EE77FEA645C18BF77
:1003D8007FEA655C29D094EA050F08BF90EA020F0E
:1003E80005D054EA000C04BF1946104630BD91EA06
:1003F800030F1EBF0021002030BD5FEA545C05D109
:100408004000494128BF41F0004130BD14F5800447
:100418003CBF01F5801130BD01F0004545F0FE41BB
:1004280041F470014FF0000030BD7FEA645C1ABFF0
:10043800194610467FEA655C1CBF0B46024650EA27
:10044800013406BF52EA033591EA030F41F4002153
:1004580030BD00BF90F0000F04BF0021704730B5D9
:100468004FF4806404F132044FF000054FF00001AE
:1004780050E700BF90F0000F04BF0021704730B56F
:100488004FF4806404F1320410F0004548BF404244
:100498004FF000013EE700BF42004FEAE2014FEA99
:1004A80031014FEA02701FBF12F07F4393F07F4F74
:1004B80081F06051704732F07F4208BF704793F077
:1004C8007F4F04BF41F40021704730B54FF460748A
:1004D80001F0004521F000411CE700BF50EA01028D
:1004E80008BF704730B54FF000050AE050EA010236
:1004F80008BF704730B511F0004502D5404261EBA6
:1005080041014FF4806404F132045FEA915C3FF4E6
:10051800D8AE4FF003025FEADC0C18BF03325FEA83
:10052800DC0C18BF033202EBDC02C2F1200300FA34
:1005380003FC20FA02F001FA03FE40EA0E0021FA59
:1005480002F11444BDE600BF70B54FF0FF0C4CF447
:10055800E06C1CEA11541DBF1CEA135594EA0C0FF9
:1005680095EA0C0F00F0DEF82C4481EA030621EA34
:100578004C5123EA4C5350EA013518BF52EA03356F
:1005880041F4801143F4801338D0A0FB02CE4FF021
:100598000005E1FB02E506F00042E0FB03E54FF051
:1005A8000006E1FB03569CF0000F18BF4EF0010E49
:1005B800A4F1FF04B6F5007F64F5407404D25FEA45
:1005C8004E0E6D4146EB060642EAC62141EA5551F8
:1005D8004FEAC52040EA5E504FEACE2EB4F1FD0C3A
:1005E80088BFBCF5E06F1ED8BEF1004F08BF5FEAB8
:1005F800500E50F1000041EB045170BD06F000466A
:1006080046EA010140EA020081EA0301B4EB5C0416
:10061800C2BFD4EB0C0541EA045170BD41F480110E
:100628004FF0000E013C00F3AB8014F1360FDEBF33
:10063800002001F0004170BDC4F10004203C35DA0F
:100648000C341BDC04F11404C4F1200500FA05F392
:1006580020FA04F001FA05F240EA020001F0004233
:1006680021F0004110EBD37021FA04F642EB0601A9
:100678005EEA430E08BF20EAD37070BDC4F10C04D3
:10068800C4F1200500FA04F320FA05F001FA04F297
:1006980040EA020001F0004110EBD37041F1000183
:1006A8005EEA430E08BF20EAD37070BDC4F120058E
:1006B80000FA05F24EEA020E20FA04F301FA05F2F6
:1006C80043EA020321FA04F001F0004121FA04F29E
:1006D80020EA020000EBD3705EEA430E08BF20EA6E
:1006E800D37070BD94F0000F0FD101F000464000A8
:1006F80041EB010111F4801F08BF013CF7D041EA2A
:10070800060195F0000F18BF704703F0004652002D
:1007180043EB030313F4801F08BF013DF7D043EAFE
:100728000603704794EA0C0F0CEA135518BF95EAB4
:100738000C0F0CD050EA410618BF52EA4306D1D13B
:1007480081EA030101F000414FF0000070BD50EA5A
:10075800410606BF1046194652EA430619D094EAE4
:100768000C0F02D150EA013613D195EA0C0F05D1CE
:1007780052EA03361CBF104619460AD181EA030122
:1007880001F0004141F0FE4141F470014FF00000DA
:1007980070BD41F0FE4141F4780170BD70B54FF075
:1007A800FF0C4CF4E06C1CEA11541DBF1CEA1355F5
:1007B80094EA0C0F95EA0C0F00F0A7F8A4EB0504D7
:1007C80081EA030E52EA03354FEA013100F08880CE
:1007D8004FEA03334FF0805545EA131343EA126397
:1007E8004FEA022245EA111545EA10654FEA00264C
:1007F8000EF000419D4208BF964244F1FD0404F505
:10080800407402D25B084FEA3202B61A65EB030560
:100818005B084FEA32024FF480104FF4002CB6EB1D
:10082800020E75EB030E22BFB61A754640EA0C009D
:100838005B084FEA3202B6EB020E75EB030E22BFDD
:10084800B61A754640EA5C005B084FEA3202B6EB1E
:10085800020E75EB030E22BFB61A754640EA9C00DD
:100868005B084FEA3202B6EB020E75EB030E22BFAD
:10087800B61A754640EADC0055EA060E18D04FEA6B
:10088800051545EA16754FEA06164FEAC30343EA0B
:1008980052734FEAC2025FEA1C1CC0D111F4801FD8
:1008A8000BD141EA00014FF000004FF0004CB6E7D1
:1008B80011F4801F04BF01430020B4F1FD0C88BF70
:1008C800BCF5E06F3FF6AFAEB5EB030C04BFB6EB7B
:1008D800020C5FEA500C50F1000041EB045170BD6E
:1008E8000EF0004E4EEA113114EB5C04C2BFD4EB9B
:1008F8000C0541EA045170BD41F480114FF0000E1F
:10090800013C90E645EA060E8DE60CEA135594EA9A
:100918000C0F08BF95EA0C0F3FF43BAF94EA0C0F9D
:100928000AD150EA01347FF434AF95EA0C0F7FF412
:1009380025AF104619462CE795EA0C0F06D152EA66
:1009480003353FF4FDAE1046194622E750EA41064A
:1009580018BF52EA43067FF4C5AE50EA41047FF45B
:100968000DAF52EA43057FF4EBAE12E74FF0FF3CC0
:1009780006E000BF4FF0010C02E000BF4FF0010C91
:100988004DF804CD4FEA410C7FEA6C5C4FEA430C0A
:1009980018BF7FEA6C5C1BD001B050EA410C0CBF59
:1009A80052EA430C91EA030F02BF90EA020F0020BB
:1009B800704710F1000F91EA030F58BF994208BF22
:1009C80090422CBFD8176FEAE37040F001007047DF
:1009D8004FEA410C7FEA6C5C02D150EA013C07D136
:1009E8004FEA430C7FEA6C5CD6D152EA033CD3D081
:1009F8005DF8040B704700BF8446104662468C467B
:100A08001946634600E000BF01B5FFF7B7FF0028AD
:100A180048BF10F1000F01BD4DF808EDFFF7F4FFD6
:100A28000CBF012000205DF808FB00BF4DF808ED61
:100A3800FFF7EAFF34BF012000205DF808FB00BF84
:100A48004DF808EDFFF7E0FF94BF012000205DF8A6
:100A580008FB00BF4DF808EDFFF7CEFF94BF01205B
:100A680000205DF808FB00BF4DF808EDFFF7C4FF54
:100A780034BF012000205DF808FB00BF4FEA4102A7
:100A880012F5001215D211D56FF47873B3EB6252D8
:100A980012D94FEAC12343F0004343EA505311F0FF
:100AA800004F23FA02F018BF404270474FF0000091
:100AB800704750EA013005D111F0004008BF6FF0CF
:100AC800004070474FF00000704700BF4A0011D245
:100AD80012F5001211D20DD56FF47873B3EB625290
:100AE8000ED44FEAC12343F0004343EA505323FA9C
:100AF80002F070474FF00000704750EA013002D111
:100B08004FF0FF3070474FF00000704780B483B05B
:100B180000AF0346FB71064B9B68054A43F03D0353
:100B2800936000BF18460C37BD465DF8047B7047DC
:100B38000064024080B500AF054B1B68002B02D053
:100B4800034B1B6898470020FFF7E0FF00BF80BDFC
:100B58002800002080B500AF074B1B68002B08D089
:100B6800054B1B689847054B5B69044A43F0010332
:100B7800536100BF80BD00BF2C000020003C014035
:100B880080B485B000AF0346FB710B46BB711346BA
:100B98007B710123FB73FB79052B73D8BB790F2B72
:100BA80070D87B79002B6DD07B79032B6AD8FB79C1
:100BB800052B63D801A252F823F000BFDD0B000813
:100BC800F90B0008150C0008310C00084D0C000842
:100BD800690C0008304B1B687979BA79520001FA20
:100BE80002F211462C4A0B4313600023FB7348E0C2
:100BF8002A4B1B687979BA79520001FA02F2114638
:100C0800264A0B4313600023FB733AE0244B1B680E
:100C18007979BA79520001FA02F21146204A0B4357
:100C280013600023FB732CE01E4B1B687979BA799B
:100C3800520001FA02F211461A4A0B4313600023CC
:100C4800FB731EE0184B1B687979BA79520001FAD8
:100C580002F21146144A0B4313600023FB7310E0A1
:100C6800124B1B687979BA79520001FA02F21146DF
:100C78000E4A0B4313600023FB7302E00223FB734D
:100C880000BF01E00223FB73FB7B18461437BD4607
:100C98005DF8047B704700BF00000240000402407A
:100CA80000080240000C024000100240001C0240F4
:100CB80080B483B000AF0346FB710B46BB7113468B
:100CC8007B71BB79072B2DD8FB79022B1ED0022B09
:100CD80059DC002B02D0012B0CD054E02D4B1B6AA1
:100CE8007979BA79920001FA02F21146294A0B433E
:100CF800136248E0284B1B6A7979BA79920001FAA5
:100D080002F21146244A0B4313623CE0234B1B6A50
:100D18007979BA79920001FA02F211461F4A0B4317
:100D2800136230E0BB790F2B2DD8FB79022B1ED034
:100D3800022B28DC002B02D0012B0CD023E0154B12
:100D48005B6A7979BA79920001FA02F21146114A7E
:100D58000B43536217E0104B5B6A7979BA799200BA
:100D680001FA02F211460C4A0B4353620BE00B4B9B
:100D78005B6A7979BA79920001FA02F21146074A58
:100D88000B43536200BF00BF18460C37BD465DF8E1
:100D9800047B704700000240000402400008024043
:100DA80080B483B000AF0123FB710F4B9B680E4AE0
:100DB80023F0030393600C4B1B680B4A43F00103B9
:100DC80013600023FB71084B9B6823F47C4323F0DA
:100DD800F003054A43F080039360FB7918460C370B
:100DE800BD465DF8047B70470038024080B485B08A
:100DF80000AF03460A46FB711346BB710123FB7320
:100E0800FB79042B48D8BB791F2B45D8FB79032BDA
:100E18003ED801A252F823F0310E00084B0E00080C
:100E2800650E00087F0E0008204B1B6BBA79012164
:100E380001FA02F211461D4A0B4313630023FB73A8
:100E480029E01A4B5B6BBA79012101FA02F21146CB
:100E5800164A0B4353630023FB731CE0134B1B6CB4
:100E6800BA79012101FA02F21146104A0B431364C0
:100E78000023FB730FE00D4B5B6CBA79012101FA7B
:100E880002F21146094A0B4353640023FB7302E044
:100E98000323FB7302E001E00323FB73FB7B18468B
:100EA8001437BD465DF8047B704700BF0038024028
:100EB80080B582B000AF194B1B68002B2AD00023E5
:100EC800FB71174B1B78002B16D1164B1B681B0C9C
:100ED800DBB203F00103FB71104B1B689847114B01
:100EE8001B68104A23F0010313600E4B00225A605E
:100EF8000C4B00229A600DE0094B1B78012B09D19D
:100F0800084B1B681B0CDBB203F00103FB71034B9E
:100F18001B68984700BF0837BD4680BD8400002085
:100F28008800002010E000E090B589B000AF78603C
:100F38000023FB77022206210120FFF721FE02226F
:100F480007210120FFF71CFE072206210120FFF7D9
:100F5800AFFE072207210120FFF7AAFE7B68002BBE
:100F680000F0A9807B685B78C3F102031A467B68AE
:100F78005B6802FB03F3DB001846FFF76BFA0246D7
:100F88000B4654A1D1E90001FFF708FC02460B46C5
:100F9800C7E90223D7E90201FFF770FD03461846A7
:100FA800FFF768FA02460B46D7E90201FFF714F982
:100FB80002460B46C7E904234FF000024FF0000336
:100FC800D7E90401FFF750FD0346002B3CD04FF052
:100FD80000023D4BD7E90401FFF7B6FA02460B467B
:100FE800C7E90423D7E90401FFF748FD034618467B
:100FF800FFF740FA02460B46D7E90401FFF7ECF881
:1010080002460B46104619464FF000022F4BFFF7D9
:1010180021FD0346002B0BD0D7E90401FFF72EFD75
:10102800034601331846FFF725FA02460B4609E046
:10103800D7E90401FFF722FD03461846FFF71AFA1D
:1010480002460B46C7E904237B681B78002B34D182
:101058001F4CD7E90401FFF739FD0346A3601C4B79
:101068009C68D7E90201FFF709FD03461B01184AEE
:1010780023439360164B1B697B68DB7A1A03144B76
:101088001A61134B00225A61114BDB687B685B784D
:10109800DB031A467B681B7A1B0313437A68527A70
:1010A800920213437A68927A52021343084A43F42D
:1010B8000053D36001E00323FB77FB7F18462437F6
:1010C800BD4690BDAFF30080000030400000E03F17
:1010D800001001400000000080846E4180B483B09D
:1010E80000AF03460A46FB711346BB71FB79002B20
:1010F8000BD1094BDA6840F6F3731340BA799200C2
:101108001146054A0B43D36000BF00BF18460C3791
:10111800BD465DF8047B70470010014080B483B081
:1011280000AF786000BF114B1B6803F08003002BF1
:10113800F9D00E4B1B680D4A23F0800313600B4A4D
:101148007B68536000BF094B1B6803F04003002B0A
:10115800F9D0064B1B68054A23F04003136000BF13
:1011680018460C37BD465DF8047B704700100140F7
:1011780080B485B000AF78600023FB7300BF0A4BD2
:101188001B6803F02003002BF9D0074B5B68DAB229
:101198007B681A700123FB73FB7B18461437BD4626
:1011A8005DF8047B704700BF0010014080B582B035
:1011B80000AFFFF7F5FD01210020FFF717FE04211E
:1011C8000320FFF713FE1448FFF7AEFE03210020AB
:1011D800FFF784FF2323FB717320FFF79FFF68202D
:1011E800FFF79CFF6520FFF799FF7220FFF796FF36
:1011F8006920FFF793FF6620FFF790FFFB1D184655
:10120800FFF7B6FFFB79232BF8D0FB1D1846FFF735
:1012180085FF2323FB71F1E7000000200D48854678
:10122800AFF300800C480D490D4A002302E0D45862
:10123800C4500433C4188C42F9D30A4A0A4C002318
:1012480001E013600432A242FBD300F011F8FFF76B
:10125800ADFFFEE700000120000000200C00002088
:10126800E01200080C0000208C000020FEE70000BF
:1012780070B50D4D0D4C641BA4100026A64209D173
:101288000B4D0C4C00F018F8641BA4100026A64265
:1012980005D170BD55F8043B98470136EEE755F87F
:1012A800043B98470136F2E7D8120008D812000824
:1012B800D8120008DC120008F8B500BFF8BC08BC5A
:1012C8009E467047F8B500BFF8BC08BC9E467047FC
:0412D800BD0100084C
:0412DC00990100086C
:0C12E0000001000080250000000000005C
:0400000508001225B8
:00000001FF
